{
  "contractName": "Eth2ChainRelay_512_NoStorage",
  "abi": [
    {
      "inputs": [
        {
          "internalType": "uint64",
          "name": "_signatureThreshold",
          "type": "uint64"
        },
        {
          "internalType": "uint64",
          "name": "_trustingPeriod",
          "type": "uint64"
        },
        {
          "internalType": "bytes32",
          "name": "_finalizedBlockRoot",
          "type": "bytes32"
        },
        {
          "internalType": "bytes32",
          "name": "_finalizedStateRoot",
          "type": "bytes32"
        },
        {
          "internalType": "uint64",
          "name": "_finalizedSlot",
          "type": "uint64"
        },
        {
          "internalType": "uint64",
          "name": "_latestSlot",
          "type": "uint64"
        },
        {
          "internalType": "uint64",
          "name": "_latestSlotWithValidatorSetChange",
          "type": "uint64"
        }
      ],
      "stateMutability": "nonpayable",
      "type": "constructor"
    },
    {
      "inputs": [],
      "name": "getLatestSlotWithValidatorSetChange",
      "outputs": [
        {
          "internalType": "uint64",
          "name": "",
          "type": "uint64"
        }
      ],
      "stateMutability": "view",
      "type": "function"
    },
    {
      "inputs": [],
      "name": "getFinalizedBlockRoot",
      "outputs": [
        {
          "internalType": "bytes32",
          "name": "",
          "type": "bytes32"
        }
      ],
      "stateMutability": "view",
      "type": "function"
    },
    {
      "inputs": [],
      "name": "getFinalizedStateRoot",
      "outputs": [
        {
          "internalType": "bytes32",
          "name": "",
          "type": "bytes32"
        }
      ],
      "stateMutability": "view",
      "type": "function"
    },
    {
      "inputs": [
        {
          "internalType": "bytes32",
          "name": "message",
          "type": "bytes32"
        },
        {
          "internalType": "bytes",
          "name": "signature",
          "type": "bytes"
        },
        {
          "internalType": "bytes[]",
          "name": "pubkeys",
          "type": "bytes[]"
        }
      ],
      "name": "testEncoding",
      "outputs": [
        {
          "internalType": "bytes",
          "name": "",
          "type": "bytes"
        }
      ],
      "stateMutability": "view",
      "type": "function"
    },
    {
      "inputs": [
        {
          "internalType": "bytes[512]",
          "name": "committee",
          "type": "bytes[512]"
        },
        {
          "internalType": "bytes",
          "name": "aggregate",
          "type": "bytes"
        }
      ],
      "name": "testJustStoreSyncCommittee",
      "outputs": [],
      "stateMutability": "nonpayable",
      "type": "function"
    },
    {
      "inputs": [
        {
          "internalType": "bytes[512]",
          "name": "committee",
          "type": "bytes[512]"
        },
        {
          "internalType": "bytes",
          "name": "aggregate",
          "type": "bytes"
        }
      ],
      "name": "testJustDoSyncCommitteeMerkleizationFromMemory",
      "outputs": [
        {
          "internalType": "bytes32",
          "name": "",
          "type": "bytes32"
        }
      ],
      "stateMutability": "nonpayable",
      "type": "function"
    },
    {
      "inputs": [],
      "name": "testJustDoSyncCommitteeMerkleizationFromStorage",
      "outputs": [
        {
          "internalType": "bytes32",
          "name": "",
          "type": "bytes32"
        }
      ],
      "stateMutability": "nonpayable",
      "type": "function"
    },
    {
      "inputs": [],
      "name": "testJustReadSyncCommitteeFromStorage",
      "outputs": [
        {
          "internalType": "bytes[512]",
          "name": "",
          "type": "bytes[512]"
        }
      ],
      "stateMutability": "nonpayable",
      "type": "function"
    },
    {
      "inputs": [
        {
          "internalType": "bytes[512]",
          "name": "",
          "type": "bytes[512]"
        }
      ],
      "name": "testJustSubmitSyncCommitteeViaMemory",
      "outputs": [
        {
          "internalType": "bool",
          "name": "",
          "type": "bool"
        }
      ],
      "stateMutability": "nonpayable",
      "type": "function"
    },
    {
      "inputs": [
        {
          "internalType": "bytes[512]",
          "name": "",
          "type": "bytes[512]"
        }
      ],
      "name": "testJustSubmitSyncCommitteeViaCalldata",
      "outputs": [
        {
          "internalType": "bool",
          "name": "",
          "type": "bool"
        }
      ],
      "stateMutability": "nonpayable",
      "type": "function"
    },
    {
      "inputs": [
        {
          "components": [
            {
              "internalType": "bytes",
              "name": "signature",
              "type": "bytes"
            },
            {
              "internalType": "bool[512]",
              "name": "participants",
              "type": "bool[512]"
            },
            {
              "internalType": "bytes32",
              "name": "latestBlockRoot",
              "type": "bytes32"
            },
            {
              "internalType": "bytes32",
              "name": "signingDomain",
              "type": "bytes32"
            },
            {
              "internalType": "bytes32",
              "name": "stateRoot",
              "type": "bytes32"
            },
            {
              "internalType": "bytes32[]",
              "name": "stateRootBranch",
              "type": "bytes32[]"
            },
            {
              "internalType": "uint64",
              "name": "latestSlot",
              "type": "uint64"
            },
            {
              "internalType": "bytes32[]",
              "name": "latestSlotBranch",
              "type": "bytes32[]"
            },
            {
              "internalType": "bytes32",
              "name": "finalizedBlockRoot",
              "type": "bytes32"
            },
            {
              "internalType": "bytes32[]",
              "name": "finalizingBranch",
              "type": "bytes32[]"
            },
            {
              "internalType": "uint64",
              "name": "finalizedSlot",
              "type": "uint64"
            },
            {
              "internalType": "bytes32[]",
              "name": "finalizedSlotBranch",
              "type": "bytes32[]"
            },
            {
              "internalType": "bytes32",
              "name": "finalizedStateRoot",
              "type": "bytes32"
            },
            {
              "internalType": "bytes32[]",
              "name": "finalizedStateRootBranch",
              "type": "bytes32[]"
            },
            {
              "internalType": "bytes[512]",
              "name": "syncCommittee",
              "type": "bytes[512]"
            },
            {
              "internalType": "bytes",
              "name": "syncCommitteeAggregate",
              "type": "bytes"
            },
            {
              "internalType": "bytes32[]",
              "name": "syncCommitteeBranch",
              "type": "bytes32[]"
            }
          ],
          "internalType": "struct ChainRelayUpdate",
          "name": "_chainRelayUpdate",
          "type": "tuple"
        }
      ],
      "name": "testDoNothingWithData",
      "outputs": [
        {
          "internalType": "bool",
          "name": "",
          "type": "bool"
        }
      ],
      "stateMutability": "nonpayable",
      "type": "function"
    },
    {
      "inputs": [
        {
          "components": [
            {
              "internalType": "bytes",
              "name": "signature",
              "type": "bytes"
            },
            {
              "internalType": "bool[512]",
              "name": "participants",
              "type": "bool[512]"
            },
            {
              "internalType": "bytes32",
              "name": "latestBlockRoot",
              "type": "bytes32"
            },
            {
              "internalType": "bytes32",
              "name": "signingDomain",
              "type": "bytes32"
            },
            {
              "internalType": "bytes32",
              "name": "stateRoot",
              "type": "bytes32"
            },
            {
              "internalType": "bytes32[]",
              "name": "stateRootBranch",
              "type": "bytes32[]"
            },
            {
              "internalType": "uint64",
              "name": "latestSlot",
              "type": "uint64"
            },
            {
              "internalType": "bytes32[]",
              "name": "latestSlotBranch",
              "type": "bytes32[]"
            },
            {
              "internalType": "bytes32",
              "name": "finalizedBlockRoot",
              "type": "bytes32"
            },
            {
              "internalType": "bytes32[]",
              "name": "finalizingBranch",
              "type": "bytes32[]"
            },
            {
              "internalType": "uint64",
              "name": "finalizedSlot",
              "type": "uint64"
            },
            {
              "internalType": "bytes32[]",
              "name": "finalizedSlotBranch",
              "type": "bytes32[]"
            },
            {
              "internalType": "bytes32",
              "name": "finalizedStateRoot",
              "type": "bytes32"
            },
            {
              "internalType": "bytes32[]",
              "name": "finalizedStateRootBranch",
              "type": "bytes32[]"
            },
            {
              "internalType": "bytes[512]",
              "name": "syncCommittee",
              "type": "bytes[512]"
            },
            {
              "internalType": "bytes",
              "name": "syncCommitteeAggregate",
              "type": "bytes"
            },
            {
              "internalType": "bytes32[]",
              "name": "syncCommitteeBranch",
              "type": "bytes32[]"
            }
          ],
          "internalType": "struct ChainRelayUpdate",
          "name": "_chainRelayUpdate",
          "type": "tuple"
        }
      ],
      "name": "submitUpdate",
      "outputs": [
        {
          "internalType": "bool",
          "name": "",
          "type": "bool"
        }
      ],
      "stateMutability": "nonpayable",
      "type": "function"
    },
    {
      "inputs": [
        {
          "internalType": "bytes[512]",
          "name": "_pubkeys",
          "type": "bytes[512]"
        },
        {
          "internalType": "bool[512]",
          "name": "_isActive",
          "type": "bool[512]"
        },
        {
          "internalType": "uint256",
          "name": "_numberOfActive",
          "type": "uint256"
        }
      ],
      "name": "getActiveValidators",
      "outputs": [
        {
          "internalType": "bytes[]",
          "name": "",
          "type": "bytes[]"
        }
      ],
      "stateMutability": "pure",
      "type": "function"
    },
    {
      "inputs": [
        {
          "internalType": "bool[512]",
          "name": "_bools",
          "type": "bool[512]"
        }
      ],
      "name": "countTrueBools",
      "outputs": [
        {
          "internalType": "uint256",
          "name": "",
          "type": "uint256"
        }
      ],
      "stateMutability": "pure",
      "type": "function"
    },
    {
      "inputs": [
        {
          "internalType": "bytes32",
          "name": "_message",
          "type": "bytes32"
        },
        {
          "internalType": "bytes",
          "name": "_signature",
          "type": "bytes"
        },
        {
          "internalType": "bytes[]",
          "name": "_pubkeys",
          "type": "bytes[]"
        }
      ],
      "name": "serializeAggregateSignature",
      "outputs": [
        {
          "internalType": "bytes",
          "name": "",
          "type": "bytes"
        }
      ],
      "stateMutability": "pure",
      "type": "function"
    },
    {
      "inputs": [
        {
          "internalType": "bytes",
          "name": "_input",
          "type": "bytes"
        }
      ],
      "name": "fastAggregateVerify",
      "outputs": [
        {
          "internalType": "bool",
          "name": "o",
          "type": "bool"
        }
      ],
      "stateMutability": "view",
      "type": "function"
    },
    {
      "inputs": [
        {
          "internalType": "uint256",
          "name": "_slot",
          "type": "uint256"
        }
      ],
      "name": "slotToUnixTimestamp",
      "outputs": [
        {
          "internalType": "uint256",
          "name": "timestamp",
          "type": "uint256"
        }
      ],
      "stateMutability": "pure",
      "type": "function"
    },
    {
      "inputs": [
        {
          "internalType": "bytes32",
          "name": "_input",
          "type": "bytes32"
        }
      ],
      "name": "bytes32ToBytes",
      "outputs": [
        {
          "internalType": "bytes",
          "name": "output",
          "type": "bytes"
        }
      ],
      "stateMutability": "pure",
      "type": "function"
    },
    {
      "inputs": [
        {
          "internalType": "bytes2",
          "name": "_input",
          "type": "bytes2"
        }
      ],
      "name": "bytes2ToBytes",
      "outputs": [
        {
          "internalType": "bytes",
          "name": "output",
          "type": "bytes"
        }
      ],
      "stateMutability": "pure",
      "type": "function"
    },
    {
      "inputs": [
        {
          "internalType": "bytes32",
          "name": "_left",
          "type": "bytes32"
        },
        {
          "internalType": "bytes32",
          "name": "_right",
          "type": "bytes32"
        }
      ],
      "name": "concat",
      "outputs": [
        {
          "internalType": "bytes",
          "name": "",
          "type": "bytes"
        }
      ],
      "stateMutability": "pure",
      "type": "function"
    },
    {
      "inputs": [
        {
          "internalType": "bytes32",
          "name": "_left",
          "type": "bytes32"
        },
        {
          "internalType": "bytes32",
          "name": "_right",
          "type": "bytes32"
        }
      ],
      "name": "hashTreeRootPair",
      "outputs": [
        {
          "internalType": "bytes32",
          "name": "",
          "type": "bytes32"
        }
      ],
      "stateMutability": "pure",
      "type": "function"
    },
    {
      "inputs": [
        {
          "internalType": "bytes",
          "name": "_blspubkey",
          "type": "bytes"
        }
      ],
      "name": "hashTreeRootBlspubkey",
      "outputs": [
        {
          "internalType": "bytes32",
          "name": "",
          "type": "bytes32"
        }
      ],
      "stateMutability": "pure",
      "type": "function"
    },
    {
      "inputs": [
        {
          "internalType": "bytes32",
          "name": "_blockRoot",
          "type": "bytes32"
        },
        {
          "internalType": "bytes32",
          "name": "_signingDomain",
          "type": "bytes32"
        }
      ],
      "name": "computeSigningRoot",
      "outputs": [
        {
          "internalType": "bytes32",
          "name": "",
          "type": "bytes32"
        }
      ],
      "stateMutability": "pure",
      "type": "function"
    },
    {
      "inputs": [
        {
          "internalType": "bytes",
          "name": "_input",
          "type": "bytes"
        }
      ],
      "name": "bytesToBytes8",
      "outputs": [
        {
          "internalType": "bytes8",
          "name": "result",
          "type": "bytes8"
        }
      ],
      "stateMutability": "pure",
      "type": "function"
    },
    {
      "inputs": [
        {
          "internalType": "bytes",
          "name": "_input",
          "type": "bytes"
        }
      ],
      "name": "bytesToBytes32",
      "outputs": [
        {
          "internalType": "bytes32",
          "name": "result",
          "type": "bytes32"
        }
      ],
      "stateMutability": "pure",
      "type": "function"
    },
    {
      "inputs": [
        {
          "internalType": "bytes8",
          "name": "_input",
          "type": "bytes8"
        }
      ],
      "name": "revertBytes8",
      "outputs": [
        {
          "internalType": "bytes8",
          "name": "",
          "type": "bytes8"
        }
      ],
      "stateMutability": "pure",
      "type": "function"
    },
    {
      "inputs": [
        {
          "internalType": "uint64",
          "name": "_input",
          "type": "uint64"
        }
      ],
      "name": "merklelizeSlot",
      "outputs": [
        {
          "internalType": "bytes32",
          "name": "",
          "type": "bytes32"
        }
      ],
      "stateMutability": "pure",
      "type": "function"
    },
    {
      "inputs": [
        {
          "internalType": "uint256",
          "name": "_input",
          "type": "uint256"
        }
      ],
      "name": "bitLength",
      "outputs": [
        {
          "internalType": "uint256",
          "name": "",
          "type": "uint256"
        }
      ],
      "stateMutability": "pure",
      "type": "function"
    },
    {
      "inputs": [
        {
          "internalType": "uint256",
          "name": "_input",
          "type": "uint256"
        }
      ],
      "name": "nextPowOfTwo",
      "outputs": [
        {
          "internalType": "uint256",
          "name": "",
          "type": "uint256"
        }
      ],
      "stateMutability": "pure",
      "type": "function"
    },
    {
      "inputs": [
        {
          "internalType": "uint256",
          "name": "_input",
          "type": "uint256"
        }
      ],
      "name": "floorLog2",
      "outputs": [
        {
          "internalType": "uint256",
          "name": "",
          "type": "uint256"
        }
      ],
      "stateMutability": "pure",
      "type": "function"
    },
    {
      "inputs": [
        {
          "internalType": "bytes32[512]",
          "name": "_chunks",
          "type": "bytes32[512]"
        }
      ],
      "name": "merkleize",
      "outputs": [
        {
          "internalType": "bytes32",
          "name": "",
          "type": "bytes32"
        }
      ],
      "stateMutability": "pure",
      "type": "function"
    },
    {
      "inputs": [
        {
          "internalType": "bytes[512]",
          "name": "_syncCommittee",
          "type": "bytes[512]"
        },
        {
          "internalType": "bytes",
          "name": "_syncAggregate",
          "type": "bytes"
        }
      ],
      "name": "hashTreeRootSyncCommittee",
      "outputs": [
        {
          "internalType": "bytes32",
          "name": "",
          "type": "bytes32"
        }
      ],
      "stateMutability": "pure",
      "type": "function"
    },
    {
      "inputs": [
        {
          "internalType": "uint256",
          "name": "_generalizedIndex",
          "type": "uint256"
        }
      ],
      "name": "getSubtreeIndex",
      "outputs": [
        {
          "internalType": "uint256",
          "name": "",
          "type": "uint256"
        }
      ],
      "stateMutability": "pure",
      "type": "function"
    },
    {
      "inputs": [
        {
          "internalType": "bytes32",
          "name": "_root",
          "type": "bytes32"
        },
        {
          "internalType": "bytes32",
          "name": "_leaf",
          "type": "bytes32"
        },
        {
          "internalType": "uint256",
          "name": "_generalizedIndex",
          "type": "uint256"
        },
        {
          "internalType": "bytes32[]",
          "name": "_branch",
          "type": "bytes32[]"
        }
      ],
      "name": "validateMerkleBranch",
      "outputs": [
        {
          "internalType": "bool",
          "name": "",
          "type": "bool"
        }
      ],
      "stateMutability": "pure",
      "type": "function"
    }
  ],
  "bytecode": "0x60806040523480156200001157600080fd5b5060405162003f8838038062003f8883398181016040528101906200003791906200014c565b866000806101000a81548167ffffffffffffffff021916908367ffffffffffffffff16021790555085600060086101000a81548167ffffffffffffffff021916908367ffffffffffffffff1602179055508460038190555081600560006101000a81548167ffffffffffffffff021916908367ffffffffffffffff16021790555080600560086101000a81548167ffffffffffffffff021916908367ffffffffffffffff16021790555082600560106101000a81548167ffffffffffffffff021916908367ffffffffffffffff160217905550836004819055505050505050505062000256565b6000815190506200012f8162000222565b92915050565b60008151905062000146816200023c565b92915050565b600080600080600080600060e0888a0312156200016e576200016d6200021d565b5b60006200017e8a828b0162000135565b9750506020620001918a828b0162000135565b9650506040620001a48a828b016200011e565b9550506060620001b78a828b016200011e565b9450506080620001ca8a828b0162000135565b93505060a0620001dd8a828b0162000135565b92505060c0620001f08a828b0162000135565b91505092959891949750929550565b6000819050919050565b600067ffffffffffffffff82169050919050565b600080fd5b6200022d81620001ff565b81146200023957600080fd5b50565b620002478162000209565b81146200025357600080fd5b50565b613d2280620002666000396000f3fe608060405234801561001057600080fd5b50600436106102065760003560e01c80637e7f232a1161011a578063b8ffb2e3116100ad578063d344309a1161007c578063d344309a1461071f578063e41bbcf81461073d578063e92938ab1461076d578063f218850e1461079d578063fe24511e146107cd57610206565b8063b8ffb2e314610671578063bfe370d9146106a1578063c36a13da146106d1578063c9d9fc251461070157610206565b8063a7201260116100e9578063a7201260146105b1578063a9755eb1146105e1578063b1e9f2a014610611578063b537de4f1461064157610206565b80637e7f232a146104f1578063809d74ba146105215780639110bc53146105515780639eb51fce1461058157610206565b806345b8bafc1161019d5780635c5528791161016c5780635c55287914610413578063639f30c314610443578063677705f8146104615780636e1e76b9146104915780637b9e6200146104c157610206565b806345b8bafc146103795780634c0999c7146103a957806356f07c06146103d95780635b820858146103f757610206565b8063398fd9d4116101d9578063398fd9d4146102b957806339f4babd146102e95780633fccb97b14610319578063404c2a711461034957610206565b806320435b8d1461020b578063255f37911461023b5780632b2247511461026b5780632c26bfd41461029b575b600080fd5b61022560048036038101906102209190612a3f565b6107fd565b6040516102329190612f3a565b60405180910390f35b6102556004803603810190610250919061277c565b610d0c565b6040516102629190612f55565b60405180910390f35b6102856004803603810190610280919061264b565b610da4565b6040516102929190612f55565b60405180910390f35b6102a3610ec0565b6040516102b09190612f55565b60405180910390f35b6102d360048036038101906102ce91906129f6565b610eca565b6040516102e09190612f3a565b60405180910390f35b61030360048036038101906102fe919061293e565b610f21565b6040516103109190612fd0565b60405180910390f35b610333600480360381019061032e9190612a88565b610f50565b6040516103409190613152565b60405180910390f35b610363600480360381019061035e9190612ab5565b610f75565b6040516103709190612f55565b60405180910390f35b610393600480360381019061038e9190612a88565b610fa5565b6040516103a09190613152565b60405180910390f35b6103c360048036038101906103be9190612821565b611007565b6040516103d09190612fd0565b60405180910390f35b6103e1611030565b6040516103ee9190612f55565b60405180910390f35b610411600480360381019061040c919061277c565b61103a565b005b61042d600480360381019061042891906129f6565b611069565b60405161043a9190612fb5565b60405180910390f35b61044b61108d565b604051610458919061316d565b60405180910390f35b61047b600480360381019061047691906126c2565b6110ab565b6040516104889190612f3a565b60405180910390f35b6104ab60048036038101906104a691906129c9565b6110b6565b6040516104b89190612fb5565b60405180910390f35b6104db60048036038101906104d6919061287b565b61119f565b6040516104e89190612fd0565b60405180910390f35b61050b6004803603810190610506919061293e565b6111cb565b6040516105189190612fd0565b60405180910390f35b61053b6004803603810190610536919061261d565b6114bb565b6040516105489190613152565b60405180910390f35b61056b6004803603810190610566919061277c565b611520565b6040516105789190612f55565b60405180910390f35b61059b6004803603810190610596919061287b565b611534565b6040516105a89190612f55565b60405180910390f35b6105cb60048036038101906105c69190612679565b611597565b6040516105d89190612f3a565b60405180910390f35b6105fb60048036038101906105f691906127f4565b6115a2565b6040516106089190612fd0565b60405180910390f35b61062b60048036038101906106269190612a88565b6115cb565b6040516106389190613152565b60405180910390f35b61065b60048036038101906106569190612a3f565b6115f4565b6040516106689190612f3a565b60405180910390f35b61068b60048036038101906106869190612a88565b61161c565b6040516106989190613152565b60405180910390f35b6106bb60048036038101906106b691906129f6565b611658565b6040516106c89190612f55565b60405180910390f35b6106eb60048036038101906106e691906129f6565b61167b565b6040516106f89190612f55565b60405180910390f35b610709611700565b6040516107169190612ef6565b60405180910390f35b6107276117ce565b6040516107349190612f55565b60405180910390f35b61075760048036038101906107529190612a88565b61192a565b6040516107649190613152565b60405180910390f35b6107876004803603810190610782919061287b565b61195d565b6040516107949190612f55565b60405180910390f35b6107b760048036038101906107b291906128bb565b611971565b6040516107c49190612f3a565b60405180910390f35b6107e760048036038101906107e2919061270b565b611adc565b6040516107f49190612f18565b60405180910390f35b6000806108128360400151846060015161195d565b9050600061082384602001516114bb565b905060008054906101000a900467ffffffffffffffff1667ffffffffffffffff16811015610886576040517f08c379a000000000000000000000000000000000000000000000000000000000815260040161087d906130b2565b60405180910390fd5b61089f84604001518560800151600b8760a00151611971565b6108de576040517f08c379a00000000000000000000000000000000000000000000000000000000081526004016108d590613132565b60405180910390fd5b6108ff84604001516108f38660c00151610f75565b60088760e00151611971565b5061091b84608001518561010001516069876101200151611971565b50610940846101000151610933866101400151610f75565b6008876101600151611971565b5061095d846101000151856101800151600b876101a00151611971565b61099c576040517f08c379a000000000000000000000000000000000000000000000000000000000815260040161099390612ff2565b60405180910390fd5b600560009054906101000a900467ffffffffffffffff1667ffffffffffffffff168460c0015167ffffffffffffffff161015610a0d576040517f08c379a0000000000000000000000000000000000000000000000000000000008152600401610a0490613072565b60405180910390fd5b600560109054906101000a900467ffffffffffffffff1667ffffffffffffffff1684610140015167ffffffffffffffff161015610a7f576040517f08c379a0000000000000000000000000000000000000000000000000000000008152600401610a7690613032565b60405180910390fd5b6000600560089054906101000a900467ffffffffffffffff168560c00151610aa791906135de565b67ffffffffffffffff16905060006102006020610ac49190613550565b82610acf91906133ae565b1415610b6b57610afc600454610aef876101c00151886101e00151610d0c565b6036886102000151611971565b50610b27610b22848760000151610b1d896101c001518a6020015188611adc565b6111cb565b610eca565b610b66576040517f08c379a0000000000000000000000000000000000000000000000000000000008152600401610b5d90613092565b60405180910390fd5b610c8d565b60016102006020610b7c9190613550565b82610b8791906133ae565b1415610c5157610bb4600454610ba7876101c00151886101e00151610d0c565b6037886102000151611971565b50610bdf610bda848760000151610bd5896101c001518a6020015188611adc565b6111cb565b610eca565b610c1e576040517f08c379a0000000000000000000000000000000000000000000000000000000008152600401610c1590613112565b60405180910390fd5b846101400151600560086101000a81548167ffffffffffffffff021916908367ffffffffffffffff160217905550610c8c565b6040517f08c379a0000000000000000000000000000000000000000000000000000000008152600401610c83906130f2565b60405180910390fd5b5b8461010001516003819055508461018001516004819055508460c00151600560006101000a81548167ffffffffffffffff021916908367ffffffffffffffff160217905550846101400151600560106101000a81548167ffffffffffffffff021916908367ffffffffffffffff16021790555060019350505050919050565b6000610d16611d6a565b60005b610200811015610d7457610d4485826102008110610d3a57610d3961385e565b5b602002015161167b565b82826102008110610d5857610d5761385e565b5b6020020181815250508080610d6c90613743565b915050610d19565b506000610d8082610da4565b90506000610d9682610d918761167b565b611534565b905080935050505092915050565b600080610db261020061161c565b9050600061020090505b81811015610dd7578080610dcf90613743565b915050610dbc565b5060005b610de482610fa5565b811015610e9d576000816002610dfa9190613432565b905060005b83811015610e8857610e4c86826102008110610e1e57610e1d61385e565b5b6020020151878484610e309190613358565b6102008110610e4257610e4161385e565b5b6020020151611534565b86826102008110610e6057610e5f61385e565b5b602002018181525050600282610e769190613550565b81610e819190613358565b9050610dff565b50508080610e9590613743565b915050610ddb565b508260006102008110610eb357610eb261385e565b5b6020020151915050919050565b6000600354905090565b60008015610edb5760019050610f1c565b610ee3611d8e565b6040518351602083826020880160055afa610efd57600080fd5b505080600060018110610f1357610f1261385e565b5b60200201519150505b919050565b6060838383604051602001610f3893929190612f70565b60405160208183030381529060405290509392505050565b6000635fc63057600c83610f649190613550565b610f6e9190613358565b9050919050565b6000610f838260c01b6110b6565b77ffffffffffffffffffffffffffffffffffffffffffffffff19169050919050565b60006001821015610feb576040517f08c379a0000000000000000000000000000000000000000000000000000000008152600401610fe290613012565b60405180910390fd5b6001610ff68361192a565b61100091906135aa565b9050919050565b60608160405160200161101a9190612e98565b6040516020818303038152906040529050919050565b6000600454905090565b8160069061020061104c929190611db0565b50806102069080519060200190611064929190611e04565b505050565b6000808251141561108057600060c01b9050611088565b602082015190505b919050565b6000600560089054906101000a900467ffffffffffffffff16905090565b600060019050919050565b600080600867ffffffffffffffff8111156110d4576110d361388d565b5b6040519080825280601f01601f1916602001820160405280156111065781602001600182028036833780820191505090505b50905060005b600881101561118d578381600881106111285761112761385e565b5b1a60f81b8282600761113a91906135aa565b8151811061114b5761114a61385e565b5b60200101907effffffffffffffffffffffffffffffffffffffffffffffffffffffffffffff1916908160001a905350808061118590613743565b91505061110c565b5061119781611069565b915050919050565b606082826040516020016111b4929190612eb3565b604051602081830303815290604052905092915050565b60606000825160f01b90506000835160306111e69190613550565b60826111f29190613358565b67ffffffffffffffff81111561120b5761120a61388d565b5b6040519080825280601f01601f19166020018201604052801561123d5781602001600182028036833780820191505090505b50905060005b60208110156112b85786816020811061125f5761125e61385e565b5b1a60f81b8282815181106112765761127561385e565b5b60200101907effffffffffffffffffffffffffffffffffffffffffffffffffffffffffffff1916908160001a90535080806112b090613743565b915050611243565b506000602090505b608081101561134857856020826112d791906135aa565b815181106112e8576112e761385e565b5b602001015160f81c60f81b8282815181106113065761130561385e565b5b60200101907effffffffffffffffffffffffffffffffffffffffffffffffffffffffffffff1916908160001a905350808061134090613743565b9150506112c0565b506000608090505b60828110156113d1578260808261136791906135aa565b600281106113785761137761385e565b5b1a60f81b82828151811061138f5761138e61385e565b5b60200101907effffffffffffffffffffffffffffffffffffffffffffffffffffffffffffff1916908160001a90535080806113c990613743565b915050611350565b5060005b84518110156114ae5760005b603081101561149a578582815181106113fd576113fc61385e565b5b602002602001015181815181106114175761141661385e565b5b602001015160f81c60f81b83826030856114319190613550565b608261143d9190613358565b6114479190613358565b815181106114585761145761385e565b5b60200101907effffffffffffffffffffffffffffffffffffffffffffffffffffffffffffff1916908160001a905350808061149290613743565b9150506113e1565b5080806114a690613743565b9150506113d5565b5080925050509392505050565b6000806000905060005b6102008110156115165760011515848261020081106114e7576114e661385e565b5b6020020151151514156115035781806114ff90613743565b9250505b808061150e90613743565b9150506114c5565b5080915050919050565b600061152c8383610d0c565b905092915050565b60006002611542848461119f565b60405161154f9190612edf565b602060405180830381855afa15801561156c573d6000803e3d6000fd5b5050506040513d601f19601f8201168201806040525081019061158f919061284e565b905092915050565b600060019050919050565b6060816040516020016115b59190612e7d565b6040516020818303038152906040529050919050565b60006115d682610fa5565b60026115e29190613432565b826115ed91906137a0565b9050919050565b6000610200826101c001515061020014156116125760019050611617565b600090505b919050565b60008082141561162f5760019050611653565b61164460018361163f91906135aa565b61192a565b60026116509190613432565b90505b919050565b6000808251141561166e576000801b9050611676565b602082015190505b919050565b6000806116956000602085611bc29092919063ffffffff16565b905060006116b06020601086611bc29092919063ffffffff16565b90506116db604051806040016040528060108152602001600081525082611ce090919063ffffffff16565b90506116f76116e983611658565b6116f283611658565b611534565b92505050919050565b611708611e8a565b600661020080602002604051908101604052809291906000905b828210156117c5578382018054611738906136e0565b80601f0160208091040260200160405190810160405280929190818152602001828054611764906136e0565b80156117b15780601f10611786576101008083540402835291602001916117b1565b820191906000526020600020905b81548152906001019060200180831161179457829003601f168201915b505050505081526020019060010190611722565b50505050905090565b6000611925600661020080602002604051908101604052809291906000905b82821015611890578382018054611803906136e0565b80601f016020809104026020016040519081016040528092919081815260200182805461182f906136e0565b801561187c5780601f106118515761010080835404028352916020019161187c565b820191906000526020600020905b81548152906001019060200180831161185f57829003601f168201915b5050505050815260200190600101906117ed565b5050505061020680546118a2906136e0565b80601f01602080910402602001604051908101604052809291908181526020018280546118ce906136e0565b801561191b5780601f106118f05761010080835404028352916020019161191b565b820191906000526020600020905b8154815290600101906020018083116118fe57829003601f168201915b5050505050610d0c565b905090565b600080600090505b6000831461195457600183901c9250808061194c90613743565b915050611932565b80915050919050565b60006119698383611534565b905092915050565b60008061197d846115cb565b9050600061198a85610fa5565b9050600086905060005b82811015611acb57600160028260026119ad9190613432565b866119b891906133ae565b6119c291906137a0565b1415611a425760026119ee8783815181106119e0576119df61385e565b5b60200260200101518461119f565b6040516119fb9190612edf565b602060405180830381855afa158015611a18573d6000803e3d6000fd5b5050506040513d601f19601f82011682018060405250810190611a3b919061284e565b9150611ab8565b6002611a6883888481518110611a5b57611a5a61385e565b5b602002602001015161119f565b604051611a759190612edf565b602060405180830381855afa158015611a92573d6000803e3d6000fd5b5050506040513d601f19601f82011682018060405250810190611ab5919061284e565b91505b8080611ac390613743565b915050611994565b508781149350505050949350505050565b606060008267ffffffffffffffff811115611afa57611af961388d565b5b604051908082528060200260200182016040528015611b2d57816020015b6060815260200190600190039081611b185790505b5090506000805b610200811015611bb55785816102008110611b5257611b5161385e565b5b602002015115611ba25786816102008110611b7057611b6f61385e565b5b6020020151838381518110611b8857611b8761385e565b5b60200260200101819052508180611b9e90613743565b9250505b8080611bad90613743565b915050611b34565b5081925050509392505050565b606081601f83611bd29190613358565b1015611c13576040517f08c379a0000000000000000000000000000000000000000000000000000000008152600401611c0a90613052565b60405180910390fd5b8183611c1f9190613358565b84511015611c62576040517f08c379a0000000000000000000000000000000000000000000000000000000008152600401611c59906130d2565b60405180910390fd5b6060821560008114611c835760405191506000825260208201604052611cd4565b6040519150601f8416801560200281840101858101878315602002848b0101015b81831015611cc15780518352602083019250602081019050611ca4565b50868552601f19601f8301166040525050505b50809150509392505050565b6060806040519050835180825260208201818101602087015b81831015611d165780518352602083019250602081019050611cf9565b50855192508351830184528091508282019050602086015b81831015611d4b5780518352602083019250602081019050611d2e565b50601f19601f8851850115830101166040525050508091505092915050565b60405180614000016040528061020090602082028036833780820191505090505090565b6040518060200160405280600190602082028036833780820191505090505090565b826102008101928215611df3579160200282015b82811115611df2578251829080519060200190611de2929190611e04565b5091602001919060010190611dc4565b5b509050611e009190611eb3565b5090565b828054611e10906136e0565b90600052602060002090601f016020900481019282611e325760008555611e79565b82601f10611e4b57805160ff1916838001178555611e79565b82800160010185558215611e79579182015b82811115611e78578251825591602001919060010190611e5d565b5b509050611e869190611ed7565b5090565b604051806140000160405280610200905b6060815260200190600190039081611e9b5790505090565b5b80821115611ed35760008181611eca9190611ef4565b50600101611eb4565b5090565b5b80821115611ef0576000816000905550600101611ed8565b5090565b508054611f00906136e0565b6000825580601f10611f125750611f31565b601f016020900490600052602060002090810190611f309190611ed7565b5b50565b6000611f47611f42846131ad565b613188565b90508082856020860282011115611f6157611f606138cb565b5b60005b85811015611f915781611f7788826122ca565b845260208401935060208301925050600181019050611f64565b5050509392505050565b6000611fae611fa9846131d3565b613188565b90508082856020860282011115611fc857611fc76138cb565b5b60005b85811015611ff85781611fde88826122f4565b845260208401935060208301925050600181019050611fcb565b5050509392505050565b6000612015612010846131f9565b613188565b90508083825260208201905082856020860282011115612038576120376138cb565b5b60005b85811015612068578161204e88826122f4565b84526020840193506020830192505060018101905061203b565b5050509392505050565b600061208561208084613225565b613188565b9050808285602086028201111561209f5761209e6138cb565b5b60005b858110156120ed57813567ffffffffffffffff8111156120c5576120c46138bc565b5b8086016120d28982612333565b855260208501945060208401935050506001810190506120a2565b5050509392505050565b600061210a6121058461324b565b613188565b9050808382526020820190508285602086028201111561212d5761212c6138cb565b5b60005b8581101561217b57813567ffffffffffffffff811115612153576121526138bc565b5b8086016121608982612333565b85526020850194506020840193505050600181019050612130565b5050509392505050565b600061219861219384613277565b613188565b9050828152602081018484840111156121b4576121b36138d0565b5b6121bf84828561369e565b509392505050565b600082601f8301126121dc576121db6138bc565b5b6102006121ea848285611f34565b91505092915050565b600082601f830112612208576122076138bc565b5b610200612216848285611f9b565b91505092915050565b600082601f830112612234576122336138bc565b5b8135612244848260208601612002565b91505092915050565b6000819050826020610200028201111561226a576122696138cb565b5b92915050565b600082601f830112612285576122846138bc565b5b610200612293848285612072565b91505092915050565b600082601f8301126122b1576122b06138bc565b5b81356122c18482602086016120f7565b91505092915050565b6000813590506122d981613c62565b92915050565b6000813590506122ee81613c79565b92915050565b60008135905061230381613c90565b92915050565b60008151905061231881613c90565b92915050565b60008135905061232d81613ca7565b92915050565b600082601f830112612348576123476138bc565b5b8135612358848260208601612185565b91505092915050565b60006142008284031215612378576123776138c1565b5b612383610220613188565b9050600082013567ffffffffffffffff8111156123a3576123a26138c6565b5b6123af84828501612333565b60008301525060206123c3848285016121c7565b6020830152506140206123d8848285016122f4565b6040830152506140406123ed848285016122f4565b606083015250614060612402848285016122f4565b60808301525061408082013567ffffffffffffffff811115612427576124266138c6565b5b6124338482850161221f565b60a0830152506140a061244884828501612608565b60c0830152506140c082013567ffffffffffffffff81111561246d5761246c6138c6565b5b6124798482850161221f565b60e0830152506140e061248e848285016122f4565b6101008301525061410082013567ffffffffffffffff8111156124b4576124b36138c6565b5b6124c08482850161221f565b610120830152506141206124d684828501612608565b6101408301525061414082013567ffffffffffffffff8111156124fc576124fb6138c6565b5b6125088482850161221f565b6101608301525061416061251e848285016122f4565b6101808301525061418082013567ffffffffffffffff811115612544576125436138c6565b5b6125508482850161221f565b6101a0830152506141a082013567ffffffffffffffff811115612576576125756138c6565b5b61258284828501612270565b6101c0830152506141c082013567ffffffffffffffff8111156125a8576125a76138c6565b5b6125b484828501612333565b6101e0830152506141e082013567ffffffffffffffff8111156125da576125d96138c6565b5b6125e68482850161221f565b6102008301525092915050565b60008135905061260281613cbe565b92915050565b60008135905061261781613cd5565b92915050565b60006140008284031215612634576126336138da565b5b6000612642848285016121c7565b91505092915050565b60006140008284031215612662576126616138da565b5b6000612670848285016121f3565b91505092915050565b60006020828403121561268f5761268e6138da565b5b600082013567ffffffffffffffff8111156126ad576126ac6138d5565b5b6126b98482850161224d565b91505092915050565b6000602082840312156126d8576126d76138da565b5b600082013567ffffffffffffffff8111156126f6576126f56138d5565b5b61270284828501612270565b91505092915050565b60008060006140408486031215612725576127246138da565b5b600084013567ffffffffffffffff811115612743576127426138d5565b5b61274f86828701612270565b9350506020612760868287016121c7565b925050614020612772868287016125f3565b9150509250925092565b60008060408385031215612793576127926138da565b5b600083013567ffffffffffffffff8111156127b1576127b06138d5565b5b6127bd85828601612270565b925050602083013567ffffffffffffffff8111156127de576127dd6138d5565b5b6127ea85828601612333565b9150509250929050565b60006020828403121561280a576128096138da565b5b6000612818848285016122df565b91505092915050565b600060208284031215612837576128366138da565b5b6000612845848285016122f4565b91505092915050565b600060208284031215612864576128636138da565b5b600061287284828501612309565b91505092915050565b60008060408385031215612892576128916138da565b5b60006128a0858286016122f4565b92505060206128b1858286016122f4565b9150509250929050565b600080600080608085870312156128d5576128d46138da565b5b60006128e3878288016122f4565b94505060206128f4878288016122f4565b9350506040612905878288016125f3565b925050606085013567ffffffffffffffff811115612926576129256138d5565b5b6129328782880161221f565b91505092959194509250565b600080600060608486031215612957576129566138da565b5b6000612965868287016122f4565b935050602084013567ffffffffffffffff811115612986576129856138d5565b5b61299286828701612333565b925050604084013567ffffffffffffffff8111156129b3576129b26138d5565b5b6129bf8682870161229c565b9150509250925092565b6000602082840312156129df576129de6138da565b5b60006129ed8482850161231e565b91505092915050565b600060208284031215612a0c57612a0b6138da565b5b600082013567ffffffffffffffff811115612a2a57612a296138d5565b5b612a3684828501612333565b91505092915050565b600060208284031215612a5557612a546138da565b5b600082013567ffffffffffffffff811115612a7357612a726138d5565b5b612a7f84828501612361565b91505092915050565b600060208284031215612a9e57612a9d6138da565b5b6000612aac848285016125f3565b91505092915050565b600060208284031215612acb57612aca6138da565b5b6000612ad984828501612608565b91505092915050565b6000612aee8383612c3b565b905092915050565b6000612b01826132c2565b612b0b81856132fe565b935083602082028501612b1d856132a8565b8060005b85811015612b595784840389528151612b3a8582612ae2565b9450612b45836132e4565b925060208a01995050600181019050612b21565b50829750879550505050505092915050565b6000612b76826132ce565b612b808185613309565b935083602082028501612b92856132b2565b8060005b85811015612bce5784840389528151612baf8582612ae2565b9450612bba836132f1565b925060208a01995050600181019050612b96565b50829750879550505050505092915050565b612be981613612565b82525050565b612c00612bfb8261361e565b61378c565b82525050565b612c0f8161364a565b82525050565b612c26612c218261364a565b613796565b82525050565b612c3581613654565b82525050565b6000612c46826132d9565b612c50818561331a565b9350612c608185602086016136ad565b612c69816138df565b840191505092915050565b6000612c7f826132d9565b612c89818561332b565b9350612c998185602086016136ad565b612ca2816138df565b840191505092915050565b6000612cb8826132d9565b612cc2818561333c565b9350612cd28185602086016136ad565b80840191505092915050565b6000612ceb602f83613347565b9150612cf6826138fd565b604082019050919050565b6000612d0e603283613347565b9150612d198261394c565b604082019050919050565b6000612d31604383613347565b9150612d3c8261399b565b606082019050919050565b6000612d54600e83613347565b9150612d5f82613a10565b602082019050919050565b6000612d77603d83613347565b9150612d8282613a39565b604082019050919050565b6000612d9a602d83613347565b9150612da582613a88565b604082019050919050565b6000612dbd602183613347565b9150612dc882613ad7565b604082019050919050565b6000612de0601183613347565b9150612deb82613b26565b602082019050919050565b6000612e03605083613347565b9150612e0e82613b4f565b606082019050919050565b6000612e26602a83613347565b9150612e3182613bc4565b604082019050919050565b6000612e49602c83613347565b9150612e5482613c13565b604082019050919050565b612e6881613680565b82525050565b612e778161368a565b82525050565b6000612e898284612bef565b60028201915081905092915050565b6000612ea48284612c15565b60208201915081905092915050565b6000612ebf8285612c15565b602082019150612ecf8284612c15565b6020820191508190509392505050565b6000612eeb8284612cad565b915081905092915050565b60006020820190508181036000830152612f108184612af6565b905092915050565b60006020820190508181036000830152612f328184612b6b565b905092915050565b6000602082019050612f4f6000830184612be0565b92915050565b6000602082019050612f6a6000830184612c06565b92915050565b6000606082019050612f856000830186612c06565b8181036020830152612f978185612c74565b90508181036040830152612fab8184612b6b565b9050949350505050565b6000602082019050612fca6000830184612c2c565b92915050565b60006020820190508181036000830152612fea8184612c74565b905092915050565b6000602082019050818103600083015261300b81612cde565b9050919050565b6000602082019050818103600083015261302b81612d01565b9050919050565b6000602082019050818103600083015261304b81612d24565b9050919050565b6000602082019050818103600083015261306b81612d47565b9050919050565b6000602082019050818103600083015261308b81612d6a565b9050919050565b600060208201905081810360008301526130ab81612d8d565b9050919050565b600060208201905081810360008301526130cb81612db0565b9050919050565b600060208201905081810360008301526130eb81612dd3565b9050919050565b6000602082019050818103600083015261310b81612df6565b9050919050565b6000602082019050818103600083015261312b81612e19565b9050919050565b6000602082019050818103600083015261314b81612e3c565b9050919050565b60006020820190506131676000830184612e5f565b92915050565b60006020820190506131826000830184612e6e565b92915050565b60006131926131a3565b905061319e8282613712565b919050565b6000604051905090565b600067ffffffffffffffff8211156131c8576131c761388d565b5b602082029050919050565b600067ffffffffffffffff8211156131ee576131ed61388d565b5b602082029050919050565b600067ffffffffffffffff8211156132145761321361388d565b5b602082029050602081019050919050565b600067ffffffffffffffff8211156132405761323f61388d565b5b602082029050919050565b600067ffffffffffffffff8211156132665761326561388d565b5b602082029050602081019050919050565b600067ffffffffffffffff8211156132925761329161388d565b5b61329b826138df565b9050602081019050919050565b6000819050919050565b6000819050602082019050919050565b60006102009050919050565b600081519050919050565b600081519050919050565b6000602082019050919050565b6000602082019050919050565b600081905092915050565b600082825260208201905092915050565b600082825260208201905092915050565b600082825260208201905092915050565b600081905092915050565b600082825260208201905092915050565b600061336382613680565b915061336e83613680565b9250827fffffffffffffffffffffffffffffffffffffffffffffffffffffffffffffffff038211156133a3576133a26137d1565b5b828201905092915050565b60006133b982613680565b91506133c483613680565b9250826133d4576133d3613800565b5b828204905092915050565b6000808291508390505b600185111561342957808604811115613405576134046137d1565b5b60018516156134145780820291505b8081029050613422856138f0565b94506133e9565b94509492505050565b600061343d82613680565b915061344883613680565b92506134757fffffffffffffffffffffffffffffffffffffffffffffffffffffffffffffffff848461347d565b905092915050565b60008261348d5760019050613549565b8161349b5760009050613549565b81600181146134b157600281146134bb576134ea565b6001915050613549565b60ff8411156134cd576134cc6137d1565b5b8360020a9150848211156134e4576134e36137d1565b5b50613549565b5060208310610133831016604e8410600b841016171561351f5782820a90508381111561351a576135196137d1565b5b613549565b61352c84848460016133df565b92509050818404811115613543576135426137d1565b5b81810290505b9392505050565b600061355b82613680565b915061356683613680565b9250817fffffffffffffffffffffffffffffffffffffffffffffffffffffffffffffffff048311821515161561359f5761359e6137d1565b5b828202905092915050565b60006135b582613680565b91506135c083613680565b9250828210156135d3576135d26137d1565b5b828203905092915050565b60006135e98261368a565b91506135f48361368a565b925082821015613607576136066137d1565b5b828203905092915050565b60008115159050919050565b60007fffff00000000000000000000000000000000000000000000000000000000000082169050919050565b6000819050919050565b60007fffffffffffffffff00000000000000000000000000000000000000000000000082169050919050565b6000819050919050565b600067ffffffffffffffff82169050919050565b82818337600083830152505050565b60005b838110156136cb5780820151818401526020810190506136b0565b838111156136da576000848401525b50505050565b600060028204905060018216806136f857607f821691505b6020821081141561370c5761370b61382f565b5b50919050565b61371b826138df565b810181811067ffffffffffffffff8211171561373a5761373961388d565b5b80604052505050565b600061374e82613680565b91507fffffffffffffffffffffffffffffffffffffffffffffffffffffffffffffffff821415613781576137806137d1565b5b600182019050919050565b6000819050919050565b6000819050919050565b60006137ab82613680565b91506137b683613680565b9250826137c6576137c5613800565b5b828206905092915050565b7f4e487b7100000000000000000000000000000000000000000000000000000000600052601160045260246000fd5b7f4e487b7100000000000000000000000000000000000000000000000000000000600052601260045260246000fd5b7f4e487b7100000000000000000000000000000000000000000000000000000000600052602260045260246000fd5b7f4e487b7100000000000000000000000000000000000000000000000000000000600052603260045260246000fd5b7f4e487b7100000000000000000000000000000000000000000000000000000000600052604160045260246000fd5b600080fd5b600080fd5b600080fd5b600080fd5b600080fd5b600080fd5b600080fd5b6000601f19601f8301169050919050565b60008160011c9050919050565b7f6d65726b6c652070726f6f6620666f722066696e616c697a656420737461746560008201527f20726f6f74206e6f742076616c69640000000000000000000000000000000000602082015250565b7f5f696e70757420746f20666c6f6f724c6f6732206d757374206265206c61726760008201527f6572206f7220657175616c207468616e20310000000000000000000000000000602082015250565b7f66696e616c697a656420626c6f636b206f6c646572207468616e206c6173742060008201527f66696e616c697a656420626c6f636b207365656e20627920636861696e20726560208201527f6c61790000000000000000000000000000000000000000000000000000000000604082015250565b7f736c6963655f6f766572666c6f77000000000000000000000000000000000000600082015250565b7f6c617465737420626c6f636b206f6c646572207468616e206c617374206c617460008201527f65737420626c6f636b207365656e20627920636861696e2072656c6179000000602082015250565b7f7369676e61747572652062792063757272656e742073796e6320636f6d6d697460008201527f746565206e6f742076616c696400000000000000000000000000000000000000602082015250565b7f6e6f7420656e6f756768207369676e6174757265207061727469636970616e7460008201527f7300000000000000000000000000000000000000000000000000000000000000602082015250565b7f736c6963655f6f75744f66426f756e6473000000000000000000000000000000600082015250565b7f6c617465737420736c6f7420646f6573206e6f7420696e64696361746520746860008201527f61742063757272656e74206f72206e6578742073796e6320636f6d6d6974746560208201527f6520697320726573706f6e7369626c6500000000000000000000000000000000604082015250565b7f7369676e6174757265206279206e6578742073796e6320636f6d6d697474656560008201527f206e6f742076616c696400000000000000000000000000000000000000000000602082015250565b7f6d65726b6c652070726f6f6620666f72206c617465737420737461746520726f60008201527f6f74206e6f742076616c69640000000000000000000000000000000000000000602082015250565b613c6b81613612565b8114613c7657600080fd5b50565b613c828161361e565b8114613c8d57600080fd5b50565b613c998161364a565b8114613ca457600080fd5b50565b613cb081613654565b8114613cbb57600080fd5b50565b613cc781613680565b8114613cd257600080fd5b50565b613cde8161368a565b8114613ce957600080fd5b5056fea2646970667358221220740578bdc78badcb53a464ed498ac93f5bcf357aedff552f496b626cef26b03864736f6c63430008060033",
  "immutableReferences": {},
  "source": "// SPDX-License-Identifier: GPL-3.0-or-later\r\n\r\n// PLEASE NOTE: This is a prototype. Do not use it in production settings. \r\n\r\npragma solidity >=0.8.0 <0.9.0;\r\n\r\nimport \"../node_modules/solidity-bytes-utils/contracts/BytesLib.sol\";\r\nimport \"./libraries/Memory.sol\";\r\n\r\n// debug settings\r\nbool constant MOCK_BLS_PRECOMPILE = false;\r\n\r\n// magic numbers\r\nuint constant FIRST_BEACON_BLOCK_UNIX_TIMESTAMP = 1606824023;\r\n\r\n// eth2 mainnet configuration\r\nuint constant SYNC_COMMITTEE_SIZE = 512;\r\nuint constant SECONDS_PER_SLOT = 12;\r\nuint constant SLOTS_PER_EPOCH = 32;\r\nuint constant EPOCHS_PER_SYNC_COMMITTEE_PERIOD = 512;\r\n\r\n// SSZ generalized indices\r\nuint constant FINALIZED_ROOT_INDEX = 105;\r\nuint constant FINALIZED_EPOCH_INDEX = 104;\r\nuint constant NEXT_SYNC_COMMITTEE_INDEX = 55;\r\nuint constant NEXT_SYNC_COMMITTEE_PUBKEYS_INDEX = 110;\r\nuint constant NEXT_SYNC_COMMITTEE_AGGREGATE_PUBKEY_INDEX = 111;\r\nuint constant CURRENT_SYNC_COMMITTEE_INDEX = 54;\r\nuint constant CURRENT_SYNC_COMMITTEE_PUBKEYS_INDEX = 108;\r\nuint constant CURRENT_SYNC_COMMITTEE_AGGREGATE_PUBKEY_INDEX = 109;\r\nuint constant SLOT_INDEX = 8;\r\nuint constant STATE_ROOT_INDEX = 11;\r\n\r\nstruct ChainRelayUpdate {\r\n    bytes signature;\r\n    bool[SYNC_COMMITTEE_SIZE] participants;\r\n    bytes32 latestBlockRoot;\r\n    bytes32 signingDomain;\r\n    bytes32 stateRoot;\r\n    bytes32[] stateRootBranch; \r\n    uint64 latestSlot;\r\n    bytes32[] latestSlotBranch; \r\n    bytes32 finalizedBlockRoot; \r\n    bytes32[] finalizingBranch; \r\n    uint64 finalizedSlot; \r\n    bytes32[] finalizedSlotBranch; \r\n    bytes32 finalizedStateRoot;\r\n    bytes32[] finalizedStateRootBranch;\r\n    bytes[SYNC_COMMITTEE_SIZE] syncCommittee;\r\n    bytes syncCommitteeAggregate;\r\n    bytes32[] syncCommitteeBranch; \r\n}\r\n\r\n/** \r\n * @title Chain Relay\r\n * @dev Implements a chain relay/light client for eth2 consensus post-altair (including sync committees)\r\n */\r\ncontract Eth2ChainRelay_512_NoStorage {\r\n    using BytesLib for bytes;\r\n\r\n    uint64 private signatureThreshold; // 0 < signatureThreshold <= 512\r\n    uint64 private trustingPeriod; // validators are trusted for a certain time, ensuring they have not exited the validator set, in unix time\r\n    bytes private currentValidatorSetAggregate;\r\n    bytes private nextValidatorSetAggregate;\r\n    bytes32 private finalizedBlockRoot;\r\n    bytes32 private finalizedStateRoot; \r\n    uint64 private latestSlot;\r\n    uint64 private latestSlotWithValidatorSetChange;\r\n    uint64 private finalizedSlot;\r\n    bytes[SYNC_COMMITTEE_SIZE] testSyncCommittee;\r\n    bytes testSyncCommitteeAggregate;\r\n    \r\n    constructor(uint64 _signatureThreshold, \r\n                uint64 _trustingPeriod, \r\n                bytes32 _finalizedBlockRoot,\r\n                bytes32 _finalizedStateRoot,\r\n                uint64 _finalizedSlot,\r\n                uint64 _latestSlot,\r\n                uint64 _latestSlotWithValidatorSetChange) \r\n    {\r\n        signatureThreshold=_signatureThreshold;\r\n        trustingPeriod=_trustingPeriod;\r\n        finalizedBlockRoot=_finalizedBlockRoot;\r\n        latestSlot=_latestSlot;\r\n        latestSlotWithValidatorSetChange=_latestSlotWithValidatorSetChange;\r\n        finalizedSlot=_finalizedSlot;\r\n        finalizedStateRoot=_finalizedStateRoot;\r\n    }\r\n\r\n    function getLatestSlotWithValidatorSetChange() public view returns (uint64) {\r\n        return latestSlotWithValidatorSetChange;\r\n    }\r\n    \r\n    function getFinalizedBlockRoot() public view returns (bytes32) {\r\n        return finalizedBlockRoot;\r\n    }\r\n    \r\n    function getFinalizedStateRoot() public view returns (bytes32) {\r\n        return finalizedStateRoot;\r\n    }\r\n\r\n    function testEncoding(bytes32 message, bytes memory signature, bytes[] memory pubkeys) public view returns (bytes memory) {\r\n        return abi.encode(message, signature, pubkeys);\r\n    }\r\n\r\n    function testJustStoreSyncCommittee(bytes[SYNC_COMMITTEE_SIZE] memory committee, bytes memory aggregate) public {\r\n        testSyncCommittee = committee;\r\n        testSyncCommitteeAggregate = aggregate;\r\n    }\r\n\r\n    function testJustDoSyncCommitteeMerkleizationFromMemory(bytes[SYNC_COMMITTEE_SIZE] memory committee, bytes memory aggregate) public returns (bytes32) {\r\n        return hashTreeRootSyncCommittee(committee, aggregate);\r\n    }\r\n\r\n    function testJustDoSyncCommitteeMerkleizationFromStorage() public returns (bytes32) {\r\n        return hashTreeRootSyncCommittee(testSyncCommittee, testSyncCommitteeAggregate);\r\n    }\r\n\r\n    function testJustReadSyncCommitteeFromStorage() public returns (bytes[SYNC_COMMITTEE_SIZE] memory) {\r\n        return testSyncCommittee;\r\n    }\r\n\r\n    function testJustSubmitSyncCommitteeViaMemory(bytes[SYNC_COMMITTEE_SIZE] memory) public returns (bool) {\r\n        return true;\r\n    }\r\n\r\n    function testJustSubmitSyncCommitteeViaCalldata(bytes[SYNC_COMMITTEE_SIZE] calldata) public returns (bool) {\r\n        return true;\r\n    }\r\n\r\n    function testDoNothingWithData(ChainRelayUpdate memory _chainRelayUpdate) public returns (bool) {\r\n        if (_chainRelayUpdate.syncCommittee.length == 512) {\r\n            return true;\r\n        } else {\r\n            return false;\r\n        }\r\n    }\r\n    \r\n    function submitUpdate(ChainRelayUpdate memory _chainRelayUpdate) public returns (bool) {\r\n        bytes32 signingRoot = computeSigningRoot(_chainRelayUpdate.latestBlockRoot, _chainRelayUpdate.signingDomain);\r\n        uint numberOfParticipants = countTrueBools(_chainRelayUpdate.participants);\r\n        require(\r\n            numberOfParticipants >= signatureThreshold, \r\n            \"not enough signature participants\");\r\n        require(\r\n            validateMerkleBranch(\r\n                _chainRelayUpdate.latestBlockRoot, \r\n                _chainRelayUpdate.stateRoot, \r\n                STATE_ROOT_INDEX, \r\n                _chainRelayUpdate.stateRootBranch), \r\n            \"merkle proof for latest state root not valid\");\r\n        // the following checks are executed but ignored in order to allow for testing with synthetic SSZ/Eth2 data\r\n        /*require(*/\r\n            validateMerkleBranch(\r\n                _chainRelayUpdate.latestBlockRoot, \r\n                merklelizeSlot(_chainRelayUpdate.latestSlot), \r\n                SLOT_INDEX, \r\n                _chainRelayUpdate.latestSlotBranch)/*, \"merkle proof for latest slot not valid\")*/;\r\n        /*require(*/\r\n            validateMerkleBranch(\r\n                _chainRelayUpdate.stateRoot, \r\n                _chainRelayUpdate.finalizedBlockRoot, \r\n                FINALIZED_ROOT_INDEX, \r\n                _chainRelayUpdate.finalizingBranch)/*, \"merkle proof for finalized block root not valid\")*/;\r\n        /*require(*/\r\n            validateMerkleBranch(\r\n                _chainRelayUpdate.finalizedBlockRoot, \r\n                merklelizeSlot(_chainRelayUpdate.finalizedSlot), \r\n                SLOT_INDEX, \r\n                _chainRelayUpdate.finalizedSlotBranch)/*, \"merkle proof for finalized slot not valid\")*/;\r\n        require(\r\n            validateMerkleBranch(\r\n                _chainRelayUpdate.finalizedBlockRoot, \r\n                _chainRelayUpdate.finalizedStateRoot, \r\n                STATE_ROOT_INDEX, \r\n                _chainRelayUpdate.finalizedStateRootBranch), \r\n            \"merkle proof for finalized state root not valid\");\r\n        require(\r\n            _chainRelayUpdate.latestSlot >= latestSlot, \r\n            \"latest block older than last latest block seen by chain relay\");\r\n        require(\r\n            _chainRelayUpdate.finalizedSlot >= finalizedSlot, \r\n            \"finalized block older than last finalized block seen by chain relay\");\r\n        uint slot_distance = _chainRelayUpdate.latestSlot - latestSlotWithValidatorSetChange; \r\n        if ((slot_distance / (SLOTS_PER_EPOCH * EPOCHS_PER_SYNC_COMMITTEE_PERIOD)) == 0) {\r\n            // the following check is executed but ignored in order to allow for testing with synthetic SSZ/Eth2 data\r\n            /*require(*/validateMerkleBranch(\r\n                finalizedStateRoot, \r\n                hashTreeRootSyncCommittee(_chainRelayUpdate.syncCommittee, _chainRelayUpdate.syncCommitteeAggregate), \r\n                CURRENT_SYNC_COMMITTEE_INDEX, \r\n                _chainRelayUpdate.syncCommitteeBranch)/*, \"merkle proof for current sync committee not valid\")*/;\r\n           require(\r\n               fastAggregateVerify(serializeAggregateSignature(\r\n                   signingRoot, \r\n                   _chainRelayUpdate.signature, \r\n                   getActiveValidators(_chainRelayUpdate.syncCommittee, _chainRelayUpdate.participants, numberOfParticipants))), \r\n               \"signature by current sync committee not valid\");\r\n        } else if ((slot_distance / (SLOTS_PER_EPOCH * EPOCHS_PER_SYNC_COMMITTEE_PERIOD)) == 1) {\r\n            // the following check is executed but ignored in order to allow for testing with synthetic SSZ/Eth2 data\r\n            /*require(*/validateMerkleBranch(\r\n                finalizedStateRoot, \r\n                hashTreeRootSyncCommittee(_chainRelayUpdate.syncCommittee, _chainRelayUpdate.syncCommitteeAggregate), \r\n                NEXT_SYNC_COMMITTEE_INDEX, \r\n                _chainRelayUpdate.syncCommitteeBranch)\r\n                /*, \"merkle proof for next sync committee not valid\")*/;\r\n            require(\r\n                fastAggregateVerify(serializeAggregateSignature(\r\n                    signingRoot, \r\n                    _chainRelayUpdate.signature, \r\n                    getActiveValidators(_chainRelayUpdate.syncCommittee, _chainRelayUpdate.participants, numberOfParticipants))), \r\n                \"signature by next sync committee not valid\");\r\n            latestSlotWithValidatorSetChange = _chainRelayUpdate.finalizedSlot;\r\n        } else {\r\n            revert(\"latest slot does not indicate that current or next sync committee is responsible\");\r\n        }\r\n        finalizedBlockRoot = _chainRelayUpdate.finalizedBlockRoot; \r\n        finalizedStateRoot = _chainRelayUpdate.finalizedStateRoot;\r\n        latestSlot = _chainRelayUpdate.latestSlot;\r\n        finalizedSlot = _chainRelayUpdate.finalizedSlot;\r\n        return true;\r\n    }\r\n    \r\n    function getActiveValidators(bytes[SYNC_COMMITTEE_SIZE] memory _pubkeys, bool[SYNC_COMMITTEE_SIZE] memory _isActive, uint _numberOfActive) public pure returns (bytes[] memory) {\r\n        bytes[] memory active_validators = new bytes[](_numberOfActive);\r\n        uint counter = 0;\r\n        for (uint i = 0; i < SYNC_COMMITTEE_SIZE; i++) {\r\n            if (_isActive[i]) {\r\n                active_validators[counter] = _pubkeys[i];\r\n                counter++;\r\n            }\r\n        }\r\n        return active_validators;\r\n    }\r\n    \r\n    function countTrueBools(bool[SYNC_COMMITTEE_SIZE] memory _bools) public pure returns (uint) {\r\n        uint counter = 0;\r\n        for (uint i = 0; i < SYNC_COMMITTEE_SIZE; i++) {\r\n            if (_bools[i] == true) {\r\n                counter++;\r\n            }\r\n        }\r\n        return counter;\r\n    }\r\n\r\n    function serializeAggregateSignature(bytes32 _message, bytes memory _signature, bytes[] memory _pubkeys) public pure returns (bytes memory) {\r\n        bytes2 length = bytes2(uint16(_pubkeys.length));\r\n        bytes memory serialized = new bytes(32+96+2+48*_pubkeys.length);\r\n        for (uint i = 0; i < 32; i++) {\r\n            serialized[i] = _message[i];\r\n        }\r\n        for (uint i = 32; i < 128; i++) {\r\n            serialized[i] = _signature[i-32];\r\n        }\r\n        for (uint i = 128; i < 130; i++) {\r\n            serialized[i] = length[i-128];\r\n        }\r\n        for (uint i = 0; i < _pubkeys.length; i++) {\r\n            for (uint j = 0; j < 48; j++) {\r\n                serialized[32+96+2+i*48+j] = _pubkeys[i][j];\r\n            }\r\n        }\r\n       return serialized;\r\n    }\r\n    \r\n    function fastAggregateVerify(bytes memory _input) public view returns (bool o) {\r\n        if (MOCK_BLS_PRECOMPILE) {\r\n            return true;\r\n        }\r\n        bool[1] memory outCache;\r\n        assembly {\r\n            let p := mload(0x40)\r\n            let length := mload(_input)\r\n            if iszero(staticcall(gas(), 0x05, add(_input,32), length, outCache, 32)) { // first 32 yte of _input are length\r\n                revert(0, 0)\r\n            }\r\n        }\r\n        o = outCache[0];\r\n    }\r\n    \r\n    function slotToUnixTimestamp(uint _slot) public pure returns (uint timestamp) {\r\n        return _slot * SECONDS_PER_SLOT + FIRST_BEACON_BLOCK_UNIX_TIMESTAMP;\r\n    }\r\n    \r\n    function bytes32ToBytes(bytes32 _input) public pure returns (bytes memory output) {\r\n        return abi.encodePacked(_input);\r\n    }\r\n    \r\n    function bytes2ToBytes(bytes2 _input) public pure returns (bytes memory output) {\r\n        return abi.encodePacked(_input);\r\n    }\r\n    \r\n    function concat(bytes32 _left, bytes32 _right) public pure returns (bytes memory) {\r\n        return bytes.concat(_left, _right);\r\n        // below is fallback code for older solidity versions\r\n        /*bytes memory concatenated;\r\n        for (uint i = 0; i<32; i++) {\r\n            concatenated[i] = left[i];\r\n        }\r\n        for (uint i = 0; i<32; i++) {\r\n            concatenated[i+32] = right[i];\r\n        }\r\n        return concatenated;*/\r\n    }\r\n\r\n    function hashTreeRootPair(bytes32 _left, bytes32 _right) public pure returns (bytes32) {\r\n        return sha256(concat(_left, _right));\r\n    }\r\n    \r\n    function hashTreeRootBlspubkey (bytes memory _blspubkey) public pure returns (bytes32) {\r\n        bytes memory blspubkeyMerkleizedLeft = _blspubkey.slice(0, 32);\r\n        bytes memory blspubkeyMerkleizedRight = _blspubkey.slice(32, 16);\r\n        blspubkeyMerkleizedRight = blspubkeyMerkleizedRight.concat(bytes(hex\"00000000000000000000000000000000\"));\r\n        /* fallback w/o library\r\n        bytes memory blspubkeyMerkleizedLeft = new bytes(32);\r\n        for (uint i = 0; i<32; i++) {\r\n            blspubkeyMerkleizedLeft[i] = _blspubkey[i];\r\n        }\r\n        bytes memory blspubkeyMerkleizedRight = new bytes(32);\r\n        for (uint i = 0; i<16; i++) { // rest of blspubkeyMerkleizedRight is initialized zero\r\n            blspubkeyMerkleizedRight[i] = _blspubkey[i+32];\r\n        }*/\r\n        return hashTreeRootPair(bytesToBytes32(blspubkeyMerkleizedLeft), bytesToBytes32(blspubkeyMerkleizedRight));\r\n    }\r\n    \r\n    function computeSigningRoot(bytes32 _blockRoot, bytes32 _signingDomain) public pure returns (bytes32) {\r\n        return hashTreeRootPair(_blockRoot, _signingDomain);\r\n    }\r\n    \r\n    function bytesToBytes8(bytes memory _input) public pure returns (bytes8 result) {\r\n        if (_input.length == 0) {\r\n            return 0x0;\r\n        }\r\n        assembly {\r\n            result := mload(add(_input, 32))\r\n        }\r\n    }\r\n    \r\n    function bytesToBytes32(bytes memory _input) public pure returns (bytes32 result) {\r\n        if (_input.length == 0) {\r\n            return 0x0;\r\n        }\r\n        assembly {\r\n            result := mload(add(_input, 32))\r\n        }\r\n    }\r\n\r\n    function revertBytes8(bytes8 _input) public pure returns (bytes8) {\r\n        bytes memory reverted = new bytes(8);\r\n        for (uint i = 0; i < 8; i++) {\r\n            reverted[7-i] = _input[i];\r\n        }\r\n        return bytesToBytes8(reverted);\r\n    }\r\n\r\n    function merklelizeSlot(uint64 _input) public pure returns (bytes32) {\r\n        return bytes32(revertBytes8(bytes8(_input)));\r\n    }\r\n    \r\n    function bitLength(uint _input) public pure returns (uint) {\r\n        uint length = 0;\r\n        while (_input != 0) \r\n        {\r\n            _input >>= 1; \r\n            length++; \r\n        }\r\n        return length;\r\n    }\r\n    \r\n    function nextPowOfTwo(uint _input) public pure returns (uint) {\r\n        if (_input == 0) {\r\n            return 1;\r\n        } else {\r\n            return 2**(bitLength(_input-1));\r\n        }\r\n    }\r\n    \r\n    function floorLog2 (uint _input) public pure returns (uint) {\r\n        require(_input >= 1, \"_input to floorLog2 must be larger or equal than 1\");\r\n        return bitLength(_input)-1;\r\n    }\r\n    \r\n    function merkleize(bytes32[SYNC_COMMITTEE_SIZE] memory _chunks) public pure returns (bytes32) {\r\n        uint length_next_pow = nextPowOfTwo(_chunks.length);\r\n        for (uint i = _chunks.length; i < length_next_pow; i++) {\r\n           // filling lowest level not necessary b/c size always 2^n\r\n        }\r\n        for (uint level = 0; level<floorLog2(length_next_pow); level++) {\r\n            uint step = 2**level;\r\n            for (uint current_accumulator = 0; current_accumulator < length_next_pow; current_accumulator += step*2) {\r\n                _chunks[current_accumulator] = hashTreeRootPair(_chunks[current_accumulator], _chunks[current_accumulator+step]);\r\n            }\r\n        }\r\n        return _chunks[0];\r\n    }\r\n    \r\n    function hashTreeRootSyncCommittee(bytes[SYNC_COMMITTEE_SIZE] memory _syncCommittee, bytes memory _syncAggregate) public pure returns (bytes32) {\r\n        bytes32[SYNC_COMMITTEE_SIZE] memory syncCommitteeHashed;\r\n        for (uint i = 0; i < SYNC_COMMITTEE_SIZE; i++) {\r\n            syncCommitteeHashed[i] = hashTreeRootBlspubkey(_syncCommittee[i]);\r\n        }\r\n        bytes32 syncCommitteeHashedMerkleized = merkleize(syncCommitteeHashed);\r\n        bytes32 syncCommitteeRoot = hashTreeRootPair(syncCommitteeHashedMerkleized, hashTreeRootBlspubkey(_syncAggregate));\r\n        return syncCommitteeRoot;\r\n    }\r\n    \r\n    function getSubtreeIndex(uint _generalizedIndex) public pure returns (uint) {\r\n        return _generalizedIndex % 2**(floorLog2(_generalizedIndex));\r\n    }\r\n    \r\n    function validateMerkleBranch(bytes32 _root, bytes32 _leaf, uint _generalizedIndex, bytes32[] memory _branch) public pure returns (bool) {\r\n        uint index = getSubtreeIndex(_generalizedIndex);\r\n        uint depth = floorLog2(_generalizedIndex);\r\n        bytes32 value = _leaf;\r\n        for (uint i = 0; i < depth; i++) {\r\n            if ((index / (2**i) % 2) == 1) {\r\n                value = sha256(concat(_branch[i],value));\r\n            } else {\r\n                value = sha256(concat(value,_branch[i]));\r\n            }\r\n        }\r\n        return value == _root;\r\n    }\r\n    \r\n}",
  "sourcePath": "/mnt/d/Documents/GitHub/ResearchProject/PoSChainRelayEthereumHolesky/contracts/Eth2ChainRelay_512_NoStorage.sol",
  "compiler": {
    "name": "solc",
    "version": "0.8.6+commit.11564f7e.Emscripten.clang"
  },
  "schemaVersion": "3.4.16",
  "updatedAt": "2024-01-18T07:45:27.639Z",
  "devdoc": {
    "details": "Implements a chain relay/light client for eth2 consensus post-altair (including sync committees)",
    "kind": "dev",
    "methods": {},
    "title": "Chain Relay",
    "version": 1
  },
  "userdoc": {
    "kind": "user",
    "methods": {},
    "version": 1
  }
}