{
  "contractName": "Eth2ChainRelay_512_NoStorage_Client",
  "abi": [
    {
      "inputs": [
        {
          "internalType": "uint64",
          "name": "_signatureThreshold",
          "type": "uint64"
        },
        {
          "internalType": "uint64",
          "name": "_trustingPeriod",
          "type": "uint64"
        },
        {
          "internalType": "bytes32",
          "name": "_finalizedBlockRoot",
          "type": "bytes32"
        },
        {
          "internalType": "bytes32",
          "name": "_finalizedStateRoot",
          "type": "bytes32"
        },
        {
          "internalType": "uint64",
          "name": "_finalizedSlot",
          "type": "uint64"
        },
        {
          "internalType": "uint64",
          "name": "_latestSlot",
          "type": "uint64"
        },
        {
          "internalType": "uint64",
          "name": "_latestSlotWithValidatorSetChange",
          "type": "uint64"
        }
      ],
      "stateMutability": "nonpayable",
      "type": "constructor"
    },
    {
      "inputs": [],
      "name": "getLatestSlotWithValidatorSetChange",
      "outputs": [
        {
          "internalType": "uint64",
          "name": "",
          "type": "uint64"
        }
      ],
      "stateMutability": "view",
      "type": "function"
    },
    {
      "inputs": [],
      "name": "getFinalizedBlockRoot",
      "outputs": [
        {
          "internalType": "bytes32",
          "name": "",
          "type": "bytes32"
        }
      ],
      "stateMutability": "view",
      "type": "function"
    },
    {
      "inputs": [],
      "name": "getFinalizedStateRoot",
      "outputs": [
        {
          "internalType": "bytes32",
          "name": "",
          "type": "bytes32"
        }
      ],
      "stateMutability": "view",
      "type": "function"
    },
    {
      "inputs": [
        {
          "internalType": "bytes32",
          "name": "message",
          "type": "bytes32"
        },
        {
          "internalType": "bytes",
          "name": "signature",
          "type": "bytes"
        },
        {
          "internalType": "bytes[]",
          "name": "pubkeys",
          "type": "bytes[]"
        }
      ],
      "name": "testEncoding",
      "outputs": [
        {
          "internalType": "bytes",
          "name": "",
          "type": "bytes"
        }
      ],
      "stateMutability": "view",
      "type": "function"
    },
    {
      "inputs": [
        {
          "internalType": "bytes[512]",
          "name": "committee",
          "type": "bytes[512]"
        },
        {
          "internalType": "bytes",
          "name": "aggregate",
          "type": "bytes"
        }
      ],
      "name": "testJustStoreSyncCommittee",
      "outputs": [],
      "stateMutability": "nonpayable",
      "type": "function"
    },
    {
      "inputs": [
        {
          "internalType": "bytes[512]",
          "name": "committee",
          "type": "bytes[512]"
        },
        {
          "internalType": "bytes",
          "name": "aggregate",
          "type": "bytes"
        }
      ],
      "name": "testJustDoSyncCommitteeMerkleizationFromMemory",
      "outputs": [
        {
          "internalType": "bytes32",
          "name": "",
          "type": "bytes32"
        }
      ],
      "stateMutability": "nonpayable",
      "type": "function"
    },
    {
      "inputs": [],
      "name": "testJustDoSyncCommitteeMerkleizationFromStorage",
      "outputs": [
        {
          "internalType": "bytes32",
          "name": "",
          "type": "bytes32"
        }
      ],
      "stateMutability": "nonpayable",
      "type": "function"
    },
    {
      "inputs": [],
      "name": "testJustReadSyncCommitteeFromStorage",
      "outputs": [
        {
          "internalType": "bytes[512]",
          "name": "",
          "type": "bytes[512]"
        }
      ],
      "stateMutability": "nonpayable",
      "type": "function"
    },
    {
      "inputs": [
        {
          "internalType": "bytes[512]",
          "name": "",
          "type": "bytes[512]"
        }
      ],
      "name": "testJustSubmitSyncCommitteeViaMemory",
      "outputs": [
        {
          "internalType": "bool",
          "name": "",
          "type": "bool"
        }
      ],
      "stateMutability": "nonpayable",
      "type": "function"
    },
    {
      "inputs": [
        {
          "internalType": "bytes[512]",
          "name": "",
          "type": "bytes[512]"
        }
      ],
      "name": "testJustSubmitSyncCommitteeViaCalldata",
      "outputs": [
        {
          "internalType": "bool",
          "name": "",
          "type": "bool"
        }
      ],
      "stateMutability": "nonpayable",
      "type": "function"
    },
    {
      "inputs": [
        {
          "components": [
            {
              "internalType": "bytes",
              "name": "signature",
              "type": "bytes"
            },
            {
              "internalType": "bool[512]",
              "name": "participants",
              "type": "bool[512]"
            },
            {
              "internalType": "bytes32",
              "name": "latestBlockRoot",
              "type": "bytes32"
            },
            {
              "internalType": "bytes32",
              "name": "signingDomain",
              "type": "bytes32"
            },
            {
              "internalType": "bytes32",
              "name": "stateRoot",
              "type": "bytes32"
            },
            {
              "internalType": "bytes32[]",
              "name": "stateRootBranch",
              "type": "bytes32[]"
            },
            {
              "internalType": "uint64",
              "name": "latestSlot",
              "type": "uint64"
            },
            {
              "internalType": "bytes32[]",
              "name": "latestSlotBranch",
              "type": "bytes32[]"
            },
            {
              "internalType": "bytes32",
              "name": "finalizedBlockRoot",
              "type": "bytes32"
            },
            {
              "internalType": "bytes32[]",
              "name": "finalizingBranch",
              "type": "bytes32[]"
            },
            {
              "internalType": "uint64",
              "name": "finalizedSlot",
              "type": "uint64"
            },
            {
              "internalType": "bytes32[]",
              "name": "finalizedSlotBranch",
              "type": "bytes32[]"
            },
            {
              "internalType": "bytes32",
              "name": "finalizedStateRoot",
              "type": "bytes32"
            },
            {
              "internalType": "bytes32[]",
              "name": "finalizedStateRootBranch",
              "type": "bytes32[]"
            },
            {
              "internalType": "bytes[512]",
              "name": "syncCommittee",
              "type": "bytes[512]"
            },
            {
              "internalType": "bytes",
              "name": "syncCommitteeAggregate",
              "type": "bytes"
            },
            {
              "internalType": "bytes32[]",
              "name": "syncCommitteeBranch",
              "type": "bytes32[]"
            }
          ],
          "internalType": "struct ChainRelayUpdate",
          "name": "_chainRelayUpdate",
          "type": "tuple"
        }
      ],
      "name": "testDoNothingWithData",
      "outputs": [
        {
          "internalType": "bool",
          "name": "",
          "type": "bool"
        }
      ],
      "stateMutability": "nonpayable",
      "type": "function"
    },
    {
      "inputs": [
        {
          "components": [
            {
              "internalType": "bytes",
              "name": "signature",
              "type": "bytes"
            },
            {
              "internalType": "bool[512]",
              "name": "participants",
              "type": "bool[512]"
            },
            {
              "internalType": "bytes32",
              "name": "latestBlockRoot",
              "type": "bytes32"
            },
            {
              "internalType": "bytes32",
              "name": "signingDomain",
              "type": "bytes32"
            },
            {
              "internalType": "bytes32",
              "name": "stateRoot",
              "type": "bytes32"
            },
            {
              "internalType": "bytes32[]",
              "name": "stateRootBranch",
              "type": "bytes32[]"
            },
            {
              "internalType": "uint64",
              "name": "latestSlot",
              "type": "uint64"
            },
            {
              "internalType": "bytes32[]",
              "name": "latestSlotBranch",
              "type": "bytes32[]"
            },
            {
              "internalType": "bytes32",
              "name": "finalizedBlockRoot",
              "type": "bytes32"
            },
            {
              "internalType": "bytes32[]",
              "name": "finalizingBranch",
              "type": "bytes32[]"
            },
            {
              "internalType": "uint64",
              "name": "finalizedSlot",
              "type": "uint64"
            },
            {
              "internalType": "bytes32[]",
              "name": "finalizedSlotBranch",
              "type": "bytes32[]"
            },
            {
              "internalType": "bytes32",
              "name": "finalizedStateRoot",
              "type": "bytes32"
            },
            {
              "internalType": "bytes32[]",
              "name": "finalizedStateRootBranch",
              "type": "bytes32[]"
            },
            {
              "internalType": "bytes[512]",
              "name": "syncCommittee",
              "type": "bytes[512]"
            },
            {
              "internalType": "bytes",
              "name": "syncCommitteeAggregate",
              "type": "bytes"
            },
            {
              "internalType": "bytes32[]",
              "name": "syncCommitteeBranch",
              "type": "bytes32[]"
            }
          ],
          "internalType": "struct ChainRelayUpdate",
          "name": "_chainRelayUpdate",
          "type": "tuple"
        }
      ],
      "name": "submitUpdate",
      "outputs": [
        {
          "internalType": "bool",
          "name": "",
          "type": "bool"
        }
      ],
      "stateMutability": "nonpayable",
      "type": "function"
    },
    {
      "inputs": [
        {
          "components": [
            {
              "internalType": "bytes",
              "name": "signature",
              "type": "bytes"
            },
            {
              "internalType": "bool[512]",
              "name": "participants",
              "type": "bool[512]"
            },
            {
              "internalType": "bytes32",
              "name": "latestBlockRoot",
              "type": "bytes32"
            },
            {
              "internalType": "bytes32",
              "name": "signingDomain",
              "type": "bytes32"
            },
            {
              "internalType": "bytes32",
              "name": "stateRoot",
              "type": "bytes32"
            },
            {
              "internalType": "bytes32[]",
              "name": "stateRootBranch",
              "type": "bytes32[]"
            },
            {
              "internalType": "uint64",
              "name": "latestSlot",
              "type": "uint64"
            },
            {
              "internalType": "bytes32[]",
              "name": "latestSlotBranch",
              "type": "bytes32[]"
            },
            {
              "internalType": "bytes32",
              "name": "finalizedBlockRoot",
              "type": "bytes32"
            },
            {
              "internalType": "bytes32[]",
              "name": "finalizingBranch",
              "type": "bytes32[]"
            },
            {
              "internalType": "uint64",
              "name": "finalizedSlot",
              "type": "uint64"
            },
            {
              "internalType": "bytes32[]",
              "name": "finalizedSlotBranch",
              "type": "bytes32[]"
            },
            {
              "internalType": "bytes32",
              "name": "finalizedStateRoot",
              "type": "bytes32"
            },
            {
              "internalType": "bytes32[]",
              "name": "finalizedStateRootBranch",
              "type": "bytes32[]"
            },
            {
              "internalType": "bytes[512]",
              "name": "syncCommittee",
              "type": "bytes[512]"
            },
            {
              "internalType": "bytes",
              "name": "syncCommitteeAggregate",
              "type": "bytes"
            },
            {
              "internalType": "bytes32[]",
              "name": "syncCommitteeBranch",
              "type": "bytes32[]"
            }
          ],
          "internalType": "struct ChainRelayUpdate",
          "name": "_chainRelayUpdate",
          "type": "tuple"
        }
      ],
      "name": "getValuesBack",
      "outputs": [
        {
          "components": [
            {
              "internalType": "bytes32",
              "name": "finalizedBlockRoot",
              "type": "bytes32"
            },
            {
              "internalType": "bytes32",
              "name": "finalizedStateRoot",
              "type": "bytes32"
            },
            {
              "internalType": "uint64",
              "name": "latestSlot",
              "type": "uint64"
            },
            {
              "internalType": "uint64",
              "name": "finalizedSlot",
              "type": "uint64"
            }
          ],
          "internalType": "struct DataBack",
          "name": "",
          "type": "tuple"
        }
      ],
      "stateMutability": "payable",
      "type": "function"
    },
    {
      "inputs": [],
      "name": "verifyTransaction",
      "outputs": [
        {
          "internalType": "uint64",
          "name": "",
          "type": "uint64"
        }
      ],
      "stateMutability": "payable",
      "type": "function"
    },
    {
      "inputs": [],
      "name": "verifyReceipt",
      "outputs": [
        {
          "internalType": "uint8",
          "name": "",
          "type": "uint8"
        }
      ],
      "stateMutability": "payable",
      "type": "function"
    },
    {
      "inputs": [
        {
          "internalType": "bytes[512]",
          "name": "_pubkeys",
          "type": "bytes[512]"
        },
        {
          "internalType": "bool[512]",
          "name": "_isActive",
          "type": "bool[512]"
        },
        {
          "internalType": "uint256",
          "name": "_numberOfActive",
          "type": "uint256"
        }
      ],
      "name": "getActiveValidators",
      "outputs": [
        {
          "internalType": "bytes[]",
          "name": "",
          "type": "bytes[]"
        }
      ],
      "stateMutability": "pure",
      "type": "function"
    },
    {
      "inputs": [
        {
          "internalType": "bool[512]",
          "name": "_bools",
          "type": "bool[512]"
        }
      ],
      "name": "countTrueBools",
      "outputs": [
        {
          "internalType": "uint256",
          "name": "",
          "type": "uint256"
        }
      ],
      "stateMutability": "pure",
      "type": "function"
    },
    {
      "inputs": [
        {
          "internalType": "bytes32",
          "name": "_message",
          "type": "bytes32"
        },
        {
          "internalType": "bytes",
          "name": "_signature",
          "type": "bytes"
        },
        {
          "internalType": "bytes[]",
          "name": "_pubkeys",
          "type": "bytes[]"
        }
      ],
      "name": "serializeAggregateSignature",
      "outputs": [
        {
          "internalType": "bytes",
          "name": "",
          "type": "bytes"
        }
      ],
      "stateMutability": "pure",
      "type": "function"
    },
    {
      "inputs": [
        {
          "internalType": "bytes",
          "name": "_input",
          "type": "bytes"
        }
      ],
      "name": "fastAggregateVerify",
      "outputs": [
        {
          "internalType": "bool",
          "name": "o",
          "type": "bool"
        }
      ],
      "stateMutability": "view",
      "type": "function"
    },
    {
      "inputs": [
        {
          "internalType": "uint256",
          "name": "_slot",
          "type": "uint256"
        }
      ],
      "name": "slotToUnixTimestamp",
      "outputs": [
        {
          "internalType": "uint256",
          "name": "timestamp",
          "type": "uint256"
        }
      ],
      "stateMutability": "pure",
      "type": "function"
    },
    {
      "inputs": [
        {
          "internalType": "bytes32",
          "name": "_input",
          "type": "bytes32"
        }
      ],
      "name": "bytes32ToBytes",
      "outputs": [
        {
          "internalType": "bytes",
          "name": "output",
          "type": "bytes"
        }
      ],
      "stateMutability": "pure",
      "type": "function"
    },
    {
      "inputs": [
        {
          "internalType": "bytes2",
          "name": "_input",
          "type": "bytes2"
        }
      ],
      "name": "bytes2ToBytes",
      "outputs": [
        {
          "internalType": "bytes",
          "name": "output",
          "type": "bytes"
        }
      ],
      "stateMutability": "pure",
      "type": "function"
    },
    {
      "inputs": [
        {
          "internalType": "bytes32",
          "name": "_left",
          "type": "bytes32"
        },
        {
          "internalType": "bytes32",
          "name": "_right",
          "type": "bytes32"
        }
      ],
      "name": "concat",
      "outputs": [
        {
          "internalType": "bytes",
          "name": "",
          "type": "bytes"
        }
      ],
      "stateMutability": "pure",
      "type": "function"
    },
    {
      "inputs": [
        {
          "internalType": "bytes32",
          "name": "_left",
          "type": "bytes32"
        },
        {
          "internalType": "bytes32",
          "name": "_right",
          "type": "bytes32"
        }
      ],
      "name": "hashTreeRootPair",
      "outputs": [
        {
          "internalType": "bytes32",
          "name": "",
          "type": "bytes32"
        }
      ],
      "stateMutability": "pure",
      "type": "function"
    },
    {
      "inputs": [
        {
          "internalType": "bytes",
          "name": "_blspubkey",
          "type": "bytes"
        }
      ],
      "name": "hashTreeRootBlspubkey",
      "outputs": [
        {
          "internalType": "bytes32",
          "name": "",
          "type": "bytes32"
        }
      ],
      "stateMutability": "pure",
      "type": "function"
    },
    {
      "inputs": [
        {
          "internalType": "bytes32",
          "name": "_blockRoot",
          "type": "bytes32"
        },
        {
          "internalType": "bytes32",
          "name": "_signingDomain",
          "type": "bytes32"
        }
      ],
      "name": "computeSigningRoot",
      "outputs": [
        {
          "internalType": "bytes32",
          "name": "",
          "type": "bytes32"
        }
      ],
      "stateMutability": "pure",
      "type": "function"
    },
    {
      "inputs": [
        {
          "internalType": "bytes",
          "name": "_input",
          "type": "bytes"
        }
      ],
      "name": "bytesToBytes8",
      "outputs": [
        {
          "internalType": "bytes8",
          "name": "result",
          "type": "bytes8"
        }
      ],
      "stateMutability": "pure",
      "type": "function"
    },
    {
      "inputs": [
        {
          "internalType": "bytes",
          "name": "_input",
          "type": "bytes"
        }
      ],
      "name": "bytesToBytes32",
      "outputs": [
        {
          "internalType": "bytes32",
          "name": "result",
          "type": "bytes32"
        }
      ],
      "stateMutability": "pure",
      "type": "function"
    },
    {
      "inputs": [
        {
          "internalType": "bytes8",
          "name": "_input",
          "type": "bytes8"
        }
      ],
      "name": "revertBytes8",
      "outputs": [
        {
          "internalType": "bytes8",
          "name": "",
          "type": "bytes8"
        }
      ],
      "stateMutability": "pure",
      "type": "function"
    },
    {
      "inputs": [
        {
          "internalType": "uint64",
          "name": "_input",
          "type": "uint64"
        }
      ],
      "name": "merklelizeSlot",
      "outputs": [
        {
          "internalType": "bytes32",
          "name": "",
          "type": "bytes32"
        }
      ],
      "stateMutability": "pure",
      "type": "function"
    },
    {
      "inputs": [
        {
          "internalType": "uint256",
          "name": "_input",
          "type": "uint256"
        }
      ],
      "name": "bitLength",
      "outputs": [
        {
          "internalType": "uint256",
          "name": "",
          "type": "uint256"
        }
      ],
      "stateMutability": "pure",
      "type": "function"
    },
    {
      "inputs": [
        {
          "internalType": "uint256",
          "name": "_input",
          "type": "uint256"
        }
      ],
      "name": "nextPowOfTwo",
      "outputs": [
        {
          "internalType": "uint256",
          "name": "",
          "type": "uint256"
        }
      ],
      "stateMutability": "pure",
      "type": "function"
    },
    {
      "inputs": [
        {
          "internalType": "uint256",
          "name": "_input",
          "type": "uint256"
        }
      ],
      "name": "floorLog2",
      "outputs": [
        {
          "internalType": "uint256",
          "name": "",
          "type": "uint256"
        }
      ],
      "stateMutability": "pure",
      "type": "function"
    },
    {
      "inputs": [
        {
          "internalType": "bytes32[512]",
          "name": "_chunks",
          "type": "bytes32[512]"
        }
      ],
      "name": "merkleize",
      "outputs": [
        {
          "internalType": "bytes32",
          "name": "",
          "type": "bytes32"
        }
      ],
      "stateMutability": "pure",
      "type": "function"
    },
    {
      "inputs": [
        {
          "internalType": "bytes[512]",
          "name": "_syncCommittee",
          "type": "bytes[512]"
        },
        {
          "internalType": "bytes",
          "name": "_syncAggregate",
          "type": "bytes"
        }
      ],
      "name": "hashTreeRootSyncCommittee",
      "outputs": [
        {
          "internalType": "bytes32",
          "name": "",
          "type": "bytes32"
        }
      ],
      "stateMutability": "pure",
      "type": "function"
    },
    {
      "inputs": [
        {
          "internalType": "uint256",
          "name": "_generalizedIndex",
          "type": "uint256"
        }
      ],
      "name": "getSubtreeIndex",
      "outputs": [
        {
          "internalType": "uint256",
          "name": "",
          "type": "uint256"
        }
      ],
      "stateMutability": "pure",
      "type": "function"
    },
    {
      "inputs": [
        {
          "internalType": "bytes32",
          "name": "_root",
          "type": "bytes32"
        },
        {
          "internalType": "bytes32",
          "name": "_leaf",
          "type": "bytes32"
        },
        {
          "internalType": "uint256",
          "name": "_generalizedIndex",
          "type": "uint256"
        },
        {
          "internalType": "bytes32[]",
          "name": "_branch",
          "type": "bytes32[]"
        }
      ],
      "name": "validateMerkleBranch",
      "outputs": [
        {
          "internalType": "bool",
          "name": "",
          "type": "bool"
        }
      ],
      "stateMutability": "pure",
      "type": "function"
    }
  ],
  "bytecode": "0x60806040523480156200001157600080fd5b50604051620042733803806200427383398181016040528101906200003791906200014c565b866000806101000a81548167ffffffffffffffff021916908367ffffffffffffffff16021790555085600060086101000a81548167ffffffffffffffff021916908367ffffffffffffffff1602179055508460038190555081600560006101000a81548167ffffffffffffffff021916908367ffffffffffffffff16021790555080600560086101000a81548167ffffffffffffffff021916908367ffffffffffffffff16021790555082600560106101000a81548167ffffffffffffffff021916908367ffffffffffffffff160217905550836004819055505050505050505062000256565b6000815190506200012f8162000222565b92915050565b60008151905062000146816200023c565b92915050565b600080600080600080600060e0888a0312156200016e576200016d6200021d565b5b60006200017e8a828b0162000135565b9750506020620001918a828b0162000135565b9650506040620001a48a828b016200011e565b9550506060620001b78a828b016200011e565b9450506080620001ca8a828b0162000135565b93505060a0620001dd8a828b0162000135565b92505060c0620001f08a828b0162000135565b91505092959891949750929550565b6000819050919050565b600067ffffffffffffffff82169050919050565b600080fd5b6200022d81620001ff565b81146200023957600080fd5b50565b620002478162000209565b81146200025357600080fd5b50565b61400d80620002666000396000f3fe60806040526004361061021a5760003560e01c80637b9e620011610123578063b8ffb2e3116100ab578063e41bbcf81161006f578063e41bbcf814610925578063e92938ab14610962578063f218850e1461099f578063f7908f00146109dc578063fe24511e146109fa5761021a565b8063b8ffb2e314610818578063bfe370d914610855578063c36a13da14610892578063c9d9fc25146108cf578063d344309a146108fa5761021a565b80639eb51fce116100f25780639eb51fce146106e7578063a720126014610724578063a9755eb114610761578063b1e9f2a01461079e578063b537de4f146107db5761021a565b80637b9e6200146105f35780637e7f232a14610630578063809d74ba1461066d5780639110bc53146106aa5761021a565b80634c0999c7116101a6578063639f30c311610175578063639f30c314610500578063677705f81461052b5780636c2774d0146105685780636e1e76b914610598578063754fdd9a146105d55761021a565b80634c0999c71461043257806356f07c061461046f5780635b8208581461049a5780635c552879146104c35761021a565b8063398fd9d4116101ed578063398fd9d41461030157806339f4babd1461033e5780633fccb97b1461037b578063404c2a71146103b857806345b8bafc146103f55761021a565b806320435b8d1461021f578063255f37911461025c5780632b224751146102995780632c26bfd4146102d6575b600080fd5b34801561022b57600080fd5b5061024660048036038101906102419190612c8b565b610a37565b6040516102539190613208565b60405180910390f35b34801561026857600080fd5b50610283600480360381019061027e91906129c8565b610e63565b6040516102909190613223565b60405180910390f35b3480156102a557600080fd5b506102c060048036038101906102bb9190612897565b610efb565b6040516102cd9190613223565b60405180910390f35b3480156102e257600080fd5b506102eb611017565b6040516102f89190613223565b60405180910390f35b34801561030d57600080fd5b5061032860048036038101906103239190612c42565b611021565b6040516103359190613208565b60405180910390f35b34801561034a57600080fd5b5061036560048036038101906103609190612b8a565b611078565b604051610372919061329e565b60405180910390f35b34801561038757600080fd5b506103a2600480360381019061039d9190612cd4565b6110a7565b6040516103af919061343b565b60405180910390f35b3480156103c457600080fd5b506103df60048036038101906103da9190612d01565b6110cc565b6040516103ec9190613223565b60405180910390f35b34801561040157600080fd5b5061041c60048036038101906104179190612cd4565b6110fc565b604051610429919061343b565b60405180910390f35b34801561043e57600080fd5b5061045960048036038101906104549190612a6d565b61115e565b604051610466919061329e565b60405180910390f35b34801561047b57600080fd5b50610484611187565b6040516104919190613223565b60405180910390f35b3480156104a657600080fd5b506104c160048036038101906104bc91906129c8565b611191565b005b3480156104cf57600080fd5b506104ea60048036038101906104e59190612c42565b6111c0565b6040516104f79190613283565b60405180910390f35b34801561050c57600080fd5b506105156111e4565b6040516105229190613456565b60405180910390f35b34801561053757600080fd5b50610552600480360381019061054d919061290e565b611202565b60405161055f9190613208565b60405180910390f35b610582600480360381019061057d9190612c8b565b61120d565b60405161058f9190613420565b60405180910390f35b3480156105a457600080fd5b506105bf60048036038101906105ba9190612c15565b6112b6565b6040516105cc9190613283565b60405180910390f35b6105dd61139f565b6040516105ea9190613471565b60405180910390f35b3480156105ff57600080fd5b5061061a60048036038101906106159190612ac7565b6113a4565b604051610627919061329e565b60405180910390f35b34801561063c57600080fd5b5061065760048036038101906106529190612b8a565b6113d0565b604051610664919061329e565b60405180910390f35b34801561067957600080fd5b50610694600480360381019061068f9190612869565b6116c0565b6040516106a1919061343b565b60405180910390f35b3480156106b657600080fd5b506106d160048036038101906106cc91906129c8565b611725565b6040516106de9190613223565b60405180910390f35b3480156106f357600080fd5b5061070e60048036038101906107099190612ac7565b611739565b60405161071b9190613223565b60405180910390f35b34801561073057600080fd5b5061074b600480360381019061074691906128c5565b61179c565b6040516107589190613208565b60405180910390f35b34801561076d57600080fd5b5061078860048036038101906107839190612a40565b6117a7565b604051610795919061329e565b60405180910390f35b3480156107aa57600080fd5b506107c560048036038101906107c09190612cd4565b6117d0565b6040516107d2919061343b565b60405180910390f35b3480156107e757600080fd5b5061080260048036038101906107fd9190612c8b565b6117f9565b60405161080f9190613208565b60405180910390f35b34801561082457600080fd5b5061083f600480360381019061083a9190612cd4565b611821565b60405161084c919061343b565b60405180910390f35b34801561086157600080fd5b5061087c60048036038101906108779190612c42565b61185d565b6040516108899190613223565b60405180910390f35b34801561089e57600080fd5b506108b960048036038101906108b49190612c42565b611880565b6040516108c69190613223565b60405180910390f35b3480156108db57600080fd5b506108e4611905565b6040516108f191906131c4565b60405180910390f35b34801561090657600080fd5b5061090f6119d3565b60405161091c9190613223565b60405180910390f35b34801561093157600080fd5b5061094c60048036038101906109479190612cd4565b611b2f565b604051610959919061343b565b60405180910390f35b34801561096e57600080fd5b5061098960048036038101906109849190612ac7565b611b62565b6040516109969190613223565b60405180910390f35b3480156109ab57600080fd5b506109c660048036038101906109c19190612b07565b611b76565b6040516109d39190613208565b60405180910390f35b6109e4611ce1565b6040516109f19190613456565b60405180910390f35b348015610a0657600080fd5b50610a216004803603810190610a1c9190612957565b611ce6565b604051610a2e91906131e6565b60405180910390f35b600080610a4c83604001518460600151611b62565b90506000610a5d84602001516116c0565b905060008054906101000a900467ffffffffffffffff1667ffffffffffffffff16811015610ac0576040517f08c379a0000000000000000000000000000000000000000000000000000000008152600401610ab7906133a0565b60405180910390fd5b610ad984604001518560800151600b8760a00151611b76565b610b18576040517f08c379a0000000000000000000000000000000000000000000000000000000008152600401610b0f90613400565b60405180910390fd5b610b398460400151610b2d8660c001516110cc565b60088760e00151611b76565b610b78576040517f08c379a0000000000000000000000000000000000000000000000000000000008152600401610b6f90613340565b60405180910390fd5b610b9c846101000151610b8f8661014001516110cc565b6008876101600151611b76565b610bdb576040517f08c379a0000000000000000000000000000000000000000000000000000000008152600401610bd290613300565b60405180910390fd5b610bf7846101000151856101800151600b876101a00151611b76565b610c36576040517f08c379a0000000000000000000000000000000000000000000000000000000008152600401610c2d906132c0565b60405180910390fd5b600560009054906101000a900467ffffffffffffffff1667ffffffffffffffff168460c0015167ffffffffffffffff161015610ca7576040517f08c379a0000000000000000000000000000000000000000000000000000000008152600401610c9e90613380565b60405180910390fd5b600560109054906101000a900467ffffffffffffffff1667ffffffffffffffff1684610140015167ffffffffffffffff161015610d19576040517f08c379a0000000000000000000000000000000000000000000000000000000008152600401610d1090613320565b60405180910390fd5b6000600560089054906101000a900467ffffffffffffffff168560c00151610d4191906138e2565b67ffffffffffffffff169050610d77610d72848760000151610d6d896101c001518a6020015188611ce6565b6113d0565b611021565b610db6576040517f08c379a0000000000000000000000000000000000000000000000000000000008152600401610dad906133e0565b60405180910390fd5b846101400151600560086101000a81548167ffffffffffffffff021916908367ffffffffffffffff1602179055508461010001516003819055508461018001516004819055508460c00151600560006101000a81548167ffffffffffffffff021916908367ffffffffffffffff160217905550846101400151600560106101000a81548167ffffffffffffffff021916908367ffffffffffffffff16021790555060019350505050919050565b6000610e6d611f74565b60005b610200811015610ecb57610e9b85826102008110610e9157610e90613b6f565b5b6020020151611880565b82826102008110610eaf57610eae613b6f565b5b6020020181815250508080610ec390613a54565b915050610e70565b506000610ed782610efb565b90506000610eed82610ee887611880565b611739565b905080935050505092915050565b600080610f09610200611821565b9050600061020090505b81811015610f2e578080610f2690613a54565b915050610f13565b5060005b610f3b826110fc565b811015610ff4576000816002610f519190613736565b905060005b83811015610fdf57610fa386826102008110610f7557610f74613b6f565b5b6020020151878484610f87919061365c565b6102008110610f9957610f98613b6f565b5b6020020151611739565b86826102008110610fb757610fb6613b6f565b5b602002018181525050600282610fcd9190613854565b81610fd8919061365c565b9050610f56565b50508080610fec90613a54565b915050610f32565b50826000610200811061100a57611009613b6f565b5b6020020151915050919050565b6000600354905090565b600080156110325760019050611073565b61103a611f98565b6040518351602083826020880160055afa61105457600080fd5b50508060006001811061106a57611069613b6f565b5b60200201519150505b919050565b606083838360405160200161108f9392919061323e565b60405160208183030381529060405290509392505050565b6000635fc63057600c836110bb9190613854565b6110c5919061365c565b9050919050565b60006110da8260c01b6112b6565b77ffffffffffffffffffffffffffffffffffffffffffffffff19169050919050565b60006001821015611142576040517f08c379a0000000000000000000000000000000000000000000000000000000008152600401611139906132e0565b60405180910390fd5b600161114d83611b2f565b61115791906138ae565b9050919050565b6060816040516020016111719190613166565b6040516020818303038152906040529050919050565b6000600454905090565b816006906102006111a3929190611fba565b508061020690805190602001906111bb92919061200e565b505050565b600080825114156111d757600060c01b90506111df565b602082015190505b919050565b6000600560089054906101000a900467ffffffffffffffff16905090565b600060019050919050565b611215612094565b600061122983604001518460600151611b62565b9050600061123a84602001516116c0565b9050611244612094565b8461010001518160000181815250508461018001518160200181815250508460c00151816040019067ffffffffffffffff16908167ffffffffffffffff1681525050846101400151816060019067ffffffffffffffff16908167ffffffffffffffff1681525050809350505050919050565b600080600867ffffffffffffffff8111156112d4576112d3613b9e565b5b6040519080825280601f01601f1916602001820160405280156113065781602001600182028036833780820191505090505b50905060005b600881101561138d5783816008811061132857611327613b6f565b5b1a60f81b8282600761133a91906138ae565b8151811061134b5761134a613b6f565b5b60200101907effffffffffffffffffffffffffffffffffffffffffffffffffffffffffffff1916908160001a905350808061138590613a54565b91505061130c565b50611397816111c0565b915050919050565b600090565b606082826040516020016113b9929190613181565b604051602081830303815290604052905092915050565b60606000825160f01b90506000835160306113eb9190613854565b60826113f7919061365c565b67ffffffffffffffff8111156114105761140f613b9e565b5b6040519080825280601f01601f1916602001820160405280156114425781602001600182028036833780820191505090505b50905060005b60208110156114bd5786816020811061146457611463613b6f565b5b1a60f81b82828151811061147b5761147a613b6f565b5b60200101907effffffffffffffffffffffffffffffffffffffffffffffffffffffffffffff1916908160001a90535080806114b590613a54565b915050611448565b506000602090505b608081101561154d57856020826114dc91906138ae565b815181106114ed576114ec613b6f565b5b602001015160f81c60f81b82828151811061150b5761150a613b6f565b5b60200101907effffffffffffffffffffffffffffffffffffffffffffffffffffffffffffff1916908160001a905350808061154590613a54565b9150506114c5565b506000608090505b60828110156115d6578260808261156c91906138ae565b6002811061157d5761157c613b6f565b5b1a60f81b82828151811061159457611593613b6f565b5b60200101907effffffffffffffffffffffffffffffffffffffffffffffffffffffffffffff1916908160001a90535080806115ce90613a54565b915050611555565b5060005b84518110156116b35760005b603081101561169f5785828151811061160257611601613b6f565b5b6020026020010151818151811061161c5761161b613b6f565b5b602001015160f81c60f81b83826030856116369190613854565b6082611642919061365c565b61164c919061365c565b8151811061165d5761165c613b6f565b5b60200101907effffffffffffffffffffffffffffffffffffffffffffffffffffffffffffff1916908160001a905350808061169790613a54565b9150506115e6565b5080806116ab90613a54565b9150506115da565b5080925050509392505050565b6000806000905060005b61020081101561171b5760011515848261020081106116ec576116eb613b6f565b5b60200201511515141561170857818061170490613a54565b9250505b808061171390613a54565b9150506116ca565b5080915050919050565b60006117318383610e63565b905092915050565b6000600261174784846113a4565b60405161175491906131ad565b602060405180830381855afa158015611771573d6000803e3d6000fd5b5050506040513d601f19601f820116820180604052508101906117949190612a9a565b905092915050565b600060019050919050565b6060816040516020016117ba919061314b565b6040516020818303038152906040529050919050565b60006117db826110fc565b60026117e79190613736565b826117f29190613ab1565b9050919050565b6000610200826101c00151506102001415611817576001905061181c565b600090505b919050565b6000808214156118345760019050611858565b61184960018361184491906138ae565b611b2f565b60026118559190613736565b90505b919050565b60008082511415611873576000801b905061187b565b602082015190505b919050565b60008061189a6000602085611dcc9092919063ffffffff16565b905060006118b56020601086611dcc9092919063ffffffff16565b90506118e0604051806040016040528060108152602001600081525082611eea90919063ffffffff16565b90506118fc6118ee8361185d565b6118f78361185d565b611739565b92505050919050565b61190d6120d6565b600661020080602002604051908101604052809291906000905b828210156119ca57838201805461193d906139f1565b80601f0160208091040260200160405190810160405280929190818152602001828054611969906139f1565b80156119b65780601f1061198b576101008083540402835291602001916119b6565b820191906000526020600020905b81548152906001019060200180831161199957829003601f168201915b505050505081526020019060010190611927565b50505050905090565b6000611b2a600661020080602002604051908101604052809291906000905b82821015611a95578382018054611a08906139f1565b80601f0160208091040260200160405190810160405280929190818152602001828054611a34906139f1565b8015611a815780601f10611a5657610100808354040283529160200191611a81565b820191906000526020600020905b815481529060010190602001808311611a6457829003601f168201915b5050505050815260200190600101906119f2565b505050506102068054611aa7906139f1565b80601f0160208091040260200160405190810160405280929190818152602001828054611ad3906139f1565b8015611b205780601f10611af557610100808354040283529160200191611b20565b820191906000526020600020905b815481529060010190602001808311611b0357829003601f168201915b5050505050610e63565b905090565b600080600090505b60008314611b5957600183901c92508080611b5190613a54565b915050611b37565b80915050919050565b6000611b6e8383611739565b905092915050565b600080611b82846117d0565b90506000611b8f856110fc565b9050600086905060005b82811015611cd05760016002826002611bb29190613736565b86611bbd91906136b2565b611bc79190613ab1565b1415611c47576002611bf3878381518110611be557611be4613b6f565b5b6020026020010151846113a4565b604051611c0091906131ad565b602060405180830381855afa158015611c1d573d6000803e3d6000fd5b5050506040513d601f19601f82011682018060405250810190611c409190612a9a565b9150611cbd565b6002611c6d83888481518110611c6057611c5f613b6f565b5b60200260200101516113a4565b604051611c7a91906131ad565b602060405180830381855afa158015611c97573d6000803e3d6000fd5b5050506040513d601f19601f82011682018060405250810190611cba9190612a9a565b91505b8080611cc890613a54565b915050611b99565b508781149350505050949350505050565b600090565b606060008267ffffffffffffffff811115611d0457611d03613b9e565b5b604051908082528060200260200182016040528015611d3757816020015b6060815260200190600190039081611d225790505b5090506000805b610200811015611dbf5785816102008110611d5c57611d5b613b6f565b5b602002015115611dac5786816102008110611d7a57611d79613b6f565b5b6020020151838381518110611d9257611d91613b6f565b5b60200260200101819052508180611da890613a54565b9250505b8080611db790613a54565b915050611d3e565b5081925050509392505050565b606081601f83611ddc919061365c565b1015611e1d576040517f08c379a0000000000000000000000000000000000000000000000000000000008152600401611e1490613360565b60405180910390fd5b8183611e29919061365c565b84511015611e6c576040517f08c379a0000000000000000000000000000000000000000000000000000000008152600401611e63906133c0565b60405180910390fd5b6060821560008114611e8d5760405191506000825260208201604052611ede565b6040519150601f8416801560200281840101858101878315602002848b0101015b81831015611ecb5780518352602083019250602081019050611eae565b50868552601f19601f8301166040525050505b50809150509392505050565b6060806040519050835180825260208201818101602087015b81831015611f205780518352602083019250602081019050611f03565b50855192508351830184528091508282019050602086015b81831015611f555780518352602083019250602081019050611f38565b50601f19601f8851850115830101166040525050508091505092915050565b60405180614000016040528061020090602082028036833780820191505090505090565b6040518060200160405280600190602082028036833780820191505090505090565b826102008101928215611ffd579160200282015b82811115611ffc578251829080519060200190611fec92919061200e565b5091602001919060010190611fce565b5b50905061200a91906120ff565b5090565b82805461201a906139f1565b90600052602060002090601f01602090048101928261203c5760008555612083565b82601f1061205557805160ff1916838001178555612083565b82800160010185558215612083579182015b82811115612082578251825591602001919060010190612067565b5b5090506120909190612123565b5090565b60405180608001604052806000801916815260200160008019168152602001600067ffffffffffffffff168152602001600067ffffffffffffffff1681525090565b604051806140000160405280610200905b60608152602001906001900390816120e75790505090565b5b8082111561211f57600081816121169190612140565b50600101612100565b5090565b5b8082111561213c576000816000905550600101612124565b5090565b50805461214c906139f1565b6000825580601f1061215e575061217d565b601f01602090049060005260206000209081019061217c9190612123565b5b50565b600061219361218e846134b1565b61348c565b905080828560208602820111156121ad576121ac613bdc565b5b60005b858110156121dd57816121c38882612516565b8452602084019350602083019250506001810190506121b0565b5050509392505050565b60006121fa6121f5846134d7565b61348c565b9050808285602086028201111561221457612213613bdc565b5b60005b85811015612244578161222a8882612540565b845260208401935060208301925050600181019050612217565b5050509392505050565b600061226161225c846134fd565b61348c565b9050808382526020820190508285602086028201111561228457612283613bdc565b5b60005b858110156122b4578161229a8882612540565b845260208401935060208301925050600181019050612287565b5050509392505050565b60006122d16122cc84613529565b61348c565b905080828560208602820111156122eb576122ea613bdc565b5b60005b8581101561233957813567ffffffffffffffff81111561231157612310613bcd565b5b80860161231e898261257f565b855260208501945060208401935050506001810190506122ee565b5050509392505050565b60006123566123518461354f565b61348c565b9050808382526020820190508285602086028201111561237957612378613bdc565b5b60005b858110156123c757813567ffffffffffffffff81111561239f5761239e613bcd565b5b8086016123ac898261257f565b8552602085019450602084019350505060018101905061237c565b5050509392505050565b60006123e46123df8461357b565b61348c565b905082815260208101848484011115612400576123ff613be1565b5b61240b8482856139af565b509392505050565b600082601f83011261242857612427613bcd565b5b610200612436848285612180565b91505092915050565b600082601f83011261245457612453613bcd565b5b6102006124628482856121e7565b91505092915050565b600082601f8301126124805761247f613bcd565b5b813561249084826020860161224e565b91505092915050565b600081905082602061020002820111156124b6576124b5613bdc565b5b92915050565b600082601f8301126124d1576124d0613bcd565b5b6102006124df8482856122be565b91505092915050565b600082601f8301126124fd576124fc613bcd565b5b813561250d848260208601612343565b91505092915050565b60008135905061252581613f4d565b92915050565b60008135905061253a81613f64565b92915050565b60008135905061254f81613f7b565b92915050565b60008151905061256481613f7b565b92915050565b60008135905061257981613f92565b92915050565b600082601f83011261259457612593613bcd565b5b81356125a48482602086016123d1565b91505092915050565b600061420082840312156125c4576125c3613bd2565b5b6125cf61022061348c565b9050600082013567ffffffffffffffff8111156125ef576125ee613bd7565b5b6125fb8482850161257f565b600083015250602061260f84828501612413565b60208301525061402061262484828501612540565b60408301525061404061263984828501612540565b60608301525061406061264e84828501612540565b60808301525061408082013567ffffffffffffffff81111561267357612672613bd7565b5b61267f8482850161246b565b60a0830152506140a061269484828501612854565b60c0830152506140c082013567ffffffffffffffff8111156126b9576126b8613bd7565b5b6126c58482850161246b565b60e0830152506140e06126da84828501612540565b6101008301525061410082013567ffffffffffffffff811115612700576126ff613bd7565b5b61270c8482850161246b565b6101208301525061412061272284828501612854565b6101408301525061414082013567ffffffffffffffff81111561274857612747613bd7565b5b6127548482850161246b565b6101608301525061416061276a84828501612540565b6101808301525061418082013567ffffffffffffffff8111156127905761278f613bd7565b5b61279c8482850161246b565b6101a0830152506141a082013567ffffffffffffffff8111156127c2576127c1613bd7565b5b6127ce848285016124bc565b6101c0830152506141c082013567ffffffffffffffff8111156127f4576127f3613bd7565b5b6128008482850161257f565b6101e0830152506141e082013567ffffffffffffffff81111561282657612825613bd7565b5b6128328482850161246b565b6102008301525092915050565b60008135905061284e81613fa9565b92915050565b60008135905061286381613fc0565b92915050565b600061400082840312156128805761287f613beb565b5b600061288e84828501612413565b91505092915050565b600061400082840312156128ae576128ad613beb565b5b60006128bc8482850161243f565b91505092915050565b6000602082840312156128db576128da613beb565b5b600082013567ffffffffffffffff8111156128f9576128f8613be6565b5b61290584828501612499565b91505092915050565b60006020828403121561292457612923613beb565b5b600082013567ffffffffffffffff81111561294257612941613be6565b5b61294e848285016124bc565b91505092915050565b6000806000614040848603121561297157612970613beb565b5b600084013567ffffffffffffffff81111561298f5761298e613be6565b5b61299b868287016124bc565b93505060206129ac86828701612413565b9250506140206129be8682870161283f565b9150509250925092565b600080604083850312156129df576129de613beb565b5b600083013567ffffffffffffffff8111156129fd576129fc613be6565b5b612a09858286016124bc565b925050602083013567ffffffffffffffff811115612a2a57612a29613be6565b5b612a368582860161257f565b9150509250929050565b600060208284031215612a5657612a55613beb565b5b6000612a648482850161252b565b91505092915050565b600060208284031215612a8357612a82613beb565b5b6000612a9184828501612540565b91505092915050565b600060208284031215612ab057612aaf613beb565b5b6000612abe84828501612555565b91505092915050565b60008060408385031215612ade57612add613beb565b5b6000612aec85828601612540565b9250506020612afd85828601612540565b9150509250929050565b60008060008060808587031215612b2157612b20613beb565b5b6000612b2f87828801612540565b9450506020612b4087828801612540565b9350506040612b518782880161283f565b925050606085013567ffffffffffffffff811115612b7257612b71613be6565b5b612b7e8782880161246b565b91505092959194509250565b600080600060608486031215612ba357612ba2613beb565b5b6000612bb186828701612540565b935050602084013567ffffffffffffffff811115612bd257612bd1613be6565b5b612bde8682870161257f565b925050604084013567ffffffffffffffff811115612bff57612bfe613be6565b5b612c0b868287016124e8565b9150509250925092565b600060208284031215612c2b57612c2a613beb565b5b6000612c398482850161256a565b91505092915050565b600060208284031215612c5857612c57613beb565b5b600082013567ffffffffffffffff811115612c7657612c75613be6565b5b612c828482850161257f565b91505092915050565b600060208284031215612ca157612ca0613beb565b5b600082013567ffffffffffffffff811115612cbf57612cbe613be6565b5b612ccb848285016125ad565b91505092915050565b600060208284031215612cea57612ce9613beb565b5b6000612cf88482850161283f565b91505092915050565b600060208284031215612d1757612d16613beb565b5b6000612d2584828501612854565b91505092915050565b6000612d3a8383612e96565b905092915050565b6000612d4d826135c6565b612d578185613602565b935083602082028501612d69856135ac565b8060005b85811015612da55784840389528151612d868582612d2e565b9450612d91836135e8565b925060208a01995050600181019050612d6d565b50829750879550505050505092915050565b6000612dc2826135d2565b612dcc818561360d565b935083602082028501612dde856135b6565b8060005b85811015612e1a5784840389528151612dfb8582612d2e565b9450612e06836135f5565b925060208a01995050600181019050612de2565b50829750879550505050505092915050565b612e3581613916565b82525050565b612e4c612e4782613922565b613a9d565b82525050565b612e5b8161394e565b82525050565b612e6a8161394e565b82525050565b612e81612e7c8261394e565b613aa7565b82525050565b612e9081613958565b82525050565b6000612ea1826135dd565b612eab818561361e565b9350612ebb8185602086016139be565b612ec481613bf0565b840191505092915050565b6000612eda826135dd565b612ee4818561362f565b9350612ef48185602086016139be565b612efd81613bf0565b840191505092915050565b6000612f13826135dd565b612f1d8185613640565b9350612f2d8185602086016139be565b80840191505092915050565b6000612f46602f8361364b565b9150612f5182613c0e565b604082019050919050565b6000612f6960328361364b565b9150612f7482613c5d565b604082019050919050565b6000612f8c60298361364b565b9150612f9782613cac565b604082019050919050565b6000612faf60438361364b565b9150612fba82613cfb565b606082019050919050565b6000612fd260268361364b565b9150612fdd82613d70565b604082019050919050565b6000612ff5600e8361364b565b915061300082613dbf565b602082019050919050565b6000613018603d8361364b565b915061302382613de8565b604082019050919050565b600061303b60218361364b565b915061304682613e37565b604082019050919050565b600061305e60118361364b565b915061306982613e86565b602082019050919050565b6000613081602a8361364b565b915061308c82613eaf565b604082019050919050565b60006130a4602c8361364b565b91506130af82613efe565b604082019050919050565b6080820160008201516130d06000850182612e52565b5060208201516130e36020850182612e52565b5060408201516130f6604085018261311e565b506060820151613109606085018261311e565b50505050565b61311881613984565b82525050565b6131278161398e565b82525050565b6131368161398e565b82525050565b613145816139a2565b82525050565b60006131578284612e3b565b60028201915081905092915050565b60006131728284612e70565b60208201915081905092915050565b600061318d8285612e70565b60208201915061319d8284612e70565b6020820191508190509392505050565b60006131b98284612f08565b915081905092915050565b600060208201905081810360008301526131de8184612d42565b905092915050565b600060208201905081810360008301526132008184612db7565b905092915050565b600060208201905061321d6000830184612e2c565b92915050565b60006020820190506132386000830184612e61565b92915050565b60006060820190506132536000830186612e61565b81810360208301526132658185612ecf565b905081810360408301526132798184612db7565b9050949350505050565b60006020820190506132986000830184612e87565b92915050565b600060208201905081810360008301526132b88184612ecf565b905092915050565b600060208201905081810360008301526132d981612f39565b9050919050565b600060208201905081810360008301526132f981612f5c565b9050919050565b6000602082019050818103600083015261331981612f7f565b9050919050565b6000602082019050818103600083015261333981612fa2565b9050919050565b6000602082019050818103600083015261335981612fc5565b9050919050565b6000602082019050818103600083015261337981612fe8565b9050919050565b600060208201905081810360008301526133998161300b565b9050919050565b600060208201905081810360008301526133b98161302e565b9050919050565b600060208201905081810360008301526133d981613051565b9050919050565b600060208201905081810360008301526133f981613074565b9050919050565b6000602082019050818103600083015261341981613097565b9050919050565b600060808201905061343560008301846130ba565b92915050565b6000602082019050613450600083018461310f565b92915050565b600060208201905061346b600083018461312d565b92915050565b6000602082019050613486600083018461313c565b92915050565b60006134966134a7565b90506134a28282613a23565b919050565b6000604051905090565b600067ffffffffffffffff8211156134cc576134cb613b9e565b5b602082029050919050565b600067ffffffffffffffff8211156134f2576134f1613b9e565b5b602082029050919050565b600067ffffffffffffffff82111561351857613517613b9e565b5b602082029050602081019050919050565b600067ffffffffffffffff82111561354457613543613b9e565b5b602082029050919050565b600067ffffffffffffffff82111561356a57613569613b9e565b5b602082029050602081019050919050565b600067ffffffffffffffff82111561359657613595613b9e565b5b61359f82613bf0565b9050602081019050919050565b6000819050919050565b6000819050602082019050919050565b60006102009050919050565b600081519050919050565b600081519050919050565b6000602082019050919050565b6000602082019050919050565b600081905092915050565b600082825260208201905092915050565b600082825260208201905092915050565b600082825260208201905092915050565b600081905092915050565b600082825260208201905092915050565b600061366782613984565b915061367283613984565b9250827fffffffffffffffffffffffffffffffffffffffffffffffffffffffffffffffff038211156136a7576136a6613ae2565b5b828201905092915050565b60006136bd82613984565b91506136c883613984565b9250826136d8576136d7613b11565b5b828204905092915050565b6000808291508390505b600185111561372d5780860481111561370957613708613ae2565b5b60018516156137185780820291505b808102905061372685613c01565b94506136ed565b94509492505050565b600061374182613984565b915061374c83613984565b92506137797fffffffffffffffffffffffffffffffffffffffffffffffffffffffffffffffff8484613781565b905092915050565b600082613791576001905061384d565b8161379f576000905061384d565b81600181146137b557600281146137bf576137ee565b600191505061384d565b60ff8411156137d1576137d0613ae2565b5b8360020a9150848211156137e8576137e7613ae2565b5b5061384d565b5060208310610133831016604e8410600b84101617156138235782820a90508381111561381e5761381d613ae2565b5b61384d565b61383084848460016136e3565b9250905081840481111561384757613846613ae2565b5b81810290505b9392505050565b600061385f82613984565b915061386a83613984565b9250817fffffffffffffffffffffffffffffffffffffffffffffffffffffffffffffffff04831182151516156138a3576138a2613ae2565b5b828202905092915050565b60006138b982613984565b91506138c483613984565b9250828210156138d7576138d6613ae2565b5b828203905092915050565b60006138ed8261398e565b91506138f88361398e565b92508282101561390b5761390a613ae2565b5b828203905092915050565b60008115159050919050565b60007fffff00000000000000000000000000000000000000000000000000000000000082169050919050565b6000819050919050565b60007fffffffffffffffff00000000000000000000000000000000000000000000000082169050919050565b6000819050919050565b600067ffffffffffffffff82169050919050565b600060ff82169050919050565b82818337600083830152505050565b60005b838110156139dc5780820151818401526020810190506139c1565b838111156139eb576000848401525b50505050565b60006002820490506001821680613a0957607f821691505b60208210811415613a1d57613a1c613b40565b5b50919050565b613a2c82613bf0565b810181811067ffffffffffffffff82111715613a4b57613a4a613b9e565b5b80604052505050565b6000613a5f82613984565b91507fffffffffffffffffffffffffffffffffffffffffffffffffffffffffffffffff821415613a9257613a91613ae2565b5b600182019050919050565b6000819050919050565b6000819050919050565b6000613abc82613984565b9150613ac783613984565b925082613ad757613ad6613b11565b5b828206905092915050565b7f4e487b7100000000000000000000000000000000000000000000000000000000600052601160045260246000fd5b7f4e487b7100000000000000000000000000000000000000000000000000000000600052601260045260246000fd5b7f4e487b7100000000000000000000000000000000000000000000000000000000600052602260045260246000fd5b7f4e487b7100000000000000000000000000000000000000000000000000000000600052603260045260246000fd5b7f4e487b7100000000000000000000000000000000000000000000000000000000600052604160045260246000fd5b600080fd5b600080fd5b600080fd5b600080fd5b600080fd5b600080fd5b600080fd5b6000601f19601f8301169050919050565b60008160011c9050919050565b7f6d65726b6c652070726f6f6620666f722066696e616c697a656420737461746560008201527f20726f6f74206e6f742076616c69640000000000000000000000000000000000602082015250565b7f5f696e70757420746f20666c6f6f724c6f6732206d757374206265206c61726760008201527f6572206f7220657175616c207468616e20310000000000000000000000000000602082015250565b7f6d65726b6c652070726f6f6620666f722066696e616c697a656420736c6f742060008201527f6e6f742076616c69640000000000000000000000000000000000000000000000602082015250565b7f66696e616c697a656420626c6f636b206f6c646572207468616e206c6173742060008201527f66696e616c697a656420626c6f636b207365656e20627920636861696e20726560208201527f6c61790000000000000000000000000000000000000000000000000000000000604082015250565b7f6d65726b6c652070726f6f6620666f72206c617465737420736c6f74206e6f7460008201527f2076616c69640000000000000000000000000000000000000000000000000000602082015250565b7f736c6963655f6f766572666c6f77000000000000000000000000000000000000600082015250565b7f6c617465737420626c6f636b206f6c646572207468616e206c617374206c617460008201527f65737420626c6f636b207365656e20627920636861696e2072656c6179000000602082015250565b7f6e6f7420656e6f756768207369676e6174757265207061727469636970616e7460008201527f7300000000000000000000000000000000000000000000000000000000000000602082015250565b7f736c6963655f6f75744f66426f756e6473000000000000000000000000000000600082015250565b7f7369676e6174757265206279206e6578742073796e6320636f6d6d697474656560008201527f206e6f742076616c696400000000000000000000000000000000000000000000602082015250565b7f6d65726b6c652070726f6f6620666f72206c617465737420737461746520726f60008201527f6f74206e6f742076616c69640000000000000000000000000000000000000000602082015250565b613f5681613916565b8114613f6157600080fd5b50565b613f6d81613922565b8114613f7857600080fd5b50565b613f848161394e565b8114613f8f57600080fd5b50565b613f9b81613958565b8114613fa657600080fd5b50565b613fb281613984565b8114613fbd57600080fd5b50565b613fc98161398e565b8114613fd457600080fd5b5056fea264697066735822122036d1b54284cbbbf77746f42f8f0d2cbd3d4287dcb5bab1fa6033f3a7234a5e4a64736f6c63430008060033",
  "immutableReferences": {},
  "source": "// SPDX-License-Identifier: GPL-3.0-or-later\n\n// PLEASE NOTE: This is a prototype. Do not use it in production settings. \n// This contract is tailored to be used by the Verilay client that retrieves Eth2 blocks from a Lodestar node\n// This contract will not work with aritificial data\n\npragma solidity >=0.8.0 <0.9.0;\n\nimport \"../node_modules/solidity-bytes-utils/contracts/BytesLib.sol\";\nimport \"./libraries/Memory.sol\";\n\n// debug settings\nbool constant MOCK_BLS_PRECOMPILE = false;\n\n// magic numbers\nuint constant FIRST_BEACON_BLOCK_UNIX_TIMESTAMP = 1606824023;\n\n// eth2 mainnet configuration\nuint constant SYNC_COMMITTEE_SIZE = 512;\nuint constant SECONDS_PER_SLOT = 12;\nuint constant SLOTS_PER_EPOCH = 32;\nuint constant EPOCHS_PER_SYNC_COMMITTEE_PERIOD = 512;\n\n// SSZ generalized indices\nuint constant FINALIZED_ROOT_INDEX = 105;\nuint constant FINALIZED_EPOCH_INDEX = 104;\nuint constant NEXT_SYNC_COMMITTEE_INDEX = 55;\nuint constant NEXT_SYNC_COMMITTEE_PUBKEYS_INDEX = 110;\nuint constant NEXT_SYNC_COMMITTEE_AGGREGATE_PUBKEY_INDEX = 111;\nuint constant CURRENT_SYNC_COMMITTEE_INDEX = 54;\nuint constant CURRENT_SYNC_COMMITTEE_PUBKEYS_INDEX = 108;\nuint constant CURRENT_SYNC_COMMITTEE_AGGREGATE_PUBKEY_INDEX = 109;\nuint constant SLOT_INDEX = 8;\nuint constant STATE_ROOT_INDEX = 11;\n\nstruct ChainRelayUpdate {\n    bytes signature;\n    bool[SYNC_COMMITTEE_SIZE] participants;\n    bytes32 latestBlockRoot;\n    bytes32 signingDomain;\n    bytes32 stateRoot;\n    bytes32[] stateRootBranch; \n    uint64 latestSlot;\n    bytes32[] latestSlotBranch; \n    bytes32 finalizedBlockRoot; \n    bytes32[] finalizingBranch; \n    uint64 finalizedSlot; \n    bytes32[] finalizedSlotBranch; \n    bytes32 finalizedStateRoot;\n    bytes32[] finalizedStateRootBranch;\n    bytes[SYNC_COMMITTEE_SIZE] syncCommittee;\n    bytes syncCommitteeAggregate;\n    bytes32[] syncCommitteeBranch; \n}\n\n//for developement\nstruct DataBack {\n    bytes32 finalizedBlockRoot;\n    bytes32 finalizedStateRoot;\n    uint64 latestSlot;\n    uint64 finalizedSlot;\n}\n\n/** \n * @title Chain Relay\n * @dev Implements a chain relay/light client for eth2 consensus post-altair (including sync committees)\n */\ncontract Eth2ChainRelay_512_NoStorage_Client {\n    using BytesLib for bytes;\n\n    uint64 private signatureThreshold; // 0 < signatureThreshold <= 512\n    uint64 private trustingPeriod; // validators are trusted for a certain time, ensuring they have not exited the validator set, in unix time\n    bytes private currentValidatorSetAggregate;\n    bytes private nextValidatorSetAggregate;\n    bytes32 private finalizedBlockRoot;\n    bytes32 private finalizedStateRoot; \n    uint64 private latestSlot;\n    uint64 private latestSlotWithValidatorSetChange;\n    uint64 private finalizedSlot;\n    bytes[SYNC_COMMITTEE_SIZE] testSyncCommittee;\n    bytes testSyncCommitteeAggregate;\n    \n    constructor(uint64 _signatureThreshold, \n                uint64 _trustingPeriod, \n                bytes32 _finalizedBlockRoot,\n                bytes32 _finalizedStateRoot,\n                uint64 _finalizedSlot,\n                uint64 _latestSlot,\n                uint64 _latestSlotWithValidatorSetChange) \n    {\n        signatureThreshold=_signatureThreshold;\n        trustingPeriod=_trustingPeriod;\n        finalizedBlockRoot=_finalizedBlockRoot;\n        latestSlot=_latestSlot;\n        latestSlotWithValidatorSetChange=_latestSlotWithValidatorSetChange;\n        finalizedSlot=_finalizedSlot;\n        finalizedStateRoot=_finalizedStateRoot;\n    }\n\n    function getLatestSlotWithValidatorSetChange() public view returns (uint64) {\n        return latestSlotWithValidatorSetChange;\n    }\n    \n    function getFinalizedBlockRoot() public view returns (bytes32) {\n        return finalizedBlockRoot;\n    }\n    \n    function getFinalizedStateRoot() public view returns (bytes32) {\n        return finalizedStateRoot;\n    }\n\n    function testEncoding(bytes32 message, bytes memory signature, bytes[] memory pubkeys) public view returns (bytes memory) {\n        return abi.encode(message, signature, pubkeys);\n    }\n\n    function testJustStoreSyncCommittee(bytes[SYNC_COMMITTEE_SIZE] memory committee, bytes memory aggregate) public {\n        testSyncCommittee = committee;\n        testSyncCommitteeAggregate = aggregate;\n    }\n\n    function testJustDoSyncCommitteeMerkleizationFromMemory(bytes[SYNC_COMMITTEE_SIZE] memory committee, bytes memory aggregate) public returns (bytes32) {\n        return hashTreeRootSyncCommittee(committee, aggregate);\n    }\n\n    function testJustDoSyncCommitteeMerkleizationFromStorage() public returns (bytes32) {\n        return hashTreeRootSyncCommittee(testSyncCommittee, testSyncCommitteeAggregate);\n    }\n\n    function testJustReadSyncCommitteeFromStorage() public returns (bytes[SYNC_COMMITTEE_SIZE] memory) {\n        return testSyncCommittee;\n    }\n\n    function testJustSubmitSyncCommitteeViaMemory(bytes[SYNC_COMMITTEE_SIZE] memory) public returns (bool) {\n        return true;\n    }\n\n    function testJustSubmitSyncCommitteeViaCalldata(bytes[SYNC_COMMITTEE_SIZE] calldata) public returns (bool) {\n        return true;\n    }\n\n    function testDoNothingWithData(ChainRelayUpdate memory _chainRelayUpdate) public returns (bool) {\n        if (_chainRelayUpdate.syncCommittee.length == 512) {\n            return true;\n        } else {\n            return false;\n        }\n    }\n    \n    function submitUpdate(ChainRelayUpdate memory _chainRelayUpdate) public returns (bool) {\n        bytes32 signingRoot = computeSigningRoot(_chainRelayUpdate.latestBlockRoot, _chainRelayUpdate.signingDomain);\n        uint numberOfParticipants = countTrueBools(_chainRelayUpdate.participants);\n        require(\n            numberOfParticipants >= signatureThreshold, \n            \"not enough signature participants\");\n        require(\n            validateMerkleBranch(\n                _chainRelayUpdate.latestBlockRoot, \n                _chainRelayUpdate.stateRoot, \n                STATE_ROOT_INDEX, \n                _chainRelayUpdate.stateRootBranch), \n            \"merkle proof for latest state root not valid\");\n        // the following checks are executed but ignored in order to allow for testing with synthetic SSZ/Eth2 data\n        require(\n            validateMerkleBranch(\n                _chainRelayUpdate.latestBlockRoot, \n                merklelizeSlot(_chainRelayUpdate.latestSlot), \n                SLOT_INDEX, \n                _chainRelayUpdate.latestSlotBranch), \"merkle proof for latest slot not valid\");\n        /* fails with client: require(\n            validateMerkleBranch(\n                _chainRelayUpdate.stateRoot, \n                _chainRelayUpdate.finalizedBlockRoot, \n                FINALIZED_ROOT_INDEX, \n                _chainRelayUpdate.finalizingBranch), \"merkle proof for finalized block root not valid\");*/\n        require(\n            validateMerkleBranch(\n                _chainRelayUpdate.finalizedBlockRoot, \n                merklelizeSlot(_chainRelayUpdate.finalizedSlot), \n                SLOT_INDEX, \n                _chainRelayUpdate.finalizedSlotBranch), \"merkle proof for finalized slot not valid\");\n        require(\n            validateMerkleBranch(\n                _chainRelayUpdate.finalizedBlockRoot, \n                _chainRelayUpdate.finalizedStateRoot, \n                STATE_ROOT_INDEX, \n                _chainRelayUpdate.finalizedStateRootBranch), \n            \"merkle proof for finalized state root not valid\");\n        require(\n            _chainRelayUpdate.latestSlot >= latestSlot, \n            \"latest block older than last latest block seen by chain relay\");\n        require(\n            _chainRelayUpdate.finalizedSlot >= finalizedSlot, \n            \"finalized block older than last finalized block seen by chain relay\");\n        uint slot_distance = _chainRelayUpdate.latestSlot - latestSlotWithValidatorSetChange; \n        // if ((slot_distance / (SLOTS_PER_EPOCH * EPOCHS_PER_SYNC_COMMITTEE_PERIOD)) == 0) {\n        //     // the following check is executed but ignored in order to allow for testing with synthetic SSZ/Eth2 data\n        //     require(validateMerkleBranch(\n        //         finalizedStateRoot, \n        //         hashTreeRootSyncCommittee(_chainRelayUpdate.syncCommittee, _chainRelayUpdate.syncCommitteeAggregate), \n        //         CURRENT_SYNC_COMMITTEE_INDEX, \n        //         _chainRelayUpdate.syncCommitteeBranch), \"merkle proof for current sync committee not valid\");\n        //    require(\n        //        fastAggregateVerify(serializeAggregateSignature(\n        //            signingRoot, \n        //            _chainRelayUpdate.signature, \n        //            getActiveValidators(_chainRelayUpdate.syncCommittee, _chainRelayUpdate.participants, numberOfParticipants))), \n        //        \"signature by current sync committee not valid\");\n        // } else if ((slot_distance / (SLOTS_PER_EPOCH * EPOCHS_PER_SYNC_COMMITTEE_PERIOD)) == 1) {\n            // the following check is executed but ignored in order to allow for testing with synthetic SSZ/Eth2 data\n            /*fails with client: require(validateMerkleBranch(\n                finalizedStateRoot, \n                hashTreeRootSyncCommittee(_chainRelayUpdate.syncCommittee, _chainRelayUpdate.syncCommitteeAggregate), \n                NEXT_SYNC_COMMITTEE_INDEX, \n                _chainRelayUpdate.syncCommitteeBranch)\n                , \"merkle proof for next sync committee not valid\");*/\n            require(\n                fastAggregateVerify(serializeAggregateSignature(\n                    signingRoot, \n                    _chainRelayUpdate.signature, \n                    getActiveValidators(_chainRelayUpdate.syncCommittee, _chainRelayUpdate.participants, numberOfParticipants))), \n                \"signature by next sync committee not valid\");\n            latestSlotWithValidatorSetChange = _chainRelayUpdate.finalizedSlot;\n        // } else {\n        //     revert(\"latest slot does not indicate that current or next sync committee is responsible\");\n        // }\n        finalizedBlockRoot = _chainRelayUpdate.finalizedBlockRoot; \n        finalizedStateRoot = _chainRelayUpdate.finalizedStateRoot;\n        latestSlot = _chainRelayUpdate.latestSlot;\n        finalizedSlot = _chainRelayUpdate.finalizedSlot;\n        return true;\n    }\n\n    function getValuesBack(ChainRelayUpdate memory _chainRelayUpdate) public payable returns (DataBack memory) {\n        bytes32 signingRoot = computeSigningRoot(_chainRelayUpdate.latestBlockRoot, _chainRelayUpdate.signingDomain);\n        uint numberOfParticipants = countTrueBools(_chainRelayUpdate.participants);\n        DataBack memory test;\n        test.finalizedBlockRoot = _chainRelayUpdate.finalizedBlockRoot;\n        test.finalizedStateRoot = _chainRelayUpdate.finalizedStateRoot;\n        test.latestSlot = _chainRelayUpdate.latestSlot;\n        test.finalizedSlot = _chainRelayUpdate.finalizedSlot;\n        return test;\n    }\n\n    function verifyTransaction() public payable returns (uint64) {\n        \n    }\n\n    function verifyReceipt() public payable returns (uint8) {\n        \n    }\n    \n    function getActiveValidators(bytes[SYNC_COMMITTEE_SIZE] memory _pubkeys, bool[SYNC_COMMITTEE_SIZE] memory _isActive, uint _numberOfActive) public pure returns (bytes[] memory) {\n        bytes[] memory active_validators = new bytes[](_numberOfActive);\n        uint counter = 0;\n        for (uint i = 0; i < SYNC_COMMITTEE_SIZE; i++) {\n            if (_isActive[i]) {\n                active_validators[counter] = _pubkeys[i];\n                counter++;\n            }\n        }\n        return active_validators;\n    }\n    \n    function countTrueBools(bool[SYNC_COMMITTEE_SIZE] memory _bools) public pure returns (uint) {\n        uint counter = 0;\n        for (uint i = 0; i < SYNC_COMMITTEE_SIZE; i++) {\n            if (_bools[i] == true) {\n                counter++;\n            }\n        }\n        return counter;\n    }\n\n    function serializeAggregateSignature(bytes32 _message, bytes memory _signature, bytes[] memory _pubkeys) public pure returns (bytes memory) {\n        bytes2 length = bytes2(uint16(_pubkeys.length));\n        bytes memory serialized = new bytes(32+96+2+48*_pubkeys.length);\n        for (uint i = 0; i < 32; i++) {\n            serialized[i] = _message[i];\n        }\n        for (uint i = 32; i < 128; i++) {\n            serialized[i] = _signature[i-32];\n        }\n        for (uint i = 128; i < 130; i++) {\n            serialized[i] = length[i-128];\n        }\n        for (uint i = 0; i < _pubkeys.length; i++) {\n            for (uint j = 0; j < 48; j++) {\n                serialized[32+96+2+i*48+j] = _pubkeys[i][j];\n            }\n        }\n       return serialized;\n    }\n    \n    function fastAggregateVerify(bytes memory _input) public view returns (bool o) {\n        if (MOCK_BLS_PRECOMPILE) {\n            return true;\n        }\n        bool[1] memory outCache;\n        assembly {\n            let p := mload(0x40)\n            let length := mload(_input)\n            if iszero(staticcall(gas(), 0x05, add(_input,32), length, outCache, 32)) { // first 32 yte of _input are length\n                revert(0, 0)\n            }\n        }\n        o = outCache[0];\n    }\n    \n    function slotToUnixTimestamp(uint _slot) public pure returns (uint timestamp) {\n        return _slot * SECONDS_PER_SLOT + FIRST_BEACON_BLOCK_UNIX_TIMESTAMP;\n    }\n    \n    function bytes32ToBytes(bytes32 _input) public pure returns (bytes memory output) {\n        return abi.encodePacked(_input);\n    }\n    \n    function bytes2ToBytes(bytes2 _input) public pure returns (bytes memory output) {\n        return abi.encodePacked(_input);\n    }\n    \n    function concat(bytes32 _left, bytes32 _right) public pure returns (bytes memory) {\n        return bytes.concat(_left, _right);\n        // below is fallback code for older solidity versions\n        /*bytes memory concatenated;\n        for (uint i = 0; i<32; i++) {\n            concatenated[i] = left[i];\n        }\n        for (uint i = 0; i<32; i++) {\n            concatenated[i+32] = right[i];\n        }\n        return concatenated;*/\n    }\n\n    function hashTreeRootPair(bytes32 _left, bytes32 _right) public pure returns (bytes32) {\n        return sha256(concat(_left, _right));\n    }\n    \n    function hashTreeRootBlspubkey (bytes memory _blspubkey) public pure returns (bytes32) {\n        bytes memory blspubkeyMerkleizedLeft = _blspubkey.slice(0, 32);\n        bytes memory blspubkeyMerkleizedRight = _blspubkey.slice(32, 16);\n        blspubkeyMerkleizedRight = blspubkeyMerkleizedRight.concat(bytes(hex\"00000000000000000000000000000000\"));\n        /* fallback w/o library\n        bytes memory blspubkeyMerkleizedLeft = new bytes(32);\n        for (uint i = 0; i<32; i++) {\n            blspubkeyMerkleizedLeft[i] = _blspubkey[i];\n        }\n        bytes memory blspubkeyMerkleizedRight = new bytes(32);\n        for (uint i = 0; i<16; i++) { // rest of blspubkeyMerkleizedRight is initialized zero\n            blspubkeyMerkleizedRight[i] = _blspubkey[i+32];\n        }*/\n        return hashTreeRootPair(bytesToBytes32(blspubkeyMerkleizedLeft), bytesToBytes32(blspubkeyMerkleizedRight));\n    }\n    \n    function computeSigningRoot(bytes32 _blockRoot, bytes32 _signingDomain) public pure returns (bytes32) {\n        return hashTreeRootPair(_blockRoot, _signingDomain);\n    }\n    \n    function bytesToBytes8(bytes memory _input) public pure returns (bytes8 result) {\n        if (_input.length == 0) {\n            return 0x0;\n        }\n        assembly {\n            result := mload(add(_input, 32))\n        }\n    }\n    \n    function bytesToBytes32(bytes memory _input) public pure returns (bytes32 result) {\n        if (_input.length == 0) {\n            return 0x0;\n        }\n        assembly {\n            result := mload(add(_input, 32))\n        }\n    }\n\n    function revertBytes8(bytes8 _input) public pure returns (bytes8) {\n        bytes memory reverted = new bytes(8);\n        for (uint i = 0; i < 8; i++) {\n            reverted[7-i] = _input[i];\n        }\n        return bytesToBytes8(reverted);\n    }\n\n    function merklelizeSlot(uint64 _input) public pure returns (bytes32) {\n        return bytes32(revertBytes8(bytes8(_input)));\n    }\n    \n    function bitLength(uint _input) public pure returns (uint) {\n        uint length = 0;\n        while (_input != 0) \n        {\n            _input >>= 1; \n            length++; \n        }\n        return length;\n    }\n    \n    function nextPowOfTwo(uint _input) public pure returns (uint) {\n        if (_input == 0) {\n            return 1;\n        } else {\n            return 2**(bitLength(_input-1));\n        }\n    }\n    \n    function floorLog2 (uint _input) public pure returns (uint) {\n        require(_input >= 1, \"_input to floorLog2 must be larger or equal than 1\");\n        return bitLength(_input)-1;\n    }\n    \n    function merkleize(bytes32[SYNC_COMMITTEE_SIZE] memory _chunks) public pure returns (bytes32) {\n        uint length_next_pow = nextPowOfTwo(_chunks.length);\n        for (uint i = _chunks.length; i < length_next_pow; i++) {\n           // filling lowest level not necessary b/c size always 2^n\n        }\n        for (uint level = 0; level<floorLog2(length_next_pow); level++) {\n            uint step = 2**level;\n            for (uint current_accumulator = 0; current_accumulator < length_next_pow; current_accumulator += step*2) {\n                _chunks[current_accumulator] = hashTreeRootPair(_chunks[current_accumulator], _chunks[current_accumulator+step]);\n            }\n        }\n        return _chunks[0];\n    }\n    \n    function hashTreeRootSyncCommittee(bytes[SYNC_COMMITTEE_SIZE] memory _syncCommittee, bytes memory _syncAggregate) public pure returns (bytes32) {\n        bytes32[SYNC_COMMITTEE_SIZE] memory syncCommitteeHashed;\n        for (uint i = 0; i < SYNC_COMMITTEE_SIZE; i++) {\n            syncCommitteeHashed[i] = hashTreeRootBlspubkey(_syncCommittee[i]);\n        }\n        bytes32 syncCommitteeHashedMerkleized = merkleize(syncCommitteeHashed);\n        bytes32 syncCommitteeRoot = hashTreeRootPair(syncCommitteeHashedMerkleized, hashTreeRootBlspubkey(_syncAggregate));\n        return syncCommitteeRoot;\n    }\n    \n    function getSubtreeIndex(uint _generalizedIndex) public pure returns (uint) {\n        return _generalizedIndex % 2**(floorLog2(_generalizedIndex));\n    }\n    \n    function validateMerkleBranch(bytes32 _root, bytes32 _leaf, uint _generalizedIndex, bytes32[] memory _branch) public pure returns (bool) {\n        uint index = getSubtreeIndex(_generalizedIndex);\n        uint depth = floorLog2(_generalizedIndex);\n        bytes32 value = _leaf;\n        for (uint i = 0; i < depth; i++) {\n            if ((index / (2**i) % 2) == 1) {\n                value = sha256(concat(_branch[i],value));\n            } else {\n                value = sha256(concat(value,_branch[i]));\n            }\n        }\n        return value == _root;\n    }\n    \n}",
  "sourcePath": "/mnt/d/Documents/GitHub/ResearchProject/PoSChainRelayEthereumHolesky/contracts/Eth2ChainRelay_512_NoStorage_Client.sol",
  "compiler": {
    "name": "solc",
    "version": "0.8.6+commit.11564f7e.Emscripten.clang"
  },
  "schemaVersion": "3.4.16",
  "updatedAt": "2024-02-01T09:23:35.352Z",
  "devdoc": {
    "details": "Implements a chain relay/light client for eth2 consensus post-altair (including sync committees)",
    "kind": "dev",
    "methods": {},
    "title": "Chain Relay",
    "version": 1
  },
  "userdoc": {
    "kind": "user",
    "methods": {},
    "version": 1
  }
}