{
  "contractName": "Eth2ChainRelay_512_NoStorage_Client",
  "abi": [
    {
      "inputs": [
        {
          "internalType": "uint64",
          "name": "_signatureThreshold",
          "type": "uint64"
        },
        {
          "internalType": "uint64",
          "name": "_trustingPeriod",
          "type": "uint64"
        },
        {
          "internalType": "bytes32",
          "name": "_finalizedBlockRoot",
          "type": "bytes32"
        },
        {
          "internalType": "bytes32",
          "name": "_finalizedStateRoot",
          "type": "bytes32"
        },
        {
          "internalType": "uint64",
          "name": "_finalizedSlot",
          "type": "uint64"
        },
        {
          "internalType": "uint64",
          "name": "_latestSlot",
          "type": "uint64"
        },
        {
          "internalType": "uint64",
          "name": "_latestSlotWithValidatorSetChange",
          "type": "uint64"
        }
      ],
      "stateMutability": "nonpayable",
      "type": "constructor"
    },
    {
      "inputs": [],
      "name": "getLatestSlotWithValidatorSetChange",
      "outputs": [
        {
          "internalType": "uint64",
          "name": "",
          "type": "uint64"
        }
      ],
      "stateMutability": "view",
      "type": "function"
    },
    {
      "inputs": [],
      "name": "getFinalizedBlockRoot",
      "outputs": [
        {
          "internalType": "bytes32",
          "name": "",
          "type": "bytes32"
        }
      ],
      "stateMutability": "view",
      "type": "function"
    },
    {
      "inputs": [],
      "name": "getFinalizedStateRoot",
      "outputs": [
        {
          "internalType": "bytes32",
          "name": "",
          "type": "bytes32"
        }
      ],
      "stateMutability": "view",
      "type": "function"
    },
    {
      "inputs": [
        {
          "internalType": "bytes32",
          "name": "message",
          "type": "bytes32"
        },
        {
          "internalType": "bytes",
          "name": "signature",
          "type": "bytes"
        },
        {
          "internalType": "bytes[]",
          "name": "pubkeys",
          "type": "bytes[]"
        }
      ],
      "name": "testEncoding",
      "outputs": [
        {
          "internalType": "bytes",
          "name": "",
          "type": "bytes"
        }
      ],
      "stateMutability": "view",
      "type": "function"
    },
    {
      "inputs": [
        {
          "internalType": "bytes[512]",
          "name": "committee",
          "type": "bytes[512]"
        },
        {
          "internalType": "bytes",
          "name": "aggregate",
          "type": "bytes"
        }
      ],
      "name": "testJustStoreSyncCommittee",
      "outputs": [],
      "stateMutability": "nonpayable",
      "type": "function"
    },
    {
      "inputs": [
        {
          "internalType": "bytes[512]",
          "name": "committee",
          "type": "bytes[512]"
        },
        {
          "internalType": "bytes",
          "name": "aggregate",
          "type": "bytes"
        }
      ],
      "name": "testJustDoSyncCommitteeMerkleizationFromMemory",
      "outputs": [
        {
          "internalType": "bytes32",
          "name": "",
          "type": "bytes32"
        }
      ],
      "stateMutability": "nonpayable",
      "type": "function"
    },
    {
      "inputs": [],
      "name": "testJustDoSyncCommitteeMerkleizationFromStorage",
      "outputs": [
        {
          "internalType": "bytes32",
          "name": "",
          "type": "bytes32"
        }
      ],
      "stateMutability": "nonpayable",
      "type": "function"
    },
    {
      "inputs": [],
      "name": "testJustReadSyncCommitteeFromStorage",
      "outputs": [
        {
          "internalType": "bytes[512]",
          "name": "",
          "type": "bytes[512]"
        }
      ],
      "stateMutability": "nonpayable",
      "type": "function"
    },
    {
      "inputs": [
        {
          "internalType": "bytes[512]",
          "name": "",
          "type": "bytes[512]"
        }
      ],
      "name": "testJustSubmitSyncCommitteeViaMemory",
      "outputs": [
        {
          "internalType": "bool",
          "name": "",
          "type": "bool"
        }
      ],
      "stateMutability": "nonpayable",
      "type": "function"
    },
    {
      "inputs": [
        {
          "internalType": "bytes[512]",
          "name": "",
          "type": "bytes[512]"
        }
      ],
      "name": "testJustSubmitSyncCommitteeViaCalldata",
      "outputs": [
        {
          "internalType": "bool",
          "name": "",
          "type": "bool"
        }
      ],
      "stateMutability": "nonpayable",
      "type": "function"
    },
    {
      "inputs": [
        {
          "components": [
            {
              "internalType": "bytes",
              "name": "signature",
              "type": "bytes"
            },
            {
              "internalType": "bool[512]",
              "name": "participants",
              "type": "bool[512]"
            },
            {
              "internalType": "bytes32",
              "name": "latestBlockRoot",
              "type": "bytes32"
            },
            {
              "internalType": "bytes32",
              "name": "signingDomain",
              "type": "bytes32"
            },
            {
              "internalType": "bytes32",
              "name": "stateRoot",
              "type": "bytes32"
            },
            {
              "internalType": "bytes32[]",
              "name": "stateRootBranch",
              "type": "bytes32[]"
            },
            {
              "internalType": "uint64",
              "name": "latestSlot",
              "type": "uint64"
            },
            {
              "internalType": "bytes32[]",
              "name": "latestSlotBranch",
              "type": "bytes32[]"
            },
            {
              "internalType": "bytes32",
              "name": "finalizedBlockRoot",
              "type": "bytes32"
            },
            {
              "internalType": "bytes32[]",
              "name": "finalizingBranch",
              "type": "bytes32[]"
            },
            {
              "internalType": "uint64",
              "name": "finalizedSlot",
              "type": "uint64"
            },
            {
              "internalType": "bytes32[]",
              "name": "finalizedSlotBranch",
              "type": "bytes32[]"
            },
            {
              "internalType": "bytes32",
              "name": "finalizedStateRoot",
              "type": "bytes32"
            },
            {
              "internalType": "bytes32[]",
              "name": "finalizedStateRootBranch",
              "type": "bytes32[]"
            },
            {
              "internalType": "bytes[512]",
              "name": "syncCommittee",
              "type": "bytes[512]"
            },
            {
              "internalType": "bytes",
              "name": "syncCommitteeAggregate",
              "type": "bytes"
            },
            {
              "internalType": "bytes32[]",
              "name": "syncCommitteeBranch",
              "type": "bytes32[]"
            }
          ],
          "internalType": "struct ChainRelayUpdate",
          "name": "_chainRelayUpdate",
          "type": "tuple"
        }
      ],
      "name": "testDoNothingWithData",
      "outputs": [
        {
          "internalType": "bool",
          "name": "",
          "type": "bool"
        }
      ],
      "stateMutability": "nonpayable",
      "type": "function"
    },
    {
      "inputs": [
        {
          "components": [
            {
              "internalType": "bytes",
              "name": "signature",
              "type": "bytes"
            },
            {
              "internalType": "bool[512]",
              "name": "participants",
              "type": "bool[512]"
            },
            {
              "internalType": "bytes32",
              "name": "latestBlockRoot",
              "type": "bytes32"
            },
            {
              "internalType": "bytes32",
              "name": "signingDomain",
              "type": "bytes32"
            },
            {
              "internalType": "bytes32",
              "name": "stateRoot",
              "type": "bytes32"
            },
            {
              "internalType": "bytes32[]",
              "name": "stateRootBranch",
              "type": "bytes32[]"
            },
            {
              "internalType": "uint64",
              "name": "latestSlot",
              "type": "uint64"
            },
            {
              "internalType": "bytes32[]",
              "name": "latestSlotBranch",
              "type": "bytes32[]"
            },
            {
              "internalType": "bytes32",
              "name": "finalizedBlockRoot",
              "type": "bytes32"
            },
            {
              "internalType": "bytes32[]",
              "name": "finalizingBranch",
              "type": "bytes32[]"
            },
            {
              "internalType": "uint64",
              "name": "finalizedSlot",
              "type": "uint64"
            },
            {
              "internalType": "bytes32[]",
              "name": "finalizedSlotBranch",
              "type": "bytes32[]"
            },
            {
              "internalType": "bytes32",
              "name": "finalizedStateRoot",
              "type": "bytes32"
            },
            {
              "internalType": "bytes32[]",
              "name": "finalizedStateRootBranch",
              "type": "bytes32[]"
            },
            {
              "internalType": "bytes[512]",
              "name": "syncCommittee",
              "type": "bytes[512]"
            },
            {
              "internalType": "bytes",
              "name": "syncCommitteeAggregate",
              "type": "bytes"
            },
            {
              "internalType": "bytes32[]",
              "name": "syncCommitteeBranch",
              "type": "bytes32[]"
            }
          ],
          "internalType": "struct ChainRelayUpdate",
          "name": "_chainRelayUpdate",
          "type": "tuple"
        }
      ],
      "name": "submitUpdate",
      "outputs": [
        {
          "internalType": "bool",
          "name": "",
          "type": "bool"
        }
      ],
      "stateMutability": "nonpayable",
      "type": "function"
    },
    {
      "inputs": [
        {
          "internalType": "bytes[512]",
          "name": "_pubkeys",
          "type": "bytes[512]"
        },
        {
          "internalType": "bool[512]",
          "name": "_isActive",
          "type": "bool[512]"
        },
        {
          "internalType": "uint256",
          "name": "_numberOfActive",
          "type": "uint256"
        }
      ],
      "name": "getActiveValidators",
      "outputs": [
        {
          "internalType": "bytes[]",
          "name": "",
          "type": "bytes[]"
        }
      ],
      "stateMutability": "pure",
      "type": "function"
    },
    {
      "inputs": [
        {
          "internalType": "bool[512]",
          "name": "_bools",
          "type": "bool[512]"
        }
      ],
      "name": "countTrueBools",
      "outputs": [
        {
          "internalType": "uint256",
          "name": "",
          "type": "uint256"
        }
      ],
      "stateMutability": "pure",
      "type": "function"
    },
    {
      "inputs": [
        {
          "internalType": "bytes32",
          "name": "_message",
          "type": "bytes32"
        },
        {
          "internalType": "bytes",
          "name": "_signature",
          "type": "bytes"
        },
        {
          "internalType": "bytes[]",
          "name": "_pubkeys",
          "type": "bytes[]"
        }
      ],
      "name": "serializeAggregateSignature",
      "outputs": [
        {
          "internalType": "bytes",
          "name": "",
          "type": "bytes"
        }
      ],
      "stateMutability": "pure",
      "type": "function"
    },
    {
      "inputs": [
        {
          "internalType": "bytes",
          "name": "_input",
          "type": "bytes"
        }
      ],
      "name": "fastAggregateVerify",
      "outputs": [
        {
          "internalType": "bool",
          "name": "o",
          "type": "bool"
        }
      ],
      "stateMutability": "view",
      "type": "function"
    },
    {
      "inputs": [
        {
          "internalType": "uint256",
          "name": "_slot",
          "type": "uint256"
        }
      ],
      "name": "slotToUnixTimestamp",
      "outputs": [
        {
          "internalType": "uint256",
          "name": "timestamp",
          "type": "uint256"
        }
      ],
      "stateMutability": "pure",
      "type": "function"
    },
    {
      "inputs": [
        {
          "internalType": "bytes32",
          "name": "_input",
          "type": "bytes32"
        }
      ],
      "name": "bytes32ToBytes",
      "outputs": [
        {
          "internalType": "bytes",
          "name": "output",
          "type": "bytes"
        }
      ],
      "stateMutability": "pure",
      "type": "function"
    },
    {
      "inputs": [
        {
          "internalType": "bytes2",
          "name": "_input",
          "type": "bytes2"
        }
      ],
      "name": "bytes2ToBytes",
      "outputs": [
        {
          "internalType": "bytes",
          "name": "output",
          "type": "bytes"
        }
      ],
      "stateMutability": "pure",
      "type": "function"
    },
    {
      "inputs": [
        {
          "internalType": "bytes32",
          "name": "_left",
          "type": "bytes32"
        },
        {
          "internalType": "bytes32",
          "name": "_right",
          "type": "bytes32"
        }
      ],
      "name": "concat",
      "outputs": [
        {
          "internalType": "bytes",
          "name": "",
          "type": "bytes"
        }
      ],
      "stateMutability": "pure",
      "type": "function"
    },
    {
      "inputs": [
        {
          "internalType": "bytes32",
          "name": "_left",
          "type": "bytes32"
        },
        {
          "internalType": "bytes32",
          "name": "_right",
          "type": "bytes32"
        }
      ],
      "name": "hashTreeRootPair",
      "outputs": [
        {
          "internalType": "bytes32",
          "name": "",
          "type": "bytes32"
        }
      ],
      "stateMutability": "pure",
      "type": "function"
    },
    {
      "inputs": [
        {
          "internalType": "bytes",
          "name": "_blspubkey",
          "type": "bytes"
        }
      ],
      "name": "hashTreeRootBlspubkey",
      "outputs": [
        {
          "internalType": "bytes32",
          "name": "",
          "type": "bytes32"
        }
      ],
      "stateMutability": "pure",
      "type": "function"
    },
    {
      "inputs": [
        {
          "internalType": "bytes32",
          "name": "_blockRoot",
          "type": "bytes32"
        },
        {
          "internalType": "bytes32",
          "name": "_signingDomain",
          "type": "bytes32"
        }
      ],
      "name": "computeSigningRoot",
      "outputs": [
        {
          "internalType": "bytes32",
          "name": "",
          "type": "bytes32"
        }
      ],
      "stateMutability": "pure",
      "type": "function"
    },
    {
      "inputs": [
        {
          "internalType": "bytes",
          "name": "_input",
          "type": "bytes"
        }
      ],
      "name": "bytesToBytes8",
      "outputs": [
        {
          "internalType": "bytes8",
          "name": "result",
          "type": "bytes8"
        }
      ],
      "stateMutability": "pure",
      "type": "function"
    },
    {
      "inputs": [
        {
          "internalType": "bytes",
          "name": "_input",
          "type": "bytes"
        }
      ],
      "name": "bytesToBytes32",
      "outputs": [
        {
          "internalType": "bytes32",
          "name": "result",
          "type": "bytes32"
        }
      ],
      "stateMutability": "pure",
      "type": "function"
    },
    {
      "inputs": [
        {
          "internalType": "bytes8",
          "name": "_input",
          "type": "bytes8"
        }
      ],
      "name": "revertBytes8",
      "outputs": [
        {
          "internalType": "bytes8",
          "name": "",
          "type": "bytes8"
        }
      ],
      "stateMutability": "pure",
      "type": "function"
    },
    {
      "inputs": [
        {
          "internalType": "uint64",
          "name": "_input",
          "type": "uint64"
        }
      ],
      "name": "merklelizeSlot",
      "outputs": [
        {
          "internalType": "bytes32",
          "name": "",
          "type": "bytes32"
        }
      ],
      "stateMutability": "pure",
      "type": "function"
    },
    {
      "inputs": [
        {
          "internalType": "uint256",
          "name": "_input",
          "type": "uint256"
        }
      ],
      "name": "bitLength",
      "outputs": [
        {
          "internalType": "uint256",
          "name": "",
          "type": "uint256"
        }
      ],
      "stateMutability": "pure",
      "type": "function"
    },
    {
      "inputs": [
        {
          "internalType": "uint256",
          "name": "_input",
          "type": "uint256"
        }
      ],
      "name": "nextPowOfTwo",
      "outputs": [
        {
          "internalType": "uint256",
          "name": "",
          "type": "uint256"
        }
      ],
      "stateMutability": "pure",
      "type": "function"
    },
    {
      "inputs": [
        {
          "internalType": "uint256",
          "name": "_input",
          "type": "uint256"
        }
      ],
      "name": "floorLog2",
      "outputs": [
        {
          "internalType": "uint256",
          "name": "",
          "type": "uint256"
        }
      ],
      "stateMutability": "pure",
      "type": "function"
    },
    {
      "inputs": [
        {
          "internalType": "bytes32[512]",
          "name": "_chunks",
          "type": "bytes32[512]"
        }
      ],
      "name": "merkleize",
      "outputs": [
        {
          "internalType": "bytes32",
          "name": "",
          "type": "bytes32"
        }
      ],
      "stateMutability": "pure",
      "type": "function"
    },
    {
      "inputs": [
        {
          "internalType": "bytes[512]",
          "name": "_syncCommittee",
          "type": "bytes[512]"
        },
        {
          "internalType": "bytes",
          "name": "_syncAggregate",
          "type": "bytes"
        }
      ],
      "name": "hashTreeRootSyncCommittee",
      "outputs": [
        {
          "internalType": "bytes32",
          "name": "",
          "type": "bytes32"
        }
      ],
      "stateMutability": "pure",
      "type": "function"
    },
    {
      "inputs": [
        {
          "internalType": "uint256",
          "name": "_generalizedIndex",
          "type": "uint256"
        }
      ],
      "name": "getSubtreeIndex",
      "outputs": [
        {
          "internalType": "uint256",
          "name": "",
          "type": "uint256"
        }
      ],
      "stateMutability": "pure",
      "type": "function"
    },
    {
      "inputs": [
        {
          "internalType": "bytes32",
          "name": "_root",
          "type": "bytes32"
        },
        {
          "internalType": "bytes32",
          "name": "_leaf",
          "type": "bytes32"
        },
        {
          "internalType": "uint256",
          "name": "_generalizedIndex",
          "type": "uint256"
        },
        {
          "internalType": "bytes32[]",
          "name": "_branch",
          "type": "bytes32[]"
        }
      ],
      "name": "validateMerkleBranch",
      "outputs": [
        {
          "internalType": "bool",
          "name": "",
          "type": "bool"
        }
      ],
      "stateMutability": "pure",
      "type": "function"
    }
  ],
  "bytecode": "0x60806040523480156200001157600080fd5b50604051620040633803806200406383398181016040528101906200003791906200014c565b866000806101000a81548167ffffffffffffffff021916908367ffffffffffffffff16021790555085600060086101000a81548167ffffffffffffffff021916908367ffffffffffffffff1602179055508460038190555081600560006101000a81548167ffffffffffffffff021916908367ffffffffffffffff16021790555080600560086101000a81548167ffffffffffffffff021916908367ffffffffffffffff16021790555082600560106101000a81548167ffffffffffffffff021916908367ffffffffffffffff160217905550836004819055505050505050505062000256565b6000815190506200012f8162000222565b92915050565b60008151905062000146816200023c565b92915050565b600080600080600080600060e0888a0312156200016e576200016d6200021d565b5b60006200017e8a828b0162000135565b9750506020620001918a828b0162000135565b9650506040620001a48a828b016200011e565b9550506060620001b78a828b016200011e565b9450506080620001ca8a828b0162000135565b93505060a0620001dd8a828b0162000135565b92505060c0620001f08a828b0162000135565b91505092959891949750929550565b6000819050919050565b600067ffffffffffffffff82169050919050565b600080fd5b6200022d81620001ff565b81146200023957600080fd5b50565b620002478162000209565b81146200025357600080fd5b50565b613dfd80620002666000396000f3fe608060405234801561001057600080fd5b50600436106102065760003560e01c80637e7f232a1161011a578063b8ffb2e3116100ad578063d344309a1161007c578063d344309a1461071f578063e41bbcf81461073d578063e92938ab1461076d578063f218850e1461079d578063fe24511e146107cd57610206565b8063b8ffb2e314610671578063bfe370d9146106a1578063c36a13da146106d1578063c9d9fc251461070157610206565b8063a7201260116100e9578063a7201260146105b1578063a9755eb1146105e1578063b1e9f2a014610611578063b537de4f1461064157610206565b80637e7f232a146104f1578063809d74ba146105215780639110bc53146105515780639eb51fce1461058157610206565b806345b8bafc1161019d5780635c5528791161016c5780635c55287914610413578063639f30c314610443578063677705f8146104615780636e1e76b9146104915780637b9e6200146104c157610206565b806345b8bafc146103795780634c0999c7146103a957806356f07c06146103d95780635b820858146103f757610206565b8063398fd9d4116101d9578063398fd9d4146102b957806339f4babd146102e95780633fccb97b14610319578063404c2a711461034957610206565b806320435b8d1461020b578063255f37911461023b5780632b2247511461026b5780632c26bfd41461029b575b600080fd5b61022560048036038101906102209190612a1c565b6107fd565b6040516102329190612f5d565b60405180910390f35b61025560048036038101906102509190612759565b610ce9565b6040516102629190612f78565b60405180910390f35b61028560048036038101906102809190612628565b610d81565b6040516102929190612f78565b60405180910390f35b6102a3610e9d565b6040516102b09190612f78565b60405180910390f35b6102d360048036038101906102ce91906129d3565b610ea7565b6040516102e09190612f5d565b60405180910390f35b61030360048036038101906102fe919061291b565b610efe565b6040516103109190612ff3565b60405180910390f35b610333600480360381019061032e9190612a65565b610f2d565b60405161034091906131b5565b60405180910390f35b610363600480360381019061035e9190612a92565b610f52565b6040516103709190612f78565b60405180910390f35b610393600480360381019061038e9190612a65565b610f82565b6040516103a091906131b5565b60405180910390f35b6103c360048036038101906103be91906127fe565b610fe4565b6040516103d09190612ff3565b60405180910390f35b6103e161100d565b6040516103ee9190612f78565b60405180910390f35b610411600480360381019061040c9190612759565b611017565b005b61042d600480360381019061042891906129d3565b611046565b60405161043a9190612fd8565b60405180910390f35b61044b61106a565b60405161045891906131d0565b60405180910390f35b61047b6004803603810190610476919061269f565b611088565b6040516104889190612f5d565b60405180910390f35b6104ab60048036038101906104a691906129a6565b611093565b6040516104b89190612fd8565b60405180910390f35b6104db60048036038101906104d69190612858565b61117c565b6040516104e89190612ff3565b60405180910390f35b61050b6004803603810190610506919061291b565b6111a8565b6040516105189190612ff3565b60405180910390f35b61053b600480360381019061053691906125fa565b611498565b60405161054891906131b5565b60405180910390f35b61056b60048036038101906105669190612759565b6114fd565b6040516105789190612f78565b60405180910390f35b61059b60048036038101906105969190612858565b611511565b6040516105a89190612f78565b60405180910390f35b6105cb60048036038101906105c69190612656565b611574565b6040516105d89190612f5d565b60405180910390f35b6105fb60048036038101906105f691906127d1565b61157f565b6040516106089190612ff3565b60405180910390f35b61062b60048036038101906106269190612a65565b6115a8565b60405161063891906131b5565b60405180910390f35b61065b60048036038101906106569190612a1c565b6115d1565b6040516106689190612f5d565b60405180910390f35b61068b60048036038101906106869190612a65565b6115f9565b60405161069891906131b5565b60405180910390f35b6106bb60048036038101906106b691906129d3565b611635565b6040516106c89190612f78565b60405180910390f35b6106eb60048036038101906106e691906129d3565b611658565b6040516106f89190612f78565b60405180910390f35b6107096116dd565b6040516107169190612f19565b60405180910390f35b6107276117ab565b6040516107349190612f78565b60405180910390f35b61075760048036038101906107529190612a65565b611907565b60405161076491906131b5565b60405180910390f35b61078760048036038101906107829190612858565b61193a565b6040516107949190612f78565b60405180910390f35b6107b760048036038101906107b29190612898565b61194e565b6040516107c49190612f5d565b60405180910390f35b6107e760048036038101906107e291906126e8565b611ab9565b6040516107f49190612f3b565b60405180910390f35b6000806108128360400151846060015161193a565b905060006108238460200151611498565b905060008054906101000a900467ffffffffffffffff1667ffffffffffffffff16811015610886576040517f08c379a000000000000000000000000000000000000000000000000000000000815260040161087d90613135565b60405180910390fd5b61089f84604001518560800151600b8760a0015161194e565b6108de576040517f08c379a00000000000000000000000000000000000000000000000000000000081526004016108d590613195565b60405180910390fd5b6108ff84604001516108f38660c00151610f52565b60088760e0015161194e565b61093e576040517f08c379a0000000000000000000000000000000000000000000000000000000008152600401610935906130b5565b60405180910390fd5b6109598460800151856101000151606987610120015161194e565b610998576040517f08c379a000000000000000000000000000000000000000000000000000000000815260040161098f906130d5565b60405180910390fd5b6109bc8461010001516109af866101400151610f52565b600887610160015161194e565b6109fb576040517f08c379a00000000000000000000000000000000000000000000000000000000081526004016109f290613055565b60405180910390fd5b610a17846101000151856101800151600b876101a0015161194e565b610a56576040517f08c379a0000000000000000000000000000000000000000000000000000000008152600401610a4d90613015565b60405180910390fd5b600560009054906101000a900467ffffffffffffffff1667ffffffffffffffff168460c0015167ffffffffffffffff161015610ac7576040517f08c379a0000000000000000000000000000000000000000000000000000000008152600401610abe90613115565b60405180910390fd5b600560109054906101000a900467ffffffffffffffff1667ffffffffffffffff1684610140015167ffffffffffffffff161015610b39576040517f08c379a0000000000000000000000000000000000000000000000000000000008152600401610b3090613095565b60405180910390fd5b6000600560089054906101000a900467ffffffffffffffff168560c00151610b619190613641565b67ffffffffffffffff169050610b94600454610b87876101c00151886101e00151610ce9565b603788610200015161194e565b610bd3576040517f08c379a0000000000000000000000000000000000000000000000000000000008152600401610bca90613075565b60405180910390fd5b610bfd610bf8848760000151610bf3896101c001518a6020015188611ab9565b6111a8565b610ea7565b610c3c576040517f08c379a0000000000000000000000000000000000000000000000000000000008152600401610c3390613175565b60405180910390fd5b846101400151600560086101000a81548167ffffffffffffffff021916908367ffffffffffffffff1602179055508461010001516003819055508461018001516004819055508460c00151600560006101000a81548167ffffffffffffffff021916908367ffffffffffffffff160217905550846101400151600560106101000a81548167ffffffffffffffff021916908367ffffffffffffffff16021790555060019350505050919050565b6000610cf3611d47565b60005b610200811015610d5157610d2185826102008110610d1757610d166138c1565b5b6020020151611658565b82826102008110610d3557610d346138c1565b5b6020020181815250508080610d49906137a6565b915050610cf6565b506000610d5d82610d81565b90506000610d7382610d6e87611658565b611511565b905080935050505092915050565b600080610d8f6102006115f9565b9050600061020090505b81811015610db4578080610dac906137a6565b915050610d99565b5060005b610dc182610f82565b811015610e7a576000816002610dd79190613495565b905060005b83811015610e6557610e2986826102008110610dfb57610dfa6138c1565b5b6020020151878484610e0d91906133bb565b6102008110610e1f57610e1e6138c1565b5b6020020151611511565b86826102008110610e3d57610e3c6138c1565b5b602002018181525050600282610e5391906135b3565b81610e5e91906133bb565b9050610ddc565b50508080610e72906137a6565b915050610db8565b508260006102008110610e9057610e8f6138c1565b5b6020020151915050919050565b6000600354905090565b60008015610eb85760019050610ef9565b610ec0611d6b565b6040518351602083826020880160055afa610eda57600080fd5b505080600060018110610ef057610eef6138c1565b5b60200201519150505b919050565b6060838383604051602001610f1593929190612f93565b60405160208183030381529060405290509392505050565b6000635fc63057600c83610f4191906135b3565b610f4b91906133bb565b9050919050565b6000610f608260c01b611093565b77ffffffffffffffffffffffffffffffffffffffffffffffff19169050919050565b60006001821015610fc8576040517f08c379a0000000000000000000000000000000000000000000000000000000008152600401610fbf90613035565b60405180910390fd5b6001610fd383611907565b610fdd919061360d565b9050919050565b606081604051602001610ff79190612ebb565b6040516020818303038152906040529050919050565b6000600454905090565b81600690610200611029929190611d8d565b50806102069080519060200190611041929190611de1565b505050565b6000808251141561105d57600060c01b9050611065565b602082015190505b919050565b6000600560089054906101000a900467ffffffffffffffff16905090565b600060019050919050565b600080600867ffffffffffffffff8111156110b1576110b06138f0565b5b6040519080825280601f01601f1916602001820160405280156110e35781602001600182028036833780820191505090505b50905060005b600881101561116a57838160088110611105576111046138c1565b5b1a60f81b82826007611117919061360d565b81518110611128576111276138c1565b5b60200101907effffffffffffffffffffffffffffffffffffffffffffffffffffffffffffff1916908160001a9053508080611162906137a6565b9150506110e9565b5061117481611046565b915050919050565b60608282604051602001611191929190612ed6565b604051602081830303815290604052905092915050565b60606000825160f01b90506000835160306111c391906135b3565b60826111cf91906133bb565b67ffffffffffffffff8111156111e8576111e76138f0565b5b6040519080825280601f01601f19166020018201604052801561121a5781602001600182028036833780820191505090505b50905060005b60208110156112955786816020811061123c5761123b6138c1565b5b1a60f81b828281518110611253576112526138c1565b5b60200101907effffffffffffffffffffffffffffffffffffffffffffffffffffffffffffff1916908160001a905350808061128d906137a6565b915050611220565b506000602090505b608081101561132557856020826112b4919061360d565b815181106112c5576112c46138c1565b5b602001015160f81c60f81b8282815181106112e3576112e26138c1565b5b60200101907effffffffffffffffffffffffffffffffffffffffffffffffffffffffffffff1916908160001a905350808061131d906137a6565b91505061129d565b506000608090505b60828110156113ae5782608082611344919061360d565b60028110611355576113546138c1565b5b1a60f81b82828151811061136c5761136b6138c1565b5b60200101907effffffffffffffffffffffffffffffffffffffffffffffffffffffffffffff1916908160001a90535080806113a6906137a6565b91505061132d565b5060005b845181101561148b5760005b6030811015611477578582815181106113da576113d96138c1565b5b602002602001015181815181106113f4576113f36138c1565b5b602001015160f81c60f81b838260308561140e91906135b3565b608261141a91906133bb565b61142491906133bb565b81518110611435576114346138c1565b5b60200101907effffffffffffffffffffffffffffffffffffffffffffffffffffffffffffff1916908160001a905350808061146f906137a6565b9150506113be565b508080611483906137a6565b9150506113b2565b5080925050509392505050565b6000806000905060005b6102008110156114f35760011515848261020081106114c4576114c36138c1565b5b6020020151151514156114e05781806114dc906137a6565b9250505b80806114eb906137a6565b9150506114a2565b5080915050919050565b60006115098383610ce9565b905092915050565b6000600261151f848461117c565b60405161152c9190612f02565b602060405180830381855afa158015611549573d6000803e3d6000fd5b5050506040513d601f19601f8201168201806040525081019061156c919061282b565b905092915050565b600060019050919050565b6060816040516020016115929190612ea0565b6040516020818303038152906040529050919050565b60006115b382610f82565b60026115bf9190613495565b826115ca9190613803565b9050919050565b6000610200826101c001515061020014156115ef57600190506115f4565b600090505b919050565b60008082141561160c5760019050611630565b61162160018361161c919061360d565b611907565b600261162d9190613495565b90505b919050565b6000808251141561164b576000801b9050611653565b602082015190505b919050565b6000806116726000602085611b9f9092919063ffffffff16565b9050600061168d6020601086611b9f9092919063ffffffff16565b90506116b8604051806040016040528060108152602001600081525082611cbd90919063ffffffff16565b90506116d46116c683611635565b6116cf83611635565b611511565b92505050919050565b6116e5611e67565b600661020080602002604051908101604052809291906000905b828210156117a257838201805461171590613743565b80601f016020809104026020016040519081016040528092919081815260200182805461174190613743565b801561178e5780601f106117635761010080835404028352916020019161178e565b820191906000526020600020905b81548152906001019060200180831161177157829003601f168201915b5050505050815260200190600101906116ff565b50505050905090565b6000611902600661020080602002604051908101604052809291906000905b8282101561186d5783820180546117e090613743565b80601f016020809104026020016040519081016040528092919081815260200182805461180c90613743565b80156118595780601f1061182e57610100808354040283529160200191611859565b820191906000526020600020905b81548152906001019060200180831161183c57829003601f168201915b5050505050815260200190600101906117ca565b50505050610206805461187f90613743565b80601f01602080910402602001604051908101604052809291908181526020018280546118ab90613743565b80156118f85780601f106118cd576101008083540402835291602001916118f8565b820191906000526020600020905b8154815290600101906020018083116118db57829003601f168201915b5050505050610ce9565b905090565b600080600090505b6000831461193157600183901c92508080611929906137a6565b91505061190f565b80915050919050565b60006119468383611511565b905092915050565b60008061195a846115a8565b9050600061196785610f82565b9050600086905060005b82811015611aa8576001600282600261198a9190613495565b866119959190613411565b61199f9190613803565b1415611a1f5760026119cb8783815181106119bd576119bc6138c1565b5b60200260200101518461117c565b6040516119d89190612f02565b602060405180830381855afa1580156119f5573d6000803e3d6000fd5b5050506040513d601f19601f82011682018060405250810190611a18919061282b565b9150611a95565b6002611a4583888481518110611a3857611a376138c1565b5b602002602001015161117c565b604051611a529190612f02565b602060405180830381855afa158015611a6f573d6000803e3d6000fd5b5050506040513d601f19601f82011682018060405250810190611a92919061282b565b91505b8080611aa0906137a6565b915050611971565b508781149350505050949350505050565b606060008267ffffffffffffffff811115611ad757611ad66138f0565b5b604051908082528060200260200182016040528015611b0a57816020015b6060815260200190600190039081611af55790505b5090506000805b610200811015611b925785816102008110611b2f57611b2e6138c1565b5b602002015115611b7f5786816102008110611b4d57611b4c6138c1565b5b6020020151838381518110611b6557611b646138c1565b5b60200260200101819052508180611b7b906137a6565b9250505b8080611b8a906137a6565b915050611b11565b5081925050509392505050565b606081601f83611baf91906133bb565b1015611bf0576040517f08c379a0000000000000000000000000000000000000000000000000000000008152600401611be7906130f5565b60405180910390fd5b8183611bfc91906133bb565b84511015611c3f576040517f08c379a0000000000000000000000000000000000000000000000000000000008152600401611c3690613155565b60405180910390fd5b6060821560008114611c605760405191506000825260208201604052611cb1565b6040519150601f8416801560200281840101858101878315602002848b0101015b81831015611c9e5780518352602083019250602081019050611c81565b50868552601f19601f8301166040525050505b50809150509392505050565b6060806040519050835180825260208201818101602087015b81831015611cf35780518352602083019250602081019050611cd6565b50855192508351830184528091508282019050602086015b81831015611d285780518352602083019250602081019050611d0b565b50601f19601f8851850115830101166040525050508091505092915050565b60405180614000016040528061020090602082028036833780820191505090505090565b6040518060200160405280600190602082028036833780820191505090505090565b826102008101928215611dd0579160200282015b82811115611dcf578251829080519060200190611dbf929190611de1565b5091602001919060010190611da1565b5b509050611ddd9190611e90565b5090565b828054611ded90613743565b90600052602060002090601f016020900481019282611e0f5760008555611e56565b82601f10611e2857805160ff1916838001178555611e56565b82800160010185558215611e56579182015b82811115611e55578251825591602001919060010190611e3a565b5b509050611e639190611eb4565b5090565b604051806140000160405280610200905b6060815260200190600190039081611e785790505090565b5b80821115611eb05760008181611ea79190611ed1565b50600101611e91565b5090565b5b80821115611ecd576000816000905550600101611eb5565b5090565b508054611edd90613743565b6000825580601f10611eef5750611f0e565b601f016020900490600052602060002090810190611f0d9190611eb4565b5b50565b6000611f24611f1f84613210565b6131eb565b90508082856020860282011115611f3e57611f3d61392e565b5b60005b85811015611f6e5781611f5488826122a7565b845260208401935060208301925050600181019050611f41565b5050509392505050565b6000611f8b611f8684613236565b6131eb565b90508082856020860282011115611fa557611fa461392e565b5b60005b85811015611fd55781611fbb88826122d1565b845260208401935060208301925050600181019050611fa8565b5050509392505050565b6000611ff2611fed8461325c565b6131eb565b905080838252602082019050828560208602820111156120155761201461392e565b5b60005b85811015612045578161202b88826122d1565b845260208401935060208301925050600181019050612018565b5050509392505050565b600061206261205d84613288565b6131eb565b9050808285602086028201111561207c5761207b61392e565b5b60005b858110156120ca57813567ffffffffffffffff8111156120a2576120a161391f565b5b8086016120af8982612310565b8552602085019450602084019350505060018101905061207f565b5050509392505050565b60006120e76120e2846132ae565b6131eb565b9050808382526020820190508285602086028201111561210a5761210961392e565b5b60005b8581101561215857813567ffffffffffffffff8111156121305761212f61391f565b5b80860161213d8982612310565b8552602085019450602084019350505060018101905061210d565b5050509392505050565b6000612175612170846132da565b6131eb565b90508281526020810184848401111561219157612190613933565b5b61219c848285613701565b509392505050565b600082601f8301126121b9576121b861391f565b5b6102006121c7848285611f11565b91505092915050565b600082601f8301126121e5576121e461391f565b5b6102006121f3848285611f78565b91505092915050565b600082601f8301126122115761221061391f565b5b8135612221848260208601611fdf565b91505092915050565b600081905082602061020002820111156122475761224661392e565b5b92915050565b600082601f8301126122625761226161391f565b5b61020061227084828561204f565b91505092915050565b600082601f83011261228e5761228d61391f565b5b813561229e8482602086016120d4565b91505092915050565b6000813590506122b681613d3d565b92915050565b6000813590506122cb81613d54565b92915050565b6000813590506122e081613d6b565b92915050565b6000815190506122f581613d6b565b92915050565b60008135905061230a81613d82565b92915050565b600082601f8301126123255761232461391f565b5b8135612335848260208601612162565b91505092915050565b6000614200828403121561235557612354613924565b5b6123606102206131eb565b9050600082013567ffffffffffffffff8111156123805761237f613929565b5b61238c84828501612310565b60008301525060206123a0848285016121a4565b6020830152506140206123b5848285016122d1565b6040830152506140406123ca848285016122d1565b6060830152506140606123df848285016122d1565b60808301525061408082013567ffffffffffffffff81111561240457612403613929565b5b612410848285016121fc565b60a0830152506140a0612425848285016125e5565b60c0830152506140c082013567ffffffffffffffff81111561244a57612449613929565b5b612456848285016121fc565b60e0830152506140e061246b848285016122d1565b6101008301525061410082013567ffffffffffffffff81111561249157612490613929565b5b61249d848285016121fc565b610120830152506141206124b3848285016125e5565b6101408301525061414082013567ffffffffffffffff8111156124d9576124d8613929565b5b6124e5848285016121fc565b610160830152506141606124fb848285016122d1565b6101808301525061418082013567ffffffffffffffff81111561252157612520613929565b5b61252d848285016121fc565b6101a0830152506141a082013567ffffffffffffffff81111561255357612552613929565b5b61255f8482850161224d565b6101c0830152506141c082013567ffffffffffffffff81111561258557612584613929565b5b61259184828501612310565b6101e0830152506141e082013567ffffffffffffffff8111156125b7576125b6613929565b5b6125c3848285016121fc565b6102008301525092915050565b6000813590506125df81613d99565b92915050565b6000813590506125f481613db0565b92915050565b600061400082840312156126115761261061393d565b5b600061261f848285016121a4565b91505092915050565b6000614000828403121561263f5761263e61393d565b5b600061264d848285016121d0565b91505092915050565b60006020828403121561266c5761266b61393d565b5b600082013567ffffffffffffffff81111561268a57612689613938565b5b6126968482850161222a565b91505092915050565b6000602082840312156126b5576126b461393d565b5b600082013567ffffffffffffffff8111156126d3576126d2613938565b5b6126df8482850161224d565b91505092915050565b600080600061404084860312156127025761270161393d565b5b600084013567ffffffffffffffff8111156127205761271f613938565b5b61272c8682870161224d565b935050602061273d868287016121a4565b92505061402061274f868287016125d0565b9150509250925092565b600080604083850312156127705761276f61393d565b5b600083013567ffffffffffffffff81111561278e5761278d613938565b5b61279a8582860161224d565b925050602083013567ffffffffffffffff8111156127bb576127ba613938565b5b6127c785828601612310565b9150509250929050565b6000602082840312156127e7576127e661393d565b5b60006127f5848285016122bc565b91505092915050565b6000602082840312156128145761281361393d565b5b6000612822848285016122d1565b91505092915050565b6000602082840312156128415761284061393d565b5b600061284f848285016122e6565b91505092915050565b6000806040838503121561286f5761286e61393d565b5b600061287d858286016122d1565b925050602061288e858286016122d1565b9150509250929050565b600080600080608085870312156128b2576128b161393d565b5b60006128c0878288016122d1565b94505060206128d1878288016122d1565b93505060406128e2878288016125d0565b925050606085013567ffffffffffffffff81111561290357612902613938565b5b61290f878288016121fc565b91505092959194509250565b6000806000606084860312156129345761293361393d565b5b6000612942868287016122d1565b935050602084013567ffffffffffffffff81111561296357612962613938565b5b61296f86828701612310565b925050604084013567ffffffffffffffff8111156129905761298f613938565b5b61299c86828701612279565b9150509250925092565b6000602082840312156129bc576129bb61393d565b5b60006129ca848285016122fb565b91505092915050565b6000602082840312156129e9576129e861393d565b5b600082013567ffffffffffffffff811115612a0757612a06613938565b5b612a1384828501612310565b91505092915050565b600060208284031215612a3257612a3161393d565b5b600082013567ffffffffffffffff811115612a5057612a4f613938565b5b612a5c8482850161233e565b91505092915050565b600060208284031215612a7b57612a7a61393d565b5b6000612a89848285016125d0565b91505092915050565b600060208284031215612aa857612aa761393d565b5b6000612ab6848285016125e5565b91505092915050565b6000612acb8383612c18565b905092915050565b6000612ade82613325565b612ae88185613361565b935083602082028501612afa8561330b565b8060005b85811015612b365784840389528151612b178582612abf565b9450612b2283613347565b925060208a01995050600181019050612afe565b50829750879550505050505092915050565b6000612b5382613331565b612b5d818561336c565b935083602082028501612b6f85613315565b8060005b85811015612bab5784840389528151612b8c8582612abf565b9450612b9783613354565b925060208a01995050600181019050612b73565b50829750879550505050505092915050565b612bc681613675565b82525050565b612bdd612bd882613681565b6137ef565b82525050565b612bec816136ad565b82525050565b612c03612bfe826136ad565b6137f9565b82525050565b612c12816136b7565b82525050565b6000612c238261333c565b612c2d818561337d565b9350612c3d818560208601613710565b612c4681613942565b840191505092915050565b6000612c5c8261333c565b612c66818561338e565b9350612c76818560208601613710565b612c7f81613942565b840191505092915050565b6000612c958261333c565b612c9f818561339f565b9350612caf818560208601613710565b80840191505092915050565b6000612cc8602f836133aa565b9150612cd382613960565b604082019050919050565b6000612ceb6032836133aa565b9150612cf6826139af565b604082019050919050565b6000612d0e6029836133aa565b9150612d19826139fe565b604082019050919050565b6000612d31602e836133aa565b9150612d3c82613a4d565b604082019050919050565b6000612d546043836133aa565b9150612d5f82613a9c565b606082019050919050565b6000612d776026836133aa565b9150612d8282613b11565b604082019050919050565b6000612d9a602f836133aa565b9150612da582613b60565b604082019050919050565b6000612dbd600e836133aa565b9150612dc882613baf565b602082019050919050565b6000612de0603d836133aa565b9150612deb82613bd8565b604082019050919050565b6000612e036021836133aa565b9150612e0e82613c27565b604082019050919050565b6000612e266011836133aa565b9150612e3182613c76565b602082019050919050565b6000612e49602a836133aa565b9150612e5482613c9f565b604082019050919050565b6000612e6c602c836133aa565b9150612e7782613cee565b604082019050919050565b612e8b816136e3565b82525050565b612e9a816136ed565b82525050565b6000612eac8284612bcc565b60028201915081905092915050565b6000612ec78284612bf2565b60208201915081905092915050565b6000612ee28285612bf2565b602082019150612ef28284612bf2565b6020820191508190509392505050565b6000612f0e8284612c8a565b915081905092915050565b60006020820190508181036000830152612f338184612ad3565b905092915050565b60006020820190508181036000830152612f558184612b48565b905092915050565b6000602082019050612f726000830184612bbd565b92915050565b6000602082019050612f8d6000830184612be3565b92915050565b6000606082019050612fa86000830186612be3565b8181036020830152612fba8185612c51565b90508181036040830152612fce8184612b48565b9050949350505050565b6000602082019050612fed6000830184612c09565b92915050565b6000602082019050818103600083015261300d8184612c51565b905092915050565b6000602082019050818103600083015261302e81612cbb565b9050919050565b6000602082019050818103600083015261304e81612cde565b9050919050565b6000602082019050818103600083015261306e81612d01565b9050919050565b6000602082019050818103600083015261308e81612d24565b9050919050565b600060208201905081810360008301526130ae81612d47565b9050919050565b600060208201905081810360008301526130ce81612d6a565b9050919050565b600060208201905081810360008301526130ee81612d8d565b9050919050565b6000602082019050818103600083015261310e81612db0565b9050919050565b6000602082019050818103600083015261312e81612dd3565b9050919050565b6000602082019050818103600083015261314e81612df6565b9050919050565b6000602082019050818103600083015261316e81612e19565b9050919050565b6000602082019050818103600083015261318e81612e3c565b9050919050565b600060208201905081810360008301526131ae81612e5f565b9050919050565b60006020820190506131ca6000830184612e82565b92915050565b60006020820190506131e56000830184612e91565b92915050565b60006131f5613206565b90506132018282613775565b919050565b6000604051905090565b600067ffffffffffffffff82111561322b5761322a6138f0565b5b602082029050919050565b600067ffffffffffffffff821115613251576132506138f0565b5b602082029050919050565b600067ffffffffffffffff821115613277576132766138f0565b5b602082029050602081019050919050565b600067ffffffffffffffff8211156132a3576132a26138f0565b5b602082029050919050565b600067ffffffffffffffff8211156132c9576132c86138f0565b5b602082029050602081019050919050565b600067ffffffffffffffff8211156132f5576132f46138f0565b5b6132fe82613942565b9050602081019050919050565b6000819050919050565b6000819050602082019050919050565b60006102009050919050565b600081519050919050565b600081519050919050565b6000602082019050919050565b6000602082019050919050565b600081905092915050565b600082825260208201905092915050565b600082825260208201905092915050565b600082825260208201905092915050565b600081905092915050565b600082825260208201905092915050565b60006133c6826136e3565b91506133d1836136e3565b9250827fffffffffffffffffffffffffffffffffffffffffffffffffffffffffffffffff0382111561340657613405613834565b5b828201905092915050565b600061341c826136e3565b9150613427836136e3565b92508261343757613436613863565b5b828204905092915050565b6000808291508390505b600185111561348c5780860481111561346857613467613834565b5b60018516156134775780820291505b808102905061348585613953565b945061344c565b94509492505050565b60006134a0826136e3565b91506134ab836136e3565b92506134d87fffffffffffffffffffffffffffffffffffffffffffffffffffffffffffffffff84846134e0565b905092915050565b6000826134f057600190506135ac565b816134fe57600090506135ac565b8160018114613514576002811461351e5761354d565b60019150506135ac565b60ff8411156135305761352f613834565b5b8360020a91508482111561354757613546613834565b5b506135ac565b5060208310610133831016604e8410600b84101617156135825782820a90508381111561357d5761357c613834565b5b6135ac565b61358f8484846001613442565b925090508184048111156135a6576135a5613834565b5b81810290505b9392505050565b60006135be826136e3565b91506135c9836136e3565b9250817fffffffffffffffffffffffffffffffffffffffffffffffffffffffffffffffff048311821515161561360257613601613834565b5b828202905092915050565b6000613618826136e3565b9150613623836136e3565b92508282101561363657613635613834565b5b828203905092915050565b600061364c826136ed565b9150613657836136ed565b92508282101561366a57613669613834565b5b828203905092915050565b60008115159050919050565b60007fffff00000000000000000000000000000000000000000000000000000000000082169050919050565b6000819050919050565b60007fffffffffffffffff00000000000000000000000000000000000000000000000082169050919050565b6000819050919050565b600067ffffffffffffffff82169050919050565b82818337600083830152505050565b60005b8381101561372e578082015181840152602081019050613713565b8381111561373d576000848401525b50505050565b6000600282049050600182168061375b57607f821691505b6020821081141561376f5761376e613892565b5b50919050565b61377e82613942565b810181811067ffffffffffffffff8211171561379d5761379c6138f0565b5b80604052505050565b60006137b1826136e3565b91507fffffffffffffffffffffffffffffffffffffffffffffffffffffffffffffffff8214156137e4576137e3613834565b5b600182019050919050565b6000819050919050565b6000819050919050565b600061380e826136e3565b9150613819836136e3565b92508261382957613828613863565b5b828206905092915050565b7f4e487b7100000000000000000000000000000000000000000000000000000000600052601160045260246000fd5b7f4e487b7100000000000000000000000000000000000000000000000000000000600052601260045260246000fd5b7f4e487b7100000000000000000000000000000000000000000000000000000000600052602260045260246000fd5b7f4e487b7100000000000000000000000000000000000000000000000000000000600052603260045260246000fd5b7f4e487b7100000000000000000000000000000000000000000000000000000000600052604160045260246000fd5b600080fd5b600080fd5b600080fd5b600080fd5b600080fd5b600080fd5b600080fd5b6000601f19601f8301169050919050565b60008160011c9050919050565b7f6d65726b6c652070726f6f6620666f722066696e616c697a656420737461746560008201527f20726f6f74206e6f742076616c69640000000000000000000000000000000000602082015250565b7f5f696e70757420746f20666c6f6f724c6f6732206d757374206265206c61726760008201527f6572206f7220657175616c207468616e20310000000000000000000000000000602082015250565b7f6d65726b6c652070726f6f6620666f722066696e616c697a656420736c6f742060008201527f6e6f742076616c69640000000000000000000000000000000000000000000000602082015250565b7f6d65726b6c652070726f6f6620666f72206e6578742073796e6320636f6d6d6960008201527f74746565206e6f742076616c6964000000000000000000000000000000000000602082015250565b7f66696e616c697a656420626c6f636b206f6c646572207468616e206c6173742060008201527f66696e616c697a656420626c6f636b207365656e20627920636861696e20726560208201527f6c61790000000000000000000000000000000000000000000000000000000000604082015250565b7f6d65726b6c652070726f6f6620666f72206c617465737420736c6f74206e6f7460008201527f2076616c69640000000000000000000000000000000000000000000000000000602082015250565b7f6d65726b6c652070726f6f6620666f722066696e616c697a656420626c6f636b60008201527f20726f6f74206e6f742076616c69640000000000000000000000000000000000602082015250565b7f736c6963655f6f766572666c6f77000000000000000000000000000000000000600082015250565b7f6c617465737420626c6f636b206f6c646572207468616e206c617374206c617460008201527f65737420626c6f636b207365656e20627920636861696e2072656c6179000000602082015250565b7f6e6f7420656e6f756768207369676e6174757265207061727469636970616e7460008201527f7300000000000000000000000000000000000000000000000000000000000000602082015250565b7f736c6963655f6f75744f66426f756e6473000000000000000000000000000000600082015250565b7f7369676e6174757265206279206e6578742073796e6320636f6d6d697474656560008201527f206e6f742076616c696400000000000000000000000000000000000000000000602082015250565b7f6d65726b6c652070726f6f6620666f72206c617465737420737461746520726f60008201527f6f74206e6f742076616c69640000000000000000000000000000000000000000602082015250565b613d4681613675565b8114613d5157600080fd5b50565b613d5d81613681565b8114613d6857600080fd5b50565b613d74816136ad565b8114613d7f57600080fd5b50565b613d8b816136b7565b8114613d9657600080fd5b50565b613da2816136e3565b8114613dad57600080fd5b50565b613db9816136ed565b8114613dc457600080fd5b5056fea2646970667358221220ee78a01913b5d4c16d1f9ebfffc35705427e173d108cfae46d9cafa3dccaef8364736f6c63430008060033",
  "immutableReferences": {},
  "source": "// SPDX-License-Identifier: GPL-3.0-or-later\n\n// PLEASE NOTE: This is a prototype. Do not use it in production settings. \n// This contract is tailored to be used by the Verilay client that retrieves Eth2 blocks from a Lodestar node\n// This contract will not work with aritificial data\n\npragma solidity >=0.8.0 <0.9.0;\n\nimport \"solidity-bytes-utils/contracts/BytesLib.sol\";\nimport \"./libraries/Memory.sol\";\n\n// debug settings\nbool constant MOCK_BLS_PRECOMPILE = false;\n\n// magic numbers\nuint constant FIRST_BEACON_BLOCK_UNIX_TIMESTAMP = 1606824023;\n\n// eth2 mainnet configuration\nuint constant SYNC_COMMITTEE_SIZE = 512;\nuint constant SECONDS_PER_SLOT = 12;\nuint constant SLOTS_PER_EPOCH = 32;\nuint constant EPOCHS_PER_SYNC_COMMITTEE_PERIOD = 512;\n\n// SSZ generalized indices\nuint constant FINALIZED_ROOT_INDEX = 105;\nuint constant FINALIZED_EPOCH_INDEX = 104;\nuint constant NEXT_SYNC_COMMITTEE_INDEX = 55;\nuint constant NEXT_SYNC_COMMITTEE_PUBKEYS_INDEX = 110;\nuint constant NEXT_SYNC_COMMITTEE_AGGREGATE_PUBKEY_INDEX = 111;\nuint constant CURRENT_SYNC_COMMITTEE_INDEX = 54;\nuint constant CURRENT_SYNC_COMMITTEE_PUBKEYS_INDEX = 108;\nuint constant CURRENT_SYNC_COMMITTEE_AGGREGATE_PUBKEY_INDEX = 109;\nuint constant SLOT_INDEX = 8;\nuint constant STATE_ROOT_INDEX = 11;\n\nstruct ChainRelayUpdate {\n    bytes signature;\n    bool[SYNC_COMMITTEE_SIZE] participants;\n    bytes32 latestBlockRoot;\n    bytes32 signingDomain;\n    bytes32 stateRoot;\n    bytes32[] stateRootBranch; \n    uint64 latestSlot;\n    bytes32[] latestSlotBranch; \n    bytes32 finalizedBlockRoot; \n    bytes32[] finalizingBranch; \n    uint64 finalizedSlot; \n    bytes32[] finalizedSlotBranch; \n    bytes32 finalizedStateRoot;\n    bytes32[] finalizedStateRootBranch;\n    bytes[SYNC_COMMITTEE_SIZE] syncCommittee;\n    bytes syncCommitteeAggregate;\n    bytes32[] syncCommitteeBranch; \n}\n\n/** \n * @title Chain Relay\n * @dev Implements a chain relay/light client for eth2 consensus post-altair (including sync committees)\n */\ncontract Eth2ChainRelay_512_NoStorage_Client {\n    using BytesLib for bytes;\n\n    uint64 private signatureThreshold; // 0 < signatureThreshold <= 512\n    uint64 private trustingPeriod; // validators are trusted for a certain time, ensuring they have not exited the validator set, in unix time\n    bytes private currentValidatorSetAggregate;\n    bytes private nextValidatorSetAggregate;\n    bytes32 private finalizedBlockRoot;\n    bytes32 private finalizedStateRoot; \n    uint64 private latestSlot;\n    uint64 private latestSlotWithValidatorSetChange;\n    uint64 private finalizedSlot;\n    bytes[SYNC_COMMITTEE_SIZE] testSyncCommittee;\n    bytes testSyncCommitteeAggregate;\n    \n    constructor(uint64 _signatureThreshold, \n                uint64 _trustingPeriod, \n                bytes32 _finalizedBlockRoot,\n                bytes32 _finalizedStateRoot,\n                uint64 _finalizedSlot,\n                uint64 _latestSlot,\n                uint64 _latestSlotWithValidatorSetChange) \n    {\n        signatureThreshold=_signatureThreshold;\n        trustingPeriod=_trustingPeriod;\n        finalizedBlockRoot=_finalizedBlockRoot;\n        latestSlot=_latestSlot;\n        latestSlotWithValidatorSetChange=_latestSlotWithValidatorSetChange;\n        finalizedSlot=_finalizedSlot;\n        finalizedStateRoot=_finalizedStateRoot;\n    }\n\n    function getLatestSlotWithValidatorSetChange() public view returns (uint64) {\n        return latestSlotWithValidatorSetChange;\n    }\n    \n    function getFinalizedBlockRoot() public view returns (bytes32) {\n        return finalizedBlockRoot;\n    }\n    \n    function getFinalizedStateRoot() public view returns (bytes32) {\n        return finalizedStateRoot;\n    }\n\n    function testEncoding(bytes32 message, bytes memory signature, bytes[] memory pubkeys) public view returns (bytes memory) {\n        return abi.encode(message, signature, pubkeys);\n    }\n\n    function testJustStoreSyncCommittee(bytes[SYNC_COMMITTEE_SIZE] memory committee, bytes memory aggregate) public {\n        testSyncCommittee = committee;\n        testSyncCommitteeAggregate = aggregate;\n    }\n\n    function testJustDoSyncCommitteeMerkleizationFromMemory(bytes[SYNC_COMMITTEE_SIZE] memory committee, bytes memory aggregate) public returns (bytes32) {\n        return hashTreeRootSyncCommittee(committee, aggregate);\n    }\n\n    function testJustDoSyncCommitteeMerkleizationFromStorage() public returns (bytes32) {\n        return hashTreeRootSyncCommittee(testSyncCommittee, testSyncCommitteeAggregate);\n    }\n\n    function testJustReadSyncCommitteeFromStorage() public returns (bytes[SYNC_COMMITTEE_SIZE] memory) {\n        return testSyncCommittee;\n    }\n\n    function testJustSubmitSyncCommitteeViaMemory(bytes[SYNC_COMMITTEE_SIZE] memory) public returns (bool) {\n        return true;\n    }\n\n    function testJustSubmitSyncCommitteeViaCalldata(bytes[SYNC_COMMITTEE_SIZE] calldata) public returns (bool) {\n        return true;\n    }\n\n    function testDoNothingWithData(ChainRelayUpdate memory _chainRelayUpdate) public returns (bool) {\n        if (_chainRelayUpdate.syncCommittee.length == 512) {\n            return true;\n        } else {\n            return false;\n        }\n    }\n    \n    function submitUpdate(ChainRelayUpdate memory _chainRelayUpdate) public returns (bool) {\n        bytes32 signingRoot = computeSigningRoot(_chainRelayUpdate.latestBlockRoot, _chainRelayUpdate.signingDomain);\n        uint numberOfParticipants = countTrueBools(_chainRelayUpdate.participants);\n        require(\n            numberOfParticipants >= signatureThreshold, \n            \"not enough signature participants\");\n        require(\n            validateMerkleBranch(\n                _chainRelayUpdate.latestBlockRoot, \n                _chainRelayUpdate.stateRoot, \n                STATE_ROOT_INDEX, \n                _chainRelayUpdate.stateRootBranch), \n            \"merkle proof for latest state root not valid\");\n        // the following checks are executed but ignored in order to allow for testing with synthetic SSZ/Eth2 data\n        require(\n            validateMerkleBranch(\n                _chainRelayUpdate.latestBlockRoot, \n                merklelizeSlot(_chainRelayUpdate.latestSlot), \n                SLOT_INDEX, \n                _chainRelayUpdate.latestSlotBranch), \"merkle proof for latest slot not valid\");\n        require(\n            validateMerkleBranch(\n                _chainRelayUpdate.stateRoot, \n                _chainRelayUpdate.finalizedBlockRoot, \n                FINALIZED_ROOT_INDEX, \n                _chainRelayUpdate.finalizingBranch), \"merkle proof for finalized block root not valid\");\n        require(\n            validateMerkleBranch(\n                _chainRelayUpdate.finalizedBlockRoot, \n                merklelizeSlot(_chainRelayUpdate.finalizedSlot), \n                SLOT_INDEX, \n                _chainRelayUpdate.finalizedSlotBranch), \"merkle proof for finalized slot not valid\");\n        require(\n            validateMerkleBranch(\n                _chainRelayUpdate.finalizedBlockRoot, \n                _chainRelayUpdate.finalizedStateRoot, \n                STATE_ROOT_INDEX, \n                _chainRelayUpdate.finalizedStateRootBranch), \n            \"merkle proof for finalized state root not valid\");\n        require(\n            _chainRelayUpdate.latestSlot >= latestSlot, \n            \"latest block older than last latest block seen by chain relay\");\n        require(\n            _chainRelayUpdate.finalizedSlot >= finalizedSlot, \n            \"finalized block older than last finalized block seen by chain relay\");\n        uint slot_distance = _chainRelayUpdate.latestSlot - latestSlotWithValidatorSetChange; \n        // if ((slot_distance / (SLOTS_PER_EPOCH * EPOCHS_PER_SYNC_COMMITTEE_PERIOD)) == 0) {\n        //     // the following check is executed but ignored in order to allow for testing with synthetic SSZ/Eth2 data\n        //     require(validateMerkleBranch(\n        //         finalizedStateRoot, \n        //         hashTreeRootSyncCommittee(_chainRelayUpdate.syncCommittee, _chainRelayUpdate.syncCommitteeAggregate), \n        //         CURRENT_SYNC_COMMITTEE_INDEX, \n        //         _chainRelayUpdate.syncCommitteeBranch), \"merkle proof for current sync committee not valid\");\n        //    require(\n        //        fastAggregateVerify(serializeAggregateSignature(\n        //            signingRoot, \n        //            _chainRelayUpdate.signature, \n        //            getActiveValidators(_chainRelayUpdate.syncCommittee, _chainRelayUpdate.participants, numberOfParticipants))), \n        //        \"signature by current sync committee not valid\");\n        // } else if ((slot_distance / (SLOTS_PER_EPOCH * EPOCHS_PER_SYNC_COMMITTEE_PERIOD)) == 1) {\n            // the following check is executed but ignored in order to allow for testing with synthetic SSZ/Eth2 data\n            require(validateMerkleBranch(\n                finalizedStateRoot, \n                hashTreeRootSyncCommittee(_chainRelayUpdate.syncCommittee, _chainRelayUpdate.syncCommitteeAggregate), \n                NEXT_SYNC_COMMITTEE_INDEX, \n                _chainRelayUpdate.syncCommitteeBranch)\n                , \"merkle proof for next sync committee not valid\");\n            require(\n                fastAggregateVerify(serializeAggregateSignature(\n                    signingRoot, \n                    _chainRelayUpdate.signature, \n                    getActiveValidators(_chainRelayUpdate.syncCommittee, _chainRelayUpdate.participants, numberOfParticipants))), \n                \"signature by next sync committee not valid\");\n            latestSlotWithValidatorSetChange = _chainRelayUpdate.finalizedSlot;\n        // } else {\n        //     revert(\"latest slot does not indicate that current or next sync committee is responsible\");\n        // }\n        finalizedBlockRoot = _chainRelayUpdate.finalizedBlockRoot; \n        finalizedStateRoot = _chainRelayUpdate.finalizedStateRoot;\n        latestSlot = _chainRelayUpdate.latestSlot;\n        finalizedSlot = _chainRelayUpdate.finalizedSlot;\n        return true;\n    }\n    \n    function getActiveValidators(bytes[SYNC_COMMITTEE_SIZE] memory _pubkeys, bool[SYNC_COMMITTEE_SIZE] memory _isActive, uint _numberOfActive) public pure returns (bytes[] memory) {\n        bytes[] memory active_validators = new bytes[](_numberOfActive);\n        uint counter = 0;\n        for (uint i = 0; i < SYNC_COMMITTEE_SIZE; i++) {\n            if (_isActive[i]) {\n                active_validators[counter] = _pubkeys[i];\n                counter++;\n            }\n        }\n        return active_validators;\n    }\n    \n    function countTrueBools(bool[SYNC_COMMITTEE_SIZE] memory _bools) public pure returns (uint) {\n        uint counter = 0;\n        for (uint i = 0; i < SYNC_COMMITTEE_SIZE; i++) {\n            if (_bools[i] == true) {\n                counter++;\n            }\n        }\n        return counter;\n    }\n\n    function serializeAggregateSignature(bytes32 _message, bytes memory _signature, bytes[] memory _pubkeys) public pure returns (bytes memory) {\n        bytes2 length = bytes2(uint16(_pubkeys.length));\n        bytes memory serialized = new bytes(32+96+2+48*_pubkeys.length);\n        for (uint i = 0; i < 32; i++) {\n            serialized[i] = _message[i];\n        }\n        for (uint i = 32; i < 128; i++) {\n            serialized[i] = _signature[i-32];\n        }\n        for (uint i = 128; i < 130; i++) {\n            serialized[i] = length[i-128];\n        }\n        for (uint i = 0; i < _pubkeys.length; i++) {\n            for (uint j = 0; j < 48; j++) {\n                serialized[32+96+2+i*48+j] = _pubkeys[i][j];\n            }\n        }\n       return serialized;\n    }\n    \n    function fastAggregateVerify(bytes memory _input) public view returns (bool o) {\n        if (MOCK_BLS_PRECOMPILE) {\n            return true;\n        }\n        bool[1] memory outCache;\n        assembly {\n            let p := mload(0x40)\n            let length := mload(_input)\n            if iszero(staticcall(gas(), 0x05, add(_input,32), length, outCache, 32)) { // first 32 yte of _input are length\n                revert(0, 0)\n            }\n        }\n        o = outCache[0];\n    }\n    \n    function slotToUnixTimestamp(uint _slot) public pure returns (uint timestamp) {\n        return _slot * SECONDS_PER_SLOT + FIRST_BEACON_BLOCK_UNIX_TIMESTAMP;\n    }\n    \n    function bytes32ToBytes(bytes32 _input) public pure returns (bytes memory output) {\n        return abi.encodePacked(_input);\n    }\n    \n    function bytes2ToBytes(bytes2 _input) public pure returns (bytes memory output) {\n        return abi.encodePacked(_input);\n    }\n    \n    function concat(bytes32 _left, bytes32 _right) public pure returns (bytes memory) {\n        return bytes.concat(_left, _right);\n        // below is fallback code for older solidity versions\n        /*bytes memory concatenated;\n        for (uint i = 0; i<32; i++) {\n            concatenated[i] = left[i];\n        }\n        for (uint i = 0; i<32; i++) {\n            concatenated[i+32] = right[i];\n        }\n        return concatenated;*/\n    }\n\n    function hashTreeRootPair(bytes32 _left, bytes32 _right) public pure returns (bytes32) {\n        return sha256(concat(_left, _right));\n    }\n    \n    function hashTreeRootBlspubkey (bytes memory _blspubkey) public pure returns (bytes32) {\n        bytes memory blspubkeyMerkleizedLeft = _blspubkey.slice(0, 32);\n        bytes memory blspubkeyMerkleizedRight = _blspubkey.slice(32, 16);\n        blspubkeyMerkleizedRight = blspubkeyMerkleizedRight.concat(bytes(hex\"00000000000000000000000000000000\"));\n        /* fallback w/o library\n        bytes memory blspubkeyMerkleizedLeft = new bytes(32);\n        for (uint i = 0; i<32; i++) {\n            blspubkeyMerkleizedLeft[i] = _blspubkey[i];\n        }\n        bytes memory blspubkeyMerkleizedRight = new bytes(32);\n        for (uint i = 0; i<16; i++) { // rest of blspubkeyMerkleizedRight is initialized zero\n            blspubkeyMerkleizedRight[i] = _blspubkey[i+32];\n        }*/\n        return hashTreeRootPair(bytesToBytes32(blspubkeyMerkleizedLeft), bytesToBytes32(blspubkeyMerkleizedRight));\n    }\n    \n    function computeSigningRoot(bytes32 _blockRoot, bytes32 _signingDomain) public pure returns (bytes32) {\n        return hashTreeRootPair(_blockRoot, _signingDomain);\n    }\n    \n    function bytesToBytes8(bytes memory _input) public pure returns (bytes8 result) {\n        if (_input.length == 0) {\n            return 0x0;\n        }\n        assembly {\n            result := mload(add(_input, 32))\n        }\n    }\n    \n    function bytesToBytes32(bytes memory _input) public pure returns (bytes32 result) {\n        if (_input.length == 0) {\n            return 0x0;\n        }\n        assembly {\n            result := mload(add(_input, 32))\n        }\n    }\n\n    function revertBytes8(bytes8 _input) public pure returns (bytes8) {\n        bytes memory reverted = new bytes(8);\n        for (uint i = 0; i < 8; i++) {\n            reverted[7-i] = _input[i];\n        }\n        return bytesToBytes8(reverted);\n    }\n\n    function merklelizeSlot(uint64 _input) public pure returns (bytes32) {\n        return bytes32(revertBytes8(bytes8(_input)));\n    }\n    \n    function bitLength(uint _input) public pure returns (uint) {\n        uint length = 0;\n        while (_input != 0) \n        {\n            _input >>= 1; \n            length++; \n        }\n        return length;\n    }\n    \n    function nextPowOfTwo(uint _input) public pure returns (uint) {\n        if (_input == 0) {\n            return 1;\n        } else {\n            return 2**(bitLength(_input-1));\n        }\n    }\n    \n    function floorLog2 (uint _input) public pure returns (uint) {\n        require(_input >= 1, \"_input to floorLog2 must be larger or equal than 1\");\n        return bitLength(_input)-1;\n    }\n    \n    function merkleize(bytes32[SYNC_COMMITTEE_SIZE] memory _chunks) public pure returns (bytes32) {\n        uint length_next_pow = nextPowOfTwo(_chunks.length);\n        for (uint i = _chunks.length; i < length_next_pow; i++) {\n           // filling lowest level not necessary b/c size always 2^n\n        }\n        for (uint level = 0; level<floorLog2(length_next_pow); level++) {\n            uint step = 2**level;\n            for (uint current_accumulator = 0; current_accumulator < length_next_pow; current_accumulator += step*2) {\n                _chunks[current_accumulator] = hashTreeRootPair(_chunks[current_accumulator], _chunks[current_accumulator+step]);\n            }\n        }\n        return _chunks[0];\n    }\n    \n    function hashTreeRootSyncCommittee(bytes[SYNC_COMMITTEE_SIZE] memory _syncCommittee, bytes memory _syncAggregate) public pure returns (bytes32) {\n        bytes32[SYNC_COMMITTEE_SIZE] memory syncCommitteeHashed;\n        for (uint i = 0; i < SYNC_COMMITTEE_SIZE; i++) {\n            syncCommitteeHashed[i] = hashTreeRootBlspubkey(_syncCommittee[i]);\n        }\n        bytes32 syncCommitteeHashedMerkleized = merkleize(syncCommitteeHashed);\n        bytes32 syncCommitteeRoot = hashTreeRootPair(syncCommitteeHashedMerkleized, hashTreeRootBlspubkey(_syncAggregate));\n        return syncCommitteeRoot;\n    }\n    \n    function getSubtreeIndex(uint _generalizedIndex) public pure returns (uint) {\n        return _generalizedIndex % 2**(floorLog2(_generalizedIndex));\n    }\n    \n    function validateMerkleBranch(bytes32 _root, bytes32 _leaf, uint _generalizedIndex, bytes32[] memory _branch) public pure returns (bool) {\n        uint index = getSubtreeIndex(_generalizedIndex);\n        uint depth = floorLog2(_generalizedIndex);\n        bytes32 value = _leaf;\n        for (uint i = 0; i < depth; i++) {\n            if ((index / (2**i) % 2) == 1) {\n                value = sha256(concat(_branch[i],value));\n            } else {\n                value = sha256(concat(value,_branch[i]));\n            }\n        }\n        return value == _root;\n    }\n    \n}",
  "sourcePath": "/mnt/d/Documents/GitHub/ResearchProject/PoSChainRelayEthereumHolesky/contracts/Eth2ChainRelay_512_NoStorage_Client.sol",
  "compiler": {
    "name": "solc",
    "version": "0.8.6+commit.11564f7e.Emscripten.clang"
  },
  "schemaVersion": "3.4.16",
  "updatedAt": "2024-01-18T07:45:27.655Z",
  "devdoc": {
    "details": "Implements a chain relay/light client for eth2 consensus post-altair (including sync committees)",
    "kind": "dev",
    "methods": {},
    "title": "Chain Relay",
    "version": 1
  },
  "userdoc": {
    "kind": "user",
    "methods": {},
    "version": 1
  }
}