{
  "contractName": "Eth2ChainRelay_512",
  "abi": [
    {
      "inputs": [
        {
          "internalType": "uint64",
          "name": "_signatureThreshold",
          "type": "uint64"
        },
        {
          "internalType": "uint64",
          "name": "_trustingPeriod",
          "type": "uint64"
        },
        {
          "internalType": "bytes32",
          "name": "_finalizedBlockRoot",
          "type": "bytes32"
        },
        {
          "internalType": "bytes32",
          "name": "_finalizedStateRoot",
          "type": "bytes32"
        },
        {
          "internalType": "uint64",
          "name": "_finalizedSlot",
          "type": "uint64"
        },
        {
          "internalType": "uint64",
          "name": "_latestSlot",
          "type": "uint64"
        },
        {
          "internalType": "uint64",
          "name": "_latestSlotWithValidatorSetChange",
          "type": "uint64"
        }
      ],
      "stateMutability": "nonpayable",
      "type": "constructor"
    },
    {
      "inputs": [
        {
          "internalType": "bytes[512]",
          "name": "_currentValidatorSet",
          "type": "bytes[512]"
        },
        {
          "internalType": "bytes",
          "name": "_currentValidatorSetAggregate",
          "type": "bytes"
        }
      ],
      "name": "initializeCurrent",
      "outputs": [],
      "stateMutability": "nonpayable",
      "type": "function"
    },
    {
      "inputs": [
        {
          "internalType": "bytes[512]",
          "name": "_nextValidatorSet",
          "type": "bytes[512]"
        },
        {
          "internalType": "bytes",
          "name": "_nextValidatorSetAggregate",
          "type": "bytes"
        }
      ],
      "name": "initializeNext",
      "outputs": [],
      "stateMutability": "nonpayable",
      "type": "function"
    },
    {
      "inputs": [],
      "name": "getLatestSlotWithValidatorSetChange",
      "outputs": [
        {
          "internalType": "uint64",
          "name": "",
          "type": "uint64"
        }
      ],
      "stateMutability": "view",
      "type": "function",
      "constant": true
    },
    {
      "inputs": [],
      "name": "getFinalizedBlockRoot",
      "outputs": [
        {
          "internalType": "bytes32",
          "name": "",
          "type": "bytes32"
        }
      ],
      "stateMutability": "view",
      "type": "function",
      "constant": true
    },
    {
      "inputs": [],
      "name": "getFinalizedStateRoot",
      "outputs": [
        {
          "internalType": "bytes32",
          "name": "",
          "type": "bytes32"
        }
      ],
      "stateMutability": "view",
      "type": "function",
      "constant": true
    },
    {
      "inputs": [
        {
          "components": [
            {
              "internalType": "bytes",
              "name": "signature",
              "type": "bytes"
            },
            {
              "internalType": "bool[512]",
              "name": "participants",
              "type": "bool[512]"
            },
            {
              "internalType": "bytes32",
              "name": "latestBlockRoot",
              "type": "bytes32"
            },
            {
              "internalType": "bytes32",
              "name": "signingDomain",
              "type": "bytes32"
            },
            {
              "internalType": "uint64",
              "name": "latestSlot",
              "type": "uint64"
            },
            {
              "internalType": "bytes32[]",
              "name": "latestSlotBranch",
              "type": "bytes32[]"
            },
            {
              "internalType": "bytes32",
              "name": "finalizedBlockRoot",
              "type": "bytes32"
            },
            {
              "internalType": "bytes32[]",
              "name": "finalizingBranch",
              "type": "bytes32[]"
            },
            {
              "internalType": "uint64",
              "name": "finalizedSlot",
              "type": "uint64"
            },
            {
              "internalType": "bytes32[]",
              "name": "finalizedSlotBranch",
              "type": "bytes32[]"
            },
            {
              "internalType": "bytes32",
              "name": "finalizedStateRoot",
              "type": "bytes32"
            },
            {
              "internalType": "bytes32[]",
              "name": "finalizedStateRootBranch",
              "type": "bytes32[]"
            },
            {
              "internalType": "bytes32",
              "name": "stateRoot",
              "type": "bytes32"
            },
            {
              "internalType": "bytes32[]",
              "name": "stateRootBranch",
              "type": "bytes32[]"
            }
          ],
          "internalType": "struct ChainRelayUpdate",
          "name": "_chainRelayUpdate",
          "type": "tuple"
        },
        {
          "components": [
            {
              "internalType": "bytes[512]",
              "name": "nextNextValidatorSet",
              "type": "bytes[512]"
            },
            {
              "internalType": "bytes",
              "name": "nextNextValidatorSetAggregate",
              "type": "bytes"
            },
            {
              "internalType": "bytes32[]",
              "name": "nextNextValidatorSetBranch",
              "type": "bytes32[]"
            }
          ],
          "internalType": "struct SyncCommitteeUpdate",
          "name": "_syncCommitteeUpdate",
          "type": "tuple"
        }
      ],
      "name": "submitUpdate",
      "outputs": [
        {
          "internalType": "bool",
          "name": "",
          "type": "bool"
        }
      ],
      "stateMutability": "nonpayable",
      "type": "function"
    },
    {
      "inputs": [
        {
          "internalType": "bytes[512]",
          "name": "_pubkeys",
          "type": "bytes[512]"
        },
        {
          "internalType": "bool[512]",
          "name": "_isActive",
          "type": "bool[512]"
        },
        {
          "internalType": "uint256",
          "name": "_numberOfActive",
          "type": "uint256"
        }
      ],
      "name": "getActiveValidators",
      "outputs": [
        {
          "internalType": "bytes[]",
          "name": "",
          "type": "bytes[]"
        }
      ],
      "stateMutability": "pure",
      "type": "function",
      "constant": true
    },
    {
      "inputs": [
        {
          "internalType": "bool[512]",
          "name": "_bools",
          "type": "bool[512]"
        }
      ],
      "name": "countTrueBools",
      "outputs": [
        {
          "internalType": "uint256",
          "name": "",
          "type": "uint256"
        }
      ],
      "stateMutability": "pure",
      "type": "function",
      "constant": true
    },
    {
      "inputs": [
        {
          "internalType": "bytes32",
          "name": "_message",
          "type": "bytes32"
        },
        {
          "internalType": "bytes",
          "name": "_signature",
          "type": "bytes"
        },
        {
          "internalType": "bytes[]",
          "name": "_pubkeys",
          "type": "bytes[]"
        }
      ],
      "name": "serializeAggregateSignature",
      "outputs": [
        {
          "internalType": "bytes",
          "name": "",
          "type": "bytes"
        }
      ],
      "stateMutability": "pure",
      "type": "function",
      "constant": true
    },
    {
      "inputs": [
        {
          "internalType": "bytes",
          "name": "_input",
          "type": "bytes"
        }
      ],
      "name": "fastAggregateVerify",
      "outputs": [
        {
          "internalType": "bool",
          "name": "o",
          "type": "bool"
        }
      ],
      "stateMutability": "view",
      "type": "function",
      "constant": true
    },
    {
      "inputs": [
        {
          "internalType": "uint256",
          "name": "_slot",
          "type": "uint256"
        }
      ],
      "name": "slotToUnixTimestamp",
      "outputs": [
        {
          "internalType": "uint256",
          "name": "timestamp",
          "type": "uint256"
        }
      ],
      "stateMutability": "pure",
      "type": "function",
      "constant": true
    },
    {
      "inputs": [
        {
          "internalType": "bytes32",
          "name": "_input",
          "type": "bytes32"
        }
      ],
      "name": "bytes32ToBytes",
      "outputs": [
        {
          "internalType": "bytes",
          "name": "output",
          "type": "bytes"
        }
      ],
      "stateMutability": "pure",
      "type": "function",
      "constant": true
    },
    {
      "inputs": [
        {
          "internalType": "bytes2",
          "name": "_input",
          "type": "bytes2"
        }
      ],
      "name": "bytes2ToBytes",
      "outputs": [
        {
          "internalType": "bytes",
          "name": "output",
          "type": "bytes"
        }
      ],
      "stateMutability": "pure",
      "type": "function",
      "constant": true
    },
    {
      "inputs": [
        {
          "internalType": "bytes32",
          "name": "_left",
          "type": "bytes32"
        },
        {
          "internalType": "bytes32",
          "name": "_right",
          "type": "bytes32"
        }
      ],
      "name": "concat",
      "outputs": [
        {
          "internalType": "bytes",
          "name": "",
          "type": "bytes"
        }
      ],
      "stateMutability": "pure",
      "type": "function",
      "constant": true
    },
    {
      "inputs": [
        {
          "internalType": "bytes32",
          "name": "_left",
          "type": "bytes32"
        },
        {
          "internalType": "bytes32",
          "name": "_right",
          "type": "bytes32"
        }
      ],
      "name": "hashTreeRootPair",
      "outputs": [
        {
          "internalType": "bytes32",
          "name": "",
          "type": "bytes32"
        }
      ],
      "stateMutability": "pure",
      "type": "function",
      "constant": true
    },
    {
      "inputs": [
        {
          "internalType": "bytes",
          "name": "_blspubkey",
          "type": "bytes"
        }
      ],
      "name": "hashTreeRootBlspubkey",
      "outputs": [
        {
          "internalType": "bytes32",
          "name": "",
          "type": "bytes32"
        }
      ],
      "stateMutability": "pure",
      "type": "function",
      "constant": true
    },
    {
      "inputs": [
        {
          "internalType": "bytes32",
          "name": "_blockRoot",
          "type": "bytes32"
        },
        {
          "internalType": "bytes32",
          "name": "_signingDomain",
          "type": "bytes32"
        }
      ],
      "name": "computeSigningRoot",
      "outputs": [
        {
          "internalType": "bytes32",
          "name": "",
          "type": "bytes32"
        }
      ],
      "stateMutability": "pure",
      "type": "function",
      "constant": true
    },
    {
      "inputs": [
        {
          "internalType": "bytes",
          "name": "_input",
          "type": "bytes"
        }
      ],
      "name": "bytesToBytes8",
      "outputs": [
        {
          "internalType": "bytes8",
          "name": "result",
          "type": "bytes8"
        }
      ],
      "stateMutability": "pure",
      "type": "function",
      "constant": true
    },
    {
      "inputs": [
        {
          "internalType": "bytes",
          "name": "_input",
          "type": "bytes"
        }
      ],
      "name": "bytesToBytes32",
      "outputs": [
        {
          "internalType": "bytes32",
          "name": "result",
          "type": "bytes32"
        }
      ],
      "stateMutability": "pure",
      "type": "function",
      "constant": true
    },
    {
      "inputs": [
        {
          "internalType": "bytes8",
          "name": "_input",
          "type": "bytes8"
        }
      ],
      "name": "revertBytes8",
      "outputs": [
        {
          "internalType": "bytes8",
          "name": "",
          "type": "bytes8"
        }
      ],
      "stateMutability": "pure",
      "type": "function",
      "constant": true
    },
    {
      "inputs": [
        {
          "internalType": "uint64",
          "name": "_input",
          "type": "uint64"
        }
      ],
      "name": "merklelizeSlot",
      "outputs": [
        {
          "internalType": "bytes32",
          "name": "",
          "type": "bytes32"
        }
      ],
      "stateMutability": "pure",
      "type": "function",
      "constant": true
    },
    {
      "inputs": [
        {
          "internalType": "uint256",
          "name": "_input",
          "type": "uint256"
        }
      ],
      "name": "bitLength",
      "outputs": [
        {
          "internalType": "uint256",
          "name": "",
          "type": "uint256"
        }
      ],
      "stateMutability": "pure",
      "type": "function",
      "constant": true
    },
    {
      "inputs": [
        {
          "internalType": "uint256",
          "name": "_input",
          "type": "uint256"
        }
      ],
      "name": "nextPowOfTwo",
      "outputs": [
        {
          "internalType": "uint256",
          "name": "",
          "type": "uint256"
        }
      ],
      "stateMutability": "pure",
      "type": "function",
      "constant": true
    },
    {
      "inputs": [
        {
          "internalType": "uint256",
          "name": "_input",
          "type": "uint256"
        }
      ],
      "name": "floorLog2",
      "outputs": [
        {
          "internalType": "uint256",
          "name": "",
          "type": "uint256"
        }
      ],
      "stateMutability": "pure",
      "type": "function",
      "constant": true
    },
    {
      "inputs": [
        {
          "internalType": "bytes32[512]",
          "name": "_chunks",
          "type": "bytes32[512]"
        }
      ],
      "name": "merkleize",
      "outputs": [
        {
          "internalType": "bytes32",
          "name": "",
          "type": "bytes32"
        }
      ],
      "stateMutability": "pure",
      "type": "function",
      "constant": true
    },
    {
      "inputs": [
        {
          "internalType": "bytes[512]",
          "name": "_syncCommittee",
          "type": "bytes[512]"
        },
        {
          "internalType": "bytes",
          "name": "_syncAggregate",
          "type": "bytes"
        }
      ],
      "name": "hashTreeRootSyncCommittee",
      "outputs": [
        {
          "internalType": "bytes32",
          "name": "",
          "type": "bytes32"
        }
      ],
      "stateMutability": "pure",
      "type": "function",
      "constant": true
    },
    {
      "inputs": [
        {
          "internalType": "uint256",
          "name": "_generalizedIndex",
          "type": "uint256"
        }
      ],
      "name": "getSubtreeIndex",
      "outputs": [
        {
          "internalType": "uint256",
          "name": "",
          "type": "uint256"
        }
      ],
      "stateMutability": "pure",
      "type": "function",
      "constant": true
    },
    {
      "inputs": [
        {
          "internalType": "bytes32",
          "name": "_root",
          "type": "bytes32"
        },
        {
          "internalType": "bytes32",
          "name": "_leaf",
          "type": "bytes32"
        },
        {
          "internalType": "uint256",
          "name": "_generalizedIndex",
          "type": "uint256"
        },
        {
          "internalType": "bytes32[]",
          "name": "_branch",
          "type": "bytes32[]"
        }
      ],
      "name": "validateMerkleBranch",
      "outputs": [
        {
          "internalType": "bool",
          "name": "",
          "type": "bool"
        }
      ],
      "stateMutability": "pure",
      "type": "function",
      "constant": true
    }
  ],
  "bytecode": "0x60806040523480156200001157600080fd5b5060405162003e8738038062003e87833981810160405281019062000037919062000151565b866000806101000a81548167ffffffffffffffff021916908367ffffffffffffffff16021790555085600060086101000a81548167ffffffffffffffff021916908367ffffffffffffffff16021790555084610403819055508161040560006101000a81548167ffffffffffffffff021916908367ffffffffffffffff1602179055508061040560086101000a81548167ffffffffffffffff021916908367ffffffffffffffff1602179055508261040560106101000a81548167ffffffffffffffff021916908367ffffffffffffffff1602179055508361040481905550505050505050506200025b565b600081519050620001348162000227565b92915050565b6000815190506200014b8162000241565b92915050565b600080600080600080600060e0888a03121562000173576200017262000222565b5b6000620001838a828b016200013a565b9750506020620001968a828b016200013a565b9650506040620001a98a828b0162000123565b9550506060620001bc8a828b0162000123565b9450506080620001cf8a828b016200013a565b93505060a0620001e28a828b016200013a565b92505060c0620001f58a828b016200013a565b91505092959891949750929550565b6000819050919050565b600067ffffffffffffffff82169050919050565b600080fd5b620002328162000204565b81146200023e57600080fd5b50565b6200024c816200020e565b81146200025857600080fd5b50565b613c1c806200026b6000396000f3fe608060405234801561001057600080fd5b50600436106101c45760003560e01c80637b9e6200116100f9578063b8ffb2e311610097578063e41bbcf811610071578063e41bbcf8146105eb578063e92938ab1461061b578063f218850e1461064b578063fe24511e1461067b576101c4565b8063b8ffb2e31461055b578063bfe370d91461058b578063c36a13da146105bb576101c4565b80638e8a29eb116100d35780638e8a29eb1461049b5780639eb51fce146104cb578063a9755eb1146104fb578063b1e9f2a01461052b576101c4565b80637b9e62001461040b5780637e7f232a1461043b578063809d74ba1461046b576101c4565b80634466b4301161016657806356f07c061161014057806356f07c061461036f5780635c5528791461038d578063639f30c3146103bd5780636e1e76b9146103db576101c4565b80634466b430146102f357806345b8bafc1461030f5780634c0999c71461033f576101c4565b80632c26bfd4116101a25780632c26bfd414610245578063398fd9d4146102635780633fccb97b14610293578063404c2a71146102c3576101c4565b8063201112e6146101c9578063255f3791146101e55780632b22475114610215575b600080fd5b6101e360048036038101906101de91906126bf565b6106ab565b005b6101ff60048036038101906101fa91906126bf565b6106da565b60405161020c9190612e53565b60405180910390f35b61022f600480360381019061022a9190612620565b610772565b60405161023c9190612e53565b60405180910390f35b61024d61088e565b60405161025a9190612e53565b60405180910390f35b61027d60048036038101906102789190612939565b610899565b60405161028a9190612e38565b60405180910390f35b6102ad60048036038101906102a891906129fa565b6108f0565b6040516102ba919061302b565b60405180910390f35b6102dd60048036038101906102d89190612a27565b610915565b6040516102ea9190612e53565b60405180910390f35b61030d600480360381019061030891906126bf565b610945565b005b610329600480360381019061032491906129fa565b610975565b604051610336919061302b565b60405180910390f35b61035960048036038101906103549190612764565b6109d7565b6040516103669190612e89565b60405180910390f35b610377610a00565b6040516103849190612e53565b60405180910390f35b6103a760048036038101906103a29190612939565b610a0b565b6040516103b49190612e6e565b60405180910390f35b6103c5610a2f565b6040516103d29190613046565b60405180910390f35b6103f560048036038101906103f0919061290c565b610a4e565b6040516104029190612e6e565b60405180910390f35b610425600480360381019061042091906127be565b610b37565b6040516104329190612e89565b60405180910390f35b61045560048036038101906104509190612881565b610b63565b6040516104629190612e89565b60405180910390f35b610485600480360381019061048091906125f2565b610e53565b604051610492919061302b565b60405180910390f35b6104b560048036038101906104b09190612982565b610eb8565b6040516104c29190612e38565b60405180910390f35b6104e560048036038101906104e091906127be565b611622565b6040516104f29190612e53565b60405180910390f35b61051560048036038101906105109190612737565b611685565b6040516105229190612e89565b60405180910390f35b610545600480360381019061054091906129fa565b6116ae565b604051610552919061302b565b60405180910390f35b610575600480360381019061057091906129fa565b6116d7565b604051610582919061302b565b60405180910390f35b6105a560048036038101906105a09190612939565b611713565b6040516105b29190612e53565b60405180910390f35b6105d560048036038101906105d09190612939565b611736565b6040516105e29190612e53565b60405180910390f35b610605600480360381019061060091906129fa565b6117bb565b604051610612919061302b565b60405180910390f35b610635600480360381019061063091906127be565b6117ee565b6040516106429190612e53565b60405180910390f35b610665600480360381019061066091906127fe565b611802565b6040516106729190612e38565b60405180910390f35b6106956004803603810190610690919061264e565b61196d565b6040516106a29190612e16565b60405180910390f35b816001906102006106bd929190611bfb565b508061020190805190602001906106d5929190611c4f565b505050565b60006106e4611cd5565b60005b610200811015610742576107128582610200811061070857610707613709565b5b6020020151611736565b8282610200811061072657610725613709565b5b602002018181525050808061073a906135ee565b9150506106e7565b50600061074e82610772565b905060006107648261075f87611736565b611622565b905080935050505092915050565b6000806107806102006116d7565b9050600061020090505b818110156107a557808061079d906135ee565b91505061078a565b5060005b6107b282610975565b81101561086b5760008160026107c891906132dd565b905060005b838110156108565761081a868261020081106107ec576107eb613709565b5b60200201518784846107fe9190613203565b61020081106108105761080f613709565b5b6020020151611622565b8682610200811061082e5761082d613709565b5b60200201818152505060028261084491906133fb565b8161084f9190613203565b90506107cd565b50508080610863906135ee565b9150506107a9565b50826000610200811061088157610880613709565b5b6020020151915050919050565b600061040354905090565b600080156108aa57600190506108eb565b6108b2611cf9565b6040518351602083826020880160055afa6108cc57600080fd5b5050806000600181106108e2576108e1613709565b5b60200201519150505b919050565b6000635fc63057600c8361090491906133fb565b61090e9190613203565b9050919050565b60006109238260c01b610a4e565b77ffffffffffffffffffffffffffffffffffffffffffffffff19169050919050565b8161020290610200610958929190611bfb565b50806104029080519060200190610970929190611c4f565b505050565b600060018210156109bb576040517f08c379a00000000000000000000000000000000000000000000000000000000081526004016109b290612eeb565b60405180910390fd5b60016109c6836117bb565b6109d09190613455565b9050919050565b6060816040516020016109ea9190612db8565b6040516020818303038152906040529050919050565b600061040454905090565b60008082511415610a2257600060c01b9050610a2a565b602082015190505b919050565b600061040560089054906101000a900467ffffffffffffffff16905090565b600080600867ffffffffffffffff811115610a6c57610a6b613738565b5b6040519080825280601f01601f191660200182016040528015610a9e5781602001600182028036833780820191505090505b50905060005b6008811015610b2557838160088110610ac057610abf613709565b5b1a60f81b82826007610ad29190613455565b81518110610ae357610ae2613709565b5b60200101907effffffffffffffffffffffffffffffffffffffffffffffffffffffffffffff1916908160001a9053508080610b1d906135ee565b915050610aa4565b50610b2f81610a0b565b915050919050565b60608282604051602001610b4c929190612dd3565b604051602081830303815290604052905092915050565b60606000825160f01b9050600083516030610b7e91906133fb565b6082610b8a9190613203565b67ffffffffffffffff811115610ba357610ba2613738565b5b6040519080825280601f01601f191660200182016040528015610bd55781602001600182028036833780820191505090505b50905060005b6020811015610c5057868160208110610bf757610bf6613709565b5b1a60f81b828281518110610c0e57610c0d613709565b5b60200101907effffffffffffffffffffffffffffffffffffffffffffffffffffffffffffff1916908160001a9053508080610c48906135ee565b915050610bdb565b506000602090505b6080811015610ce05785602082610c6f9190613455565b81518110610c8057610c7f613709565b5b602001015160f81c60f81b828281518110610c9e57610c9d613709565b5b60200101907effffffffffffffffffffffffffffffffffffffffffffffffffffffffffffff1916908160001a9053508080610cd8906135ee565b915050610c58565b506000608090505b6082811015610d695782608082610cff9190613455565b60028110610d1057610d0f613709565b5b1a60f81b828281518110610d2757610d26613709565b5b60200101907effffffffffffffffffffffffffffffffffffffffffffffffffffffffffffff1916908160001a9053508080610d61906135ee565b915050610ce8565b5060005b8451811015610e465760005b6030811015610e3257858281518110610d9557610d94613709565b5b60200260200101518181518110610daf57610dae613709565b5b602001015160f81c60f81b8382603085610dc991906133fb565b6082610dd59190613203565b610ddf9190613203565b81518110610df057610def613709565b5b60200101907effffffffffffffffffffffffffffffffffffffffffffffffffffffffffffff1916908160001a9053508080610e2a906135ee565b915050610d79565b508080610e3e906135ee565b915050610d6d565b5080925050509392505050565b6000806000905060005b610200811015610eae576001151584826102008110610e7f57610e7e613709565b5b602002015115151415610e9b578180610e97906135ee565b9250505b8080610ea6906135ee565b915050610e5d565b5080915050919050565b600080610ecd846040015185606001516117ee565b90506000610ede8560200151610e53565b905060008054906101000a900467ffffffffffffffff1667ffffffffffffffff16811015610f41576040517f08c379a0000000000000000000000000000000000000000000000000000000008152600401610f3890612f8b565b60405180910390fd5b610f5c8560400151866101800151600b886101a00151611802565b610f9b576040517f08c379a0000000000000000000000000000000000000000000000000000000008152600401610f929061300b565b60405180910390fd5b610fbc8560400151610fb08760800151610915565b60088860a00151611802565b50610fd78561018001518660c0015160698860e00151611802565b50610ffb8560c00151610fee876101000151610915565b6008886101200151611802565b506110178560c00151866101400151600b886101600151611802565b611056576040517f08c379a000000000000000000000000000000000000000000000000000000000815260040161104d90612eab565b60405180910390fd5b61040560009054906101000a900467ffffffffffffffff1667ffffffffffffffff16856080015167ffffffffffffffff1610156110c8576040517f08c379a00000000000000000000000000000000000000000000000000000000081526004016110bf90612f4b565b60405180910390fd5b61040560109054906101000a900467ffffffffffffffff1667ffffffffffffffff1685610100015167ffffffffffffffff16101561113b576040517f08c379a000000000000000000000000000000000000000000000000000000000815260040161113290612f0b565b60405180910390fd5b600061040560089054906101000a900467ffffffffffffffff1686608001516111649190613489565b67ffffffffffffffff1690506000610200602061118191906133fb565b8261118c9190613259565b14156112bb5761127761127284886000015161126d600161020080602002604051908101604052809291906000905b8282101561125e5783820180546111d19061358b565b80601f01602080910402602001604051908101604052809291908181526020018280546111fd9061358b565b801561124a5780601f1061121f5761010080835404028352916020019161124a565b820191906000526020600020905b81548152906001019060200180831161122d57829003601f168201915b5050505050815260200190600101906111bb565b505050508b602001518861196d565b610b63565b610899565b6112b6576040517f08c379a00000000000000000000000000000000000000000000000000000000081526004016112ad90612f6b565b60405180910390fd5b61159f565b600161020060206112cc91906133fb565b826112d79190613259565b1415611563576113c36113be8488600001516113b961020261020080602002604051908101604052809291906000905b828210156113aa57838201805461131d9061358b565b80601f01602080910402602001604051908101604052809291908181526020018280546113499061358b565b80156113965780601f1061136b57610100808354040283529160200191611396565b820191906000526020600020905b81548152906001019060200180831161137957829003601f168201915b505050505081526020019060010190611307565b505050508b602001518861196d565b610b63565b610899565b611402576040517f08c379a00000000000000000000000000000000000000000000000000000000081526004016113f990612feb565b60405180910390fd5b600061040560089054906101000a900467ffffffffffffffff1687610100015161142c9190613489565b67ffffffffffffffff1690506001610200602061144991906133fb565b826114549190613259565b141561155d57600061146e876000015188602001516106da565b90506114868861014001518260378a60400151611802565b6114c5576040517f08c379a00000000000000000000000000000000000000000000000000000000081526004016114bc90612ecb565b60405180910390fd5b6102026001906102006114d9929190611d1b565b506104026102019080546114ec9061358b565b6114f7929190611d6f565b5086600001516102029061020061150f929190611bfb565b508660200151610402908051906020019061152b929190611c4f565b5087610100015161040560086101000a81548167ffffffffffffffff021916908367ffffffffffffffff160217905550505b5061159e565b6040517f08c379a000000000000000000000000000000000000000000000000000000000815260040161159590612fcb565b60405180910390fd5b5b8560c001516104038190555085610140015161040481905550856080015161040560006101000a81548167ffffffffffffffff021916908367ffffffffffffffff16021790555085610100015161040560106101000a81548167ffffffffffffffff021916908367ffffffffffffffff1602179055506001935050505092915050565b600060026116308484610b37565b60405161163d9190612dff565b602060405180830381855afa15801561165a573d6000803e3d6000fd5b5050506040513d601f19601f8201168201806040525081019061167d9190612791565b905092915050565b6060816040516020016116989190612d9d565b6040516020818303038152906040529050919050565b60006116b982610975565b60026116c591906132dd565b826116d0919061364b565b9050919050565b6000808214156116ea576001905061170e565b6116ff6001836116fa9190613455565b6117bb565b600261170b91906132dd565b90505b919050565b60008082511415611729576000801b9050611731565b602082015190505b919050565b6000806117506000602085611a539092919063ffffffff16565b9050600061176b6020601086611a539092919063ffffffff16565b9050611796604051806040016040528060108152602001600081525082611b7190919063ffffffff16565b90506117b26117a483611713565b6117ad83611713565b611622565b92505050919050565b600080600090505b600083146117e557600183901c925080806117dd906135ee565b9150506117c3565b80915050919050565b60006117fa8383611622565b905092915050565b60008061180e846116ae565b9050600061181b85610975565b9050600086905060005b8281101561195c576001600282600261183e91906132dd565b866118499190613259565b611853919061364b565b14156118d357600261187f87838151811061187157611870613709565b5b602002602001015184610b37565b60405161188c9190612dff565b602060405180830381855afa1580156118a9573d6000803e3d6000fd5b5050506040513d601f19601f820116820180604052508101906118cc9190612791565b9150611949565b60026118f9838884815181106118ec576118eb613709565b5b6020026020010151610b37565b6040516119069190612dff565b602060405180830381855afa158015611923573d6000803e3d6000fd5b5050506040513d601f19601f820116820180604052508101906119469190612791565b91505b8080611954906135ee565b915050611825565b508781149350505050949350505050565b606060008267ffffffffffffffff81111561198b5761198a613738565b5b6040519080825280602002602001820160405280156119be57816020015b60608152602001906001900390816119a95790505b5090506000805b610200811015611a4657858161020081106119e3576119e2613709565b5b602002015115611a335786816102008110611a0157611a00613709565b5b6020020151838381518110611a1957611a18613709565b5b60200260200101819052508180611a2f906135ee565b9250505b8080611a3e906135ee565b9150506119c5565b5081925050509392505050565b606081601f83611a639190613203565b1015611aa4576040517f08c379a0000000000000000000000000000000000000000000000000000000008152600401611a9b90612f2b565b60405180910390fd5b8183611ab09190613203565b84511015611af3576040517f08c379a0000000000000000000000000000000000000000000000000000000008152600401611aea90612fab565b60405180910390fd5b6060821560008114611b145760405191506000825260208201604052611b65565b6040519150601f8416801560200281840101858101878315602002848b0101015b81831015611b525780518352602083019250602081019050611b35565b50868552601f19601f8301166040525050505b50809150509392505050565b6060806040519050835180825260208201818101602087015b81831015611ba75780518352602083019250602081019050611b8a565b50855192508351830184528091508282019050602086015b81831015611bdc5780518352602083019250602081019050611bbf565b50601f19601f8851850115830101166040525050508091505092915050565b826102008101928215611c3e579160200282015b82811115611c3d578251829080519060200190611c2d929190611c4f565b5091602001919060010190611c0f565b5b509050611c4b9190611dfc565b5090565b828054611c5b9061358b565b90600052602060002090601f016020900481019282611c7d5760008555611cc4565b82601f10611c9657805160ff1916838001178555611cc4565b82800160010185558215611cc4579182015b82811115611cc3578251825591602001919060010190611ca8565b5b509050611cd19190611e20565b5090565b60405180614000016040528061020090602082028036833780820191505090505090565b6040518060200160405280600190602082028036833780820191505090505090565b826102008101928215611d5e579182015b82811115611d5d578282908054611d429061358b565b611d4d929190611e3d565b5091600101919060010190611d2c565b5b509050611d6b9190611dfc565b5090565b828054611d7b9061358b565b90600052602060002090601f016020900481019282611d9d5760008555611deb565b82601f10611dae5780548555611deb565b82800160010185558215611deb57600052602060002091601f016020900482015b82811115611dea578254825591600101919060010190611dcf565b5b509050611df89190611e20565b5090565b5b80821115611e1c5760008181611e139190611eca565b50600101611dfd565b5090565b5b80821115611e39576000816000905550600101611e21565b5090565b828054611e499061358b565b90600052602060002090601f016020900481019282611e6b5760008555611eb9565b82601f10611e7c5780548555611eb9565b82800160010185558215611eb957600052602060002091601f016020900482015b82811115611eb8578254825591600101919060010190611e9d565b5b509050611ec69190611e20565b5090565b508054611ed69061358b565b6000825580601f10611ee85750611f07565b601f016020900490600052602060002090810190611f069190611e20565b5b50565b6000611f1d611f1884613086565b613061565b90508082856020860282011115611f3757611f36613776565b5b60005b85811015611f675781611f4d888261227d565b845260208401935060208301925050600181019050611f3a565b5050509392505050565b6000611f84611f7f846130ac565b613061565b90508082856020860282011115611f9e57611f9d613776565b5b60005b85811015611fce5781611fb488826122a7565b845260208401935060208301925050600181019050611fa1565b5050509392505050565b6000611feb611fe6846130d2565b613061565b9050808382526020820190508285602086028201111561200e5761200d613776565b5b60005b8581101561203e578161202488826122a7565b845260208401935060208301925050600181019050612011565b5050509392505050565b600061205b612056846130fe565b613061565b9050808285602086028201111561207557612074613776565b5b60005b858110156120c357813567ffffffffffffffff81111561209b5761209a613767565b5b8086016120a889826122e6565b85526020850194506020840193505050600181019050612078565b5050509392505050565b60006120e06120db84613124565b613061565b9050808382526020820190508285602086028201111561210357612102613776565b5b60005b8581101561215157813567ffffffffffffffff81111561212957612128613767565b5b80860161213689826122e6565b85526020850194506020840193505050600181019050612106565b5050509392505050565b600061216e61216984613150565b613061565b90508281526020810184848401111561218a5761218961377b565b5b612195848285613549565b509392505050565b600082601f8301126121b2576121b1613767565b5b6102006121c0848285611f0a565b91505092915050565b600082601f8301126121de576121dd613767565b5b6102006121ec848285611f71565b91505092915050565b600082601f83011261220a57612209613767565b5b813561221a848260208601611fd8565b91505092915050565b600082601f83011261223857612237613767565b5b610200612246848285612048565b91505092915050565b600082601f83011261226457612263613767565b5b81356122748482602086016120cd565b91505092915050565b60008135905061228c81613b5c565b92915050565b6000813590506122a181613b73565b92915050565b6000813590506122b681613b8a565b92915050565b6000815190506122cb81613b8a565b92915050565b6000813590506122e081613ba1565b92915050565b600082601f8301126122fb576122fa613767565b5b813561230b84826020860161215b565b91505092915050565b60006141a0828403121561232b5761232a61376c565b5b6123366101c0613061565b9050600082013567ffffffffffffffff81111561235657612355613771565b5b612362848285016122e6565b60008301525060206123768482850161219d565b60208301525061402061238b848285016122a7565b6040830152506140406123a0848285016122a7565b6060830152506140606123b5848285016125dd565b60808301525061408082013567ffffffffffffffff8111156123da576123d9613771565b5b6123e6848285016121f5565b60a0830152506140a06123fb848285016122a7565b60c0830152506140c082013567ffffffffffffffff8111156124205761241f613771565b5b61242c848285016121f5565b60e0830152506140e0612441848285016125dd565b6101008301525061410082013567ffffffffffffffff81111561246757612466613771565b5b612473848285016121f5565b61012083015250614120612489848285016122a7565b6101408301525061414082013567ffffffffffffffff8111156124af576124ae613771565b5b6124bb848285016121f5565b610160830152506141606124d1848285016122a7565b6101808301525061418082013567ffffffffffffffff8111156124f7576124f6613771565b5b612503848285016121f5565b6101a08301525092915050565b6000606082840312156125265761252561376c565b5b6125306060613061565b9050600082013567ffffffffffffffff8111156125505761254f613771565b5b61255c84828501612223565b600083015250602082013567ffffffffffffffff8111156125805761257f613771565b5b61258c848285016122e6565b602083015250604082013567ffffffffffffffff8111156125b0576125af613771565b5b6125bc848285016121f5565b60408301525092915050565b6000813590506125d781613bb8565b92915050565b6000813590506125ec81613bcf565b92915050565b6000614000828403121561260957612608613785565b5b60006126178482850161219d565b91505092915050565b6000614000828403121561263757612636613785565b5b6000612645848285016121c9565b91505092915050565b6000806000614040848603121561266857612667613785565b5b600084013567ffffffffffffffff81111561268657612685613780565b5b61269286828701612223565b93505060206126a38682870161219d565b9250506140206126b5868287016125c8565b9150509250925092565b600080604083850312156126d6576126d5613785565b5b600083013567ffffffffffffffff8111156126f4576126f3613780565b5b61270085828601612223565b925050602083013567ffffffffffffffff81111561272157612720613780565b5b61272d858286016122e6565b9150509250929050565b60006020828403121561274d5761274c613785565b5b600061275b84828501612292565b91505092915050565b60006020828403121561277a57612779613785565b5b6000612788848285016122a7565b91505092915050565b6000602082840312156127a7576127a6613785565b5b60006127b5848285016122bc565b91505092915050565b600080604083850312156127d5576127d4613785565b5b60006127e3858286016122a7565b92505060206127f4858286016122a7565b9150509250929050565b6000806000806080858703121561281857612817613785565b5b6000612826878288016122a7565b9450506020612837878288016122a7565b9350506040612848878288016125c8565b925050606085013567ffffffffffffffff81111561286957612868613780565b5b612875878288016121f5565b91505092959194509250565b60008060006060848603121561289a57612899613785565b5b60006128a8868287016122a7565b935050602084013567ffffffffffffffff8111156128c9576128c8613780565b5b6128d5868287016122e6565b925050604084013567ffffffffffffffff8111156128f6576128f5613780565b5b6129028682870161224f565b9150509250925092565b60006020828403121561292257612921613785565b5b6000612930848285016122d1565b91505092915050565b60006020828403121561294f5761294e613785565b5b600082013567ffffffffffffffff81111561296d5761296c613780565b5b612979848285016122e6565b91505092915050565b6000806040838503121561299957612998613785565b5b600083013567ffffffffffffffff8111156129b7576129b6613780565b5b6129c385828601612314565b925050602083013567ffffffffffffffff8111156129e4576129e3613780565b5b6129f085828601612510565b9150509250929050565b600060208284031215612a1057612a0f613785565b5b6000612a1e848285016125c8565b91505092915050565b600060208284031215612a3d57612a3c613785565b5b6000612a4b848285016125dd565b91505092915050565b6000612a608383612b38565b905092915050565b6000612a7382613191565b612a7d81856131b4565b935083602082028501612a8f85613181565b8060005b85811015612acb5784840389528151612aac8582612a54565b9450612ab7836131a7565b925060208a01995050600181019050612a93565b50829750879550505050505092915050565b612ae6816134bd565b82525050565b612afd612af8826134c9565b613637565b82525050565b612b0c816134f5565b82525050565b612b23612b1e826134f5565b613641565b82525050565b612b32816134ff565b82525050565b6000612b438261319c565b612b4d81856131c5565b9350612b5d818560208601613558565b612b668161378a565b840191505092915050565b6000612b7c8261319c565b612b8681856131d6565b9350612b96818560208601613558565b612b9f8161378a565b840191505092915050565b6000612bb58261319c565b612bbf81856131e7565b9350612bcf818560208601613558565b80840191505092915050565b6000612be8602f836131f2565b9150612bf3826137a8565b604082019050919050565b6000612c0b6032836131f2565b9150612c16826137f7565b604082019050919050565b6000612c2e6032836131f2565b9150612c3982613846565b604082019050919050565b6000612c516043836131f2565b9150612c5c82613895565b606082019050919050565b6000612c74600e836131f2565b9150612c7f8261390a565b602082019050919050565b6000612c97603d836131f2565b9150612ca282613933565b604082019050919050565b6000612cba602d836131f2565b9150612cc582613982565b604082019050919050565b6000612cdd6021836131f2565b9150612ce8826139d1565b604082019050919050565b6000612d006011836131f2565b9150612d0b82613a20565b602082019050919050565b6000612d236050836131f2565b9150612d2e82613a49565b606082019050919050565b6000612d46602a836131f2565b9150612d5182613abe565b604082019050919050565b6000612d69602c836131f2565b9150612d7482613b0d565b604082019050919050565b612d888161352b565b82525050565b612d9781613535565b82525050565b6000612da98284612aec565b60028201915081905092915050565b6000612dc48284612b12565b60208201915081905092915050565b6000612ddf8285612b12565b602082019150612def8284612b12565b6020820191508190509392505050565b6000612e0b8284612baa565b915081905092915050565b60006020820190508181036000830152612e308184612a68565b905092915050565b6000602082019050612e4d6000830184612add565b92915050565b6000602082019050612e686000830184612b03565b92915050565b6000602082019050612e836000830184612b29565b92915050565b60006020820190508181036000830152612ea38184612b71565b905092915050565b60006020820190508181036000830152612ec481612bdb565b9050919050565b60006020820190508181036000830152612ee481612bfe565b9050919050565b60006020820190508181036000830152612f0481612c21565b9050919050565b60006020820190508181036000830152612f2481612c44565b9050919050565b60006020820190508181036000830152612f4481612c67565b9050919050565b60006020820190508181036000830152612f6481612c8a565b9050919050565b60006020820190508181036000830152612f8481612cad565b9050919050565b60006020820190508181036000830152612fa481612cd0565b9050919050565b60006020820190508181036000830152612fc481612cf3565b9050919050565b60006020820190508181036000830152612fe481612d16565b9050919050565b6000602082019050818103600083015261300481612d39565b9050919050565b6000602082019050818103600083015261302481612d5c565b9050919050565b60006020820190506130406000830184612d7f565b92915050565b600060208201905061305b6000830184612d8e565b92915050565b600061306b61307c565b905061307782826135bd565b919050565b6000604051905090565b600067ffffffffffffffff8211156130a1576130a0613738565b5b602082029050919050565b600067ffffffffffffffff8211156130c7576130c6613738565b5b602082029050919050565b600067ffffffffffffffff8211156130ed576130ec613738565b5b602082029050602081019050919050565b600067ffffffffffffffff82111561311957613118613738565b5b602082029050919050565b600067ffffffffffffffff82111561313f5761313e613738565b5b602082029050602081019050919050565b600067ffffffffffffffff82111561316b5761316a613738565b5b6131748261378a565b9050602081019050919050565b6000819050602082019050919050565b600081519050919050565b600081519050919050565b6000602082019050919050565b600082825260208201905092915050565b600082825260208201905092915050565b600082825260208201905092915050565b600081905092915050565b600082825260208201905092915050565b600061320e8261352b565b91506132198361352b565b9250827fffffffffffffffffffffffffffffffffffffffffffffffffffffffffffffffff0382111561324e5761324d61367c565b5b828201905092915050565b60006132648261352b565b915061326f8361352b565b92508261327f5761327e6136ab565b5b828204905092915050565b6000808291508390505b60018511156132d4578086048111156132b0576132af61367c565b5b60018516156132bf5780820291505b80810290506132cd8561379b565b9450613294565b94509492505050565b60006132e88261352b565b91506132f38361352b565b92506133207fffffffffffffffffffffffffffffffffffffffffffffffffffffffffffffffff8484613328565b905092915050565b60008261333857600190506133f4565b8161334657600090506133f4565b816001811461335c576002811461336657613395565b60019150506133f4565b60ff8411156133785761337761367c565b5b8360020a91508482111561338f5761338e61367c565b5b506133f4565b5060208310610133831016604e8410600b84101617156133ca5782820a9050838111156133c5576133c461367c565b5b6133f4565b6133d7848484600161328a565b925090508184048111156133ee576133ed61367c565b5b81810290505b9392505050565b60006134068261352b565b91506134118361352b565b9250817fffffffffffffffffffffffffffffffffffffffffffffffffffffffffffffffff048311821515161561344a5761344961367c565b5b828202905092915050565b60006134608261352b565b915061346b8361352b565b92508282101561347e5761347d61367c565b5b828203905092915050565b600061349482613535565b915061349f83613535565b9250828210156134b2576134b161367c565b5b828203905092915050565b60008115159050919050565b60007fffff00000000000000000000000000000000000000000000000000000000000082169050919050565b6000819050919050565b60007fffffffffffffffff00000000000000000000000000000000000000000000000082169050919050565b6000819050919050565b600067ffffffffffffffff82169050919050565b82818337600083830152505050565b60005b8381101561357657808201518184015260208101905061355b565b83811115613585576000848401525b50505050565b600060028204905060018216806135a357607f821691505b602082108114156135b7576135b66136da565b5b50919050565b6135c68261378a565b810181811067ffffffffffffffff821117156135e5576135e4613738565b5b80604052505050565b60006135f98261352b565b91507fffffffffffffffffffffffffffffffffffffffffffffffffffffffffffffffff82141561362c5761362b61367c565b5b600182019050919050565b6000819050919050565b6000819050919050565b60006136568261352b565b91506136618361352b565b925082613671576136706136ab565b5b828206905092915050565b7f4e487b7100000000000000000000000000000000000000000000000000000000600052601160045260246000fd5b7f4e487b7100000000000000000000000000000000000000000000000000000000600052601260045260246000fd5b7f4e487b7100000000000000000000000000000000000000000000000000000000600052602260045260246000fd5b7f4e487b7100000000000000000000000000000000000000000000000000000000600052603260045260246000fd5b7f4e487b7100000000000000000000000000000000000000000000000000000000600052604160045260246000fd5b600080fd5b600080fd5b600080fd5b600080fd5b600080fd5b600080fd5b600080fd5b6000601f19601f8301169050919050565b60008160011c9050919050565b7f6d65726b6c652070726f6f6620666f722066696e616c697a656420737461746560008201527f20726f6f74206e6f742076616c69640000000000000000000000000000000000602082015250565b7f6d65726b6c652070726f6f66206f66206e657874206e6578742073796e63206360008201527f6f6d6d6974746565206e6f742076616c69640000000000000000000000000000602082015250565b7f5f696e70757420746f20666c6f6f724c6f6732206d757374206265206c61726760008201527f6572206f7220657175616c207468616e20310000000000000000000000000000602082015250565b7f66696e616c697a656420626c6f636b206f6c646572207468616e206c6173742060008201527f66696e616c697a656420626c6f636b207365656e20627920636861696e20726560208201527f6c61790000000000000000000000000000000000000000000000000000000000604082015250565b7f736c6963655f6f766572666c6f77000000000000000000000000000000000000600082015250565b7f6c617465737420626c6f636b206f6c646572207468616e206c617374206c617460008201527f65737420626c6f636b207365656e20627920636861696e2072656c6179000000602082015250565b7f7369676e61747572652062792063757272656e742073796e6320636f6d6d697460008201527f746565206e6f742076616c696400000000000000000000000000000000000000602082015250565b7f6e6f7420656e6f756768207369676e6174757265207061727469636970616e7460008201527f7300000000000000000000000000000000000000000000000000000000000000602082015250565b7f736c6963655f6f75744f66426f756e6473000000000000000000000000000000600082015250565b7f6c617465737420736c6f7420646f6573206e6f7420696e64696361746520746860008201527f61742063757272656e74206f72206e6578742073796e6320636f6d6d6974746560208201527f6520697320726573706f6e7369626c6500000000000000000000000000000000604082015250565b7f7369676e6174757265206279206e6578742073796e6320636f6d6d697474656560008201527f206e6f742076616c696400000000000000000000000000000000000000000000602082015250565b7f6d65726b6c652070726f6f6620666f72206c617465737420737461746520726f60008201527f6f74206e6f742076616c69640000000000000000000000000000000000000000602082015250565b613b65816134bd565b8114613b7057600080fd5b50565b613b7c816134c9565b8114613b8757600080fd5b50565b613b93816134f5565b8114613b9e57600080fd5b50565b613baa816134ff565b8114613bb557600080fd5b50565b613bc18161352b565b8114613bcc57600080fd5b50565b613bd881613535565b8114613be357600080fd5b5056fea264697066735822122007459edbcbcd6d9c0424a9a0fab03ce73e448819dd2ae0cd9bb3dc8cd4fb5c1d64736f6c63430008060033",
  "immutableReferences": {},
  "source": "// SPDX-License-Identifier: GPL-3.0-or-later\r\n\r\n// PLEASE NOTE: This is a prototype. Do not use it in production settings. \r\n\r\npragma solidity >=0.8.0 <0.9.0;\r\n\r\nimport \"solidity-bytes-utils/contracts/BytesLib.sol\";\r\n\r\n// debug settings\r\nbool constant MOCK_BLS_PRECOMPILE = false;\r\n\r\n// magic numbers\r\nuint constant FIRST_BEACON_BLOCK_UNIX_TIMESTAMP = 1606824023;\r\n\r\n// eth2 mainnet configuration\r\nuint constant SYNC_COMMITTEE_SIZE = 512;\r\nuint constant SECONDS_PER_SLOT = 12;\r\nuint constant SLOTS_PER_EPOCH = 32;\r\nuint constant EPOCHS_PER_SYNC_COMMITTEE_PERIOD = 512;\r\n\r\n// SSZ generalized indices\r\nuint constant FINALIZED_ROOT_INDEX = 105;\r\nuint constant FINALIZED_EPOCH_INDEX = 104;\r\nuint constant NEXT_SYNC_COMMITTEE_INDEX = 55;\r\nuint constant NEXT_SYNC_COMMITTEE_PUBKEYS_INDEX = 110;\r\nuint constant SLOT_INDEX = 8;\r\nuint constant STATE_ROOT_INDEX = 11;\r\n\r\nstruct ChainRelayUpdate {\r\n    bytes signature;\r\n    bool[SYNC_COMMITTEE_SIZE] participants;\r\n    bytes32 latestBlockRoot;\r\n    bytes32 signingDomain;\r\n    uint64 latestSlot;\r\n    bytes32[] latestSlotBranch; \r\n    bytes32 finalizedBlockRoot; \r\n    bytes32[] finalizingBranch; \r\n    uint64 finalizedSlot; \r\n    bytes32[] finalizedSlotBranch; \r\n    bytes32 finalizedStateRoot;\r\n    bytes32[] finalizedStateRootBranch;\r\n    bytes32 stateRoot;\r\n    bytes32[] stateRootBranch; \r\n}\r\n\r\nstruct SyncCommitteeUpdate {\r\n    bytes[SYNC_COMMITTEE_SIZE] nextNextValidatorSet;\r\n    bytes nextNextValidatorSetAggregate;\r\n    bytes32[] nextNextValidatorSetBranch;\r\n}\r\n\r\n/** \r\n * @title Chain Relay\r\n * @dev Implements a chain relay/light client for eth2 consensus post-altair (including sync committees)\r\n */\r\ncontract Eth2ChainRelay_512 {\r\n    using BytesLib for bytes;\r\n\r\n    uint64 private signatureThreshold; // 0 < signatureThreshold <= 512\r\n    uint64 private trustingPeriod; // validators are trusted for a certain time, ensuring they have not exited the validator set, in unix time\r\n    bytes[SYNC_COMMITTEE_SIZE] private currentValidatorSet;\r\n    bytes private currentValidatorSetAggregate;\r\n    bytes[SYNC_COMMITTEE_SIZE] private nextValidatorSet;\r\n    bytes private nextValidatorSetAggregate;\r\n    bytes32 private finalizedBlockRoot;\r\n    bytes32 private finalizedStateRoot; \r\n    uint64 private latestSlot;\r\n    uint64 private latestSlotWithValidatorSetChange;\r\n    uint64 private finalizedSlot;\r\n    \r\n    constructor(uint64 _signatureThreshold, \r\n                uint64 _trustingPeriod, \r\n                bytes32 _finalizedBlockRoot,\r\n                bytes32 _finalizedStateRoot,\r\n                uint64 _finalizedSlot,\r\n                uint64 _latestSlot,\r\n                uint64 _latestSlotWithValidatorSetChange) \r\n    {\r\n        signatureThreshold=_signatureThreshold;\r\n        trustingPeriod=_trustingPeriod;\r\n        finalizedBlockRoot=_finalizedBlockRoot;\r\n        latestSlot=_latestSlot;\r\n        latestSlotWithValidatorSetChange=_latestSlotWithValidatorSetChange;\r\n        finalizedSlot=_finalizedSlot;\r\n        finalizedStateRoot=_finalizedStateRoot;\r\n    }\r\n\r\n    function initializeCurrent(bytes[SYNC_COMMITTEE_SIZE] memory _currentValidatorSet, \r\n                            bytes memory _currentValidatorSetAggregate) public {\r\n        currentValidatorSet=_currentValidatorSet;\r\n        currentValidatorSetAggregate=_currentValidatorSetAggregate;\r\n                }\r\n\r\n    function initializeNext(bytes[SYNC_COMMITTEE_SIZE] memory _nextValidatorSet,\r\n                            bytes memory _nextValidatorSetAggregate) public {\r\n        nextValidatorSet=_nextValidatorSet;\r\n        nextValidatorSetAggregate=_nextValidatorSetAggregate;\r\n                }\r\n\r\n    function getLatestSlotWithValidatorSetChange() public view returns (uint64) {\r\n        return latestSlotWithValidatorSetChange;\r\n    }\r\n    \r\n    function getFinalizedBlockRoot() public view returns (bytes32) {\r\n        return finalizedBlockRoot;\r\n    }\r\n    \r\n    function getFinalizedStateRoot() public view returns (bytes32) {\r\n        return finalizedStateRoot;\r\n    }\r\n    \r\n    function submitUpdate(ChainRelayUpdate memory _chainRelayUpdate, SyncCommitteeUpdate memory _syncCommitteeUpdate) public returns (bool) {\r\n        bytes32 signingRoot = computeSigningRoot(_chainRelayUpdate.latestBlockRoot, _chainRelayUpdate.signingDomain);\r\n        uint numberOfParticipants = countTrueBools(_chainRelayUpdate.participants);\r\n        require(\r\n            numberOfParticipants >= signatureThreshold, \r\n            \"not enough signature participants\");\r\n        require(\r\n            validateMerkleBranch(\r\n                _chainRelayUpdate.latestBlockRoot, \r\n                _chainRelayUpdate.stateRoot, \r\n                STATE_ROOT_INDEX, \r\n                _chainRelayUpdate.stateRootBranch), \r\n            \"merkle proof for latest state root not valid\");\r\n        // the following checks are executed but ignored in order to allow for testing with synthetic SSZ/Eth2 data\r\n        /*require(*/\r\n            validateMerkleBranch(\r\n                _chainRelayUpdate.latestBlockRoot, \r\n                merklelizeSlot(_chainRelayUpdate.latestSlot), \r\n                SLOT_INDEX, \r\n                _chainRelayUpdate.latestSlotBranch)/*, \"merkle proof for latest slot not valid\")*/;\r\n        /*require(*/\r\n            validateMerkleBranch(\r\n                _chainRelayUpdate.stateRoot, \r\n                _chainRelayUpdate.finalizedBlockRoot, \r\n                FINALIZED_ROOT_INDEX, \r\n                _chainRelayUpdate.finalizingBranch)/*, \"merkle proof for finalized block root not valid\")*/;\r\n        /*require(*/\r\n            validateMerkleBranch(\r\n                _chainRelayUpdate.finalizedBlockRoot, \r\n                merklelizeSlot(_chainRelayUpdate.finalizedSlot), \r\n                SLOT_INDEX, \r\n                _chainRelayUpdate.finalizedSlotBranch)/*, \"merkle proof for finalized slot not valid\")*/;\r\n        require(\r\n            validateMerkleBranch(\r\n                _chainRelayUpdate.finalizedBlockRoot, \r\n                _chainRelayUpdate.finalizedStateRoot, \r\n                STATE_ROOT_INDEX, \r\n                _chainRelayUpdate.finalizedStateRootBranch), \r\n            \"merkle proof for finalized state root not valid\");\r\n        require(\r\n            _chainRelayUpdate.latestSlot >= latestSlot, \r\n            \"latest block older than last latest block seen by chain relay\");\r\n        require(\r\n            _chainRelayUpdate.finalizedSlot >= finalizedSlot, \r\n            \"finalized block older than last finalized block seen by chain relay\");\r\n        uint slot_distance = _chainRelayUpdate.latestSlot - latestSlotWithValidatorSetChange; \r\n        if ((slot_distance / (SLOTS_PER_EPOCH * EPOCHS_PER_SYNC_COMMITTEE_PERIOD)) == 0) {\r\n           require(\r\n               fastAggregateVerify(serializeAggregateSignature(\r\n                   signingRoot, \r\n                   _chainRelayUpdate.signature, \r\n                   getActiveValidators(currentValidatorSet, _chainRelayUpdate.participants, numberOfParticipants))), \r\n               \"signature by current sync committee not valid\");\r\n        } else if ((slot_distance / (SLOTS_PER_EPOCH * EPOCHS_PER_SYNC_COMMITTEE_PERIOD)) == 1) {\r\n            require(\r\n                fastAggregateVerify(serializeAggregateSignature(\r\n                    signingRoot, \r\n                    _chainRelayUpdate.signature, \r\n                    getActiveValidators(nextValidatorSet, _chainRelayUpdate.participants, numberOfParticipants))), \r\n                \"signature by next sync committee not valid\");\r\n            uint finalized_slot_distance = _chainRelayUpdate.finalizedSlot - latestSlotWithValidatorSetChange; \r\n            if ((finalized_slot_distance / (SLOTS_PER_EPOCH * EPOCHS_PER_SYNC_COMMITTEE_PERIOD)) == 1) { \r\n                bytes32 merklelizedNextNextSyncCommittee = hashTreeRootSyncCommittee(_syncCommitteeUpdate.nextNextValidatorSet, _syncCommitteeUpdate.nextNextValidatorSetAggregate);\r\n                require(\r\n                    validateMerkleBranch(\r\n                        _chainRelayUpdate.finalizedStateRoot, \r\n                        merklelizedNextNextSyncCommittee, \r\n                        NEXT_SYNC_COMMITTEE_INDEX, \r\n                        _syncCommitteeUpdate.nextNextValidatorSetBranch), \r\n                    \"merkle proof of next next sync committee not valid\");\r\n                currentValidatorSet = nextValidatorSet; \r\n                currentValidatorSetAggregate = nextValidatorSetAggregate;\r\n                nextValidatorSet = _syncCommitteeUpdate.nextNextValidatorSet; \r\n                nextValidatorSetAggregate = _syncCommitteeUpdate.nextNextValidatorSetAggregate;\r\n                latestSlotWithValidatorSetChange = _chainRelayUpdate.finalizedSlot;\r\n            } \r\n        } else {\r\n            revert(\"latest slot does not indicate that current or next sync committee is responsible\");\r\n        }\r\n        finalizedBlockRoot = _chainRelayUpdate.finalizedBlockRoot; \r\n        finalizedStateRoot = _chainRelayUpdate.finalizedStateRoot;\r\n        latestSlot = _chainRelayUpdate.latestSlot;\r\n        finalizedSlot = _chainRelayUpdate.finalizedSlot;\r\n        return true;\r\n    }\r\n    \r\n    function getActiveValidators(bytes[SYNC_COMMITTEE_SIZE] memory _pubkeys, bool[SYNC_COMMITTEE_SIZE] memory _isActive, uint _numberOfActive) public pure returns (bytes[] memory) {\r\n        bytes[] memory active_validators = new bytes[](_numberOfActive);\r\n        uint counter = 0;\r\n        for (uint i = 0; i < SYNC_COMMITTEE_SIZE; i++) {\r\n            if (_isActive[i]) {\r\n                active_validators[counter] = _pubkeys[i];\r\n                counter++;\r\n            }\r\n        }\r\n        return active_validators;\r\n    }\r\n    \r\n    function countTrueBools(bool[SYNC_COMMITTEE_SIZE] memory _bools) public pure returns (uint) {\r\n        uint counter = 0;\r\n        for (uint i = 0; i < SYNC_COMMITTEE_SIZE; i++) {\r\n            if (_bools[i] == true) {\r\n                counter++;\r\n            }\r\n        }\r\n        return counter;\r\n    }\r\n\r\n    function serializeAggregateSignature(bytes32 _message, bytes memory _signature, bytes[] memory _pubkeys) public pure returns (bytes memory) {\r\n        bytes2 length = bytes2(uint16(_pubkeys.length));\r\n        bytes memory serialized = new bytes(32+96+2+48*_pubkeys.length);\r\n        for (uint i = 0; i < 32; i++) {\r\n            serialized[i] = _message[i];\r\n        }\r\n        for (uint i = 32; i < 128; i++) {\r\n            serialized[i] = _signature[i-32];\r\n        }\r\n        for (uint i = 128; i < 130; i++) {\r\n            serialized[i] = length[i-128];\r\n        }\r\n        for (uint i = 0; i < _pubkeys.length; i++) {\r\n            for (uint j = 0; j < 48; j++) {\r\n            //for (uint j = 0; j < _pubkeys[i].length; j++) {\r\n                serialized[32+96+2+i*48+j] = _pubkeys[i][j];\r\n            }\r\n        }\r\n        return serialized;\r\n    }\r\n    \r\n    function fastAggregateVerify(bytes memory _input) public view returns (bool o) {\r\n        if (MOCK_BLS_PRECOMPILE) {\r\n            return true;\r\n        }\r\n        bool[1] memory outCache;\r\n        assembly {\r\n            let p := mload(0x40)\r\n            let length := mload(_input)\r\n            if iszero(staticcall(gas(), 0x05, add(_input,32), length, outCache, 32)) { // first 32 yte of _input are length\r\n                revert(0, 0)\r\n            }\r\n        }\r\n        o = outCache[0];\r\n    }\r\n    \r\n    function slotToUnixTimestamp(uint _slot) public pure returns (uint timestamp) {\r\n        return _slot * SECONDS_PER_SLOT + FIRST_BEACON_BLOCK_UNIX_TIMESTAMP;\r\n    }\r\n    \r\n    function bytes32ToBytes(bytes32 _input) public pure returns (bytes memory output) {\r\n        return abi.encodePacked(_input);\r\n    }\r\n    \r\n    function bytes2ToBytes(bytes2 _input) public pure returns (bytes memory output) {\r\n        return abi.encodePacked(_input);\r\n    }\r\n    \r\n    function concat(bytes32 _left, bytes32 _right) public pure returns (bytes memory) {\r\n        return bytes.concat(_left, _right);\r\n        // below is fallback code for older solidity versions\r\n        /*bytes memory concatenated;\r\n        for (uint i = 0; i<32; i++) {\r\n            concatenated[i] = left[i];\r\n        }\r\n        for (uint i = 0; i<32; i++) {\r\n            concatenated[i+32] = right[i];\r\n        }\r\n        return concatenated;*/\r\n    }\r\n\r\n    function hashTreeRootPair(bytes32 _left, bytes32 _right) public pure returns (bytes32) {\r\n        return sha256(concat(_left, _right));\r\n    }\r\n    \r\n    function hashTreeRootBlspubkey (bytes memory _blspubkey) public pure returns (bytes32) {\r\n        bytes memory blspubkeyMerkleizedLeft = _blspubkey.slice(0, 32);\r\n        bytes memory blspubkeyMerkleizedRight = _blspubkey.slice(32, 16);\r\n        blspubkeyMerkleizedRight = blspubkeyMerkleizedRight.concat(bytes(hex\"00000000000000000000000000000000\"));\r\n        /* fallback w/o library\r\n        bytes memory blspubkeyMerkleizedLeft = new bytes(32);\r\n        for (uint i = 0; i<32; i++) {\r\n            blspubkeyMerkleizedLeft[i] = _blspubkey[i];\r\n        }\r\n        bytes memory blspubkeyMerkleizedRight = new bytes(32);\r\n        for (uint i = 0; i<16; i++) { // rest of blspubkeyMerkleizedRight is initialized zero\r\n            blspubkeyMerkleizedRight[i] = _blspubkey[i+32];\r\n        }*/\r\n        return hashTreeRootPair(bytesToBytes32(blspubkeyMerkleizedLeft), bytesToBytes32(blspubkeyMerkleizedRight));\r\n    }\r\n    \r\n    function computeSigningRoot(bytes32 _blockRoot, bytes32 _signingDomain) public pure returns (bytes32) {\r\n        return hashTreeRootPair(_blockRoot, _signingDomain);\r\n    }\r\n    \r\n    function bytesToBytes8(bytes memory _input) public pure returns (bytes8 result) {\r\n        if (_input.length == 0) {\r\n            return 0x0;\r\n        }\r\n        assembly {\r\n            result := mload(add(_input, 32))\r\n        }\r\n    }\r\n    \r\n    function bytesToBytes32(bytes memory _input) public pure returns (bytes32 result) {\r\n        if (_input.length == 0) {\r\n            return 0x0;\r\n        }\r\n        assembly {\r\n            result := mload(add(_input, 32))\r\n        }\r\n    }\r\n\r\n    function revertBytes8(bytes8 _input) public pure returns (bytes8) {\r\n        bytes memory reverted = new bytes(8);\r\n        for (uint i = 0; i < 8; i++) {\r\n            reverted[7-i] = _input[i];\r\n        }\r\n        return bytesToBytes8(reverted);\r\n    }\r\n\r\n    function merklelizeSlot(uint64 _input) public pure returns (bytes32) {\r\n        return bytes32(revertBytes8(bytes8(_input)));\r\n    }\r\n    \r\n    function bitLength(uint _input) public pure returns (uint) {\r\n        uint length = 0;\r\n        while (_input != 0) \r\n        {\r\n            _input >>= 1; \r\n            length++; \r\n        }\r\n        return length;\r\n    }\r\n    \r\n    function nextPowOfTwo(uint _input) public pure returns (uint) {\r\n        if (_input == 0) {\r\n            return 1;\r\n        } else {\r\n            return 2**(bitLength(_input-1));\r\n        }\r\n    }\r\n    \r\n    function floorLog2 (uint _input) public pure returns (uint) {\r\n        require(_input >= 1, \"_input to floorLog2 must be larger or equal than 1\");\r\n        return bitLength(_input)-1;\r\n    }\r\n    \r\n    function merkleize(bytes32[SYNC_COMMITTEE_SIZE] memory _chunks) public pure returns (bytes32) {\r\n        uint length_next_pow = nextPowOfTwo(_chunks.length);\r\n        for (uint i = _chunks.length; i < length_next_pow; i++) {\r\n            // filling lowest level not necessary b/c size always 2^n\r\n        }\r\n        for (uint level = 0; level<floorLog2(length_next_pow); level++) {\r\n            uint step = 2**level;\r\n            for (uint current_accumulator = 0; current_accumulator < length_next_pow; current_accumulator += step*2) {\r\n                _chunks[current_accumulator] = hashTreeRootPair(_chunks[current_accumulator], _chunks[current_accumulator+step]);\r\n            }\r\n        }\r\n        return _chunks[0];\r\n    }\r\n    \r\n    function hashTreeRootSyncCommittee(bytes[SYNC_COMMITTEE_SIZE] memory _syncCommittee, bytes memory _syncAggregate) public pure returns (bytes32) {\r\n        bytes32[SYNC_COMMITTEE_SIZE] memory syncCommitteeHashed;\r\n        for (uint i = 0; i < SYNC_COMMITTEE_SIZE; i++) {\r\n            syncCommitteeHashed[i] = hashTreeRootBlspubkey(_syncCommittee[i]);\r\n        }\r\n        bytes32 syncCommitteeHashedMerkleized = merkleize(syncCommitteeHashed);\r\n        bytes32 syncCommitteeRoot = hashTreeRootPair(syncCommitteeHashedMerkleized, hashTreeRootBlspubkey(_syncAggregate));\r\n        return syncCommitteeRoot;\r\n    }\r\n    \r\n    function getSubtreeIndex(uint _generalizedIndex) public pure returns (uint) {\r\n        return _generalizedIndex % 2**(floorLog2(_generalizedIndex));\r\n    }\r\n    \r\n    function validateMerkleBranch(bytes32 _root, bytes32 _leaf, uint _generalizedIndex, bytes32[] memory _branch) public pure returns (bool) {\r\n        uint index = getSubtreeIndex(_generalizedIndex);\r\n        uint depth = floorLog2(_generalizedIndex);\r\n        bytes32 value = _leaf;\r\n        for (uint i = 0; i < depth; i++) {\r\n            if ((index / (2**i) % 2) == 1) {\r\n                value = sha256(concat(_branch[i],value));\r\n            } else {\r\n                value = sha256(concat(value,_branch[i]));\r\n            }\r\n        }\r\n        return value == _root;\r\n    }\r\n    \r\n}",
  "sourcePath": "/mnt/d/Documents/GitHub/ResearchProject/Verilay/PoSChainRelay/contracts/Eth2ChainRelay_512.sol",
  "compiler": {
    "name": "solc",
    "version": "0.8.6+commit.11564f7e.Emscripten.clang"
  },
  "schemaVersion": "3.4.16",
  "updatedAt": "2024-01-09T06:22:14.705Z",
  "networkType": "ethereum",
  "devdoc": {
    "details": "Implements a chain relay/light client for eth2 consensus post-altair (including sync committees)",
    "kind": "dev",
    "methods": {},
    "title": "Chain Relay",
    "version": 1
  },
  "userdoc": {
    "kind": "user",
    "methods": {},
    "version": 1
  }
}