{
  "contractName": "Eth2ChainRelay_512",
  "abi": [
    {
      "inputs": [
        {
          "internalType": "uint64",
          "name": "_signatureThreshold",
          "type": "uint64"
        },
        {
          "internalType": "uint64",
          "name": "_trustingPeriod",
          "type": "uint64"
        },
        {
          "internalType": "bytes32",
          "name": "_finalizedBlockRoot",
          "type": "bytes32"
        },
        {
          "internalType": "bytes32",
          "name": "_finalizedStateRoot",
          "type": "bytes32"
        },
        {
          "internalType": "uint64",
          "name": "_finalizedSlot",
          "type": "uint64"
        },
        {
          "internalType": "uint64",
          "name": "_latestSlot",
          "type": "uint64"
        },
        {
          "internalType": "uint64",
          "name": "_latestSlotWithValidatorSetChange",
          "type": "uint64"
        }
      ],
      "stateMutability": "nonpayable",
      "type": "constructor"
    },
    {
      "inputs": [
        {
          "internalType": "bytes[512]",
          "name": "_currentValidatorSet",
          "type": "bytes[512]"
        },
        {
          "internalType": "bytes",
          "name": "_currentValidatorSetAggregate",
          "type": "bytes"
        }
      ],
      "name": "initializeCurrent",
      "outputs": [],
      "stateMutability": "nonpayable",
      "type": "function"
    },
    {
      "inputs": [
        {
          "internalType": "bytes[512]",
          "name": "_nextValidatorSet",
          "type": "bytes[512]"
        },
        {
          "internalType": "bytes",
          "name": "_nextValidatorSetAggregate",
          "type": "bytes"
        }
      ],
      "name": "initializeNext",
      "outputs": [],
      "stateMutability": "nonpayable",
      "type": "function"
    },
    {
      "inputs": [],
      "name": "getLatestSlotWithValidatorSetChange",
      "outputs": [
        {
          "internalType": "uint64",
          "name": "",
          "type": "uint64"
        }
      ],
      "stateMutability": "view",
      "type": "function"
    },
    {
      "inputs": [],
      "name": "getFinalizedBlockRoot",
      "outputs": [
        {
          "internalType": "bytes32",
          "name": "",
          "type": "bytes32"
        }
      ],
      "stateMutability": "view",
      "type": "function"
    },
    {
      "inputs": [],
      "name": "getFinalizedStateRoot",
      "outputs": [
        {
          "internalType": "bytes32",
          "name": "",
          "type": "bytes32"
        }
      ],
      "stateMutability": "view",
      "type": "function"
    },
    {
      "inputs": [],
      "name": "getFinalizedSlot",
      "outputs": [
        {
          "internalType": "uint64",
          "name": "",
          "type": "uint64"
        }
      ],
      "stateMutability": "view",
      "type": "function"
    },
    {
      "inputs": [
        {
          "components": [
            {
              "internalType": "bytes",
              "name": "signature",
              "type": "bytes"
            },
            {
              "internalType": "bool[512]",
              "name": "participants",
              "type": "bool[512]"
            },
            {
              "internalType": "bytes32",
              "name": "latestBlockRoot",
              "type": "bytes32"
            },
            {
              "internalType": "bytes32",
              "name": "signingDomain",
              "type": "bytes32"
            },
            {
              "internalType": "uint64",
              "name": "latestSlot",
              "type": "uint64"
            },
            {
              "internalType": "bytes32[]",
              "name": "latestSlotBranch",
              "type": "bytes32[]"
            },
            {
              "internalType": "bytes32",
              "name": "finalizedBlockRoot",
              "type": "bytes32"
            },
            {
              "internalType": "bytes32[]",
              "name": "finalizingBranch",
              "type": "bytes32[]"
            },
            {
              "internalType": "uint64",
              "name": "finalizedSlot",
              "type": "uint64"
            },
            {
              "internalType": "bytes32[]",
              "name": "finalizedSlotBranch",
              "type": "bytes32[]"
            },
            {
              "internalType": "bytes32",
              "name": "finalizedStateRoot",
              "type": "bytes32"
            },
            {
              "internalType": "bytes32[]",
              "name": "finalizedStateRootBranch",
              "type": "bytes32[]"
            },
            {
              "internalType": "bytes32",
              "name": "stateRoot",
              "type": "bytes32"
            },
            {
              "internalType": "bytes32[]",
              "name": "stateRootBranch",
              "type": "bytes32[]"
            }
          ],
          "internalType": "struct ChainRelayUpdate",
          "name": "_chainRelayUpdate",
          "type": "tuple"
        },
        {
          "components": [
            {
              "internalType": "bytes[512]",
              "name": "nextNextValidatorSet",
              "type": "bytes[512]"
            },
            {
              "internalType": "bytes",
              "name": "nextNextValidatorSetAggregate",
              "type": "bytes"
            },
            {
              "internalType": "bytes32[]",
              "name": "nextNextValidatorSetBranch",
              "type": "bytes32[]"
            }
          ],
          "internalType": "struct SyncCommitteeUpdate",
          "name": "_syncCommitteeUpdate",
          "type": "tuple"
        }
      ],
      "name": "submitUpdate",
      "outputs": [
        {
          "internalType": "bool",
          "name": "",
          "type": "bool"
        }
      ],
      "stateMutability": "nonpayable",
      "type": "function"
    },
    {
      "inputs": [
        {
          "internalType": "bytes",
          "name": "signature",
          "type": "bytes"
        },
        {
          "internalType": "bytes32",
          "name": "blockhash",
          "type": "bytes32"
        },
        {
          "internalType": "bool[512]",
          "name": "participants",
          "type": "bool[512]"
        }
      ],
      "name": "verifyBlockSignature",
      "outputs": [
        {
          "internalType": "bool",
          "name": "",
          "type": "bool"
        }
      ],
      "stateMutability": "view",
      "type": "function"
    },
    {
      "inputs": [
        {
          "internalType": "uint256",
          "name": "feeInWei",
          "type": "uint256"
        },
        {
          "internalType": "bytes",
          "name": "rlpHeader",
          "type": "bytes"
        },
        {
          "internalType": "bytes",
          "name": "rlpEncodedTx",
          "type": "bytes"
        },
        {
          "internalType": "bytes",
          "name": "path",
          "type": "bytes"
        },
        {
          "internalType": "bytes",
          "name": "rlpEncodedNodes",
          "type": "bytes"
        },
        {
          "internalType": "bytes",
          "name": "signature",
          "type": "bytes"
        },
        {
          "internalType": "bytes32",
          "name": "blockhash",
          "type": "bytes32"
        },
        {
          "internalType": "bool[512]",
          "name": "participants",
          "type": "bool[512]"
        }
      ],
      "name": "verifyTransaction",
      "outputs": [
        {
          "internalType": "uint64",
          "name": "",
          "type": "uint64"
        }
      ],
      "stateMutability": "payable",
      "type": "function"
    },
    {
      "inputs": [
        {
          "internalType": "uint256",
          "name": "feeInWei",
          "type": "uint256"
        },
        {
          "internalType": "bytes",
          "name": "rlpHeader",
          "type": "bytes"
        },
        {
          "internalType": "bytes",
          "name": "rlpEncodedReceipt",
          "type": "bytes"
        },
        {
          "internalType": "bytes",
          "name": "path",
          "type": "bytes"
        },
        {
          "internalType": "bytes",
          "name": "rlpEncodedNodes",
          "type": "bytes"
        },
        {
          "internalType": "bytes",
          "name": "signature",
          "type": "bytes"
        },
        {
          "internalType": "bytes32",
          "name": "blockhash",
          "type": "bytes32"
        },
        {
          "internalType": "bool[512]",
          "name": "participants",
          "type": "bool[512]"
        }
      ],
      "name": "verifyReceipt",
      "outputs": [
        {
          "internalType": "uint8",
          "name": "",
          "type": "uint8"
        }
      ],
      "stateMutability": "payable",
      "type": "function"
    },
    {
      "inputs": [
        {
          "internalType": "bytes[512]",
          "name": "_pubkeys",
          "type": "bytes[512]"
        },
        {
          "internalType": "bool[512]",
          "name": "_isActive",
          "type": "bool[512]"
        },
        {
          "internalType": "uint256",
          "name": "_numberOfActive",
          "type": "uint256"
        }
      ],
      "name": "getActiveValidators",
      "outputs": [
        {
          "internalType": "bytes[]",
          "name": "",
          "type": "bytes[]"
        }
      ],
      "stateMutability": "pure",
      "type": "function"
    },
    {
      "inputs": [
        {
          "internalType": "bool[512]",
          "name": "_bools",
          "type": "bool[512]"
        }
      ],
      "name": "countTrueBools",
      "outputs": [
        {
          "internalType": "uint256",
          "name": "",
          "type": "uint256"
        }
      ],
      "stateMutability": "pure",
      "type": "function"
    },
    {
      "inputs": [
        {
          "internalType": "bytes32",
          "name": "_message",
          "type": "bytes32"
        },
        {
          "internalType": "bytes",
          "name": "_signature",
          "type": "bytes"
        },
        {
          "internalType": "bytes[]",
          "name": "_pubkeys",
          "type": "bytes[]"
        }
      ],
      "name": "serializeAggregateSignature",
      "outputs": [
        {
          "internalType": "bytes",
          "name": "",
          "type": "bytes"
        }
      ],
      "stateMutability": "pure",
      "type": "function"
    },
    {
      "inputs": [
        {
          "internalType": "bytes",
          "name": "_input",
          "type": "bytes"
        }
      ],
      "name": "fastAggregateVerify",
      "outputs": [
        {
          "internalType": "bool",
          "name": "o",
          "type": "bool"
        }
      ],
      "stateMutability": "view",
      "type": "function"
    },
    {
      "inputs": [
        {
          "internalType": "uint256",
          "name": "_slot",
          "type": "uint256"
        }
      ],
      "name": "slotToUnixTimestamp",
      "outputs": [
        {
          "internalType": "uint256",
          "name": "timestamp",
          "type": "uint256"
        }
      ],
      "stateMutability": "pure",
      "type": "function"
    },
    {
      "inputs": [
        {
          "internalType": "bytes32",
          "name": "_input",
          "type": "bytes32"
        }
      ],
      "name": "bytes32ToBytes",
      "outputs": [
        {
          "internalType": "bytes",
          "name": "output",
          "type": "bytes"
        }
      ],
      "stateMutability": "pure",
      "type": "function"
    },
    {
      "inputs": [
        {
          "internalType": "bytes2",
          "name": "_input",
          "type": "bytes2"
        }
      ],
      "name": "bytes2ToBytes",
      "outputs": [
        {
          "internalType": "bytes",
          "name": "output",
          "type": "bytes"
        }
      ],
      "stateMutability": "pure",
      "type": "function"
    },
    {
      "inputs": [
        {
          "internalType": "bytes32",
          "name": "_left",
          "type": "bytes32"
        },
        {
          "internalType": "bytes32",
          "name": "_right",
          "type": "bytes32"
        }
      ],
      "name": "concat",
      "outputs": [
        {
          "internalType": "bytes",
          "name": "",
          "type": "bytes"
        }
      ],
      "stateMutability": "pure",
      "type": "function"
    },
    {
      "inputs": [
        {
          "internalType": "bytes32",
          "name": "_left",
          "type": "bytes32"
        },
        {
          "internalType": "bytes32",
          "name": "_right",
          "type": "bytes32"
        }
      ],
      "name": "hashTreeRootPair",
      "outputs": [
        {
          "internalType": "bytes32",
          "name": "",
          "type": "bytes32"
        }
      ],
      "stateMutability": "pure",
      "type": "function"
    },
    {
      "inputs": [
        {
          "internalType": "bytes",
          "name": "_blspubkey",
          "type": "bytes"
        }
      ],
      "name": "hashTreeRootBlspubkey",
      "outputs": [
        {
          "internalType": "bytes32",
          "name": "",
          "type": "bytes32"
        }
      ],
      "stateMutability": "pure",
      "type": "function"
    },
    {
      "inputs": [
        {
          "internalType": "bytes32",
          "name": "_blockRoot",
          "type": "bytes32"
        },
        {
          "internalType": "bytes32",
          "name": "_signingDomain",
          "type": "bytes32"
        }
      ],
      "name": "computeSigningRoot",
      "outputs": [
        {
          "internalType": "bytes32",
          "name": "",
          "type": "bytes32"
        }
      ],
      "stateMutability": "pure",
      "type": "function"
    },
    {
      "inputs": [
        {
          "internalType": "bytes",
          "name": "_input",
          "type": "bytes"
        }
      ],
      "name": "bytesToBytes8",
      "outputs": [
        {
          "internalType": "bytes8",
          "name": "result",
          "type": "bytes8"
        }
      ],
      "stateMutability": "pure",
      "type": "function"
    },
    {
      "inputs": [
        {
          "internalType": "bytes",
          "name": "_input",
          "type": "bytes"
        }
      ],
      "name": "bytesToBytes32",
      "outputs": [
        {
          "internalType": "bytes32",
          "name": "result",
          "type": "bytes32"
        }
      ],
      "stateMutability": "pure",
      "type": "function"
    },
    {
      "inputs": [
        {
          "internalType": "bytes8",
          "name": "_input",
          "type": "bytes8"
        }
      ],
      "name": "revertBytes8",
      "outputs": [
        {
          "internalType": "bytes8",
          "name": "",
          "type": "bytes8"
        }
      ],
      "stateMutability": "pure",
      "type": "function"
    },
    {
      "inputs": [
        {
          "internalType": "uint64",
          "name": "_input",
          "type": "uint64"
        }
      ],
      "name": "merklelizeSlot",
      "outputs": [
        {
          "internalType": "bytes32",
          "name": "",
          "type": "bytes32"
        }
      ],
      "stateMutability": "pure",
      "type": "function"
    },
    {
      "inputs": [
        {
          "internalType": "uint256",
          "name": "_input",
          "type": "uint256"
        }
      ],
      "name": "bitLength",
      "outputs": [
        {
          "internalType": "uint256",
          "name": "",
          "type": "uint256"
        }
      ],
      "stateMutability": "pure",
      "type": "function"
    },
    {
      "inputs": [
        {
          "internalType": "uint256",
          "name": "_input",
          "type": "uint256"
        }
      ],
      "name": "nextPowOfTwo",
      "outputs": [
        {
          "internalType": "uint256",
          "name": "",
          "type": "uint256"
        }
      ],
      "stateMutability": "pure",
      "type": "function"
    },
    {
      "inputs": [
        {
          "internalType": "uint256",
          "name": "_input",
          "type": "uint256"
        }
      ],
      "name": "floorLog2",
      "outputs": [
        {
          "internalType": "uint256",
          "name": "",
          "type": "uint256"
        }
      ],
      "stateMutability": "pure",
      "type": "function"
    },
    {
      "inputs": [
        {
          "internalType": "bytes32[512]",
          "name": "_chunks",
          "type": "bytes32[512]"
        }
      ],
      "name": "merkleize",
      "outputs": [
        {
          "internalType": "bytes32",
          "name": "",
          "type": "bytes32"
        }
      ],
      "stateMutability": "pure",
      "type": "function"
    },
    {
      "inputs": [
        {
          "internalType": "bytes[512]",
          "name": "_syncCommittee",
          "type": "bytes[512]"
        },
        {
          "internalType": "bytes",
          "name": "_syncAggregate",
          "type": "bytes"
        }
      ],
      "name": "hashTreeRootSyncCommittee",
      "outputs": [
        {
          "internalType": "bytes32",
          "name": "",
          "type": "bytes32"
        }
      ],
      "stateMutability": "pure",
      "type": "function"
    },
    {
      "inputs": [
        {
          "internalType": "uint256",
          "name": "_generalizedIndex",
          "type": "uint256"
        }
      ],
      "name": "getSubtreeIndex",
      "outputs": [
        {
          "internalType": "uint256",
          "name": "",
          "type": "uint256"
        }
      ],
      "stateMutability": "pure",
      "type": "function"
    },
    {
      "inputs": [
        {
          "internalType": "bytes32",
          "name": "_root",
          "type": "bytes32"
        },
        {
          "internalType": "bytes32",
          "name": "_leaf",
          "type": "bytes32"
        },
        {
          "internalType": "uint256",
          "name": "_generalizedIndex",
          "type": "uint256"
        },
        {
          "internalType": "bytes32[]",
          "name": "_branch",
          "type": "bytes32[]"
        }
      ],
      "name": "validateMerkleBranch",
      "outputs": [
        {
          "internalType": "bool",
          "name": "",
          "type": "bool"
        }
      ],
      "stateMutability": "pure",
      "type": "function"
    }
  ],
  "bytecode": "0x60806040523480156200001157600080fd5b506040516200586438038062005864833981810160405281019062000037919062000151565b866000806101000a81548167ffffffffffffffff021916908367ffffffffffffffff16021790555085600060086101000a81548167ffffffffffffffff021916908367ffffffffffffffff16021790555084610403819055508161040560006101000a81548167ffffffffffffffff021916908367ffffffffffffffff1602179055508061040560086101000a81548167ffffffffffffffff021916908367ffffffffffffffff1602179055508261040560106101000a81548167ffffffffffffffff021916908367ffffffffffffffff1602179055508361040481905550505050505050506200025b565b600081519050620001348162000227565b92915050565b6000815190506200014b8162000241565b92915050565b600080600080600080600060e0888a03121562000173576200017262000222565b5b6000620001838a828b016200013a565b9750506020620001968a828b016200013a565b9650506040620001a98a828b0162000123565b9550506060620001bc8a828b0162000123565b9450506080620001cf8a828b016200013a565b93505060a0620001e28a828b016200013a565b92505060c0620001f58a828b016200013a565b91505092959891949750929550565b6000819050919050565b600067ffffffffffffffff82169050919050565b600080fd5b620002328162000204565b81146200023e57600080fd5b50565b6200024c816200020e565b81146200025857600080fd5b50565b6155f9806200026b6000396000f3fe6080604052600436106101e35760003560e01c8063809d74ba11610102578063bfe370d911610095578063e8350d3d11610064578063e8350d3d14610817578063e92938ab14610847578063f218850e14610884578063fe24511e146108c1576101e3565b8063bfe370d914610723578063c36a13da14610760578063e0795e9e1461079d578063e41bbcf8146107da576101e3565b80639eb51fce116100d15780639eb51fce1461062f578063a9755eb11461066c578063b1e9f2a0146106a9578063b8ffb2e3146106e6576101e3565b8063809d74ba1461055a5780638a83458d146105975780638e8a29eb146105c257806396b3bd6d146105ff576101e3565b806345b8bafc1161017a578063639f30c311610149578063639f30c3146104785780636e1e76b9146104a35780637b9e6200146104e05780637e7f232a1461051d576101e3565b806345b8bafc146103965780634c0999c7146103d357806356f07c06146104105780635c5528791461043b576101e3565b8063398fd9d4116101b6578063398fd9d4146102b65780633fccb97b146102f3578063404c2a71146103305780634466b4301461036d576101e3565b8063201112e6146101e8578063255f3791146102115780632b2247511461024e5780632c26bfd41461028b575b600080fd5b3480156101f457600080fd5b5061020f600480360381019061020a9190613bfb565b6108fe565b005b34801561021d57600080fd5b5061023860048036038101906102339190613bfb565b61092d565b60405161024591906145dc565b60405180910390f35b34801561025a57600080fd5b5061027560048036038101906102709190613b5c565b6109c5565b60405161028291906145dc565b60405180910390f35b34801561029757600080fd5b506102a0610ae1565b6040516102ad91906145dc565b60405180910390f35b3480156102c257600080fd5b506102dd60048036038101906102d89190613e75565b610aec565b6040516102ea91906145c1565b60405180910390f35b3480156102ff57600080fd5b5061031a60048036038101906103159190613fa6565b610b44565b6040516103279190614834565b60405180910390f35b34801561033c57600080fd5b5061035760048036038101906103529190614115565b610b69565b60405161036491906145dc565b60405180910390f35b34801561037957600080fd5b50610394600480360381019061038f9190613bfb565b610b99565b005b3480156103a257600080fd5b506103bd60048036038101906103b89190613fa6565b610bc9565b6040516103ca9190614834565b60405180910390f35b3480156103df57600080fd5b506103fa60048036038101906103f59190613ca0565b610c2b565b6040516104079190614612565b60405180910390f35b34801561041c57600080fd5b50610425610c54565b60405161043291906145dc565b60405180910390f35b34801561044757600080fd5b50610462600480360381019061045d9190613e75565b610c5f565b60405161046f91906145f7565b60405180910390f35b34801561048457600080fd5b5061048d610c83565b60405161049a919061484f565b60405180910390f35b3480156104af57600080fd5b506104ca60048036038101906104c59190613e48565b610ca2565b6040516104d791906145f7565b60405180910390f35b3480156104ec57600080fd5b5061050760048036038101906105029190613cfa565b610d8b565b6040516105149190614612565b60405180910390f35b34801561052957600080fd5b50610544600480360381019061053f9190613dbd565b610db7565b6040516105519190614612565b60405180910390f35b34801561056657600080fd5b50610581600480360381019061057c9190613b2e565b6110a7565b60405161058e9190614834565b60405180910390f35b3480156105a357600080fd5b506105ac61110c565b6040516105b9919061484f565b60405180910390f35b3480156105ce57600080fd5b506105e960048036038101906105e49190613f2e565b61112b565b6040516105f691906145c1565b60405180910390f35b61061960048036038101906106149190613fd3565b611895565b604051610626919061486a565b60405180910390f35b34801561063b57600080fd5b5061065660048036038101906106519190613cfa565b6118bc565b60405161066391906145dc565b60405180910390f35b34801561067857600080fd5b50610693600480360381019061068e9190613c73565b61191f565b6040516106a09190614612565b60405180910390f35b3480156106b557600080fd5b506106d060048036038101906106cb9190613fa6565b611948565b6040516106dd9190614834565b60405180910390f35b3480156106f257600080fd5b5061070d60048036038101906107089190613fa6565b611971565b60405161071a9190614834565b60405180910390f35b34801561072f57600080fd5b5061074a60048036038101906107459190613e75565b6119ad565b60405161075791906145dc565b60405180910390f35b34801561076c57600080fd5b5061078760048036038101906107829190613e75565b6119d0565b60405161079491906145dc565b60405180910390f35b3480156107a957600080fd5b506107c460048036038101906107bf9190613ebe565b611a55565b6040516107d191906145c1565b60405180910390f35b3480156107e657600080fd5b5061080160048036038101906107fc9190613fa6565b611bb6565b60405161080e9190614834565b60405180910390f35b610831600480360381019061082c9190613fd3565b611be9565b60405161083e919061484f565b60405180910390f35b34801561085357600080fd5b5061086e60048036038101906108699190613cfa565b611c13565b60405161087b91906145dc565b60405180910390f35b34801561089057600080fd5b506108ab60048036038101906108a69190613d3a565b611c27565b6040516108b891906145c1565b60405180910390f35b3480156108cd57600080fd5b506108e860048036038101906108e39190613b8a565b611d92565b6040516108f5919061459f565b60405180910390f35b816001906102006109109291906130fd565b50806102019080519060200190610928929190613151565b505050565b60006109376131d7565b60005b610200811015610995576109658582610200811061095b5761095a614fd0565b5b60200201516119d0565b8282610200811061097957610978614fd0565b5b602002018181525050808061098d90614e84565b91505061093a565b5060006109a1826109c5565b905060006109b7826109b2876119d0565b6118bc565b905080935050505092915050565b6000806109d3610200611971565b9050600061020090505b818110156109f85780806109f090614e84565b9150506109dd565b5060005b610a0582610bc9565b811015610abe576000816002610a1b9190614b32565b905060005b83811015610aa957610a6d86826102008110610a3f57610a3e614fd0565b5b6020020151878484610a519190614a27565b6102008110610a6357610a62614fd0565b5b60200201516118bc565b86826102008110610a8157610a80614fd0565b5b602002018181525050600282610a979190614c50565b81610aa29190614a27565b9050610a20565b50508080610ab690614e84565b9150506109fc565b508260006102008110610ad457610ad3614fd0565b5b6020020151915050919050565b600061040354905090565b6000600115610afe5760019050610b3f565b610b066131fb565b6040518351602083826020880160055afa610b2057600080fd5b505080600060018110610b3657610b35614fd0565b5b60200201519150505b919050565b6000635fc63057600c83610b589190614c50565b610b629190614a27565b9050919050565b6000610b778260c01b610ca2565b77ffffffffffffffffffffffffffffffffffffffffffffffff19169050919050565b8161020290610200610bac9291906130fd565b50806104029080519060200190610bc4929190613151565b505050565b60006001821015610c0f576040517f08c379a0000000000000000000000000000000000000000000000000000000008152600401610c0690614674565b60405180910390fd5b6001610c1a83611bb6565b610c249190614caa565b9050919050565b606081604051602001610c3e9190614541565b6040516020818303038152906040529050919050565b600061040454905090565b60008082511415610c7657600060c01b9050610c7e565b602082015190505b919050565b600061040560089054906101000a900467ffffffffffffffff16905090565b600080600867ffffffffffffffff811115610cc057610cbf614fff565b5b6040519080825280601f01601f191660200182016040528015610cf25781602001600182028036833780820191505090505b50905060005b6008811015610d7957838160088110610d1457610d13614fd0565b5b1a60f81b82826007610d269190614caa565b81518110610d3757610d36614fd0565b5b60200101907effffffffffffffffffffffffffffffffffffffffffffffffffffffffffffff1916908160001a9053508080610d7190614e84565b915050610cf8565b50610d8381610c5f565b915050919050565b60608282604051602001610da092919061455c565b604051602081830303815290604052905092915050565b60606000825160f01b9050600083516030610dd29190614c50565b6082610dde9190614a27565b67ffffffffffffffff811115610df757610df6614fff565b5b6040519080825280601f01601f191660200182016040528015610e295781602001600182028036833780820191505090505b50905060005b6020811015610ea457868160208110610e4b57610e4a614fd0565b5b1a60f81b828281518110610e6257610e61614fd0565b5b60200101907effffffffffffffffffffffffffffffffffffffffffffffffffffffffffffff1916908160001a9053508080610e9c90614e84565b915050610e2f565b506000602090505b6080811015610f345785602082610ec39190614caa565b81518110610ed457610ed3614fd0565b5b602001015160f81c60f81b828281518110610ef257610ef1614fd0565b5b60200101907effffffffffffffffffffffffffffffffffffffffffffffffffffffffffffff1916908160001a9053508080610f2c90614e84565b915050610eac565b506000608090505b6082811015610fbd5782608082610f539190614caa565b60028110610f6457610f63614fd0565b5b1a60f81b828281518110610f7b57610f7a614fd0565b5b60200101907effffffffffffffffffffffffffffffffffffffffffffffffffffffffffffff1916908160001a9053508080610fb590614e84565b915050610f3c565b5060005b845181101561109a5760005b603081101561108657858281518110610fe957610fe8614fd0565b5b6020026020010151818151811061100357611002614fd0565b5b602001015160f81c60f81b838260308561101d9190614c50565b60826110299190614a27565b6110339190614a27565b8151811061104457611043614fd0565b5b60200101907effffffffffffffffffffffffffffffffffffffffffffffffffffffffffffff1916908160001a905350808061107e90614e84565b915050610fcd565b50808061109290614e84565b915050610fc1565b5080925050509392505050565b6000806000905060005b6102008110156111025760011515848261020081106110d3576110d2614fd0565b5b6020020151151514156110ef5781806110eb90614e84565b9250505b80806110fa90614e84565b9150506110b1565b5080915050919050565b600061040560109054906101000a900467ffffffffffffffff16905090565b60008061114084604001518560600151611c13565b9050600061115185602001516110a7565b905060008054906101000a900467ffffffffffffffff1667ffffffffffffffff168110156111b4576040517f08c379a00000000000000000000000000000000000000000000000000000000081526004016111ab90614754565b60405180910390fd5b6111cf8560400151866101800151600b886101a00151611c27565b61120e576040517f08c379a0000000000000000000000000000000000000000000000000000000008152600401611205906147f4565b60405180910390fd5b61122f85604001516112238760800151610b69565b60088860a00151611c27565b5061124a8561018001518660c0015160698860e00151611c27565b5061126e8560c00151611261876101000151610b69565b6008886101200151611c27565b5061128a8560c00151866101400151600b886101600151611c27565b6112c9576040517f08c379a00000000000000000000000000000000000000000000000000000000081526004016112c090614634565b60405180910390fd5b61040560009054906101000a900467ffffffffffffffff1667ffffffffffffffff16856080015167ffffffffffffffff16101561133b576040517f08c379a0000000000000000000000000000000000000000000000000000000008152600401611332906146f4565b60405180910390fd5b61040560109054906101000a900467ffffffffffffffff1667ffffffffffffffff1685610100015167ffffffffffffffff1610156113ae576040517f08c379a00000000000000000000000000000000000000000000000000000000081526004016113a590614694565b60405180910390fd5b600061040560089054906101000a900467ffffffffffffffff1686608001516113d79190614cde565b67ffffffffffffffff169050600061020060206113f49190614c50565b826113ff9190614a7d565b141561152e576114ea6114e58488600001516114e0600161020080602002604051908101604052809291906000905b828210156114d157838201805461144490614e21565b80601f016020809104026020016040519081016040528092919081815260200182805461147090614e21565b80156114bd5780601f10611492576101008083540402835291602001916114bd565b820191906000526020600020905b8154815290600101906020018083116114a057829003601f168201915b50505050508152602001906001019061142e565b505050508b6020015188611d92565b610db7565b610aec565b611529576040517f08c379a000000000000000000000000000000000000000000000000000000000815260040161152090614714565b60405180910390fd5b611812565b6001610200602061153f9190614c50565b8261154a9190614a7d565b14156117d65761163661163184886000015161162c61020261020080602002604051908101604052809291906000905b8282101561161d57838201805461159090614e21565b80601f01602080910402602001604051908101604052809291908181526020018280546115bc90614e21565b80156116095780601f106115de57610100808354040283529160200191611609565b820191906000526020600020905b8154815290600101906020018083116115ec57829003601f168201915b50505050508152602001906001019061157a565b505050508b6020015188611d92565b610db7565b610aec565b611675576040517f08c379a000000000000000000000000000000000000000000000000000000000815260040161166c906147b4565b60405180910390fd5b600061040560089054906101000a900467ffffffffffffffff1687610100015161169f9190614cde565b67ffffffffffffffff169050600161020060206116bc9190614c50565b826116c79190614a7d565b14156117d05760006116e18760000151886020015161092d565b90506116f98861014001518260378a60400151611c27565b611738576040517f08c379a000000000000000000000000000000000000000000000000000000000815260040161172f90614654565b60405180910390fd5b61020260019061020061174c92919061321d565b5061040261020190805461175f90614e21565b61176a929190613271565b508660000151610202906102006117829291906130fd565b508660200151610402908051906020019061179e929190613151565b5087610100015161040560086101000a81548167ffffffffffffffff021916908367ffffffffffffffff160217905550505b50611811565b6040517f08c379a000000000000000000000000000000000000000000000000000000000815260040161180890614794565b60405180910390fd5b5b8560c001516104038190555085610140015161040481905550856080015161040560006101000a81548167ffffffffffffffff021916908367ffffffffffffffff16021790555085610100015161040560106101000a81548167ffffffffffffffff021916908367ffffffffffffffff1602179055506001935050505092915050565b6000806118aa60028b8b8b8b8b8b8b8b611e78565b90508091505098975050505050505050565b600060026118ca8484610d8b565b6040516118d79190614588565b602060405180830381855afa1580156118f4573d6000803e3d6000fd5b5050506040513d601f19601f820116820180604052508101906119179190613ccd565b905092915050565b6060816040516020016119329190614526565b6040516020818303038152906040529050919050565b600061195382610bc9565b600261195f9190614b32565b8261196a9190614ee1565b9050919050565b60008082141561198457600190506119a8565b6119996001836119949190614caa565b611bb6565b60026119a59190614b32565b90505b919050565b600080825114156119c3576000801b90506119cb565b602082015190505b919050565b6000806119ea6000602085611fcd9092919063ffffffff16565b90506000611a056020601086611fcd9092919063ffffffff16565b9050611a306040518060400160405280601081526020016000815250826120eb90919063ffffffff16565b9050611a4c611a3e836119ad565b611a47836119ad565b6118bc565b92505050919050565b600080611a61836110a7565b905060008054906101000a900467ffffffffffffffff1667ffffffffffffffff16811015611ac4576040517f08c379a0000000000000000000000000000000000000000000000000000000008152600401611abb90614754565b60405180910390fd5b611ba1611b9c8587611b97600161020080602002604051908101604052809291906000905b82821015611b8c578382018054611aff90614e21565b80601f0160208091040260200160405190810160405280929190818152602001828054611b2b90614e21565b8015611b785780601f10611b4d57610100808354040283529160200191611b78565b820191906000526020600020905b815481529060010190602001808311611b5b57829003601f168201915b505050505081526020019060010190611ae9565b505050508887611d92565b610db7565b610aec565b611baa57600080fd5b60019150509392505050565b600080600090505b60008314611be057600183901c92508080611bd890614e84565b915050611bbe565b80915050919050565b600080611bfe60018b8b8b8b8b8b8b8b611e78565b90508060ff1691505098975050505050505050565b6000611c1f83836118bc565b905092915050565b600080611c3384611948565b90506000611c4085610bc9565b9050600086905060005b82811015611d815760016002826002611c639190614b32565b86611c6e9190614a7d565b611c789190614ee1565b1415611cf8576002611ca4878381518110611c9657611c95614fd0565b5b602002602001015184610d8b565b604051611cb19190614588565b602060405180830381855afa158015611cce573d6000803e3d6000fd5b5050506040513d601f19601f82011682018060405250810190611cf19190613ccd565b9150611d6e565b6002611d1e83888481518110611d1157611d10614fd0565b5b6020026020010151610d8b565b604051611d2b9190614588565b602060405180830381855afa158015611d48573d6000803e3d6000fd5b5050506040513d601f19601f82011682018060405250810190611d6b9190613ccd565b91505b8080611d7990614e84565b915050611c4a565b508781149350505050949350505050565b606060008267ffffffffffffffff811115611db057611daf614fff565b5b604051908082528060200260200182016040528015611de357816020015b6060815260200190600190039081611dce5790505b5090506000805b610200811015611e6b5785816102008110611e0857611e07614fd0565b5b602002015115611e585786816102008110611e2657611e25614fd0565b5b6020020151838381518110611e3e57611e3d614fd0565b5b60200260200101819052508180611e5490614e84565b9250505b8080611e6390614e84565b915050611dea565b5081925050509392505050565b6000348914611ebc576040517f08c379a0000000000000000000000000000000000000000000000000000000008152600401611eb3906146d4565b60405180910390fd5b67016345785d8a0000891015611f07576040517f08c379a0000000000000000000000000000000000000000000000000000000008152600401611efe90614814565b60405180910390fd5b6000888051906020012090506000611f20868686611a55565b611f2957600080fd5b600160ff168c60ff161415611f5457611f4d828a8a8a611f488f612175565b6121ed565b9050611fbb565b600260ff168c60ff161415611f7f57611f78828a8a8a611f738f61225f565b6121ed565b9050611fba565b6040517f08c379a0000000000000000000000000000000000000000000000000000000008152600401611fb1906147d4565b60405180910390fd5b5b80925050509998505050505050505050565b606081601f83611fdd9190614a27565b101561201e576040517f08c379a0000000000000000000000000000000000000000000000000000000008152600401612015906146b4565b60405180910390fd5b818361202a9190614a27565b8451101561206d576040517f08c379a000000000000000000000000000000000000000000000000000000000815260040161206490614774565b60405180910390fd5b606082156000811461208e57604051915060008252602082016040526120df565b6040519150601f8416801560200281840101858101878315602002848b0101015b818310156120cc57805183526020830192506020810190506120af565b50868552601f19601f8301166040525050505b50809150509392505050565b6060806040519050835180825260208201818101602087015b818310156121215780518352602083019250602081019050612104565b50855192508351830184528091508282019050602086015b818310156121565780518352602083019250602081019050612139565b50601f19601f8851850115830101166040525050508091505092915050565b600080612189612184846122d7565b612305565b905060005b6121978261235c565b156121df5760048114156121c2576121b66121b183612388565b6123eb565b60001b925050506121e8565b6121cb82612388565b5080806121d790614e84565b91505061218e565b6000801b925050505b919050565b6000856104035414612234576040517f08c379a000000000000000000000000000000000000000000000000000000000815260040161222b90614734565b60405180910390fd5b60006122428686868661246e565b11156122515760019050612256565b600090505b95945050505050565b60008061227361226e846122d7565b612305565b905060005b6122818261235c565b156122c95760058114156122ac576122a061229b83612388565b6123eb565b60001b925050506122d2565b6122b582612388565b5080806122c190614e84565b915050612278565b6000801b925050505b919050565b6122df6132fe565b600060208301905060405180604001604052808451815260200182815250915050919050565b61230d613318565b6123168261277b565b61231f57600080fd5b600061232e83602001516127c9565b836020015161233d9190614a27565b9050604051806040016040528084815260200182815250915050919050565b600080826000015190508060000151816020015161237a9190614a27565b836020015110915050919050565b6123906132fe565b6123998261235c565b6123a257600080fd5b60008260200151905060006123b682612888565b905080826123c49190614a27565b84602001818152505060405180604001604052808281526020018381525092505050919050565b600080826000015111801561240557506021826000015111155b61240e57600080fd5b600061241d83602001516127c9565b905060008184600001516124319190614caa565b90506000808386602001516124469190614a27565b905080519150602083101561246257826020036101000a820491505b81945050505050919050565b60008061247a846122d7565b9050600061248782612964565b9050606080600086905060008061249d8b612a79565b90506000815114156124b9576001975050505050505050612773565b60005b865181101561276a5781518311156124df57600298505050505050505050612773565b6125028782815181106124f5576124f4614fd0565b5b6020026020010151612b4e565b95508580519060200120841461252357600398505050505050505050612773565b61253461252f876122d7565b612964565b94506011855114156126275781518314156125a4578c805190602001206125758660108151811061256857612567614fd0565b5b6020026020010151612b4e565b80519060200120141561259357600098505050505050505050612773565b600498505050505050505050612773565b60008284815181106125b9576125b8614fd0565b5b602001015160f81c60f81b60f81c905060108160ff1611156125e75760059950505050505050505050612773565b61260d868260ff1681518110612600576125ff614fd0565b5b60200260200101516123eb565b60001b945060018461261f9190614a27565b935050612757565b6002855114156127455761265f6126588660008151811061264b5761264a614fd0565b5b6020026020010151612b4e565b8385612c05565b8361266a9190614a27565b925081518314156126d0578c805190602001206126a18660018151811061269457612693614fd0565b5b6020026020010151612b4e565b8051906020012014156126bf57600098505050505050505050612773565b600698505050505050505050612773565b60006127006126f9876000815181106126ec576126eb614fd0565b5b6020026020010151612b4e565b8486612c05565b141561271757600798505050505050505050612773565b61273b8560018151811061272e5761272d614fd0565b5b60200260200101516123eb565b60001b9350612756565b600898505050505050505050612773565b5b808061276290614e84565b9150506124bc565b50505050505050505b949350505050565b6000808260000151141561279257600090506127c4565b60008083602001519050805160001a915060c060ff168260ff1610156127bd576000925050506127c4565b6001925050505b919050565b600080825160001a9050608060ff168110156127e9576000915050612883565b60b860ff1681108061280e575060c060ff16811015801561280d575060f860ff1681105b5b1561281d576001915050612883565b60c060ff168110156128585760018060b86128389190614d12565b60ff16826128469190614caa565b6128509190614a27565b915050612883565b60018060f86128679190614d12565b60ff16826128759190614caa565b61287f9190614a27565b9150505b919050565b6000806000835160001a9050608060ff168110156128a9576001915061295a565b60b860ff168110156128d8576001608060ff16826128c79190614caa565b6128d19190614a27565b9150612959565b60c060ff168110156129085760b78103600185019450806020036101000a85510460018201810193505050612958565b60f860ff1681101561293757600160c060ff16826129269190614caa565b6129309190614a27565b9150612957565b60f78103600185019450806020036101000a855104600182018101935050505b5b5b5b8192505050919050565b606061296f8261277b565b61297857600080fd5b600061298383612d37565b905060008167ffffffffffffffff8111156129a1576129a0614fff565b5b6040519080825280602002602001820160405280156129da57816020015b6129c76132fe565b8152602001906001900390816129bf5790505b50905060006129ec85602001516127c9565b85602001516129fb9190614a27565b9050600080600090505b84811015612a6c57612a1683612888565b9150604051806040016040528083815260200184815250848281518110612a4057612a3f614fd0565b5b60200260200101819052508183612a579190614a27565b92508080612a6490614e84565b915050612a05565b5082945050505050919050565b6060600060028351612a8b9190614c50565b67ffffffffffffffff811115612aa457612aa3614fff565b5b6040519080825280601f01601f191660200182016040528015612ad65781602001600182028036833780820191505090505b50905060005b8151811015612b4457612aef8185612dc5565b828281518110612b0257612b01614fd0565b5b60200101907effffffffffffffffffffffffffffffffffffffffffffffffffffffffffffff1916908160001a9053508080612b3c90614e84565b915050612adc565b5080915050919050565b60606000826000015111612b6157600080fd5b6000612b7083602001516127c9565b90506000818460000151612b849190614caa565b905060008167ffffffffffffffff811115612ba257612ba1614fff565b5b6040519080825280601f01601f191660200182016040528015612bd45781602001600182028036833780820191505090505b5090506000816020019050612bf9848760200151612bf29190614a27565b8285612e5d565b81945050505050919050565b6000806000612c1386612efa565b90506000815167ffffffffffffffff811115612c3257612c31614fff565b5b6040519080825280601f01601f191660200182016040528015612c645781602001600182028036833780820191505090505b50905060008590505b825186612c7a9190614a27565b811015612d05576000878281518110612c9657612c95614fd0565b5b602001015160f81c60f81b905080838884612cb19190614caa565b81518110612cc257612cc1614fd0565b5b60200101907effffffffffffffffffffffffffffffffffffffffffffffffffffffffffffff1916908160001a905350508080612cfd90614e84565b915050612c6d565b50808051906020012082805190602001201415612d255781519250612d2a565b600092505b8293505050509392505050565b60008082600001511415612d4e5760009050612dc0565b600080612d5e84602001516127c9565b8460200151612d6d9190614a27565b9050600084600001518560200151612d859190614a27565b90505b80821015612db957612d9982612888565b82612da49190614a27565b91508280612db190614e84565b935050612d88565b8293505050505b919050565b600080600284612dd59190614ee1565b14612e1857601082600285612dea9190614a7d565b81518110612dfb57612dfa614fd0565b5b602001015160f81c60f81b60f81c612e139190614f12565b612e52565b601082600285612e289190614a7d565b81518110612e3957612e38614fd0565b5b602001015160f81c60f81b60f81c612e519190614aae565b5b60f81b905092915050565b6000811415612e6b57612ef5565b5b602060ff168110612eb65782518252602060ff1683612e8b9190614a27565b9250602060ff1682612e9d9190614a27565b9150602060ff1681612eaf9190614caa565b9050612e6c565b6000600182602060ff16612eca9190614caa565b610100612ed79190614b32565b612ee19190614caa565b905080198451168184511681811785525050505b505050565b6060806000835111156130f457600080612f15600086612dc5565b60f81c905060018160ff161480612f2f575060038160ff16145b15612ff957600160028651612f449190614c50565b612f4e9190614caa565b67ffffffffffffffff811115612f6757612f66614fff565b5b6040519080825280601f01601f191660200182016040528015612f995781602001600182028036833780820191505090505b5092506000612fa9600187612dc5565b90508084600081518110612fc057612fbf614fd0565b5b60200101907effffffffffffffffffffffffffffffffffffffffffffffffffffffffffffff1916908160001a9053506001925050613065565b60028086516130089190614c50565b6130129190614caa565b67ffffffffffffffff81111561302b5761302a614fff565b5b6040519080825280601f01601f19166020018201604052801561305d5781602001600182028036833780820191505090505b509250600091505b60008260ff1690505b83518110156130f05761309b60028460ff168361308b9190614caa565b6130959190614a27565b87612dc5565b8482815181106130ae576130ad614fd0565b5b60200101907effffffffffffffffffffffffffffffffffffffffffffffffffffffffffffff1916908160001a90535080806130e890614e84565b91505061306e565b5050505b80915050919050565b826102008101928215613140579160200282015b8281111561313f57825182908051906020019061312f929190613151565b5091602001919060010190613111565b5b50905061314d9190613338565b5090565b82805461315d90614e21565b90600052602060002090601f01602090048101928261317f57600085556131c6565b82601f1061319857805160ff19168380011785556131c6565b828001600101855582156131c6579182015b828111156131c55782518255916020019190600101906131aa565b5b5090506131d3919061335c565b5090565b60405180614000016040528061020090602082028036833780820191505090505090565b6040518060200160405280600190602082028036833780820191505090505090565b826102008101928215613260579182015b8281111561325f57828290805461324490614e21565b61324f929190613379565b509160010191906001019061322e565b5b50905061326d9190613338565b5090565b82805461327d90614e21565b90600052602060002090601f01602090048101928261329f57600085556132ed565b82601f106132b057805485556132ed565b828001600101855582156132ed57600052602060002091601f016020900482015b828111156132ec5782548255916001019190600101906132d1565b5b5090506132fa919061335c565b5090565b604051806040016040528060008152602001600081525090565b604051806040016040528061332b6132fe565b8152602001600081525090565b5b80821115613358576000818161334f9190613406565b50600101613339565b5090565b5b8082111561337557600081600090555060010161335d565b5090565b82805461338590614e21565b90600052602060002090601f0160209004810192826133a757600085556133f5565b82601f106133b857805485556133f5565b828001600101855582156133f557600052602060002091601f016020900482015b828111156133f45782548255916001019190600101906133d9565b5b509050613402919061335c565b5090565b50805461341290614e21565b6000825580601f106134245750613443565b601f016020900490600052602060002090810190613442919061335c565b5b50565b6000613459613454846148aa565b614885565b905080828560208602820111156134735761347261503d565b5b60005b858110156134a3578161348988826137b9565b845260208401935060208301925050600181019050613476565b5050509392505050565b60006134c06134bb846148d0565b614885565b905080828560208602820111156134da576134d961503d565b5b60005b8581101561350a57816134f088826137e3565b8452602084019350602083019250506001810190506134dd565b5050509392505050565b6000613527613522846148f6565b614885565b9050808382526020820190508285602086028201111561354a5761354961503d565b5b60005b8581101561357a578161356088826137e3565b84526020840193506020830192505060018101905061354d565b5050509392505050565b600061359761359284614922565b614885565b905080828560208602820111156135b1576135b061503d565b5b60005b858110156135ff57813567ffffffffffffffff8111156135d7576135d661502e565b5b8086016135e48982613822565b855260208501945060208401935050506001810190506135b4565b5050509392505050565b600061361c61361784614948565b614885565b9050808382526020820190508285602086028201111561363f5761363e61503d565b5b60005b8581101561368d57813567ffffffffffffffff8111156136655761366461502e565b5b8086016136728982613822565b85526020850194506020840193505050600181019050613642565b5050509392505050565b60006136aa6136a584614974565b614885565b9050828152602081018484840111156136c6576136c5615042565b5b6136d1848285614ddf565b509392505050565b600082601f8301126136ee576136ed61502e565b5b6102006136fc848285613446565b91505092915050565b600082601f83011261371a5761371961502e565b5b6102006137288482856134ad565b91505092915050565b600082601f8301126137465761374561502e565b5b8135613756848260208601613514565b91505092915050565b600082601f8301126137745761377361502e565b5b610200613782848285613584565b91505092915050565b600082601f8301126137a05761379f61502e565b5b81356137b0848260208601613609565b91505092915050565b6000813590506137c881615539565b92915050565b6000813590506137dd81615550565b92915050565b6000813590506137f281615567565b92915050565b60008151905061380781615567565b92915050565b60008135905061381c8161557e565b92915050565b600082601f8301126138375761383661502e565b5b8135613847848260208601613697565b91505092915050565b60006141a0828403121561386757613866615033565b5b6138726101c0614885565b9050600082013567ffffffffffffffff81111561389257613891615038565b5b61389e84828501613822565b60008301525060206138b2848285016136d9565b6020830152506140206138c7848285016137e3565b6040830152506140406138dc848285016137e3565b6060830152506140606138f184828501613b19565b60808301525061408082013567ffffffffffffffff81111561391657613915615038565b5b61392284828501613731565b60a0830152506140a0613937848285016137e3565b60c0830152506140c082013567ffffffffffffffff81111561395c5761395b615038565b5b61396884828501613731565b60e0830152506140e061397d84828501613b19565b6101008301525061410082013567ffffffffffffffff8111156139a3576139a2615038565b5b6139af84828501613731565b610120830152506141206139c5848285016137e3565b6101408301525061414082013567ffffffffffffffff8111156139eb576139ea615038565b5b6139f784828501613731565b61016083015250614160613a0d848285016137e3565b6101808301525061418082013567ffffffffffffffff811115613a3357613a32615038565b5b613a3f84828501613731565b6101a08301525092915050565b600060608284031215613a6257613a61615033565b5b613a6c6060614885565b9050600082013567ffffffffffffffff811115613a8c57613a8b615038565b5b613a988482850161375f565b600083015250602082013567ffffffffffffffff811115613abc57613abb615038565b5b613ac884828501613822565b602083015250604082013567ffffffffffffffff811115613aec57613aeb615038565b5b613af884828501613731565b60408301525092915050565b600081359050613b1381615595565b92915050565b600081359050613b28816155ac565b92915050565b60006140008284031215613b4557613b4461504c565b5b6000613b53848285016136d9565b91505092915050565b60006140008284031215613b7357613b7261504c565b5b6000613b8184828501613705565b91505092915050565b60008060006140408486031215613ba457613ba361504c565b5b600084013567ffffffffffffffff811115613bc257613bc1615047565b5b613bce8682870161375f565b9350506020613bdf868287016136d9565b925050614020613bf186828701613b04565b9150509250925092565b60008060408385031215613c1257613c1161504c565b5b600083013567ffffffffffffffff811115613c3057613c2f615047565b5b613c3c8582860161375f565b925050602083013567ffffffffffffffff811115613c5d57613c5c615047565b5b613c6985828601613822565b9150509250929050565b600060208284031215613c8957613c8861504c565b5b6000613c97848285016137ce565b91505092915050565b600060208284031215613cb657613cb561504c565b5b6000613cc4848285016137e3565b91505092915050565b600060208284031215613ce357613ce261504c565b5b6000613cf1848285016137f8565b91505092915050565b60008060408385031215613d1157613d1061504c565b5b6000613d1f858286016137e3565b9250506020613d30858286016137e3565b9150509250929050565b60008060008060808587031215613d5457613d5361504c565b5b6000613d62878288016137e3565b9450506020613d73878288016137e3565b9350506040613d8487828801613b04565b925050606085013567ffffffffffffffff811115613da557613da4615047565b5b613db187828801613731565b91505092959194509250565b600080600060608486031215613dd657613dd561504c565b5b6000613de4868287016137e3565b935050602084013567ffffffffffffffff811115613e0557613e04615047565b5b613e1186828701613822565b925050604084013567ffffffffffffffff811115613e3257613e31615047565b5b613e3e8682870161378b565b9150509250925092565b600060208284031215613e5e57613e5d61504c565b5b6000613e6c8482850161380d565b91505092915050565b600060208284031215613e8b57613e8a61504c565b5b600082013567ffffffffffffffff811115613ea957613ea8615047565b5b613eb584828501613822565b91505092915050565b60008060006140408486031215613ed857613ed761504c565b5b600084013567ffffffffffffffff811115613ef657613ef5615047565b5b613f0286828701613822565b9350506020613f13868287016137e3565b9250506040613f24868287016136d9565b9150509250925092565b60008060408385031215613f4557613f4461504c565b5b600083013567ffffffffffffffff811115613f6357613f62615047565b5b613f6f85828601613850565b925050602083013567ffffffffffffffff811115613f9057613f8f615047565b5b613f9c85828601613a4c565b9150509250929050565b600060208284031215613fbc57613fbb61504c565b5b6000613fca84828501613b04565b91505092915050565b6000806000806000806000806140e0898b031215613ff457613ff361504c565b5b60006140028b828c01613b04565b985050602089013567ffffffffffffffff81111561402357614022615047565b5b61402f8b828c01613822565b975050604089013567ffffffffffffffff8111156140505761404f615047565b5b61405c8b828c01613822565b965050606089013567ffffffffffffffff81111561407d5761407c615047565b5b6140898b828c01613822565b955050608089013567ffffffffffffffff8111156140aa576140a9615047565b5b6140b68b828c01613822565b94505060a089013567ffffffffffffffff8111156140d7576140d6615047565b5b6140e38b828c01613822565b93505060c06140f48b828c016137e3565b92505060e06141058b828c016136d9565b9150509295985092959890939650565b60006020828403121561412b5761412a61504c565b5b600061413984828501613b19565b91505092915050565b600061414e8383614226565b905092915050565b6000614161826149b5565b61416b81856149d8565b93508360208202850161417d856149a5565b8060005b858110156141b9578484038952815161419a8582614142565b94506141a5836149cb565b925060208a01995050600181019050614181565b50829750879550505050505092915050565b6141d481614d46565b82525050565b6141eb6141e682614d52565b614ecd565b82525050565b6141fa81614d7e565b82525050565b61421161420c82614d7e565b614ed7565b82525050565b61422081614d88565b82525050565b6000614231826149c0565b61423b81856149e9565b935061424b818560208601614dee565b61425481615051565b840191505092915050565b600061426a826149c0565b61427481856149fa565b9350614284818560208601614dee565b61428d81615051565b840191505092915050565b60006142a3826149c0565b6142ad8185614a0b565b93506142bd818560208601614dee565b80840191505092915050565b60006142d6602f83614a16565b91506142e18261506f565b604082019050919050565b60006142f9603283614a16565b9150614304826150be565b604082019050919050565b600061431c603283614a16565b91506143278261510d565b604082019050919050565b600061433f604383614a16565b915061434a8261515c565b606082019050919050565b6000614362600e83614a16565b915061436d826151d1565b602082019050919050565b6000614385602f83614a16565b9150614390826151fa565b604082019050919050565b60006143a8603d83614a16565b91506143b382615249565b604082019050919050565b60006143cb602d83614a16565b91506143d682615298565b604082019050919050565b60006143ee602b83614a16565b91506143f9826152e7565b604082019050919050565b6000614411602183614a16565b915061441c82615336565b604082019050919050565b6000614434601183614a16565b915061443f82615385565b602082019050919050565b6000614457605083614a16565b9150614462826153ae565b606082019050919050565b600061447a602a83614a16565b915061448582615423565b604082019050919050565b600061449d601983614a16565b91506144a882615472565b602082019050919050565b60006144c0602c83614a16565b91506144cb8261549b565b604082019050919050565b60006144e3602683614a16565b91506144ee826154ea565b604082019050919050565b61450281614db4565b82525050565b61451181614dbe565b82525050565b61452081614dd2565b82525050565b600061453282846141da565b60028201915081905092915050565b600061454d8284614200565b60208201915081905092915050565b60006145688285614200565b6020820191506145788284614200565b6020820191508190509392505050565b60006145948284614298565b915081905092915050565b600060208201905081810360008301526145b98184614156565b905092915050565b60006020820190506145d660008301846141cb565b92915050565b60006020820190506145f160008301846141f1565b92915050565b600060208201905061460c6000830184614217565b92915050565b6000602082019050818103600083015261462c818461425f565b905092915050565b6000602082019050818103600083015261464d816142c9565b9050919050565b6000602082019050818103600083015261466d816142ec565b9050919050565b6000602082019050818103600083015261468d8161430f565b9050919050565b600060208201905081810360008301526146ad81614332565b9050919050565b600060208201905081810360008301526146cd81614355565b9050919050565b600060208201905081810360008301526146ed81614378565b9050919050565b6000602082019050818103600083015261470d8161439b565b9050919050565b6000602082019050818103600083015261472d816143be565b9050919050565b6000602082019050818103600083015261474d816143e1565b9050919050565b6000602082019050818103600083015261476d81614404565b9050919050565b6000602082019050818103600083015261478d81614427565b9050919050565b600060208201905081810360008301526147ad8161444a565b9050919050565b600060208201905081810360008301526147cd8161446d565b9050919050565b600060208201905081810360008301526147ed81614490565b9050919050565b6000602082019050818103600083015261480d816144b3565b9050919050565b6000602082019050818103600083015261482d816144d6565b9050919050565b600060208201905061484960008301846144f9565b92915050565b60006020820190506148646000830184614508565b92915050565b600060208201905061487f6000830184614517565b92915050565b600061488f6148a0565b905061489b8282614e53565b919050565b6000604051905090565b600067ffffffffffffffff8211156148c5576148c4614fff565b5b602082029050919050565b600067ffffffffffffffff8211156148eb576148ea614fff565b5b602082029050919050565b600067ffffffffffffffff82111561491157614910614fff565b5b602082029050602081019050919050565b600067ffffffffffffffff82111561493d5761493c614fff565b5b602082029050919050565b600067ffffffffffffffff82111561496357614962614fff565b5b602082029050602081019050919050565b600067ffffffffffffffff82111561498f5761498e614fff565b5b61499882615051565b9050602081019050919050565b6000819050602082019050919050565b600081519050919050565b600081519050919050565b6000602082019050919050565b600082825260208201905092915050565b600082825260208201905092915050565b600082825260208201905092915050565b600081905092915050565b600082825260208201905092915050565b6000614a3282614db4565b9150614a3d83614db4565b9250827fffffffffffffffffffffffffffffffffffffffffffffffffffffffffffffffff03821115614a7257614a71614f43565b5b828201905092915050565b6000614a8882614db4565b9150614a9383614db4565b925082614aa357614aa2614f72565b5b828204905092915050565b6000614ab982614dd2565b9150614ac483614dd2565b925082614ad457614ad3614f72565b5b828204905092915050565b6000808291508390505b6001851115614b2957808604811115614b0557614b04614f43565b5b6001851615614b145780820291505b8081029050614b2285615062565b9450614ae9565b94509492505050565b6000614b3d82614db4565b9150614b4883614db4565b9250614b757fffffffffffffffffffffffffffffffffffffffffffffffffffffffffffffffff8484614b7d565b905092915050565b600082614b8d5760019050614c49565b81614b9b5760009050614c49565b8160018114614bb15760028114614bbb57614bea565b6001915050614c49565b60ff841115614bcd57614bcc614f43565b5b8360020a915084821115614be457614be3614f43565b5b50614c49565b5060208310610133831016604e8410600b8410161715614c1f5782820a905083811115614c1a57614c19614f43565b5b614c49565b614c2c8484846001614adf565b92509050818404811115614c4357614c42614f43565b5b81810290505b9392505050565b6000614c5b82614db4565b9150614c6683614db4565b9250817fffffffffffffffffffffffffffffffffffffffffffffffffffffffffffffffff0483118215151615614c9f57614c9e614f43565b5b828202905092915050565b6000614cb582614db4565b9150614cc083614db4565b925082821015614cd357614cd2614f43565b5b828203905092915050565b6000614ce982614dbe565b9150614cf483614dbe565b925082821015614d0757614d06614f43565b5b828203905092915050565b6000614d1d82614dd2565b9150614d2883614dd2565b925082821015614d3b57614d3a614f43565b5b828203905092915050565b60008115159050919050565b60007fffff00000000000000000000000000000000000000000000000000000000000082169050919050565b6000819050919050565b60007fffffffffffffffff00000000000000000000000000000000000000000000000082169050919050565b6000819050919050565b600067ffffffffffffffff82169050919050565b600060ff82169050919050565b82818337600083830152505050565b60005b83811015614e0c578082015181840152602081019050614df1565b83811115614e1b576000848401525b50505050565b60006002820490506001821680614e3957607f821691505b60208210811415614e4d57614e4c614fa1565b5b50919050565b614e5c82615051565b810181811067ffffffffffffffff82111715614e7b57614e7a614fff565b5b80604052505050565b6000614e8f82614db4565b91507fffffffffffffffffffffffffffffffffffffffffffffffffffffffffffffffff821415614ec257614ec1614f43565b5b600182019050919050565b6000819050919050565b6000819050919050565b6000614eec82614db4565b9150614ef783614db4565b925082614f0757614f06614f72565b5b828206905092915050565b6000614f1d82614dd2565b9150614f2883614dd2565b925082614f3857614f37614f72565b5b828206905092915050565b7f4e487b7100000000000000000000000000000000000000000000000000000000600052601160045260246000fd5b7f4e487b7100000000000000000000000000000000000000000000000000000000600052601260045260246000fd5b7f4e487b7100000000000000000000000000000000000000000000000000000000600052602260045260246000fd5b7f4e487b7100000000000000000000000000000000000000000000000000000000600052603260045260246000fd5b7f4e487b7100000000000000000000000000000000000000000000000000000000600052604160045260246000fd5b600080fd5b600080fd5b600080fd5b600080fd5b600080fd5b600080fd5b600080fd5b6000601f19601f8301169050919050565b60008160011c9050919050565b7f6d65726b6c652070726f6f6620666f722066696e616c697a656420737461746560008201527f20726f6f74206e6f742076616c69640000000000000000000000000000000000602082015250565b7f6d65726b6c652070726f6f66206f66206e657874206e6578742073796e63206360008201527f6f6d6d6974746565206e6f742076616c69640000000000000000000000000000602082015250565b7f5f696e70757420746f20666c6f6f724c6f6732206d757374206265206c61726760008201527f6572206f7220657175616c207468616e20310000000000000000000000000000602082015250565b7f66696e616c697a656420626c6f636b206f6c646572207468616e206c6173742060008201527f66696e616c697a656420626c6f636b207365656e20627920636861696e20726560208201527f6c61790000000000000000000000000000000000000000000000000000000000604082015250565b7f736c6963655f6f766572666c6f77000000000000000000000000000000000000600082015250565b7f7472616e7366657220616d6f756e74206e6f7420657175616c20746f2066756e60008201527f6374696f6e20706172616d657465720000000000000000000000000000000000602082015250565b7f6c617465737420626c6f636b206f6c646572207468616e206c617374206c617460008201527f65737420626c6f636b207365656e20627920636861696e2072656c6179000000602082015250565b7f7369676e61747572652062792063757272656e742073796e6320636f6d6d697460008201527f746565206e6f742076616c696400000000000000000000000000000000000000602082015250565b7f626c6f636b20646f6573206e6f7420657869737420696e2063757272656e742060008201527f72656c61792d7374617465000000000000000000000000000000000000000000602082015250565b7f6e6f7420656e6f756768207369676e6174757265207061727469636970616e7460008201527f7300000000000000000000000000000000000000000000000000000000000000602082015250565b7f736c6963655f6f75744f66426f756e6473000000000000000000000000000000600082015250565b7f6c617465737420736c6f7420646f6573206e6f7420696e64696361746520746860008201527f61742063757272656e74206f72206e6578742073796e6320636f6d6d6974746560208201527f6520697320726573706f6e7369626c6500000000000000000000000000000000604082015250565b7f7369676e6174757265206279206e6578742073796e6320636f6d6d697474656560008201527f206e6f742076616c696400000000000000000000000000000000000000000000602082015250565b7f556e6b6e6f776e20766572696669636174696f6e207479706500000000000000600082015250565b7f6d65726b6c652070726f6f6620666f72206c617465737420737461746520726f60008201527f6f74206e6f742076616c69640000000000000000000000000000000000000000602082015250565b7f70726f766964656420666565206973206c657373207468616e2065787065637460008201527f6564206665650000000000000000000000000000000000000000000000000000602082015250565b61554281614d46565b811461554d57600080fd5b50565b61555981614d52565b811461556457600080fd5b50565b61557081614d7e565b811461557b57600080fd5b50565b61558781614d88565b811461559257600080fd5b50565b61559e81614db4565b81146155a957600080fd5b50565b6155b581614dbe565b81146155c057600080fd5b5056fea2646970667358221220947603b744afe9070b5fe35d84c9cd530965b2abb162e6e3e4fedf3c1213811164736f6c63430008060033",
  "immutableReferences": {},
  "source": "// SPDX-License-Identifier: GPL-3.0-or-later\r\n\r\n// PLEASE NOTE: This is a prototype. Do not use it in production settings. \r\n\r\npragma solidity >=0.8.0 <0.9.0;\r\n\r\nimport \"../node_modules/solidity-bytes-utils/contracts/BytesLib.sol\";\r\nimport \"./libraries/Memory.sol\";\r\nimport \"./libraries/MerklePatriciaProof.sol\";\r\nimport \"./libraries/RLPReader.sol\";\r\n\r\n// debug settings\r\nbool constant MOCK_BLS_PRECOMPILE = true;\r\n\r\n// magic numbers\r\nuint constant FIRST_BEACON_BLOCK_UNIX_TIMESTAMP = 1606824023;\r\n\r\n// eth2 mainnet configuration\r\nuint constant SYNC_COMMITTEE_SIZE = 512;\r\nuint constant SECONDS_PER_SLOT = 12;\r\nuint constant SLOTS_PER_EPOCH = 32;\r\nuint constant EPOCHS_PER_SYNC_COMMITTEE_PERIOD = 512;\r\n\r\n// SSZ generalized indices\r\nuint constant FINALIZED_ROOT_INDEX = 105;\r\nuint constant FINALIZED_EPOCH_INDEX = 104;\r\nuint constant NEXT_SYNC_COMMITTEE_INDEX = 55;\r\nuint constant NEXT_SYNC_COMMITTEE_PUBKEYS_INDEX = 110;\r\nuint constant SLOT_INDEX = 8;\r\nuint constant STATE_ROOT_INDEX = 11;\r\n\r\nstruct ChainRelayUpdate {\r\n    bytes signature;\r\n    bool[SYNC_COMMITTEE_SIZE] participants;\r\n    bytes32 latestBlockRoot;\r\n    bytes32 signingDomain;\r\n    uint64 latestSlot;\r\n    bytes32[] latestSlotBranch; \r\n    bytes32 finalizedBlockRoot; \r\n    bytes32[] finalizingBranch; \r\n    uint64 finalizedSlot; \r\n    bytes32[] finalizedSlotBranch; \r\n    bytes32 finalizedStateRoot;\r\n    bytes32[] finalizedStateRootBranch;\r\n    bytes32 stateRoot;\r\n    bytes32[] stateRootBranch; \r\n}\r\n\r\nstruct SyncCommitteeUpdate {\r\n    bytes[SYNC_COMMITTEE_SIZE] nextNextValidatorSet;\r\n    bytes nextNextValidatorSetAggregate;\r\n    bytes32[] nextNextValidatorSetBranch;\r\n}\r\n\r\n/** \r\n * @title Chain Relay\r\n * @dev Implements a chain relay/light client for eth2 consensus post-altair (including sync committees)\r\n */\r\ncontract Eth2ChainRelay_512 {\r\n    using RLPReader for *;\r\n    using BytesLib for bytes;\r\n    uint constant REQUIRED_VERIFICATION_FEE_IN_WEI = 0.1 ether;\r\n    uint8 constant VERIFICATION_TYPE_TX = 1;\r\n    uint8 constant VERIFICATION_TYPE_RECEIPT = 2;\r\n\r\n    uint64 private signatureThreshold; // 0 < signatureThreshold <= 512\r\n    uint64 private trustingPeriod; // validators are trusted for a certain time, ensuring they have not exited the validator set, in unix time\r\n    bytes[SYNC_COMMITTEE_SIZE] private currentValidatorSet;\r\n    bytes private currentValidatorSetAggregate;\r\n    bytes[SYNC_COMMITTEE_SIZE] private nextValidatorSet;\r\n    bytes private nextValidatorSetAggregate;\r\n    bytes32 private finalizedBlockRoot;\r\n    bytes32 private finalizedStateRoot; \r\n    uint64 private latestSlot;\r\n    uint64 private latestSlotWithValidatorSetChange;\r\n    uint64 private finalizedSlot;\r\n    \r\n    constructor(uint64 _signatureThreshold, \r\n                uint64 _trustingPeriod, \r\n                bytes32 _finalizedBlockRoot,\r\n                bytes32 _finalizedStateRoot,\r\n                uint64 _finalizedSlot,\r\n                uint64 _latestSlot,\r\n                uint64 _latestSlotWithValidatorSetChange) \r\n    {\r\n        signatureThreshold=_signatureThreshold;\r\n        trustingPeriod=_trustingPeriod;\r\n        finalizedBlockRoot=_finalizedBlockRoot;\r\n        latestSlot=_latestSlot;\r\n        latestSlotWithValidatorSetChange=_latestSlotWithValidatorSetChange;\r\n        finalizedSlot=_finalizedSlot;\r\n        finalizedStateRoot=_finalizedStateRoot;\r\n    }\r\n\r\n    function initializeCurrent(bytes[SYNC_COMMITTEE_SIZE] memory _currentValidatorSet, \r\n                            bytes memory _currentValidatorSetAggregate) public {\r\n        currentValidatorSet=_currentValidatorSet;\r\n        currentValidatorSetAggregate=_currentValidatorSetAggregate;\r\n                }\r\n\r\n    function initializeNext(bytes[SYNC_COMMITTEE_SIZE] memory _nextValidatorSet,\r\n                            bytes memory _nextValidatorSetAggregate) public {\r\n        nextValidatorSet=_nextValidatorSet;\r\n        nextValidatorSetAggregate=_nextValidatorSetAggregate;\r\n                }\r\n\r\n    function getLatestSlotWithValidatorSetChange() public view returns (uint64) {\r\n        return latestSlotWithValidatorSetChange;\r\n    }\r\n    \r\n    function getFinalizedBlockRoot() public view returns (bytes32) {\r\n        return finalizedBlockRoot;\r\n    }\r\n    \r\n    function getFinalizedStateRoot() public view returns (bytes32) {\r\n        return finalizedStateRoot;\r\n    }\r\n\r\n    function getFinalizedSlot() public view returns (uint64) {\r\n        return finalizedSlot;\r\n    }\r\n    \r\n    function submitUpdate(ChainRelayUpdate memory _chainRelayUpdate, SyncCommitteeUpdate memory _syncCommitteeUpdate) public returns (bool) {\r\n        bytes32 signingRoot = computeSigningRoot(_chainRelayUpdate.latestBlockRoot, _chainRelayUpdate.signingDomain);\r\n        uint numberOfParticipants = countTrueBools(_chainRelayUpdate.participants);\r\n        require(\r\n            numberOfParticipants >= signatureThreshold, \r\n            \"not enough signature participants\");\r\n        require(\r\n            validateMerkleBranch(\r\n                _chainRelayUpdate.latestBlockRoot, \r\n                _chainRelayUpdate.stateRoot, \r\n                STATE_ROOT_INDEX, \r\n                _chainRelayUpdate.stateRootBranch), \r\n            \"merkle proof for latest state root not valid\");\r\n        // the following checks are executed but ignored in order to allow for testing with synthetic SSZ/Eth2 data\r\n        /*require(*/\r\n            validateMerkleBranch(\r\n                _chainRelayUpdate.latestBlockRoot, \r\n                merklelizeSlot(_chainRelayUpdate.latestSlot), \r\n                SLOT_INDEX, \r\n                _chainRelayUpdate.latestSlotBranch)/*, \"merkle proof for latest slot not valid\")*/;\r\n        /*require(*/\r\n            validateMerkleBranch(\r\n                _chainRelayUpdate.stateRoot, \r\n                _chainRelayUpdate.finalizedBlockRoot, \r\n                FINALIZED_ROOT_INDEX, \r\n                _chainRelayUpdate.finalizingBranch)/*, \"merkle proof for finalized block root not valid\")*/;\r\n        /*require(*/\r\n            validateMerkleBranch(\r\n                _chainRelayUpdate.finalizedBlockRoot, \r\n                merklelizeSlot(_chainRelayUpdate.finalizedSlot), \r\n                SLOT_INDEX, \r\n                _chainRelayUpdate.finalizedSlotBranch)/*, \"merkle proof for finalized slot not valid\")*/;\r\n        require(\r\n            validateMerkleBranch(\r\n                _chainRelayUpdate.finalizedBlockRoot, \r\n                _chainRelayUpdate.finalizedStateRoot, \r\n                STATE_ROOT_INDEX, \r\n                _chainRelayUpdate.finalizedStateRootBranch), \r\n            \"merkle proof for finalized state root not valid\");\r\n        require(\r\n            _chainRelayUpdate.latestSlot >= latestSlot, \r\n            \"latest block older than last latest block seen by chain relay\");\r\n        require(\r\n            _chainRelayUpdate.finalizedSlot >= finalizedSlot, \r\n            \"finalized block older than last finalized block seen by chain relay\");\r\n        uint slot_distance = _chainRelayUpdate.latestSlot - latestSlotWithValidatorSetChange; \r\n        if ((slot_distance / (SLOTS_PER_EPOCH * EPOCHS_PER_SYNC_COMMITTEE_PERIOD)) == 0) {\r\n           require(\r\n               fastAggregateVerify(serializeAggregateSignature(\r\n                   signingRoot, \r\n                   _chainRelayUpdate.signature, \r\n                   getActiveValidators(currentValidatorSet, _chainRelayUpdate.participants, numberOfParticipants))), \r\n               \"signature by current sync committee not valid\");\r\n        } else if ((slot_distance / (SLOTS_PER_EPOCH * EPOCHS_PER_SYNC_COMMITTEE_PERIOD)) == 1) {\r\n            require(\r\n                fastAggregateVerify(serializeAggregateSignature(\r\n                    signingRoot, \r\n                    _chainRelayUpdate.signature, \r\n                    getActiveValidators(nextValidatorSet, _chainRelayUpdate.participants, numberOfParticipants))), \r\n                \"signature by next sync committee not valid\");\r\n            uint finalized_slot_distance = _chainRelayUpdate.finalizedSlot - latestSlotWithValidatorSetChange; \r\n            if ((finalized_slot_distance / (SLOTS_PER_EPOCH * EPOCHS_PER_SYNC_COMMITTEE_PERIOD)) == 1) { \r\n                bytes32 merklelizedNextNextSyncCommittee = hashTreeRootSyncCommittee(_syncCommitteeUpdate.nextNextValidatorSet, _syncCommitteeUpdate.nextNextValidatorSetAggregate);\r\n                require(\r\n                    validateMerkleBranch(\r\n                        _chainRelayUpdate.finalizedStateRoot, \r\n                        merklelizedNextNextSyncCommittee, \r\n                        NEXT_SYNC_COMMITTEE_INDEX, \r\n                        _syncCommitteeUpdate.nextNextValidatorSetBranch), \r\n                    \"merkle proof of next next sync committee not valid\");\r\n                currentValidatorSet = nextValidatorSet; \r\n                currentValidatorSetAggregate = nextValidatorSetAggregate;\r\n                nextValidatorSet = _syncCommitteeUpdate.nextNextValidatorSet; \r\n                nextValidatorSetAggregate = _syncCommitteeUpdate.nextNextValidatorSetAggregate;\r\n                latestSlotWithValidatorSetChange = _chainRelayUpdate.finalizedSlot;\r\n            } \r\n        } else {\r\n            revert(\"latest slot does not indicate that current or next sync committee is responsible\");\r\n        }\r\n        finalizedBlockRoot = _chainRelayUpdate.finalizedBlockRoot; \r\n        finalizedStateRoot = _chainRelayUpdate.finalizedStateRoot;\r\n        latestSlot = _chainRelayUpdate.latestSlot;\r\n        finalizedSlot = _chainRelayUpdate.finalizedSlot;\r\n        return true;\r\n    }\r\n\r\n    function verifyBlockSignature(bytes memory signature, bytes32 blockhash, bool[SYNC_COMMITTEE_SIZE] memory participants) public view returns (bool) {\r\n        uint numberOfParticipants = countTrueBools(participants);\r\n        require(\r\n            numberOfParticipants >= signatureThreshold, \r\n            \"not enough signature participants\");\r\n        \r\n        //validator set has to be part of input?\r\n\r\n        require(fastAggregateVerify(\r\n            serializeAggregateSignature(blockhash, signature, getActiveValidators(currentValidatorSet, participants, numberOfParticipants))\r\n        ));\r\n\r\n        return true;\r\n\r\n    }\r\n\r\n    function verifyMerkleProof(bytes32 blockHash, bytes memory rlpEncodedValue,\r\n        bytes memory path, bytes memory rlpEncodedNodes, bytes32 merkleRootHash) internal view returns (uint8) {\r\n        \r\n        //check if header is stored\r\n        require(finalizedBlockRoot == blockHash, \"block does not exist in current relay-state\");\r\n\r\n        if (MerklePatriciaProof.verify(rlpEncodedValue, path, rlpEncodedNodes, merkleRootHash) > 0) {\r\n            return 1;\r\n        }\r\n\r\n        return 0;\r\n    }\r\n    \r\n    function getTxRoot(bytes memory rlpHeader) internal pure returns (bytes32) {\r\n        RLPReader.Iterator memory it = rlpHeader.toRlpItem().iterator();\r\n        uint idx;\r\n        while(it.hasNext()) {\r\n            if ( idx == 4 ) return bytes32(it.next().toUint());\r\n            else it.next();\r\n\r\n            idx++;\r\n        }\r\n\r\n        return 0;\r\n    }\r\n\r\n    function getReceiptsRoot(bytes memory rlpHeader) internal pure returns (bytes32) {\r\n        RLPReader.Iterator memory it = rlpHeader.toRlpItem().iterator();\r\n        uint idx;\r\n        while(it.hasNext()) {\r\n            if ( idx == 5 ) return bytes32(it.next().toUint());\r\n            else it.next();\r\n\r\n            idx++;\r\n        }\r\n\r\n        return 0;\r\n    }\r\n\r\n    function verify(uint8 verificationType, uint feeInWei, bytes memory rlpHeader, bytes memory rlpEncodedValue,\r\n        bytes memory path, bytes memory rlpEncodedNodes, bytes memory signature, bytes32 blockhash, bool[SYNC_COMMITTEE_SIZE] memory participants) private returns (uint8) {\r\n\r\n        require(feeInWei == msg.value, \"transfer amount not equal to function parameter\");\r\n        require(feeInWei >= REQUIRED_VERIFICATION_FEE_IN_WEI, \"provided fee is less than expected fee\");\r\n\r\n        bytes32 blockHash = keccak256(rlpHeader);\r\n        uint8 result;\r\n\r\n        //require transactions-block to be valid\r\n        require(verifyBlockSignature(signature, blockhash, participants));\r\n\r\n        //require receipt or transaction to be valid\r\n        if (verificationType == VERIFICATION_TYPE_TX) {\r\n            result = verifyMerkleProof(blockHash, rlpEncodedValue, path, rlpEncodedNodes, getTxRoot(rlpHeader));\r\n        } else if (verificationType == VERIFICATION_TYPE_RECEIPT) {\r\n            result = verifyMerkleProof(blockHash, rlpEncodedValue, path, rlpEncodedNodes, getReceiptsRoot(rlpHeader));\r\n        } else {\r\n            revert(\"Unknown verification type\");\r\n        }\r\n\r\n        return result;\r\n    }\r\n\r\n    function verifyTransaction(uint feeInWei, bytes memory rlpHeader, bytes memory rlpEncodedTx,bytes memory path, bytes memory rlpEncodedNodes, bytes memory signature, bytes32 blockhash, bool[SYNC_COMMITTEE_SIZE] memory participants) public payable returns (uint64) {\r\n\r\n        uint8 result = verify(VERIFICATION_TYPE_TX, feeInWei, rlpHeader, rlpEncodedTx, path, rlpEncodedNodes, signature, blockhash, participants);\r\n\r\n        return result;\r\n    }\r\n\r\n    function verifyReceipt(uint feeInWei, bytes memory rlpHeader, bytes memory rlpEncodedReceipt,\r\n        bytes memory path, bytes memory rlpEncodedNodes, bytes memory signature, bytes32 blockhash, bool[SYNC_COMMITTEE_SIZE] memory participants) public payable returns (uint8) {\r\n        \r\n        uint8 result = verify(VERIFICATION_TYPE_RECEIPT, feeInWei, rlpHeader, rlpEncodedReceipt, path, rlpEncodedNodes, signature, blockhash, participants);\r\n\r\n        return result;\r\n    }\r\n    \r\n    function getActiveValidators(bytes[SYNC_COMMITTEE_SIZE] memory _pubkeys, bool[SYNC_COMMITTEE_SIZE] memory _isActive, uint _numberOfActive) public pure returns (bytes[] memory) {\r\n        bytes[] memory active_validators = new bytes[](_numberOfActive);\r\n        uint counter = 0;\r\n        for (uint i = 0; i < SYNC_COMMITTEE_SIZE; i++) {\r\n            if (_isActive[i]) {\r\n                active_validators[counter] = _pubkeys[i];\r\n                counter++;\r\n            }\r\n        }\r\n        return active_validators;\r\n    }\r\n    \r\n    function countTrueBools(bool[SYNC_COMMITTEE_SIZE] memory _bools) public pure returns (uint) {\r\n        uint counter = 0;\r\n        for (uint i = 0; i < SYNC_COMMITTEE_SIZE; i++) {\r\n            if (_bools[i] == true) {\r\n                counter++;\r\n            }\r\n        }\r\n        return counter;\r\n    }\r\n\r\n    function serializeAggregateSignature(bytes32 _message, bytes memory _signature, bytes[] memory _pubkeys) public pure returns (bytes memory) {\r\n        bytes2 length = bytes2(uint16(_pubkeys.length));\r\n        bytes memory serialized = new bytes(32+96+2+48*_pubkeys.length);\r\n        for (uint i = 0; i < 32; i++) {\r\n            serialized[i] = _message[i];\r\n        }\r\n        for (uint i = 32; i < 128; i++) {\r\n            serialized[i] = _signature[i-32];\r\n        }\r\n        for (uint i = 128; i < 130; i++) {\r\n            serialized[i] = length[i-128];\r\n        }\r\n        for (uint i = 0; i < _pubkeys.length; i++) {\r\n            for (uint j = 0; j < 48; j++) {\r\n            //for (uint j = 0; j < _pubkeys[i].length; j++) {\r\n                serialized[32+96+2+i*48+j] = _pubkeys[i][j];\r\n            }\r\n        }\r\n        return serialized;\r\n    }\r\n    \r\n    function fastAggregateVerify(bytes memory _input) public view returns (bool o) {\r\n        if (MOCK_BLS_PRECOMPILE) {\r\n            return true;\r\n        }\r\n        bool[1] memory outCache;\r\n        assembly {\r\n            let p := mload(0x40)\r\n            let length := mload(_input)\r\n            if iszero(staticcall(gas(), 0x05, add(_input,32), length, outCache, 32)) { // first 32 yte of _input are length\r\n                revert(0, 0)\r\n            }\r\n        }\r\n        o = outCache[0];\r\n    }\r\n    \r\n    function slotToUnixTimestamp(uint _slot) public pure returns (uint timestamp) {\r\n        return _slot * SECONDS_PER_SLOT + FIRST_BEACON_BLOCK_UNIX_TIMESTAMP;\r\n    }\r\n    \r\n    function bytes32ToBytes(bytes32 _input) public pure returns (bytes memory output) {\r\n        return abi.encodePacked(_input);\r\n    }\r\n    \r\n    function bytes2ToBytes(bytes2 _input) public pure returns (bytes memory output) {\r\n        return abi.encodePacked(_input);\r\n    }\r\n    \r\n    function concat(bytes32 _left, bytes32 _right) public pure returns (bytes memory) {\r\n        return bytes.concat(_left, _right);\r\n        // below is fallback code for older solidity versions\r\n        /*bytes memory concatenated;\r\n        for (uint i = 0; i<32; i++) {\r\n            concatenated[i] = left[i];\r\n        }\r\n        for (uint i = 0; i<32; i++) {\r\n            concatenated[i+32] = right[i];\r\n        }\r\n        return concatenated;*/\r\n    }\r\n\r\n    function hashTreeRootPair(bytes32 _left, bytes32 _right) public pure returns (bytes32) {\r\n        return sha256(concat(_left, _right));\r\n    }\r\n    \r\n    function hashTreeRootBlspubkey (bytes memory _blspubkey) public pure returns (bytes32) {\r\n        bytes memory blspubkeyMerkleizedLeft = _blspubkey.slice(0, 32);\r\n        bytes memory blspubkeyMerkleizedRight = _blspubkey.slice(32, 16);\r\n        blspubkeyMerkleizedRight = blspubkeyMerkleizedRight.concat(bytes(hex\"00000000000000000000000000000000\"));\r\n        /* fallback w/o library\r\n        bytes memory blspubkeyMerkleizedLeft = new bytes(32);\r\n        for (uint i = 0; i<32; i++) {\r\n            blspubkeyMerkleizedLeft[i] = _blspubkey[i];\r\n        }\r\n        bytes memory blspubkeyMerkleizedRight = new bytes(32);\r\n        for (uint i = 0; i<16; i++) { // rest of blspubkeyMerkleizedRight is initialized zero\r\n            blspubkeyMerkleizedRight[i] = _blspubkey[i+32];\r\n        }*/\r\n        return hashTreeRootPair(bytesToBytes32(blspubkeyMerkleizedLeft), bytesToBytes32(blspubkeyMerkleizedRight));\r\n    }\r\n    \r\n    function computeSigningRoot(bytes32 _blockRoot, bytes32 _signingDomain) public pure returns (bytes32) {\r\n        return hashTreeRootPair(_blockRoot, _signingDomain);\r\n    }\r\n    \r\n    function bytesToBytes8(bytes memory _input) public pure returns (bytes8 result) {\r\n        if (_input.length == 0) {\r\n            return 0x0;\r\n        }\r\n        assembly {\r\n            result := mload(add(_input, 32))\r\n        }\r\n    }\r\n    \r\n    function bytesToBytes32(bytes memory _input) public pure returns (bytes32 result) {\r\n        if (_input.length == 0) {\r\n            return 0x0;\r\n        }\r\n        assembly {\r\n            result := mload(add(_input, 32))\r\n        }\r\n    }\r\n\r\n    function revertBytes8(bytes8 _input) public pure returns (bytes8) {\r\n        bytes memory reverted = new bytes(8);\r\n        for (uint i = 0; i < 8; i++) {\r\n            reverted[7-i] = _input[i];\r\n        }\r\n        return bytesToBytes8(reverted);\r\n    }\r\n\r\n    function merklelizeSlot(uint64 _input) public pure returns (bytes32) {\r\n        return bytes32(revertBytes8(bytes8(_input)));\r\n    }\r\n    \r\n    function bitLength(uint _input) public pure returns (uint) {\r\n        uint length = 0;\r\n        while (_input != 0) \r\n        {\r\n            _input >>= 1; \r\n            length++; \r\n        }\r\n        return length;\r\n    }\r\n    \r\n    function nextPowOfTwo(uint _input) public pure returns (uint) {\r\n        if (_input == 0) {\r\n            return 1;\r\n        } else {\r\n            return 2**(bitLength(_input-1));\r\n        }\r\n    }\r\n    \r\n    function floorLog2 (uint _input) public pure returns (uint) {\r\n        require(_input >= 1, \"_input to floorLog2 must be larger or equal than 1\");\r\n        return bitLength(_input)-1;\r\n    }\r\n    \r\n    function merkleize(bytes32[SYNC_COMMITTEE_SIZE] memory _chunks) public pure returns (bytes32) {\r\n        uint length_next_pow = nextPowOfTwo(_chunks.length);\r\n        for (uint i = _chunks.length; i < length_next_pow; i++) {\r\n            // filling lowest level not necessary b/c size always 2^n\r\n        }\r\n        for (uint level = 0; level<floorLog2(length_next_pow); level++) {\r\n            uint step = 2**level;\r\n            for (uint current_accumulator = 0; current_accumulator < length_next_pow; current_accumulator += step*2) {\r\n                _chunks[current_accumulator] = hashTreeRootPair(_chunks[current_accumulator], _chunks[current_accumulator+step]);\r\n            }\r\n        }\r\n        return _chunks[0];\r\n    }\r\n    \r\n    function hashTreeRootSyncCommittee(bytes[SYNC_COMMITTEE_SIZE] memory _syncCommittee, bytes memory _syncAggregate) public pure returns (bytes32) {\r\n        bytes32[SYNC_COMMITTEE_SIZE] memory syncCommitteeHashed;\r\n        for (uint i = 0; i < SYNC_COMMITTEE_SIZE; i++) {\r\n            syncCommitteeHashed[i] = hashTreeRootBlspubkey(_syncCommittee[i]);\r\n        }\r\n        bytes32 syncCommitteeHashedMerkleized = merkleize(syncCommitteeHashed);\r\n        bytes32 syncCommitteeRoot = hashTreeRootPair(syncCommitteeHashedMerkleized, hashTreeRootBlspubkey(_syncAggregate));\r\n        return syncCommitteeRoot;\r\n    }\r\n    \r\n    function getSubtreeIndex(uint _generalizedIndex) public pure returns (uint) {\r\n        return _generalizedIndex % 2**(floorLog2(_generalizedIndex));\r\n    }\r\n    \r\n    function validateMerkleBranch(bytes32 _root, bytes32 _leaf, uint _generalizedIndex, bytes32[] memory _branch) public pure returns (bool) {\r\n        uint index = getSubtreeIndex(_generalizedIndex);\r\n        uint depth = floorLog2(_generalizedIndex);\r\n        bytes32 value = _leaf;\r\n        for (uint i = 0; i < depth; i++) {\r\n            if ((index / (2**i) % 2) == 1) {\r\n                value = sha256(concat(_branch[i],value));\r\n            } else {\r\n                value = sha256(concat(value,_branch[i]));\r\n            }\r\n        }\r\n        return value == _root;\r\n    }\r\n    \r\n}",
  "sourcePath": "/mnt/d/Documents/GitHub/ResearchProject/PoSChainRelayEthereumHolesky/contracts/Eth2ChainRelay_512.sol",
  "compiler": {
    "name": "solc",
    "version": "0.8.6+commit.11564f7e.Emscripten.clang"
  },
  "schemaVersion": "3.4.16",
  "updatedAt": "2024-02-22T21:45:24.914Z",
  "devdoc": {
    "details": "Implements a chain relay/light client for eth2 consensus post-altair (including sync committees)",
    "kind": "dev",
    "methods": {},
    "title": "Chain Relay",
    "version": 1
  },
  "userdoc": {
    "kind": "user",
    "methods": {},
    "version": 1
  }
}