{
  "contractName": "Eth2ChainRelay_32",
  "abi": [
    {
      "inputs": [
        {
          "internalType": "uint64",
          "name": "_signatureThreshold",
          "type": "uint64"
        },
        {
          "internalType": "uint64",
          "name": "_trustingPeriod",
          "type": "uint64"
        },
        {
          "internalType": "bytes[32]",
          "name": "_currentValidatorSet",
          "type": "bytes[32]"
        },
        {
          "internalType": "bytes",
          "name": "_currentValidatorSetAggregate",
          "type": "bytes"
        },
        {
          "internalType": "bytes[32]",
          "name": "_nextValidatorSet",
          "type": "bytes[32]"
        },
        {
          "internalType": "bytes",
          "name": "_nextValidatorSetAggregate",
          "type": "bytes"
        },
        {
          "internalType": "bytes32",
          "name": "_finalizedBlockRoot",
          "type": "bytes32"
        },
        {
          "internalType": "bytes32",
          "name": "_finalizedStateRoot",
          "type": "bytes32"
        },
        {
          "internalType": "uint64",
          "name": "_finalizedSlot",
          "type": "uint64"
        },
        {
          "internalType": "uint64",
          "name": "_latestSlot",
          "type": "uint64"
        },
        {
          "internalType": "uint64",
          "name": "_latestSlotWithValidatorSetChange",
          "type": "uint64"
        }
      ],
      "stateMutability": "nonpayable",
      "type": "constructor"
    },
    {
      "inputs": [],
      "name": "getLatestSlotWithValidatorSetChange",
      "outputs": [
        {
          "internalType": "uint64",
          "name": "",
          "type": "uint64"
        }
      ],
      "stateMutability": "view",
      "type": "function"
    },
    {
      "inputs": [],
      "name": "getFinalizedBlockRoot",
      "outputs": [
        {
          "internalType": "bytes32",
          "name": "",
          "type": "bytes32"
        }
      ],
      "stateMutability": "view",
      "type": "function"
    },
    {
      "inputs": [],
      "name": "getFinalizedStateRoot",
      "outputs": [
        {
          "internalType": "bytes32",
          "name": "",
          "type": "bytes32"
        }
      ],
      "stateMutability": "view",
      "type": "function"
    },
    {
      "inputs": [
        {
          "components": [
            {
              "internalType": "bytes",
              "name": "signature",
              "type": "bytes"
            },
            {
              "internalType": "bool[32]",
              "name": "participants",
              "type": "bool[32]"
            },
            {
              "internalType": "bytes32",
              "name": "latestBlockRoot",
              "type": "bytes32"
            },
            {
              "internalType": "bytes32",
              "name": "signingDomain",
              "type": "bytes32"
            },
            {
              "internalType": "uint64",
              "name": "latestSlot",
              "type": "uint64"
            },
            {
              "internalType": "bytes32[]",
              "name": "latestSlotBranch",
              "type": "bytes32[]"
            },
            {
              "internalType": "bytes32",
              "name": "finalizedBlockRoot",
              "type": "bytes32"
            },
            {
              "internalType": "bytes32[]",
              "name": "finalizingBranch",
              "type": "bytes32[]"
            },
            {
              "internalType": "uint64",
              "name": "finalizedSlot",
              "type": "uint64"
            },
            {
              "internalType": "bytes32[]",
              "name": "finalizedSlotBranch",
              "type": "bytes32[]"
            },
            {
              "internalType": "bytes32",
              "name": "finalizedStateRoot",
              "type": "bytes32"
            },
            {
              "internalType": "bytes32[]",
              "name": "finalizedStateRootBranch",
              "type": "bytes32[]"
            },
            {
              "internalType": "bytes32",
              "name": "stateRoot",
              "type": "bytes32"
            },
            {
              "internalType": "bytes32[]",
              "name": "stateRootBranch",
              "type": "bytes32[]"
            }
          ],
          "internalType": "struct ChainRelayUpdate",
          "name": "_chainRelayUpdate",
          "type": "tuple"
        },
        {
          "components": [
            {
              "internalType": "bytes[32]",
              "name": "nextNextValidatorSet",
              "type": "bytes[32]"
            },
            {
              "internalType": "bytes",
              "name": "nextNextValidatorSetAggregate",
              "type": "bytes"
            },
            {
              "internalType": "bytes32[]",
              "name": "nextNextValidatorSetBranch",
              "type": "bytes32[]"
            }
          ],
          "internalType": "struct SyncCommitteeUpdate",
          "name": "_syncCommitteeUpdate",
          "type": "tuple"
        }
      ],
      "name": "submitUpdate",
      "outputs": [
        {
          "internalType": "bool",
          "name": "",
          "type": "bool"
        }
      ],
      "stateMutability": "nonpayable",
      "type": "function"
    },
    {
      "inputs": [
        {
          "internalType": "bytes[32]",
          "name": "_pubkeys",
          "type": "bytes[32]"
        },
        {
          "internalType": "bool[32]",
          "name": "_isActive",
          "type": "bool[32]"
        },
        {
          "internalType": "uint256",
          "name": "_numberOfActive",
          "type": "uint256"
        }
      ],
      "name": "getActiveValidators",
      "outputs": [
        {
          "internalType": "bytes[]",
          "name": "",
          "type": "bytes[]"
        }
      ],
      "stateMutability": "pure",
      "type": "function"
    },
    {
      "inputs": [
        {
          "internalType": "bool[32]",
          "name": "_bools",
          "type": "bool[32]"
        }
      ],
      "name": "countTrueBools",
      "outputs": [
        {
          "internalType": "uint256",
          "name": "",
          "type": "uint256"
        }
      ],
      "stateMutability": "pure",
      "type": "function"
    },
    {
      "inputs": [
        {
          "internalType": "bytes32",
          "name": "_message",
          "type": "bytes32"
        },
        {
          "internalType": "bytes",
          "name": "_signature",
          "type": "bytes"
        },
        {
          "internalType": "bytes[]",
          "name": "_pubkeys",
          "type": "bytes[]"
        }
      ],
      "name": "serializeAggregateSignature",
      "outputs": [
        {
          "internalType": "bytes",
          "name": "",
          "type": "bytes"
        }
      ],
      "stateMutability": "pure",
      "type": "function"
    },
    {
      "inputs": [
        {
          "internalType": "bytes",
          "name": "_input",
          "type": "bytes"
        }
      ],
      "name": "fastAggregateVerify",
      "outputs": [
        {
          "internalType": "bool",
          "name": "o",
          "type": "bool"
        }
      ],
      "stateMutability": "view",
      "type": "function"
    },
    {
      "inputs": [
        {
          "internalType": "uint256",
          "name": "_slot",
          "type": "uint256"
        }
      ],
      "name": "slotToUnixTimestamp",
      "outputs": [
        {
          "internalType": "uint256",
          "name": "timestamp",
          "type": "uint256"
        }
      ],
      "stateMutability": "pure",
      "type": "function"
    },
    {
      "inputs": [
        {
          "internalType": "bytes32",
          "name": "_input",
          "type": "bytes32"
        }
      ],
      "name": "bytes32ToBytes",
      "outputs": [
        {
          "internalType": "bytes",
          "name": "output",
          "type": "bytes"
        }
      ],
      "stateMutability": "pure",
      "type": "function"
    },
    {
      "inputs": [
        {
          "internalType": "bytes2",
          "name": "_input",
          "type": "bytes2"
        }
      ],
      "name": "bytes2ToBytes",
      "outputs": [
        {
          "internalType": "bytes",
          "name": "output",
          "type": "bytes"
        }
      ],
      "stateMutability": "pure",
      "type": "function"
    },
    {
      "inputs": [
        {
          "internalType": "bytes32",
          "name": "_left",
          "type": "bytes32"
        },
        {
          "internalType": "bytes32",
          "name": "_right",
          "type": "bytes32"
        }
      ],
      "name": "concat",
      "outputs": [
        {
          "internalType": "bytes",
          "name": "",
          "type": "bytes"
        }
      ],
      "stateMutability": "pure",
      "type": "function"
    },
    {
      "inputs": [
        {
          "internalType": "bytes32",
          "name": "_left",
          "type": "bytes32"
        },
        {
          "internalType": "bytes32",
          "name": "_right",
          "type": "bytes32"
        }
      ],
      "name": "hashTreeRootPair",
      "outputs": [
        {
          "internalType": "bytes32",
          "name": "",
          "type": "bytes32"
        }
      ],
      "stateMutability": "pure",
      "type": "function"
    },
    {
      "inputs": [
        {
          "internalType": "bytes",
          "name": "_blspubkey",
          "type": "bytes"
        }
      ],
      "name": "hashTreeRootBlspubkey",
      "outputs": [
        {
          "internalType": "bytes32",
          "name": "",
          "type": "bytes32"
        }
      ],
      "stateMutability": "pure",
      "type": "function"
    },
    {
      "inputs": [
        {
          "internalType": "bytes32",
          "name": "_blockRoot",
          "type": "bytes32"
        },
        {
          "internalType": "bytes32",
          "name": "_signingDomain",
          "type": "bytes32"
        }
      ],
      "name": "computeSigningRoot",
      "outputs": [
        {
          "internalType": "bytes32",
          "name": "",
          "type": "bytes32"
        }
      ],
      "stateMutability": "pure",
      "type": "function"
    },
    {
      "inputs": [
        {
          "internalType": "bytes",
          "name": "_input",
          "type": "bytes"
        }
      ],
      "name": "bytesToBytes8",
      "outputs": [
        {
          "internalType": "bytes8",
          "name": "result",
          "type": "bytes8"
        }
      ],
      "stateMutability": "pure",
      "type": "function"
    },
    {
      "inputs": [
        {
          "internalType": "bytes",
          "name": "_input",
          "type": "bytes"
        }
      ],
      "name": "bytesToBytes32",
      "outputs": [
        {
          "internalType": "bytes32",
          "name": "result",
          "type": "bytes32"
        }
      ],
      "stateMutability": "pure",
      "type": "function"
    },
    {
      "inputs": [
        {
          "internalType": "bytes8",
          "name": "_input",
          "type": "bytes8"
        }
      ],
      "name": "revertBytes8",
      "outputs": [
        {
          "internalType": "bytes8",
          "name": "",
          "type": "bytes8"
        }
      ],
      "stateMutability": "pure",
      "type": "function"
    },
    {
      "inputs": [
        {
          "internalType": "uint64",
          "name": "_input",
          "type": "uint64"
        }
      ],
      "name": "merklelizeSlot",
      "outputs": [
        {
          "internalType": "bytes32",
          "name": "",
          "type": "bytes32"
        }
      ],
      "stateMutability": "pure",
      "type": "function"
    },
    {
      "inputs": [
        {
          "internalType": "uint256",
          "name": "_input",
          "type": "uint256"
        }
      ],
      "name": "bitLength",
      "outputs": [
        {
          "internalType": "uint256",
          "name": "",
          "type": "uint256"
        }
      ],
      "stateMutability": "pure",
      "type": "function"
    },
    {
      "inputs": [
        {
          "internalType": "uint256",
          "name": "_input",
          "type": "uint256"
        }
      ],
      "name": "nextPowOfTwo",
      "outputs": [
        {
          "internalType": "uint256",
          "name": "",
          "type": "uint256"
        }
      ],
      "stateMutability": "pure",
      "type": "function"
    },
    {
      "inputs": [
        {
          "internalType": "uint256",
          "name": "_input",
          "type": "uint256"
        }
      ],
      "name": "floorLog2",
      "outputs": [
        {
          "internalType": "uint256",
          "name": "",
          "type": "uint256"
        }
      ],
      "stateMutability": "pure",
      "type": "function"
    },
    {
      "inputs": [
        {
          "internalType": "bytes32[32]",
          "name": "_chunks",
          "type": "bytes32[32]"
        }
      ],
      "name": "merkleize",
      "outputs": [
        {
          "internalType": "bytes32",
          "name": "",
          "type": "bytes32"
        }
      ],
      "stateMutability": "pure",
      "type": "function"
    },
    {
      "inputs": [
        {
          "internalType": "bytes[32]",
          "name": "_syncCommittee",
          "type": "bytes[32]"
        },
        {
          "internalType": "bytes",
          "name": "_syncAggregate",
          "type": "bytes"
        }
      ],
      "name": "hashTreeRootSyncCommittee",
      "outputs": [
        {
          "internalType": "bytes32",
          "name": "",
          "type": "bytes32"
        }
      ],
      "stateMutability": "pure",
      "type": "function"
    },
    {
      "inputs": [
        {
          "internalType": "uint256",
          "name": "_generalizedIndex",
          "type": "uint256"
        }
      ],
      "name": "getSubtreeIndex",
      "outputs": [
        {
          "internalType": "uint256",
          "name": "",
          "type": "uint256"
        }
      ],
      "stateMutability": "pure",
      "type": "function"
    },
    {
      "inputs": [
        {
          "internalType": "bytes32",
          "name": "_root",
          "type": "bytes32"
        },
        {
          "internalType": "bytes32",
          "name": "_leaf",
          "type": "bytes32"
        },
        {
          "internalType": "uint256",
          "name": "_generalizedIndex",
          "type": "uint256"
        },
        {
          "internalType": "bytes32[]",
          "name": "_branch",
          "type": "bytes32[]"
        }
      ],
      "name": "validateMerkleBranch",
      "outputs": [
        {
          "internalType": "bool",
          "name": "",
          "type": "bool"
        }
      ],
      "stateMutability": "pure",
      "type": "function"
    }
  ],
  "bytecode": "0x60806040523480156200001157600080fd5b506040516200413b3803806200413b833981810160405281019062000037919062000463565b8a6000806101000a81548167ffffffffffffffff021916908367ffffffffffffffff16021790555089600060086101000a81548167ffffffffffffffff021916908367ffffffffffffffff1602179055508860019060206200009b9291906200017c565b508760219080519060200190620000b4929190620001d6565b50866022906020620000c89291906200017c565b508560429080519060200190620000e1929190620001d6565b508460438190555081604560006101000a81548167ffffffffffffffff021916908367ffffffffffffffff16021790555080604560086101000a81548167ffffffffffffffff021916908367ffffffffffffffff16021790555082604560106101000a81548167ffffffffffffffff021916908367ffffffffffffffff160217905550836044819055505050505050505050505050620007f0565b8260208101928215620001c3579160200282015b82811115620001c2578251829080519060200190620001b1929190620001d6565b509160200191906001019062000190565b5b509050620001d2919062000267565b5090565b828054620001e490620006c8565b90600052602060002090601f01602090048101928262000208576000855562000254565b82601f106200022357805160ff191683800117855562000254565b8280016001018555821562000254579182015b828111156200025357825182559160200191906001019062000236565b5b5090506200026391906200028f565b5090565b5b808211156200028b5760008181620002819190620002ae565b5060010162000268565b5090565b5b80821115620002aa57600081600090555060010162000290565b5090565b508054620002bc90620006c8565b6000825580601f10620002d05750620002f1565b601f016020900490600052602060002090810190620002f091906200028f565b5b50565b60006200030b620003058462000615565b620005ec565b9050808285602086028201111562000328576200032762000797565b5b60005b858110156200037d57815167ffffffffffffffff81111562000352576200035162000792565b5b80860162000361898262000419565b855260208501945060208401935050506001810190506200032b565b5050509392505050565b60006200039e62000398846200063e565b620005ec565b905082815260208101848484011115620003bd57620003bc6200079c565b5b620003ca84828562000692565b509392505050565b600082601f830112620003ea57620003e962000792565b5b6020620003f9848285620002f4565b91505092915050565b6000815190506200041381620007bc565b92915050565b600082601f83011262000431576200043062000792565b5b81516200044384826020860162000387565b91505092915050565b6000815190506200045d81620007d6565b92915050565b60008060008060008060008060008060006101608c8e0312156200048c576200048b620007a6565b5b60006200049c8e828f016200044c565b9b50506020620004af8e828f016200044c565b9a505060408c015167ffffffffffffffff811115620004d357620004d2620007a1565b5b620004e18e828f01620003d2565b99505060608c015167ffffffffffffffff811115620005055762000504620007a1565b5b620005138e828f0162000419565b98505060808c015167ffffffffffffffff811115620005375762000536620007a1565b5b620005458e828f01620003d2565b97505060a08c015167ffffffffffffffff811115620005695762000568620007a1565b5b620005778e828f0162000419565b96505060c06200058a8e828f0162000402565b95505060e06200059d8e828f0162000402565b945050610100620005b18e828f016200044c565b935050610120620005c58e828f016200044c565b925050610140620005d98e828f016200044c565b9150509295989b509295989b9093969950565b6000620005f86200060b565b9050620006068282620006fe565b919050565b6000604051905090565b600067ffffffffffffffff82111562000633576200063262000763565b5b602082029050919050565b600067ffffffffffffffff8211156200065c576200065b62000763565b5b6200066782620007ab565b9050602081019050919050565b6000819050919050565b600067ffffffffffffffff82169050919050565b60005b83811015620006b257808201518184015260208101905062000695565b83811115620006c2576000848401525b50505050565b60006002820490506001821680620006e157607f821691505b60208210811415620006f857620006f762000734565b5b50919050565b6200070982620007ab565b810181811067ffffffffffffffff821117156200072b576200072a62000763565b5b80604052505050565b7f4e487b7100000000000000000000000000000000000000000000000000000000600052602260045260246000fd5b7f4e487b7100000000000000000000000000000000000000000000000000000000600052604160045260246000fd5b600080fd5b600080fd5b600080fd5b600080fd5b600080fd5b6000601f19601f8301169050919050565b620007c78162000674565b8114620007d357600080fd5b50565b620007e1816200067e565b8114620007ed57600080fd5b50565b61393b80620008006000396000f3fe608060405234801561001057600080fd5b506004361061018e5760003560e01c80636e1e76b9116100de578063b1e9f2a011610097578063c36a13da11610071578063c36a13da1461057d578063e41bbcf8146105ad578063e92938ab146105dd578063f218850e1461060d5761018e565b8063b1e9f2a0146104ed578063b8ffb2e31461051d578063bfe370d91461054d5761018e565b80636e1e76b9146103cd5780637b9e6200146103fd5780637e7f232a1461042d57806390daece61461045d5780639eb51fce1461048d578063a9755eb1146104bd5761018e565b8063447b19671161014b578063533c371011610125578063533c37101461033157806356f07c06146103615780635c5528791461037f578063639f30c3146103af5761018e565b8063447b1967146102a157806345b8bafc146102d15780634c0999c7146103015761018e565b80630fb3d0cc146101935780631c8d7dea146101c35780632c26bfd4146101f3578063398fd9d4146102115780633fccb97b14610241578063404c2a7114610271575b600080fd5b6101ad60048036038101906101a891906126a1565b61063d565b6040516101ba9190612b57565b60405180910390f35b6101dd60048036038101906101d8919061236d565b610d94565b6040516101ea9190612b35565b60405180910390f35b6101fb610e77565b6040516102089190612b72565b60405180910390f35b61022b60048036038101906102269190612658565b610e81565b6040516102389190612b57565b60405180910390f35b61025b60048036038101906102569190612719565b610ed8565b6040516102689190612d4a565b60405180910390f35b61028b60048036038101906102869190612746565b610efd565b6040516102989190612b72565b60405180910390f35b6102bb60048036038101906102b69190612311565b610f2d565b6040516102c89190612d4a565b60405180910390f35b6102eb60048036038101906102e69190612719565b610f90565b6040516102f89190612d4a565b60405180910390f35b61031b60048036038101906103169190612483565b610ff2565b6040516103289190612ba8565b60405180910390f35b61034b6004803603810190610346919061233f565b61101b565b6040516103589190612b72565b60405180910390f35b610369611131565b6040516103769190612b72565b60405180910390f35b61039960048036038101906103949190612658565b61113b565b6040516103a69190612b8d565b60405180910390f35b6103b761115f565b6040516103c49190612d65565b60405180910390f35b6103e760048036038101906103e2919061262b565b61117d565b6040516103f49190612b8d565b60405180910390f35b610417600480360381019061041291906124dd565b611266565b6040516104249190612ba8565b60405180910390f35b610447600480360381019061044291906125a0565b611292565b6040516104549190612ba8565b60405180910390f35b610477600480360381019061047291906123de565b611398565b6040516104849190612b72565b60405180910390f35b6104a760048036038101906104a291906124dd565b61142d565b6040516104b49190612b72565b60405180910390f35b6104d760048036038101906104d29190612456565b611490565b6040516104e49190612ba8565b60405180910390f35b61050760048036038101906105029190612719565b6114b9565b6040516105149190612d4a565b60405180910390f35b61053760048036038101906105329190612719565b6114e2565b6040516105449190612d4a565b60405180910390f35b61056760048036038101906105629190612658565b61151e565b6040516105749190612b72565b60405180910390f35b61059760048036038101906105929190612658565b611541565b6040516105a49190612b72565b60405180910390f35b6105c760048036038101906105c29190612719565b6115c6565b6040516105d49190612d4a565b60405180910390f35b6105f760048036038101906105f291906124dd565b6115f9565b6040516106049190612b72565b60405180910390f35b6106276004803603810190610622919061251d565b61160d565b6040516106349190612b57565b60405180910390f35b600080610652846040015185606001516115f9565b905060006106638560200151610f2d565b905060008054906101000a900467ffffffffffffffff1667ffffffffffffffff168110156106c6576040517f08c379a00000000000000000000000000000000000000000000000000000000081526004016106bd90612caa565b60405180910390fd5b6106e18560400151866101800151600b886101a0015161160d565b610720576040517f08c379a000000000000000000000000000000000000000000000000000000000815260040161071790612d2a565b60405180910390fd5b61074185604001516107358760800151610efd565b60088860a0015161160d565b5061075c8561018001518660c0015160698860e0015161160d565b506107808560c00151610773876101000151610efd565b600888610120015161160d565b5061079c8560c00151866101400151600b88610160015161160d565b6107db576040517f08c379a00000000000000000000000000000000000000000000000000000000081526004016107d290612bca565b60405180910390fd5b604560009054906101000a900467ffffffffffffffff1667ffffffffffffffff16856080015167ffffffffffffffff16101561084c576040517f08c379a000000000000000000000000000000000000000000000000000000000815260040161084390612c6a565b60405180910390fd5b604560109054906101000a900467ffffffffffffffff1667ffffffffffffffff1685610100015167ffffffffffffffff1610156108be576040517f08c379a00000000000000000000000000000000000000000000000000000000081526004016108b590612c2a565b60405180910390fd5b6000604560089054906101000a900467ffffffffffffffff1686608001516108e691906131a8565b67ffffffffffffffff16905060006102006020610903919061311a565b8261090e9190612f78565b1415610a3c576109f86109f38488600001516109ee6001602080602002604051908101604052809291906000905b828210156109df578382018054610952906132aa565b80601f016020809104026020016040519081016040528092919081815260200182805461097e906132aa565b80156109cb5780601f106109a0576101008083540402835291602001916109cb565b820191906000526020600020905b8154815290600101906020018083116109ae57829003601f168201915b50505050508152602001906001019061093c565b505050508b6020015188610d94565b611292565b610e81565b610a37576040517f08c379a0000000000000000000000000000000000000000000000000000000008152600401610a2e90612c8a565b60405180910390fd5b610d15565b60016102006020610a4d919061311a565b82610a589190612f78565b1415610cd957610b42610b3d848860000151610b386022602080602002604051908101604052809291906000905b82821015610b29578382018054610a9c906132aa565b80601f0160208091040260200160405190810160405280929190818152602001828054610ac8906132aa565b8015610b155780601f10610aea57610100808354040283529160200191610b15565b820191906000526020600020905b815481529060010190602001808311610af857829003601f168201915b505050505081526020019060010190610a86565b505050508b6020015188610d94565b611292565b610e81565b610b81576040517f08c379a0000000000000000000000000000000000000000000000000000000008152600401610b7890612d0a565b60405180910390fd5b6000604560089054906101000a900467ffffffffffffffff16876101000151610baa91906131a8565b67ffffffffffffffff16905060016102006020610bc7919061311a565b82610bd29190612f78565b1415610cd3576000610bec87600001518860200151611398565b9050610c048861014001518260378a6040015161160d565b610c43576040517f08c379a0000000000000000000000000000000000000000000000000000000008152600401610c3a90612bea565b60405180910390fd5b60226001906020610c55929190611920565b5060426021908054610c66906132aa565b610c71929190611973565b5086600001516022906020610c87929190611a00565b50866020015160429080519060200190610ca2929190611a53565b50876101000151604560086101000a81548167ffffffffffffffff021916908367ffffffffffffffff160217905550505b50610d14565b6040517f08c379a0000000000000000000000000000000000000000000000000000000008152600401610d0b90612cea565b60405180910390fd5b5b8560c001516043819055508561014001516044819055508560800151604560006101000a81548167ffffffffffffffff021916908367ffffffffffffffff160217905550856101000151604560106101000a81548167ffffffffffffffff021916908367ffffffffffffffff1602179055506001935050505092915050565b606060008267ffffffffffffffff811115610db257610db1613457565b5b604051908082528060200260200182016040528015610de557816020015b6060815260200190600190039081610dd05790505b5090506000805b6020811015610e6a57858160208110610e0857610e07613428565b5b602002015115610e5757868160208110610e2557610e24613428565b5b6020020151838381518110610e3d57610e3c613428565b5b60200260200101819052508180610e539061330d565b9250505b8080610e629061330d565b915050610dec565b5081925050509392505050565b6000604354905090565b60008015610e925760019050610ed3565b610e9a611ad9565b6040518351602083826020880160055afa610eb457600080fd5b505080600060018110610eca57610ec9613428565b5b60200201519150505b919050565b6000635fc63057600c83610eec919061311a565b610ef69190612f22565b9050919050565b6000610f0b8260c01b61117d565b77ffffffffffffffffffffffffffffffffffffffffffffffff19169050919050565b6000806000905060005b6020811015610f865760011515848260208110610f5757610f56613428565b5b602002015115151415610f73578180610f6f9061330d565b9250505b8080610f7e9061330d565b915050610f37565b5080915050919050565b60006001821015610fd6576040517f08c379a0000000000000000000000000000000000000000000000000000000008152600401610fcd90612c0a565b60405180910390fd5b6001610fe1836115c6565b610feb9190613174565b9050919050565b6060816040516020016110059190612ad7565b6040516020818303038152906040529050919050565b60008061102860206114e2565b90506000602090505b8181101561104c5780806110449061330d565b915050611031565b5060005b61105982610f90565b81101561110f57600081600261106f9190612ffc565b905060005b838110156110fa576110bf86826020811061109257611091613428565b5b60200201518784846110a49190612f22565b602081106110b5576110b4613428565b5b602002015161142d565b8682602081106110d2576110d1613428565b5b6020020181815250506002826110e8919061311a565b816110f39190612f22565b9050611074565b505080806111079061330d565b915050611050565b508260006020811061112457611123613428565b5b6020020151915050919050565b6000604454905090565b6000808251141561115257600060c01b905061115a565b602082015190505b919050565b6000604560089054906101000a900467ffffffffffffffff16905090565b600080600867ffffffffffffffff81111561119b5761119a613457565b5b6040519080825280601f01601f1916602001820160405280156111cd5781602001600182028036833780820191505090505b50905060005b6008811015611254578381600881106111ef576111ee613428565b5b1a60f81b828260076112019190613174565b8151811061121257611211613428565b5b60200101907effffffffffffffffffffffffffffffffffffffffffffffffffffffffffffff1916908160001a905350808061124c9061330d565b9150506111d3565b5061125e8161113b565b915050919050565b6060828260405160200161127b929190612af2565b604051602081830303815290604052905092915050565b60606000825160f01b905060008067ffffffffffffffff8111156112b9576112b8613457565b5b6040519080825280601f01601f1916602001820160405280156112eb5781602001600182028036833780820191505090505b5090506113096112fa87610ff2565b8261177890919063ffffffff16565b905061131e858261177890919063ffffffff16565b905061133b61132c83611490565b8261177890919063ffffffff16565b905060005b845181101561138b5761137685828151811061135f5761135e613428565b5b60200260200101518361177890919063ffffffff16565b915080806113839061330d565b915050611340565b5080925050509392505050565b60006113a2611afb565b60005b60208110156113fd576113ce8582602081106113c4576113c3613428565b5b6020020151611541565b8282602081106113e1576113e0613428565b5b60200201818152505080806113f59061330d565b9150506113a5565b5060006114098261101b565b9050600061141f8261141a87611541565b61142d565b905080935050505092915050565b6000600261143b8484611266565b6040516114489190612b1e565b602060405180830381855afa158015611465573d6000803e3d6000fd5b5050506040513d601f19601f8201168201806040525081019061148891906124b0565b905092915050565b6060816040516020016114a39190612abc565b6040516020818303038152906040529050919050565b60006114c482610f90565b60026114d09190612ffc565b826114db919061336a565b9050919050565b6000808214156114f55760019050611519565b61150a6001836115059190613174565b6115c6565b60026115169190612ffc565b90505b919050565b60008082511415611534576000801b905061153c565b602082015190505b919050565b60008061155b60006020856118029092919063ffffffff16565b9050600061157660206010866118029092919063ffffffff16565b90506115a160405180604001604052806010815260200160008152508261177890919063ffffffff16565b90506115bd6115af8361151e565b6115b88361151e565b61142d565b92505050919050565b600080600090505b600083146115f057600183901c925080806115e89061330d565b9150506115ce565b80915050919050565b6000611605838361142d565b905092915050565b600080611619846114b9565b9050600061162685610f90565b9050600086905060005b8281101561176757600160028260026116499190612ffc565b866116549190612f78565b61165e919061336a565b14156116de57600261168a87838151811061167c5761167b613428565b5b602002602001015184611266565b6040516116979190612b1e565b602060405180830381855afa1580156116b4573d6000803e3d6000fd5b5050506040513d601f19601f820116820180604052508101906116d791906124b0565b9150611754565b6002611704838884815181106116f7576116f6613428565b5b6020026020010151611266565b6040516117119190612b1e565b602060405180830381855afa15801561172e573d6000803e3d6000fd5b5050506040513d601f19601f8201168201806040525081019061175191906124b0565b91505b808061175f9061330d565b915050611630565b508781149350505050949350505050565b6060806040519050835180825260208201818101602087015b818310156117ae5780518352602083019250602081019050611791565b50855192508351830184528091508282019050602086015b818310156117e357805183526020830192506020810190506117c6565b50601f19601f8851850115830101166040525050508091505092915050565b606081601f836118129190612f22565b1015611853576040517f08c379a000000000000000000000000000000000000000000000000000000000815260040161184a90612c4a565b60405180910390fd5b818361185f9190612f22565b845110156118a2576040517f08c379a000000000000000000000000000000000000000000000000000000000815260040161189990612cca565b60405180910390fd5b60608215600081146118c35760405191506000825260208201604052611914565b6040519150601f8416801560200281840101858101878315602002848b0101015b8183101561190157805183526020830192506020810190506118e4565b50868552601f19601f8301166040525050505b50809150509392505050565b8260208101928215611962579182015b82811115611961578282908054611946906132aa565b611951929190611b1e565b5091600101919060010190611930565b5b50905061196f9190611bab565b5090565b82805461197f906132aa565b90600052602060002090601f0160209004810192826119a157600085556119ef565b82601f106119b257805485556119ef565b828001600101855582156119ef57600052602060002091601f016020900482015b828111156119ee5782548255916001019190600101906119d3565b5b5090506119fc9190611bcf565b5090565b8260208101928215611a42579160200282015b82811115611a41578251829080519060200190611a31929190611a53565b5091602001919060010190611a13565b5b509050611a4f9190611bab565b5090565b828054611a5f906132aa565b90600052602060002090601f016020900481019282611a815760008555611ac8565b82601f10611a9a57805160ff1916838001178555611ac8565b82800160010185558215611ac8579182015b82811115611ac7578251825591602001919060010190611aac565b5b509050611ad59190611bcf565b5090565b6040518060200160405280600190602082028036833780820191505090505090565b604051806104000160405280602090602082028036833780820191505090505090565b828054611b2a906132aa565b90600052602060002090601f016020900481019282611b4c5760008555611b9a565b82601f10611b5d5780548555611b9a565b82800160010185558215611b9a57600052602060002091601f016020900482015b82811115611b99578254825591600101919060010190611b7e565b5b509050611ba79190611bcf565b5090565b5b80821115611bcb5760008181611bc29190611bec565b50600101611bac565b5090565b5b80821115611be8576000816000905550600101611bd0565b5090565b508054611bf8906132aa565b6000825580601f10611c0a5750611c29565b601f016020900490600052602060002090810190611c289190611bcf565b5b50565b6000611c3f611c3a84612da5565b612d80565b90508082856020860282011115611c5957611c58613495565b5b60005b85811015611c895781611c6f8882611f9c565b845260208401935060208301925050600181019050611c5c565b5050509392505050565b6000611ca6611ca184612dcb565b612d80565b90508082856020860282011115611cc057611cbf613495565b5b60005b85811015611cf05781611cd68882611fc6565b845260208401935060208301925050600181019050611cc3565b5050509392505050565b6000611d0d611d0884612df1565b612d80565b90508083825260208201905082856020860282011115611d3057611d2f613495565b5b60005b85811015611d605781611d468882611fc6565b845260208401935060208301925050600181019050611d33565b5050509392505050565b6000611d7d611d7884612e1d565b612d80565b90508082856020860282011115611d9757611d96613495565b5b60005b85811015611de557813567ffffffffffffffff811115611dbd57611dbc613486565b5b808601611dca8982612005565b85526020850194506020840193505050600181019050611d9a565b5050509392505050565b6000611e02611dfd84612e43565b612d80565b90508083825260208201905082856020860282011115611e2557611e24613495565b5b60005b85811015611e7357813567ffffffffffffffff811115611e4b57611e4a613486565b5b808601611e588982612005565b85526020850194506020840193505050600181019050611e28565b5050509392505050565b6000611e90611e8b84612e6f565b612d80565b905082815260208101848484011115611eac57611eab61349a565b5b611eb7848285613268565b509392505050565b600082601f830112611ed457611ed3613486565b5b6020611ee1848285611c2c565b91505092915050565b600082601f830112611eff57611efe613486565b5b6020611f0c848285611c93565b91505092915050565b600082601f830112611f2a57611f29613486565b5b8135611f3a848260208601611cfa565b91505092915050565b600082601f830112611f5857611f57613486565b5b6020611f65848285611d6a565b91505092915050565b600082601f830112611f8357611f82613486565b5b8135611f93848260208601611def565b91505092915050565b600081359050611fab8161387b565b92915050565b600081359050611fc081613892565b92915050565b600081359050611fd5816138a9565b92915050565b600081519050611fea816138a9565b92915050565b600081359050611fff816138c0565b92915050565b600082601f83011261201a57612019613486565b5b813561202a848260208601611e7d565b91505092915050565b60006105a0828403121561204a5761204961348b565b5b6120556101c0612d80565b9050600082013567ffffffffffffffff81111561207557612074613490565b5b61208184828501612005565b600083015250602061209584828501611ebf565b6020830152506104206120aa84828501611fc6565b6040830152506104406120bf84828501611fc6565b6060830152506104606120d4848285016122fc565b60808301525061048082013567ffffffffffffffff8111156120f9576120f8613490565b5b61210584828501611f15565b60a0830152506104a061211a84828501611fc6565b60c0830152506104c082013567ffffffffffffffff81111561213f5761213e613490565b5b61214b84828501611f15565b60e0830152506104e0612160848285016122fc565b6101008301525061050082013567ffffffffffffffff81111561218657612185613490565b5b61219284828501611f15565b610120830152506105206121a884828501611fc6565b6101408301525061054082013567ffffffffffffffff8111156121ce576121cd613490565b5b6121da84828501611f15565b610160830152506105606121f084828501611fc6565b6101808301525061058082013567ffffffffffffffff81111561221657612215613490565b5b61222284828501611f15565b6101a08301525092915050565b6000606082840312156122455761224461348b565b5b61224f6060612d80565b9050600082013567ffffffffffffffff81111561226f5761226e613490565b5b61227b84828501611f43565b600083015250602082013567ffffffffffffffff81111561229f5761229e613490565b5b6122ab84828501612005565b602083015250604082013567ffffffffffffffff8111156122cf576122ce613490565b5b6122db84828501611f15565b60408301525092915050565b6000813590506122f6816138d7565b92915050565b60008135905061230b816138ee565b92915050565b60006104008284031215612328576123276134a4565b5b600061233684828501611ebf565b91505092915050565b60006104008284031215612356576123556134a4565b5b600061236484828501611eea565b91505092915050565b60008060006104408486031215612387576123866134a4565b5b600084013567ffffffffffffffff8111156123a5576123a461349f565b5b6123b186828701611f43565b93505060206123c286828701611ebf565b9250506104206123d4868287016122e7565b9150509250925092565b600080604083850312156123f5576123f46134a4565b5b600083013567ffffffffffffffff8111156124135761241261349f565b5b61241f85828601611f43565b925050602083013567ffffffffffffffff8111156124405761243f61349f565b5b61244c85828601612005565b9150509250929050565b60006020828403121561246c5761246b6134a4565b5b600061247a84828501611fb1565b91505092915050565b600060208284031215612499576124986134a4565b5b60006124a784828501611fc6565b91505092915050565b6000602082840312156124c6576124c56134a4565b5b60006124d484828501611fdb565b91505092915050565b600080604083850312156124f4576124f36134a4565b5b600061250285828601611fc6565b925050602061251385828601611fc6565b9150509250929050565b60008060008060808587031215612537576125366134a4565b5b600061254587828801611fc6565b945050602061255687828801611fc6565b9350506040612567878288016122e7565b925050606085013567ffffffffffffffff8111156125885761258761349f565b5b61259487828801611f15565b91505092959194509250565b6000806000606084860312156125b9576125b86134a4565b5b60006125c786828701611fc6565b935050602084013567ffffffffffffffff8111156125e8576125e761349f565b5b6125f486828701612005565b925050604084013567ffffffffffffffff8111156126155761261461349f565b5b61262186828701611f6e565b9150509250925092565b600060208284031215612641576126406134a4565b5b600061264f84828501611ff0565b91505092915050565b60006020828403121561266e5761266d6134a4565b5b600082013567ffffffffffffffff81111561268c5761268b61349f565b5b61269884828501612005565b91505092915050565b600080604083850312156126b8576126b76134a4565b5b600083013567ffffffffffffffff8111156126d6576126d561349f565b5b6126e285828601612033565b925050602083013567ffffffffffffffff8111156127035761270261349f565b5b61270f8582860161222f565b9150509250929050565b60006020828403121561272f5761272e6134a4565b5b600061273d848285016122e7565b91505092915050565b60006020828403121561275c5761275b6134a4565b5b600061276a848285016122fc565b91505092915050565b600061277f8383612857565b905092915050565b600061279282612eb0565b61279c8185612ed3565b9350836020820285016127ae85612ea0565b8060005b858110156127ea57848403895281516127cb8582612773565b94506127d683612ec6565b925060208a019950506001810190506127b2565b50829750879550505050505092915050565b612805816131dc565b82525050565b61281c612817826131e8565b613356565b82525050565b61282b81613214565b82525050565b61284261283d82613214565b613360565b82525050565b6128518161321e565b82525050565b600061286282612ebb565b61286c8185612ee4565b935061287c818560208601613277565b612885816134a9565b840191505092915050565b600061289b82612ebb565b6128a58185612ef5565b93506128b5818560208601613277565b6128be816134a9565b840191505092915050565b60006128d482612ebb565b6128de8185612f06565b93506128ee818560208601613277565b80840191505092915050565b6000612907602f83612f11565b9150612912826134c7565b604082019050919050565b600061292a603283612f11565b915061293582613516565b604082019050919050565b600061294d603283612f11565b915061295882613565565b604082019050919050565b6000612970604383612f11565b915061297b826135b4565b606082019050919050565b6000612993600e83612f11565b915061299e82613629565b602082019050919050565b60006129b6603d83612f11565b91506129c182613652565b604082019050919050565b60006129d9602d83612f11565b91506129e4826136a1565b604082019050919050565b60006129fc602183612f11565b9150612a07826136f0565b604082019050919050565b6000612a1f601183612f11565b9150612a2a8261373f565b602082019050919050565b6000612a42605083612f11565b9150612a4d82613768565b606082019050919050565b6000612a65602a83612f11565b9150612a70826137dd565b604082019050919050565b6000612a88602c83612f11565b9150612a938261382c565b604082019050919050565b612aa78161324a565b82525050565b612ab681613254565b82525050565b6000612ac8828461280b565b60028201915081905092915050565b6000612ae38284612831565b60208201915081905092915050565b6000612afe8285612831565b602082019150612b0e8284612831565b6020820191508190509392505050565b6000612b2a82846128c9565b915081905092915050565b60006020820190508181036000830152612b4f8184612787565b905092915050565b6000602082019050612b6c60008301846127fc565b92915050565b6000602082019050612b876000830184612822565b92915050565b6000602082019050612ba26000830184612848565b92915050565b60006020820190508181036000830152612bc28184612890565b905092915050565b60006020820190508181036000830152612be3816128fa565b9050919050565b60006020820190508181036000830152612c038161291d565b9050919050565b60006020820190508181036000830152612c2381612940565b9050919050565b60006020820190508181036000830152612c4381612963565b9050919050565b60006020820190508181036000830152612c6381612986565b9050919050565b60006020820190508181036000830152612c83816129a9565b9050919050565b60006020820190508181036000830152612ca3816129cc565b9050919050565b60006020820190508181036000830152612cc3816129ef565b9050919050565b60006020820190508181036000830152612ce381612a12565b9050919050565b60006020820190508181036000830152612d0381612a35565b9050919050565b60006020820190508181036000830152612d2381612a58565b9050919050565b60006020820190508181036000830152612d4381612a7b565b9050919050565b6000602082019050612d5f6000830184612a9e565b92915050565b6000602082019050612d7a6000830184612aad565b92915050565b6000612d8a612d9b565b9050612d9682826132dc565b919050565b6000604051905090565b600067ffffffffffffffff821115612dc057612dbf613457565b5b602082029050919050565b600067ffffffffffffffff821115612de657612de5613457565b5b602082029050919050565b600067ffffffffffffffff821115612e0c57612e0b613457565b5b602082029050602081019050919050565b600067ffffffffffffffff821115612e3857612e37613457565b5b602082029050919050565b600067ffffffffffffffff821115612e5e57612e5d613457565b5b602082029050602081019050919050565b600067ffffffffffffffff821115612e8a57612e89613457565b5b612e93826134a9565b9050602081019050919050565b6000819050602082019050919050565b600081519050919050565b600081519050919050565b6000602082019050919050565b600082825260208201905092915050565b600082825260208201905092915050565b600082825260208201905092915050565b600081905092915050565b600082825260208201905092915050565b6000612f2d8261324a565b9150612f388361324a565b9250827fffffffffffffffffffffffffffffffffffffffffffffffffffffffffffffffff03821115612f6d57612f6c61339b565b5b828201905092915050565b6000612f838261324a565b9150612f8e8361324a565b925082612f9e57612f9d6133ca565b5b828204905092915050565b6000808291508390505b6001851115612ff357808604811115612fcf57612fce61339b565b5b6001851615612fde5780820291505b8081029050612fec856134ba565b9450612fb3565b94509492505050565b60006130078261324a565b91506130128361324a565b925061303f7fffffffffffffffffffffffffffffffffffffffffffffffffffffffffffffffff8484613047565b905092915050565b6000826130575760019050613113565b816130655760009050613113565b816001811461307b5760028114613085576130b4565b6001915050613113565b60ff8411156130975761309661339b565b5b8360020a9150848211156130ae576130ad61339b565b5b50613113565b5060208310610133831016604e8410600b84101617156130e95782820a9050838111156130e4576130e361339b565b5b613113565b6130f68484846001612fa9565b9250905081840481111561310d5761310c61339b565b5b81810290505b9392505050565b60006131258261324a565b91506131308361324a565b9250817fffffffffffffffffffffffffffffffffffffffffffffffffffffffffffffffff04831182151516156131695761316861339b565b5b828202905092915050565b600061317f8261324a565b915061318a8361324a565b92508282101561319d5761319c61339b565b5b828203905092915050565b60006131b382613254565b91506131be83613254565b9250828210156131d1576131d061339b565b5b828203905092915050565b60008115159050919050565b60007fffff00000000000000000000000000000000000000000000000000000000000082169050919050565b6000819050919050565b60007fffffffffffffffff00000000000000000000000000000000000000000000000082169050919050565b6000819050919050565b600067ffffffffffffffff82169050919050565b82818337600083830152505050565b60005b8381101561329557808201518184015260208101905061327a565b838111156132a4576000848401525b50505050565b600060028204905060018216806132c257607f821691505b602082108114156132d6576132d56133f9565b5b50919050565b6132e5826134a9565b810181811067ffffffffffffffff8211171561330457613303613457565b5b80604052505050565b60006133188261324a565b91507fffffffffffffffffffffffffffffffffffffffffffffffffffffffffffffffff82141561334b5761334a61339b565b5b600182019050919050565b6000819050919050565b6000819050919050565b60006133758261324a565b91506133808361324a565b9250826133905761338f6133ca565b5b828206905092915050565b7f4e487b7100000000000000000000000000000000000000000000000000000000600052601160045260246000fd5b7f4e487b7100000000000000000000000000000000000000000000000000000000600052601260045260246000fd5b7f4e487b7100000000000000000000000000000000000000000000000000000000600052602260045260246000fd5b7f4e487b7100000000000000000000000000000000000000000000000000000000600052603260045260246000fd5b7f4e487b7100000000000000000000000000000000000000000000000000000000600052604160045260246000fd5b600080fd5b600080fd5b600080fd5b600080fd5b600080fd5b600080fd5b600080fd5b6000601f19601f8301169050919050565b60008160011c9050919050565b7f6d65726b6c652070726f6f6620666f722066696e616c697a656420737461746560008201527f20726f6f74206e6f742076616c69640000000000000000000000000000000000602082015250565b7f6d65726b6c652070726f6f66206f66206e657874206e6578742073796e63206360008201527f6f6d6d6974746565206e6f742076616c69640000000000000000000000000000602082015250565b7f5f696e70757420746f20666c6f6f724c6f6732206d757374206265206c61726760008201527f6572206f7220657175616c207468616e20310000000000000000000000000000602082015250565b7f66696e616c697a656420626c6f636b206f6c646572207468616e206c6173742060008201527f66696e616c697a656420626c6f636b207365656e20627920636861696e20726560208201527f6c61790000000000000000000000000000000000000000000000000000000000604082015250565b7f736c6963655f6f766572666c6f77000000000000000000000000000000000000600082015250565b7f6c617465737420626c6f636b206f6c646572207468616e206c617374206c617460008201527f65737420626c6f636b207365656e20627920636861696e2072656c6179000000602082015250565b7f7369676e61747572652062792063757272656e742073796e6320636f6d6d697460008201527f746565206e6f742076616c696400000000000000000000000000000000000000602082015250565b7f6e6f7420656e6f756768207369676e6174757265207061727469636970616e7460008201527f7300000000000000000000000000000000000000000000000000000000000000602082015250565b7f736c6963655f6f75744f66426f756e6473000000000000000000000000000000600082015250565b7f6c617465737420736c6f7420646f6573206e6f7420696e64696361746520746860008201527f61742063757272656e74206f72206e6578742073796e6320636f6d6d6974746560208201527f6520697320726573706f6e7369626c6500000000000000000000000000000000604082015250565b7f7369676e6174757265206279206e6578742073796e6320636f6d6d697474656560008201527f206e6f742076616c696400000000000000000000000000000000000000000000602082015250565b7f6d65726b6c652070726f6f6620666f72206c617465737420737461746520726f60008201527f6f74206e6f742076616c69640000000000000000000000000000000000000000602082015250565b613884816131dc565b811461388f57600080fd5b50565b61389b816131e8565b81146138a657600080fd5b50565b6138b281613214565b81146138bd57600080fd5b50565b6138c98161321e565b81146138d457600080fd5b50565b6138e08161324a565b81146138eb57600080fd5b50565b6138f781613254565b811461390257600080fd5b5056fea26469706673582212205d403a89a797739e64c2279840035af4a59fc3255d6710b0f8e1e7798f8d9b3164736f6c63430008060033",
  "immutableReferences": {},
  "source": "// SPDX-License-Identifier: GPL-3.0-or-later\r\n\r\n// PLEASE NOTE: This is a prototype. Do not use it in production settings. \r\n\r\npragma solidity >=0.8.0 <0.9.0;\r\n\r\nimport \"../node_modules/solidity-bytes-utils/contracts/BytesLib.sol\";\r\n\r\n// debug settings\r\nbool constant MOCK_BLS_PRECOMPILE = false;\r\n\r\n// magic numbers\r\nuint constant FIRST_BEACON_BLOCK_UNIX_TIMESTAMP = 1606824023;\r\n\r\n// eth2 mainnet configuration\r\nuint constant SYNC_COMMITTEE_SIZE = 32;\r\nuint constant SECONDS_PER_SLOT = 12;\r\nuint constant SLOTS_PER_EPOCH = 32;\r\nuint constant EPOCHS_PER_SYNC_COMMITTEE_PERIOD = 512;\r\n\r\n// SSZ generalized indices\r\nuint constant FINALIZED_ROOT_INDEX = 105;\r\nuint constant FINALIZED_EPOCH_INDEX = 104;\r\nuint constant NEXT_SYNC_COMMITTEE_INDEX = 55;\r\nuint constant NEXT_SYNC_COMMITTEE_PUBKEYS_INDEX = 110;\r\nuint constant SLOT_INDEX = 8;\r\nuint constant STATE_ROOT_INDEX = 11;\r\n\r\nstruct ChainRelayUpdate {\r\n    bytes signature;\r\n    bool[SYNC_COMMITTEE_SIZE] participants;\r\n    bytes32 latestBlockRoot;\r\n    bytes32 signingDomain;\r\n    uint64 latestSlot;\r\n    bytes32[] latestSlotBranch; \r\n    bytes32 finalizedBlockRoot; \r\n    bytes32[] finalizingBranch; \r\n    uint64 finalizedSlot; \r\n    bytes32[] finalizedSlotBranch; \r\n    bytes32 finalizedStateRoot;\r\n    bytes32[] finalizedStateRootBranch;\r\n    bytes32 stateRoot;\r\n    bytes32[] stateRootBranch; \r\n}\r\n\r\nstruct SyncCommitteeUpdate {\r\n    bytes[SYNC_COMMITTEE_SIZE] nextNextValidatorSet;\r\n    bytes nextNextValidatorSetAggregate;\r\n    bytes32[] nextNextValidatorSetBranch;\r\n}\r\n\r\n/** \r\n * @title Chain Relay\r\n * @dev Implements a chain relay/light client for eth2 consensus post-altair (including sync committees)\r\n */\r\ncontract Eth2ChainRelay_32 {\r\n    using BytesLib for bytes;\r\n\r\n    uint64 private signatureThreshold; // 0 < signatureThreshold <= 512\r\n    uint64 private trustingPeriod; // validators are trusted for a certain time, ensuring they have not exited the validator set, in unix time\r\n    bytes[SYNC_COMMITTEE_SIZE] private currentValidatorSet;\r\n    bytes private currentValidatorSetAggregate;\r\n    bytes[SYNC_COMMITTEE_SIZE] private nextValidatorSet;\r\n    bytes private nextValidatorSetAggregate;\r\n    bytes32 private finalizedBlockRoot;\r\n    bytes32 private finalizedStateRoot; \r\n    uint64 private latestSlot;\r\n    uint64 private latestSlotWithValidatorSetChange;\r\n    uint64 private finalizedSlot;\r\n    \r\n    constructor(uint64 _signatureThreshold, \r\n                uint64 _trustingPeriod, \r\n                bytes[SYNC_COMMITTEE_SIZE] memory _currentValidatorSet, \r\n                bytes memory _currentValidatorSetAggregate,\r\n                bytes[SYNC_COMMITTEE_SIZE] memory _nextValidatorSet,\r\n                bytes memory _nextValidatorSetAggregate,\r\n                bytes32 _finalizedBlockRoot,\r\n                bytes32 _finalizedStateRoot,\r\n                uint64 _finalizedSlot,\r\n                uint64 _latestSlot,\r\n                uint64 _latestSlotWithValidatorSetChange) \r\n    {\r\n        signatureThreshold=_signatureThreshold;\r\n        trustingPeriod=_trustingPeriod;\r\n        currentValidatorSet=_currentValidatorSet;\r\n        currentValidatorSetAggregate=_currentValidatorSetAggregate;\r\n        nextValidatorSet=_nextValidatorSet;\r\n        nextValidatorSetAggregate=_nextValidatorSetAggregate;\r\n        finalizedBlockRoot=_finalizedBlockRoot;\r\n        latestSlot=_latestSlot;\r\n        latestSlotWithValidatorSetChange=_latestSlotWithValidatorSetChange;\r\n        finalizedSlot=_finalizedSlot;\r\n        finalizedStateRoot=_finalizedStateRoot;\r\n    }\r\n\r\n    function getLatestSlotWithValidatorSetChange() public view returns (uint64) {\r\n        return latestSlotWithValidatorSetChange;\r\n    }\r\n    \r\n    function getFinalizedBlockRoot() public view returns (bytes32) {\r\n        return finalizedBlockRoot;\r\n    }\r\n    \r\n    function getFinalizedStateRoot() public view returns (bytes32) {\r\n        return finalizedStateRoot;\r\n    }\r\n    \r\n    function submitUpdate(ChainRelayUpdate memory _chainRelayUpdate, SyncCommitteeUpdate memory _syncCommitteeUpdate) public returns (bool) {\r\n        bytes32 signingRoot = computeSigningRoot(_chainRelayUpdate.latestBlockRoot, _chainRelayUpdate.signingDomain);\r\n        uint numberOfParticipants = countTrueBools(_chainRelayUpdate.participants);\r\n        require(\r\n            numberOfParticipants >= signatureThreshold, \r\n            \"not enough signature participants\");\r\n        require(\r\n            validateMerkleBranch(\r\n                _chainRelayUpdate.latestBlockRoot, \r\n                _chainRelayUpdate.stateRoot, \r\n                STATE_ROOT_INDEX, \r\n                _chainRelayUpdate.stateRootBranch), \r\n            \"merkle proof for latest state root not valid\");\r\n        // the following checks are executed but ignored in order to allow for testing with sample SSZ/Eth2 data\r\n        /*require(*/\r\n            validateMerkleBranch(\r\n                _chainRelayUpdate.latestBlockRoot, \r\n                merklelizeSlot(_chainRelayUpdate.latestSlot), \r\n                SLOT_INDEX, \r\n                _chainRelayUpdate.latestSlotBranch)/*, \"merkle proof for latest slot not valid\")*/;\r\n        // the following checks are executed but ignored in order to allow for testing with sample SSZ/Eth2 data\r\n        /*require(*/\r\n            validateMerkleBranch(\r\n                _chainRelayUpdate.stateRoot, \r\n                _chainRelayUpdate.finalizedBlockRoot, \r\n                FINALIZED_ROOT_INDEX, \r\n                _chainRelayUpdate.finalizingBranch)/*, \"merkle proof for finalized block root not valid\")*/;\r\n        // the following checks are executed but ignored in order to allow for testing with sample SSZ/Eth2 data\r\n        /*require(*/\r\n            validateMerkleBranch(\r\n                _chainRelayUpdate.finalizedBlockRoot, \r\n                merklelizeSlot(_chainRelayUpdate.finalizedSlot), \r\n                SLOT_INDEX, \r\n                _chainRelayUpdate.finalizedSlotBranch)/*, \"merkle proof for finalized slot not valid\")*/;\r\n        require(\r\n            validateMerkleBranch(\r\n                _chainRelayUpdate.finalizedBlockRoot, \r\n                _chainRelayUpdate.finalizedStateRoot, \r\n                STATE_ROOT_INDEX, \r\n                _chainRelayUpdate.finalizedStateRootBranch), \r\n            \"merkle proof for finalized state root not valid\");\r\n        require(\r\n            _chainRelayUpdate.latestSlot >= latestSlot, \r\n            \"latest block older than last latest block seen by chain relay\");\r\n        require(\r\n            _chainRelayUpdate.finalizedSlot >= finalizedSlot, \r\n            \"finalized block older than last finalized block seen by chain relay\");\r\n        uint slot_distance = _chainRelayUpdate.latestSlot - latestSlotWithValidatorSetChange; \r\n        if ((slot_distance / (SLOTS_PER_EPOCH * EPOCHS_PER_SYNC_COMMITTEE_PERIOD)) == 0) {\r\n           require(\r\n               fastAggregateVerify(serializeAggregateSignature(\r\n                   signingRoot, \r\n                   _chainRelayUpdate.signature, \r\n                   getActiveValidators(currentValidatorSet, _chainRelayUpdate.participants, numberOfParticipants))), \r\n               \"signature by current sync committee not valid\");\r\n        } else if ((slot_distance / (SLOTS_PER_EPOCH * EPOCHS_PER_SYNC_COMMITTEE_PERIOD)) == 1) {\r\n            require(\r\n                fastAggregateVerify(serializeAggregateSignature(\r\n                    signingRoot, \r\n                    _chainRelayUpdate.signature, \r\n                    getActiveValidators(nextValidatorSet, _chainRelayUpdate.participants, numberOfParticipants))), \r\n                \"signature by next sync committee not valid\");\r\n            uint finalized_slot_distance = _chainRelayUpdate.finalizedSlot - latestSlotWithValidatorSetChange; \r\n            if ((finalized_slot_distance / (SLOTS_PER_EPOCH * EPOCHS_PER_SYNC_COMMITTEE_PERIOD)) == 1) { \r\n                bytes32 merklelizedNextNextSyncCommittee = hashTreeRootSyncCommittee(_syncCommitteeUpdate.nextNextValidatorSet, _syncCommitteeUpdate.nextNextValidatorSetAggregate);\r\n                require(\r\n                    validateMerkleBranch(\r\n                        _chainRelayUpdate.finalizedStateRoot, \r\n                        merklelizedNextNextSyncCommittee, \r\n                        NEXT_SYNC_COMMITTEE_INDEX, \r\n                        _syncCommitteeUpdate.nextNextValidatorSetBranch), \r\n                    \"merkle proof of next next sync committee not valid\");\r\n                currentValidatorSet = nextValidatorSet; \r\n                currentValidatorSetAggregate = nextValidatorSetAggregate;\r\n                nextValidatorSet = _syncCommitteeUpdate.nextNextValidatorSet; \r\n                nextValidatorSetAggregate = _syncCommitteeUpdate.nextNextValidatorSetAggregate;\r\n                latestSlotWithValidatorSetChange = _chainRelayUpdate.finalizedSlot;\r\n            }\r\n        } else {\r\n            revert(\"latest slot does not indicate that current or next sync committee is responsible\");\r\n        }\r\n        finalizedBlockRoot = _chainRelayUpdate.finalizedBlockRoot; \r\n        finalizedStateRoot = _chainRelayUpdate.finalizedStateRoot;\r\n        latestSlot = _chainRelayUpdate.latestSlot;\r\n        finalizedSlot = _chainRelayUpdate.finalizedSlot;\r\n        return true;\r\n    }\r\n    \r\n    function getActiveValidators(bytes[SYNC_COMMITTEE_SIZE] memory _pubkeys, bool[SYNC_COMMITTEE_SIZE] memory _isActive, uint _numberOfActive) public pure returns (bytes[] memory) {\r\n        bytes[] memory active_validators = new bytes[](_numberOfActive);\r\n        uint counter = 0;\r\n        for (uint i = 0; i < SYNC_COMMITTEE_SIZE; i++) {\r\n            if (_isActive[i]) {\r\n                active_validators[counter] = _pubkeys[i];\r\n                counter++;\r\n            }\r\n        }\r\n        return active_validators;\r\n    }\r\n    \r\n    function countTrueBools(bool[SYNC_COMMITTEE_SIZE] memory _bools) public pure returns (uint) {\r\n        uint counter = 0;\r\n        for (uint i = 0; i < SYNC_COMMITTEE_SIZE; i++) {\r\n            if (_bools[i] == true) {\r\n                counter++;\r\n            }\r\n        }\r\n        return counter;\r\n    }\r\n\r\n    function serializeAggregateSignature(bytes32 _message, bytes memory _signature, bytes[] memory _pubkeys) public pure returns (bytes memory) {\r\n        bytes2 length = bytes2(uint16(_pubkeys.length));\r\n        bytes memory serialized = new bytes(0);\r\n        serialized = serialized.concat(bytes32ToBytes(_message));\r\n        serialized = serialized.concat(_signature);\r\n        serialized = serialized.concat(bytes2ToBytes(length));\r\n        for (uint i = 0; i < _pubkeys.length; i++) {\r\n            serialized = serialized.concat(_pubkeys[i]);\r\n        }\r\n        /* fallback w/o library\r\n        bytes memory serialized = new bytes(32+96+2+48*_pubkeys.length);\r\n        for (uint i = 0; i < 32; i++) {\r\n            serialized[i] = _message[i];\r\n        }\r\n        for (uint i = 32; i < 128; i++) {\r\n            serialized[i] = _signature[i-32];\r\n        }\r\n        for (uint i = 128; i < 130; i++) {\r\n            serialized[i] = length[i-128];\r\n        }\r\n        for (uint i = 0; i < _pubkeys.length; i++) {\r\n            for (uint j = 0; j < 48; j++) {\r\n            //for (uint j = 0; j < _pubkeys[i].length; j++) {\r\n                serialized[32+96+2+i*48+j] = _pubkeys[i][j];\r\n            }\r\n        }*/\r\n        return serialized;\r\n    }\r\n    \r\n    function fastAggregateVerify(bytes memory _input) public view returns (bool o) {\r\n        if (MOCK_BLS_PRECOMPILE) {\r\n            return true;\r\n        }\r\n        bool[1] memory outCache;\r\n        assembly {\r\n            let p := mload(0x40)\r\n            let length := mload(_input)\r\n            if iszero(staticcall(gas(), 0x05, add(_input,32), length, outCache, 32)) { // first 32 yte of _input are length\r\n                revert(0, 0)\r\n            }\r\n        }\r\n        o = outCache[0];\r\n    }\r\n    \r\n    function slotToUnixTimestamp(uint _slot) public pure returns (uint timestamp) {\r\n        return _slot * SECONDS_PER_SLOT + FIRST_BEACON_BLOCK_UNIX_TIMESTAMP;\r\n    }\r\n    \r\n    function bytes32ToBytes(bytes32 _input) public pure returns (bytes memory output) {\r\n        return abi.encodePacked(_input);\r\n    }\r\n    \r\n    function bytes2ToBytes(bytes2 _input) public pure returns (bytes memory output) {\r\n        return abi.encodePacked(_input);\r\n    }\r\n    \r\n    function concat(bytes32 _left, bytes32 _right) public pure returns (bytes memory) {\r\n        return bytes.concat(_left, _right);\r\n        // below is fallback code for older solidity versions\r\n        /*bytes memory concatenated;\r\n        for (uint i = 0; i<32; i++) {\r\n            concatenated[i] = left[i];\r\n        }\r\n        for (uint i = 0; i<32; i++) {\r\n            concatenated[i+32] = right[i];\r\n        }\r\n        return concatenated;*/\r\n    }\r\n\r\n    function hashTreeRootPair(bytes32 _left, bytes32 _right) public pure returns (bytes32) {\r\n        return sha256(concat(_left, _right));\r\n    }\r\n    \r\n    function hashTreeRootBlspubkey (bytes memory _blspubkey) public pure returns (bytes32) {\r\n        bytes memory blspubkeyMerkleizedLeft = _blspubkey.slice(0, 32);\r\n        bytes memory blspubkeyMerkleizedRight = _blspubkey.slice(32, 16);\r\n        blspubkeyMerkleizedRight = blspubkeyMerkleizedRight.concat(bytes(hex\"00000000000000000000000000000000\"));\r\n        /* fallback w/o library\r\n        bytes memory blspubkeyMerkleizedLeft = new bytes(32);\r\n        for (uint i = 0; i<32; i++) {\r\n            blspubkeyMerkleizedLeft[i] = _blspubkey[i];\r\n        }\r\n        bytes memory blspubkeyMerkleizedRight = new bytes(32);\r\n        for (uint i = 0; i<16; i++) { // rest of blspubkeyMerkleizedRight is initialized zero\r\n            blspubkeyMerkleizedRight[i] = _blspubkey[i+32];\r\n        }*/\r\n        return hashTreeRootPair(bytesToBytes32(blspubkeyMerkleizedLeft), bytesToBytes32(blspubkeyMerkleizedRight));\r\n    }\r\n    \r\n    function computeSigningRoot(bytes32 _blockRoot, bytes32 _signingDomain) public pure returns (bytes32) {\r\n        return hashTreeRootPair(_blockRoot, _signingDomain);\r\n    }\r\n    \r\n    function bytesToBytes8(bytes memory _input) public pure returns (bytes8 result) {\r\n        if (_input.length == 0) {\r\n            return 0x0;\r\n        }\r\n        assembly {\r\n            result := mload(add(_input, 32))\r\n        }\r\n    }\r\n    \r\n    function bytesToBytes32(bytes memory _input) public pure returns (bytes32 result) {\r\n        if (_input.length == 0) {\r\n            return 0x0;\r\n        }\r\n        assembly {\r\n            result := mload(add(_input, 32))\r\n        }\r\n    }\r\n\r\n    function revertBytes8(bytes8 _input) public pure returns (bytes8) {\r\n        bytes memory reverted = new bytes(8);\r\n        for (uint i = 0; i < 8; i++) {\r\n            reverted[7-i] = _input[i];\r\n        }\r\n        return bytesToBytes8(reverted);\r\n    }\r\n\r\n    function merklelizeSlot(uint64 _input) public pure returns (bytes32) {\r\n        return bytes32(revertBytes8(bytes8(_input)));\r\n    }\r\n    \r\n    function bitLength(uint _input) public pure returns (uint) {\r\n        uint length = 0;\r\n        while (_input != 0) \r\n        {\r\n            _input >>= 1; \r\n            length++; \r\n        }\r\n        return length;\r\n    }\r\n    \r\n    function nextPowOfTwo(uint _input) public pure returns (uint) {\r\n        if (_input == 0) {\r\n            return 1;\r\n        } else {\r\n            return 2**(bitLength(_input-1));\r\n        }\r\n    }\r\n    \r\n    function floorLog2 (uint _input) public pure returns (uint) {\r\n        require(_input >= 1, \"_input to floorLog2 must be larger or equal than 1\");\r\n        return bitLength(_input)-1;\r\n    }\r\n    \r\n    function merkleize(bytes32[SYNC_COMMITTEE_SIZE] memory _chunks) public pure returns (bytes32) {\r\n        uint length_next_pow = nextPowOfTwo(_chunks.length);\r\n        for (uint i = _chunks.length; i < length_next_pow; i++) {\r\n           // filling lowest level not necessary b/c size always 2^n\r\n        }\r\n        for (uint level = 0; level<floorLog2(length_next_pow); level++) {\r\n            uint step = 2**level;\r\n            for (uint current_accumulator = 0; current_accumulator < length_next_pow; current_accumulator += step*2) {\r\n                _chunks[current_accumulator] = hashTreeRootPair(_chunks[current_accumulator], _chunks[current_accumulator+step]);\r\n            }\r\n        }\r\n        return _chunks[0];\r\n    }\r\n    \r\n    function hashTreeRootSyncCommittee(bytes[SYNC_COMMITTEE_SIZE] memory _syncCommittee, bytes memory _syncAggregate) public pure returns (bytes32) {\r\n        bytes32[SYNC_COMMITTEE_SIZE] memory syncCommitteeHashed;\r\n        for (uint i = 0; i < SYNC_COMMITTEE_SIZE; i++) {\r\n            syncCommitteeHashed[i] = hashTreeRootBlspubkey(_syncCommittee[i]);\r\n        }\r\n        bytes32 syncCommitteeHashedMerkleized = merkleize(syncCommitteeHashed);\r\n        bytes32 syncCommitteeRoot = hashTreeRootPair(syncCommitteeHashedMerkleized, hashTreeRootBlspubkey(_syncAggregate));\r\n        return syncCommitteeRoot;\r\n    }\r\n    \r\n    function getSubtreeIndex(uint _generalizedIndex) public pure returns (uint) {\r\n        return _generalizedIndex % 2**(floorLog2(_generalizedIndex));\r\n    }\r\n    \r\n    function validateMerkleBranch(bytes32 _root, bytes32 _leaf, uint _generalizedIndex, bytes32[] memory _branch) public pure returns (bool) {\r\n        uint index = getSubtreeIndex(_generalizedIndex);\r\n        uint depth = floorLog2(_generalizedIndex);\r\n        bytes32 value = _leaf;\r\n        for (uint i = 0; i < depth; i++) {\r\n            if ((index / (2**i) % 2) == 1) {\r\n                value = sha256(concat(_branch[i],value));\r\n            } else {\r\n                value = sha256(concat(value,_branch[i]));\r\n            }\r\n        }\r\n        return value == _root;\r\n    }\r\n    \r\n}",
  "sourcePath": "/mnt/d/Documents/GitHub/ResearchProject/PoSChainRelayEthereumHolesky/contracts/Eth2ChainRelay_32.sol",
  "compiler": {
    "name": "solc",
    "version": "0.8.6+commit.11564f7e.Emscripten.clang"
  },
  "schemaVersion": "3.4.16",
  "updatedAt": "2024-01-18T07:45:27.534Z",
  "devdoc": {
    "details": "Implements a chain relay/light client for eth2 consensus post-altair (including sync committees)",
    "kind": "dev",
    "methods": {},
    "title": "Chain Relay",
    "version": 1
  },
  "userdoc": {
    "kind": "user",
    "methods": {},
    "version": 1
  }
}